:100000006F20006100000000BE260000BE26000038
:10001000A9BDF9F3BE2600000000000000000000AA
:10002000BE260000BE260000000000000000000008
:10003000BE26000000000000BE26000000000000F8
:10004000BE260000BE260000BE260000BE26000020
:10005000BE260000BE260000382700000000000079
:10006000BE260000BE260000BE260000BE26000000
:10007000BE260000BE260000BE260000BE260000F0
:10008000BE260000BE260000BE260000BE260000E0
:04009000010000006B
:10009400011122CE0010F32700302326F4FE83271B
:1000A400C4FE3E85724405618280011122CE001097
:1000B400F32710342326F4FE8327C4FE3E857244BE
:1000C40005618280011122CE0010F32720342326FB
:1000D400F4FE8327C4FE3E857244056182800111CB
:1000E40022CE0010F32730342326F4FE8327C4FEE7
:1000F4003E85724405618280011106CE22CC001037
:100104002326A4FE2324B4FE2322C4FE032684FE55
:100114008325C4FE0145EF107021832784FE3E85AC
:10012400F2406244056182805D7106D622D40018D3
:10013400232EA4FC4CC010C454C418C85CC8232C7F
:100144000401232E140193070402232CF4FC8327B7
:1001540084FD91172324F4FE832784FEBE860326A0
:10016400C4FD81451305C00FEF1060382326A4FE9B
:100174008327C4FE3E85B2502254616182800111FE
:1001840006CE22CC00102326A4FE2324B4FE83260C
:1001940084FE0326C4FE81451305C00FEF102035ED
:1001A400AA873E85F2406244056182805D7106D66D
:1001B40022D40018232EA4FC232CB4FC232AC4FC30
:1001C40054C418C85CC8232C0401232E14019307BB
:1001D40004022328F4FC832704FDB1172324F4FE2E
:1001E400832784FEBE86032644FD832584FD0325E0
:1001F400C4FDEF10C0272326A4FE8327C4FE3E853A
:10020400B2502254616182805D7106D622D40018F6
:10021400232EA4FC232CB4FC10C454C418C85CC8FA
:10022400232C0401232E140193070402232AF4FC33
:10023400832744FDA1172324F4FE832784FEBE866E
:10024400032684FDB707008093C5F7FF0325C4FD8B
:10025400EF10E0212326A4FE8327C4FE3E85B2507E
:10026400225461618280797122D60018232EA4FC65
:100274008327C4FD2326F4FE31A08327C4FD85070C
:10028400232EF4FC8327C4FD83C70700FDF703274F
:10029400C4FD8327C4FEB307F7403E85325445614D
:1002A4008280797106D622D40018232EA4FC232C34
:1002B400B4FC032684FD81450325C4FDEF00105BD7
:1002C4002326A4FE8327C4FE81CB0327C4FE8327F1
:1002D400C4FDB307F74019A0832784FD3E85B250BF
:1002E400225445618280797122D60018232EA4FC01
:1002F400232CB4FC232AC4FC8327C4FD2326F4FE48
:100304001DA0832784FD13F7F70F8327C4FE2380E2
:10031400E700832744FDFD17232AF4FC8327C4FE4A
:1003240085072326F4FE832744FDE1FF8327C4FDCC
:100334003E85325445618280797122D60018232E7D
:10034400A4FC232CB4FC8327C4FD2326F4FE19A8A3
:10035400832784FD8507232CF4FC8327C4FD8507AC
:10036400232EF4FC832784FD03C707008327C4FDE1
:100374002380E7008327C4FD83C70700F1FB83279D
:10038400C4FE3E85325445618280797122D60018BC
:10039400232EA4FC232CB4FC232AC4FC8327C4FDF1
:1003A4002326F4FE05A0832744FDFD17232AF4FC2D
:1003B400832784FD8507232CF4FC8327C4FD85074C
:1003C400232EF4FC832744FD91CF832784FD03C7A8
:1003D40007008327C4FD2380E7008327C4FD83C768
:1003E4000700F1F38327C4FE3E85325445618280C1
:1003F400011122CE00102326A4FE2324B4FE19A842
:100404008327C4FE85072326F4FE832784FE8507FD
:100414002324F4FE8327C4FE03C70700832784FE36
:1004240083C707006317F7008327C4FE83C7070049
:10043400E1FB8327C4FE83C707003E87832784FE2E
:1004440083C70700B307F7403E8572440561828085
:10045400797122D60018232EA4FC232CB4FC232A61
:10046400C4FC8327C4FD2326F4FE832784FD2324B0
:10047400F4FE832744FD1387F7FF232AE4FC95E366
:10048400814795A08327C4FE85072326F4FE83278E
:1004940084FE85072324F4FE832744FDFD17232AC5
:1004A400F4FC8327C4FE83C707009DC3832784FE0F
:1004B40083C7070091CF832744FD99CB8327C4FECC
:1004C40003C70700832784FE83C70700E30CF7FAFA
:1004D4008327C4FE83C707003E87832784FE83C720
:1004E4000700B307F7403E85325445618280797135
:1004F40022D60018232EA4FC232CB4FC832784FDCD
:1005040083C70700A207139707014187832784FD48
:10051400850783C70700C207C187D98FC207C18770
:100524002316F4FE8327C4FD83C70700A20713978D
:10053400070141878327C4FD850783C70700C207D6
:10054400C187D98FC207C1872317F4FE8327C4FD4F
:100554008507232EF4FC3DA08357E4FEA2071397DE
:10056400070141878327C4FD8507232EF4FC8327D5
:10057400C4FD83C70700C207C187D98FC207C187DB
:100584002317F4FE8327C4FD83C7070099C70357C5
:10059400E4FE8357C4FEE311F7FC8327C4FD83C73D
:1005A400070089C78327C4FDFD1711A081473E8535
:1005B400325445618280797122D60018232EA4FC1E
:1005C400232CB4FC832784FD83C70700E207032799
:1005D40084FD0507034707004207D98F032784FDDD
:1005E4000907034707002207D98F2324F4FE832732
:1005F400C4FD83C70700E2070327C4FD05070347BB
:1006040007004207D98F0327C4FD090703470700E2
:100614002207D98F2326F4FE8327C4FD8907232EBE
:10062400F4FC0DA08327C4FD8507232EF4FC832747
:10063400C4FD83C707003E878327C4FED98FA20762
:100644002326F4FE8327C4FD83C7070099C7032725
:10065400C4FE832784FEE317F7FC8327C4FD83C706
:10066400070089C78327C4FDF91711A081473E8578
:10067400325445618280797122D60018232EA4FC5D
:10068400232CB4FC832784FD83C70700E2070327D8
:1006940084FD0507034707004207D98F032784FD1C
:1006A4000907034707002207D98F032784FD0D0795
:1006B40003470700D98F2324F4FE8327C4FD83C78F
:1006C4000700E2070327C4FD0507034707004207A5
:1006D400D98F0327C4FD0907034707002207D98FD1
:1006E4000327C4FD0D0703470700D98F2326F4FE13
:1006F4008327C4FD8D07232EF4FC05A08327C4FEA5
:10070400A2070327C4FD0507232EE4FC0327C4FD29
:1007140003470700D98F2326F4FE8327C4FD83C72C
:10072400070099C70327C4FE832784FEE318F7FC58
:100734008327C4FD83C7070089C78327C4FDF51732
:1007440011A081473E85325445618280130101B96D
:10075400232611462324814613040147232EA4B8DB
:10076400232CB4B8232004FA232204FA232404FA01
:10077400232604FA232804FA232A04FA232C04FA4D
:10078400232E04FA232404FE71A0032784B98327AB
:1007940084FEBA9783C70700958393F7F70F8A07F8
:1007A400130704FFBA9703A707FB832684B983279B
:1007B40084FEB69783C70700FD8B8546B397F60082
:1007C400032684B9832684FEB29683C606009582E6
:1007D40093F6F60F5D8F93972600930604FFB69762
:1007E40023A8E7FA032784B9832784FEBA9783C72B
:1007F4000700BE86832784FE13871700939726007D
:10080400930604FFB69723A8E7BA832784FE8507D7
:100814002324F4FE032784B9832784FEBA9783C76D
:10082400070089CB0327C4B9832784FEBA9783C7FB
:100834000700A1FF032784B9832784FEBA9783C7DF
:10084400070099C3814741A1FD572322F4FE2320C9
:1008540004FE8547232CF4FC832784FD232EF4FC1B
:10086400F1A0032744FE8327C4FDBA97032784B964
:10087400BA9703C70700832604FE8327C4FDB697EF
:10088400832684B9B69783C707006319F702032741
:10089400C4FD832784FD631DF700032704FE83271B
:1008A40084FDBA972320F4FE8547232EF4FCBDA8CB
:1008B4008327C4FD8507232EF4FC8DA8032744FE5B
:1008C4008327C4FDBA97032784B9BA9703C70700DF
:1008D400832604FE8327C4FDB697832684B9B6977E
:1008E40083C7070063F5E702032704FE8327C4FDDB
:1008F400BA972320F4FE8547232EF4FC032704FE35
:10090400832744FEB307F740232CF4FC05A0832778
:1009140004FE138717002320E4FE2322F4FE8547F8
:10092400232CF4FC832784FD232EF4FC032704FEEC
:100934008327C4FDBA97032784FEE3E4E7F2832701
:1009440044FE232AF4FC832784FD2324F4FCFD576E
:100954002322F4FE232004FE8547232CF4FC832762
:1009640084FD232EF4FCF1A0032744FE8327C4FD59
:10097400BA97032784B9BA9703C70700832604FEEE
:100984008327C4FDB697832684B9B69783C7070027
:100994006319F7020327C4FD832784FD631DF70051
:1009A400032704FE832784FDBA972320F4FE85479A
:1009B400232EF4FCBDA88327C4FD8507232EF4FC55
:1009C4008DA8032744FE8327C4FDBA97032784B95F
:1009D400BA9703C70700832604FE8327C4FDB6978E
:1009E400832684B9B69783C707006375F702032784
:1009F40004FE8327C4FDBA972320F4FE8547232EE3
:100A0400F4FC032704FE832744FEB307F740232C9A
:100A1400F4FC05A0832704FE138717002320E4FEBB
:100A24002322F4FE8547232CF4FC832784FD232E04
:100A3400F4FC032704FE8327C4FDBA97032784FE2E
:100A4400E3E4E7F2832744FE13871700832744FD7A
:100A5400850763F7E700832744FE232AF4FC29A0D3
:100A6400832784FC232CF4FC032784B9832784FD87
:100A74003E97832744FD85073E86BA85032584B9BE
:100A84006121AA8785C7232604FC032784FE8327C4
:100A940044FDB307F7401387F7FF832744FD63F34F
:100AA400E700BA878507232CF4FC09A8032784FEF2
:100AB400832784FDB307F7402326F4FC232804FC92
:100AC4008327C4B92326F4FE0327C4FE8327C4B9AD
:100AD400B307F7403E87832784FE637BF7048327AD
:100AE40084FE93E7F7032322F4FC032644FC8145A8
:100AF4000325C4FEA52B2320A4FC832704FC95C353
:100B0400832704FC2326F4FE0327C4FE8327C4B9E9
:100B1400B307F7403E87832784FE637BF700814752
:100B24005DA20327C4FE832744FCBA972326F4FE60
:100B3400832784FEFD170327C4B9BA9783C7070028
:100B4400958393F7F70F8A07130704FFBA9703A750
:100B540007FB832784FEFD178326C4B9B69783C792
:100B64000700FD8B8546B397F600F98FA1CF832745
:100B740084FEFD170327C4B9BA9783C707008A0701
:100B8400130704FFBA9783A707BB032784FEB307A1
:100B9400F740232EF4FC8327C4FD9DCF0327C4FD17
:100BA400832704FD6376F700832704FD232EF4FCDA
:100BB4000327C4B98327C4FDBA97232EF4B8232886
:100BC40004FC09A20327C4B9832784FEBA97232E01
:100BD400F4B8232804FCFDA0832744FD13871700E1
:100BE400832704FD63F3E700BA87232EF4FC31A0C6
:100BF4008327C4FD8507232EF4FC032784B98327A8
:100C0400C4FDBA9783C707008DC3032784B983271C
:100C1400C4FDBA9703C707008326C4B98327C4FD5C
:100C2400B69783C70700E305F7FC032784B9832736
:100C3400C4FDBA9783C7070099CF0327C4FD832750
:100C440044FDB307F7400327C4B9BA97232EF4B879
:100C5400232804FC85A8832744FD8507232EF4FC60
:100C640031A08327C4FDFD17232EF4FC0327C4FD04
:100C7400832704FD63F4E7028327C4FDFD170327DC
:100C840084B9BA9703C707008327C4FDFD178326D9
:100C9400C4B9B69783C70700E305F7FC0327C4FD6F
:100CA400832704FD63E5E7008327C4B929A8032744
:100CB400C4B9832784FDBA97232EF4B88327C4FCD0
:100CC4002328F4FC11B53E858320C14603248146C4
:100CD400130101478280797122D60018232EA4FCC7
:100CE400232CB4FC832784FD93F7F70F232CF4FC07
:100CF4008327C4FD83C70700A307F4FE8347F4FEDC
:100D0400032784FD6315F7008327C4FD21A88347C7
:100D1400F4FE99E3814739A08327C4FD8507232E78
:100D2400F4FCF9B73E85325445618280011106CE48
:100D340022CC00102326A4FE2324B4FE832784FEA1
:100D440083C7070081E78327C4FE75A8832784FE31
:100D540083C70700BE850325C4FEB53F2326A4FE32
:100D64008327C4FE99C7832784FE850783C70700AA
:100D740081E78327C4FE41A88327C4FE850783C770
:100D8400070099E3814741A0832784FE890783C72D
:100D9400070089EB832584FE0325C4FEEFF02FF5BD
:100DA400AA8795A08327C4FE890783C7070099E310
:100DB400814791A8832784FE8D0783C7070089EBA9
:100DC400832584FE0325C4FEEFF0EFFEAA8725A841
:100DD4008327C4FE8D0783C7070099E3814725A0B5
:100DE400832784FE910783C7070081EB832584FE54
:100DF4000325C4FE4930AA8739A0832584FE032530
:100E0400C4FEA932AA873E85F2406244056182800D
:100E1400797122D60018232EA4FC232CB4FC232A97
:100E2400C4FC8327C4FD2326F4FE832784FD93F7A3
:100E3400F70F232CF4FC1DA00327C4FE832744FDD5
:100E4400BA9783C707003E87832784FD6398E7002A
:100E54000327C4FE832744FDBA9709A8832744FDCA
:100E64001387F7FF232AE4FCE1FB81473E853254D4
:100E740045618280011106CE22CC00102326A4FEF7
:100E84002324B4FE0325C4FEEFF0EFBDAA87850733
:100E94003E86832584FE0325C4FE9D3FAA873E85A6
:100EA400F240624405618280797122D60018232EB3
:100EB400A4FC232CB4FC232AC4FC8327C4FD2326CE
:100EC400F4FE832784FD2324F4FE35A0032784FE47
:100ED400930717002324F4FE8327C4FE9386170088
:100EE4002326D4FE034707002380E700832744FD1D
:100EF400FD17232AF4FC832744FDE9FB8327C4FD63
:100F04003E85325445618280797122D60018232EA1
:100F1400A4FC232CB4FC232AC4FC8327C4FD23266D
:100F2400F4FE832784FD2324F4FE05A0832744FDD7
:100F3400FD17232AF4FC8327C4FE85072326F4FE29
:100F4400832784FE85072324F4FE832744FD99CB5D
:100F54008327C4FE03C70700832784FE83C70700D3
:100F6400E306F7FC832744FD89CF8327C4FE83C7A8
:100F740007003E87832784FE83C70700B307F74033
:100F840011A081473E85325445618280797106D62D
:100F940022D40018232EA4FC232CB4FC232AC4FC42
:100FA4008327C4FD2326F4FE832784FD2324F4FE33
:100FB4000327C4FE832784FE6315F7008327C4FE3A
:100FC4004DA0032784FE8327C4FE1D8F832744FD81
:100FD4001D8F832644FD8147958F860763EBE700C9
:100FE400032644FD832584FE0325C4FE753DAA879C
:100FF4008DA80327C4FE832784FE637FF70435A0EE
:10100400032784FE930717002324F4FE8327C4FEDA
:10101400938617002326D4FE034707002380E700A6
:10102400832744FDFD17232AF4FC832744FDE9FBB1
:101034003DA0832744FDFD17232AF4FC032784FEE7
:10104400832744FD3E978326C4FE832744FDB69739
:10105400034707002380E700832744FDF9FB832728
:10106400C4FD3E85B250225445618280797122D6F6
:101074000018232EA4FC232CB4FC232AC4FC8327AD
:10108400C4FD2326F4FE832784FD93F7F70F232C56
:10109400F4FC19A88327C4FE85072326F4FE8327BE
:1010A40044FDFD17232AF4FC832744FD91CB8327B9
:1010B400C4FE83C707003E87832784FDE39CE7FCC7
:1010C400832744FD81C78327C4FE11A081473E8541
:1010D400325445618280797106D622D40018232EB9
:1010E400A4FC0325C4FDEFF00F98AA872326F4FE81
:1010F4000326C4FE8325C4FD0145EF0030230546C5
:101104008D679385071B0145EF0050228327C4FE9A
:1011140085073E85B2502254456182805D71A2C626
:1011240080082326A4FC2324B4FC2322C4FC23200B
:10113400D4FC232EE4FA8327C4FB2326F4FE2324C1
:1011440004FE032784FCC14763F4E7008147A9A296
:101154008327C4FC63DE0700832704FC91EB8547E7
:101164002324F4FE8327C4FCB307F0402326F4FCB5
:101174000327C4FC832784FCB377F7022320F4FEFF
:10118400032704FEA54763CBE700832704FE93F7F8
:10119400F70F9387070313F7F70F1DA0832744FC6A
:1011A40081C79307100419A093071006032704FEB0
:1011B4001377F70FBA9793F7F70FD91713F7F70FBA
:1011C4008327C4FE938617002326D4FE2380E700DA
:1011D4000327C4FC832784FCB357F7022326F4FCBB
:1011E4008327C4FCE346F0F8832784FE99CB832746
:1011F400C4FE138717002326E4FE1307D0022380BE
:10120400E7008327C4FE238007000327C4FE832747
:10121400C4FBB307F740232EF4FC232204FE85A06D
:10122400832744FE0327C4FBBA9783C70700A30D93
:10123400F4FC0327C4FD832744FEB307F740FD17DE
:101244000327C4FB3E97832744FE8326C4FBB6973B
:10125400034707002380E7000327C4FD832744FED8
:10126400B307F740FD170327C4FBBA970347B4FD40
:101274002380E700832744FE85072322F4FE832787
:10128400C4FD13D7F701BA9785873E87832744FEA9
:10129400E3C8E7F88327C4FD3E8536446161828054
:1012A400397122DE8000232EA4FC232CB4FCB287E7
:1012B4002328D4FC2326E4FCA30BF4FC232404FEFF
:1012C4008327C4FC2322F4FE832704FD89E78327B4
:1012D40084FD2328F4FC032784FD832704FD63D9BC
:1012E400E700832704FD232CF4FC85472324F4FE24
:1012F400032704FD832784FDB307F7402326F4FE68
:1013040005A0832744FE138717002322E4FE034726
:1013140074FD2380E7008327C4FEFD172326F4FE13
:101324008327C4FEE34FF0FC832784FD2326F4FEC9
:1013340035A00327C4FD93071700232EF4FC83274D
:1013440044FE938617002322D4FE0347070023801C
:10135400E7008327C4FEFD172326F4FE8327C4FE7B
:10136400E349F0FC032744FE8327C4FCB307F7409A
:10137400232CF4FC832784FE9DCF232604FE0DA09A
:10138400832744FE1387F7FF2322E4FEFD17130788
:10139400A0022380E7008327C4FE85072326F4FEEA
:1013A4000327C4FE894763C8E700032744FE832755
:1013B400C4FCE3E7E7FC832784FD3E857254216186
:1013C4008280797122D60018232EA4FC232CB4FC2D
:1013D400232AC4FC832744FD81E7832784FD61A07D
:1013E400832744FD2324F4FE832784FE9C43232285
:1013F400F4FE232604FEA1A0832784FED84383277A
:1014040084FE9443832784FE9C47FD17B697630F9D
:10141400F7028327C4FE0327C4FD3E97832784FE77
:10142400DC4313861700832684FED0C203470700DB
:101434002380E7008327C4FE85072326F4FE0327C1
:10144400C4FE832784FDE349F7FA11A00100832732
:1014540084FEDC4323800700832784FED84383274C
:1014640044FEB307F7403E8532544561828079716A
:1014740006D622D40018232EA4FC232CB4FC232A41
:10148400C4FC2328D4FC8327C4FD2320F4FE832733
:10149400C4FD2322F4FE832784FD2324F4FE832742
:1014A40084FD99E3232E04FC8327C4FD81C793079D
:1014B40004FE11A08147832604FD032644FDBE8556
:1014C40085671385673C25202326A4FE8327C4FD56
:1014D40081E78327C4FE39A0032744FE832704FE43
:1014E400B307F7403E85B25022544561828059715A
:1014F40086D6A2D48018232EA4F8232CB4F8232A49
:10150400C4F82328D4F88327C4F981EB856793872B
:10151400673C232EF4F8232C04F8232604FEBDA6EE
:10152400034774FA930750026302F70285472324A2
:10153400F4FE930774FA0327C4F9032684F9832578
:1015440084FE3E8502972324A4FE15AE9307000271
:10155400A303F4FE232004FEA30F04FC832744F911
:1015640013871700232AE4F883C70700A303F4FAB8
:10157400034774FA93070003631FF70293070003FA
:10158400A303F4FE0DA8032704FEBA878A07BA97BB
:1015940086073E87834774FA938707FDBA9723200B
:1015A400F4FE832744F913871700232AE4F883C73A
:1015B4000700A303F4FA034774FA9307F00263F8ED
:1015C400E700034774FA93079003E3FEE7FA03275F
:1015D40004FEE14763D5E700E1472320F4FE034717
:1015E40074FA9307C006631FF7008547A30FF4FC42
:1015F400832744F913871700232AE4F883C70700D5
:10160400A303F4FA834774FA6381072A63C907249E
:10161400130780076345F7241307800563C1E72494
:10162400938787FA13070002636BF7221397270047
:101634008D679387471BBA979C4382878347F4FD42
:101644009DCB832704F9138747002328E4F89C43A0
:101654003E85834774FA9387B7F893B7170093F7D7
:10166400F70FBE86930784FA3E870146A9457D3469
:101674002324A4FE89A8034774FA9307500763142C
:10168400F702832704F9138747002328E4F89C43CF
:101694003E85930784FA3E8785460146A945BD3CAD
:1016A4002324A4FE0DA0832704F9138747002328CD
:1016B400E4F89C43130784FA81460146A9453E8514
:1016C400B13C2324A4FE130704FC034674FE9307D1
:1016D40084FA832604FE832584FE3E85D1362324A2
:1016E400A4FE930704FC0327C4F9032684F9832585
:1016F40084FE3E8502972324A4FE51A28347F4FD71
:101704009DCB832704F9138747002328E4F89C43DF
:101714003E85834774FA938787FA93B7170093F744
:10172400F70F3E86930784FA3E878546C145FD320E
:101734002324A4FE15A8832704F91387470023282C
:10174400E4F89C433E85834774FA938787FA93B7FA
:10175400170093F7F70F3E86930784FA3E87854672
:10176400C1456D3A2324A4FE130704FC034674FE0A
:10177400930784FA832604FE832584FE3E850D3672
:101784002324A4FE930704FC0327C4F9032684F945
:10179400832584FE3E8502972324A4FECDA08327BF
:1017A40004F9138747002328E4F89C4393F7F70FC1
:1017B400A303F4FA130704FC034674FE930774FAB4
:1017C400832604FE85453E85E13C2324A4FE93073D
:1017D40004FC0327C4F9032684F9832584FE3E858B
:1017E40002972324A4FE61A8832704F913874700E2
:1017F4002328E4F89C43232CF4FC032584FDEFE028
:101804009FA6AA872324F4FE832704FE635DF002C7
:10181400130704FC834774FE832604FE3E86832557
:1018240084FE032584FDAD3C2324A4FE930704FC1D
:101834000327C4F9032684F9832584FE3E85029791
:101844002324A4FE2DA88327C4F9032684F9832521
:1018540084FE032584FD82972324A4FE0DA08547DE
:101864002324F4FE930774FA0327C4F9032684F9A6
:10187400832584FE3E8502972324A4FE01000327CA
:10188400C4FE832784FEBA972326F4FE832744F9F3
:1018940013871700232AE4F883C70700A303F4FA85
:1018A400834774FAE39E07C611A001008327C4FE90
:1018B4003E85B6502654656182805D7106D622D479
:1018C4000018232EA4FC232CB4FC232AC4FC54C4E7
:1018D40018C85CC8232C0401232E140193070402A6
:1018E4002328F4FC832704FDB1172324F4FE832763
:1018F40084FEBE86032644FD832584FD0325C4FDA2
:10190400BD362326A4FE8327C4FE3E85B25022544E
:10191400616182805D7106D622D40018232EA4FC56
:10192400232CB4FC232AC4FC54C418C85CC8232C3C
:101934000401232E1401930704022328F4FC8327B3
:1019440004FDB1172324F4FE832784FEBE860326F8
:1019540044FD832584FD0325C4FD513E2326A4FEB6
:101964008327C4FE3E85B25022546161828079711E
:1019740022D60018232EA4FC0100B70700E09387A9
:1019840007349C4393F70708EDFBB70700E0938700
:101994000734372730781307870898C3F14723267D
:1019A400F4FE8DA00100B70700E0938707349C4341
:1019B40093F70708EDFB8327C4FE0327C4FDB35741
:1019C400F700BD8B2324F4FE032784FEA54763C5DB
:1019D400E7009307000319A093077005032784FE0B
:1019E400BA972324F4FE832784FEA20713E757083B
:1019F400B70700E09387073498C38327C4FEF11721
:101A04002326F4FE8327C4FEE3DE07F80100010069
:101A14003254456182802320150040C104C5232629
:101A2400250023282501232A3501232C4501232EB3
:101A340055012320650323227503232485032326CC
:101A440095032328A503232AB503014582800100B9
:101A54003E8583200500404104450321C500032938
:101A6400050183294501032A8501832AC501032B26
:101A74000502832B4502032C8502832CC502032D0A
:101A84000503832D450313B515002E95828001119E
:101A940022CE00102326A4FE2324B4FE01007244A7
:101AA40005618280797106D622D40018232EA4FC05
:101AB4008327C4FD9C432326F4FE8327C4FE93F7A7
:101AC400F703F1172324F4FE832784FE635EF000FA
:101AD400032784FEBD4763C9E7008327C4FD850748
:101AE400BE85032584FE65370100B250225445614A
:101AF4008280011106CE22CC0010B70700E0938744
:101B040007342326F4FE8327C4FE9C4393F7070877
:101B140089EB0325C4FE79378327C4FE13074008E5
:101B240098C30100F240624405618280397106DE87
:101B340022DC80002326A4FC2324B4FC2322C4FC3E
:101B4400B70700E0938707349C4313F7070C930708
:101B5400000C6314F700814755AA232C04FC2326A8
:101B640004FEB70710002324F4FE832744FC639784
:101B74000718B70700E0938707349C43232EF4FC2F
:101B84008327C4FD638C07168327C4FD93F70708D6
:101B940063960716B70700E0138507342137B9AAFF
:101BA400032744FC8327C4FEB307F7402322F4FE33
:101BB400032744FE9D4763DBE7029D472322F4FE8F
:101BC40035A0832784FE1387F7FF2324E4FE99EFCF
:101BD400B70700E0938707349843B70700E093877B
:101BE40007341367070C98C381470DA2B70700E0B9
:101BF400938707349C43232EF4FC8327C4FD93F777
:101C04000708E1F38327C4FD91C7B70700E01385F4
:101C14000734493DB70710002324F4FE8D472320E1
:101C2400F4FE0DA8032704FE8327C4FEBA973E875B
:101C3400832784FC3E97832704FEF5170347070098
:101C4400930604FFB6972384E7FE832704FE8507E3
:101C54002320F4FE032704FE832744FEE344F7FC19
:101C6400130784FDB70700E093874734184398C3EC
:101C7400232004FE0DA8032704FE8327C4FEBA977D
:101C84003E87832784FC3E97832704FE850703470A
:101C94000700930604FFB6972384E7FE832704FE18
:101CA40085072320F4FE032704FE832744FE63579D
:101CB400F700032704FE8947E3DFE7FA832744FE9E
:101CC40093F7F70F910793F7F70FE207E18793E78D
:101CD40007F8E207E18793F7F70F230CF4FC1307E7
:101CE40084FDB70700E093870734184398C303279C
:101CF400C4FE832744FEBA972326F4FE0327C4FEBA
:101D0400832744FCE34EF7E8832744FC3E85F250E6
:101D1400625421618280797106D622D40018232E60
:101D2400A4FCB70700E0938707349C4313F7070C20
:101D34009307000C6314F7008147B5A8B707100098
:101D44002326F4FE232404FE35A08327C4FE138730
:101D5400F7FF2326E4FE99EFB70700E093870734E3
:101D64009843B70700E0938707341367070C98C3B9
:101D7400814791A0B70700E0938707349C4323244D
:101D8400F4FE832784FE93F70708E1F3832784FE98
:101D940091C7B70700E01385073429338327C4FDAF
:101DA40093F7F70FA20713E75708B70700E09387E5
:101DB400073498C385473E85B250225445618280DA
:101DC400411122C60008B70700E09387473423A0D7
:101DD4000700B70700E0938707341307000898C388
:101DE4000100324441018280011106CE22CC001050
:101DF4008D679387C7422326F4FE11A88327C4FE68
:101E04009C4382978327C4FE91072326F4FE03276D
:101E1400C4FE8D679387C742E362F7FE01000100A9
:101E2400F240624405618280797122D60018232E23
:101E3400A4FCB7F700E003C787001377F70F83C646
:101E4400970093F6F60FA206558F83C6A70093F664
:101E5400F60FC206558F83C7B70093F7F70FE20753
:101E6400D98F2326F4FEBD67938707A62324F4FEA7
:101E74008327C4FD032784FEB307F7022322F4FE5D
:101E8400B9A08327C4FDA1C7B7F700E003C7870043
:101E94001377F70F83C6970093F6F60FA206558FB4
:101EA40083C6A70093F6F60FC206558F83C7B70003
:101EB40093F7F70FE207D98F3E878327C4FEB30752
:101EC400F740032744FE6374F700854701A8B7076A
:101ED40000E0938787349C43CDF781473E85325495
:101EE40045618280797122D60018232EA4FCB7F7AD
:101EF40000E003C787001377F70F83C6970093F6B4
:101F0400F60FA206558F83C6A70093F6F60FC206F6
:101F1400558F83C7B70093F7F70FE207D98F3E8732
:101F24008327C4FDBA972326F4FE0100B7F700E027
:101F340003C787001377F70F83C6970093F6F60F4E
:101F4400A206558F83C6A70093F6F60FC206558FD7
:101F540083C7B70093F7F70FE207D98F3E8783272C
:101F6400C4FEB307F740E3C307FC01000100325489
:101F740045618280011106CE22CC00109307A00493
:101F84002326F4FE0327C4FE9307000C631DF70405
:101F9400B717004093870704130770052380E700F1
:101FA400B717004093870704130780FA2380E700DC
:101FB40001000100B7170040A10783C7070013F70A
:101FC400F70FB7170040A107136707FC1377F70F44
:101FD4002380E700B7170040938707042380070096
:101FE400010001003DA28327C4FE13F7070C9307E9
:101FF40000046316F708B717004093870704130714
:1020040070052380E700B717004093870704130780
:1020140080FA2380E70001000100B7170040A907F8
:1020240083C7070013F7F70FB7170040A907136713
:1020340007011377F70F2380E700B7270040938742
:10204400778005472380E700B727004093875780B0
:1020540083C7070013F7F70FB7270040938757800C
:10206400136707011377F70F2380E700B7170040C2
:1020740093870704238007000100010081A8B71794
:10208400004093870704130770052380E700B71700
:10209400004093870704130780FA2380E7000100B8
:1020A40001008327C4FEFD8B99C3894711A09D4776
:1020B40037270040130777802300F700B717004045
:1020C400938707042380070001000100B71700402D
:1020D40093870704130770052380E700B7170040B0
:1020E40093870704130780FA2380E70001000100A7
:1020F400B7170040A1070327C4FE1377F70F238007
:10210400E700B71700409387070423800700010006
:1021140001007D310100F2406244056182800111B9
:1021240022CE00102326A4FE8327C4FEFD8B054780
:10213400B316F70037E700E08327C4FE958393873F
:1021440007048A07BA9794C3010072440561828028
:10215400011122CE00102326A4FE8327C4FEFD8B8A
:102164000547B316F70037E700E08327C4FE9583DD
:10217400938707068A07BA9794C3010072440561DE
:102184008280011122CE0010938781C0054723AAC3
:10219400E708B7870040130700042386E7002326D7
:1021A40004FE25A88327C4FE9A0713870701938793
:1021B40081C0BA97BE868327C4FE13972700B787CA
:1021C4000040C107BA971397060141832390E700A3
:1021D4008327C4FE85072326F4FE0327C4FE854710
:1021E400E3D2E7FCB787004093872702494723805F
:1021F400E70085472324F4FE9DA8138781C0832725
:1022040084FE938747028A07BA979C43635FF00072
:10221400832784FE8A073E87B78700409387270277
:10222400BA9709472380E7003DA0138781C083271D
:1022340084FE938747028A07BA979C4363DD0700AD
:10224400832784FE8A073E87B78700409387270247
:10225400BA9723800700138781C0832784FEBA9727
:10226400238F0708832784FE85072324F4FE03278E
:1022740084FE8547E3D3E7F8010001007244056159
:102284008280411106C622C40008B7170040E10746
:1022940083D7070093960701C182B7170040E1076F
:1022A4000D67558F420741832390E700B7870040AD
:1022B40019472380E700B7870040238007001305F0
:1022C40060040D31B78700401D472381E700B787BD
:1022D4000040A3810700B7870040130790022380C2
:1022E400E700B78700407D572383E700593DB78750
:1022F4000040130710F8A380E70059450D358147C6
:102304003E85B240224441018280411106C622C466
:1023140000085945353DB7170040E10783D707004A
:1023240093960701C182B7170040E10775777D17BF
:10233400758F420741832390E700B7870040194710
:102344002380E700B787004023800700130560045B
:10235400513E0100B240224441018280011122CE4B
:1023640000102326A4FE138781C08327C4FEBA97D6
:1023740083C7E70993F7F70F99C3814709A8832710
:10238400C4FE9A0713870701938781C0BA973E85D5
:10239400724405618280011106CE22CC00102326EE
:1023A400A4FE2324B4FE938781C083C7070A93F74E
:1023B400F70F99EB138781C08327C4FEBA9783C7AD
:1023C400E70993F7F70F99C3FD5749A8938781C08D
:1023D40083D7270099C3F95751A0B787004083C713
:1023E400770093F7F70FE207E18763D40700F55707
:1023F400B5A05945B13B8327C4FE8A073E87B787FA
:10240400004093870702BA97032784FE1377F70FD8
:102414002380E7008327C4FE8A073E87B7870040EE
:1024240093872702BA9703C707008327C4FE8A0746
:10243400BE86B787004093872702B697719B1377B0
:10244400F70F2380E700138781C08327C4FEBA9760
:102454000547238FE7085945D93181473E85F24026
:10246400624405618280011106CE22CC001023262D
:10247400A4FE2324B4FE2322C4FE2320D4FE938787
:1024840081C083C7070A93F7F70F99EB138781C0BD
:102494008327C4FEBA9783C7E70993F7F70F99C355
:1024A400FD5721A2938781C083D7270091C79387C3
:1024B40081C083D72700D5A8B787004083C777009A
:1024C40093F7F70FE207E18763D40700F557F1A804
:1024D400832744FEB5CB832704FEA1CB8327C4FE08
:1024E4009A0713870701938781C0BA97BE8683270B
:1024F400C4FE13972700B7870040C107BA97139704
:10250400060141832390E7008327C4FE9A071387BB
:102514000701938781C0BA97032744FE3A8683252F
:1025240084FE3E85EFE05F9805A0832684FE832722
:10253400C4FE13972700B7870040C107BA971397C3
:10254400060141832390E7008327C4FE8A073E8760
:10255400B787004093870702BA97032744FE13778F
:10256400F70F2380E7008327C4FE8A073E87B787D7
:10257400004093872702BA9703C707008327C4FE46
:102584008A07BE86B787004093872702B697719B58
:102594001377F70F2380E700138781C08327C4FED6
:1025A400BA970547238FE70881473E85F240624486
:1025B40005618280011106CE22CC0010653AD1312A
:1025C400938781C083C7B700E5DF0545413BAA87F0
:1025D400E5DB054561332326A4FE8327C4FE23805F
:1025E40007008327C4FE8507238007008327C4FED2
:1025F40089077D572380E7008D450545693BB7571B
:1026040002001385079FEFF0FF8D5DBF97E1FF1F69
:102614009381C1DE171100201301819E138541C0EF
:102624009385C1CA6377B500232005001105E36DC6
:10263400B5FE17150000130565DF938541C01386A9
:1026440041C0638AC5008322050023A055001105FB
:102654009105E3EAC5FE93070000FD42739002BCB6
:1026640089629382828873A0023097E2FFFF93828B
:10267400229993E2320073905230B7F700E003C717
:102684000700018B136717002380E70003C71700B7
:10269400018BA380E70003C72700018B2381E70098
:1026A40003C73700018BA381E70089679387875BA2
:1026B40073901734730020300100EFD01F9FAA8756
:1026C4003E85EFF0CFAAEFD0BF9CAA873E85EFF0FE
:1026D4000FAAEFD0DFA0AA873E85EFF04FA9EFD075
:1026E4007F9EAA873E85EFF08FA80100B70700E020
:1026F400938707349C4393F70708EDFBB70700E083
:10270400938707340567130757A898C30100B707D1
:1027140000E0938707349C4393F70708EDFBB70762
:1027240000E09387073437B7AAAA130737A898C3DA
:1027340001A00100757106C716C51AC31EC1A2DE29
:10274400AADCAEDAB2D8B6D6BAD4BED2C2D0C6CE1D
:10275400F2CCF6CAFAC8FEC60009B787004099074A
:1027640083D707002311F4FA232604FA938781C040
:10277400232EF4F8938781C1232CF4F8835724FA89
:10278400898BE3880710835724FAB1878D8B232A1A
:10279400F4F8835724FAA187BD8B2328F4F883C760
:1027A40041C093F7F70F85C7938781C183C707009B
:1027B400BE86938781C183C717003E87032604F929
:1027C400832544F98D6713850732EFD0FF950327DE
:1027D40044F98D47630EF732032744F98D47E3C16B
:1027E400E70A832744F963860726032744F98947C0
:1027F400E318F708832704F9E5CF032704F985478D
:10280400E3C2E708832704F98A073E87B7870040B5
:1028140093872702BA9703C70700832704F98A0717
:10282400BE86B787004093872702B69713470704ED
:102834001377F70F2380E7008327C4FAA5C3832700
:10284400C4FA63D40700232604FA832704F98A0709
:102854003E87B787004093870702BA970327C4FAD5
:102864001377F70F2380E700832704F98A073E874D
:10287400B787004093872702BA9703C707008327C7
:1028840004F98A07BE86B787004093872702B69764
:10289400719B1377F70F2380E70099A0832704F92E
:1028A4008A073E87B787004093872702BA9783C772
:1028B4000700E207E187F19BE207E18793E727003E
:1028C400139787016187832704F98A07BE86B78730
:1028D400004093872702B6971377F70F2380E7000A
:1028E4000327C4F9832704F9BA97238F070859AF3C
:1028F4008327C4F983D7270089EBB78700409387E0
:102904002702130700F82380E7008327C4F92380F4
:10291400070A8327C4F9DC47C5CF8327C4F983D7C3
:10292400270093960701C182130700046374D7003C
:1029340093070004C207C1832326F4FA8327C4F94A
:10294400DC470327C4FA3A86BE85032584F9EFE001
:10295400AFD58327C4F903D727008327C4FAC20756
:10296400C183B307F7401397070141838327C4F951
:102974002391E7008327C4F983D7270099CB8327C2
:10298400C4F9D8478327C4FA3E978327C4F9D8C724
:1029940029A08327C4F923A60700B787004093879B
:1029A40007020327C4FA1377F70F2380E700B787DA
:1029B40000409387270203C70700B7870040938727
:1029C4002702134707041377F70F2380E7005DAD51
:1029D4008327C4F983C7170093F707069DC383278A
:1029E400C4F983D7270093960701C1821307000413
:1029F4006374D70093070004C207C1832326F4FA43
:102A040051A5938781C083C707003E87954763100C
:102A1400F704B787004083C7370093F7F70FE2073F
:102A2400E18793F707F81397870161878327C4F930
:102A340083C79700E207E187D98F139787016187DE
:102A4400B78700401377F70FA381E70011A00100B7
:102A540015ADB787004083C7870093F7F70F232688
:102A6400F4FA832704F9A5EB035724FA9167F98F45
:102A7400D1CF8327C4F983D727008DEF8327C4F9E7
:102A840083C71700E207E18763C707008327C4F9F8
:102A940005472380E70AB78700409387070223800E
:102AA4000700B78700409387270213070005238098
:102AB400E700A9A8B78700409387270203C7070048
:102AC400B787004093872702134707F81377F70F58
:102AD4002380E70025A8832704F98A073E87B78760
:102AE400004093872702BA9703C70700832704F996
:102AF4008A07BE86B787004093872702B697134795
:102B040007F81377F70F2380E70011A00100A5ABA6
:102B1400B787004083C7770093F7F70FE207E18791
:102B240063DE0754B7870040938727021307A0FD8D
:102B34002380E700938781C103C70700938781C07F
:102B4400A380E700938781C083C717002326F4F886
:102B5400938781C103C71700938781C02380E7004F
:102B6400938781C083C707002324F4F8938781C126
:102B740003C7670083C77700A207D98F139707019C
:102B84004183938781C02391E700938781C083D7D2
:102B940027002324F4FA938781C103C7470083C71E
:102BA4005700A207D98FC207C1832322F4F8938761
:102BB40081C103C7470083C75700A207D98FC20743
:102BC400C18313970701938781C183C6270083C7F5
:102BD4003700A207D58FC207C183D98F3E87938759
:102BE40081C0D8C3938781C0DC432320F4F883C712
:102BF40041C093F7F70F85C3832704F8032744F8EC
:102C0400832684FA032684F88325C4F80D65130506
:102C14000537EFD06FD1232604FA8327C4F893F73E
:102C24000706DDCF8327C4F813F7070693070002CE
:102C3400631AF734032784F8AD4763EDE73E83272F
:102C440084F8139727008D679387C73CBA979C43F2
:102C54008287832744F8634BF032832704F8A187E3
:102C640013F7F70F938681C0832744F8B697238E12
:102C7400E70829AE832744F8634CF030832704F82F
:102C840013F7F70F938681C0832744F8B697A38E72
:102C9400E708FDAC832744F8634EF02E138781C008
:102CA400832744F8BA9703C7C709832784F9238085
:102CB400E70085472326F4FAF1AC832744F8634DF3
:102CC400F02C138781C0832744F8BA9703C7D70928
:102CD400832784F92380E70085472326F4FA6DAC23
:102CE400032784F8AD4763E9E734832784F813970F
:102CF40027008D679387C73FBA979C4382878D6768
:102D04009387872D2322F4FA832744FA9387870431
:102D1400232EF4F615A8832744FA9843832704F84E
:102D2400631FF700832744FAD8438327C4F9D8C71D
:102D3400832744FA83C787002326F4FA21A883272C
:102D440044FAB1072322F4FA032744FA8327C4F789
:102D5400E313F7FC032744FA8327C4F76300F72E31
:102D64000327C4FA832784FA63D6E700832784FA07
:102D74002326F4FA8327C4FA139707014183832790
:102D8400C4F92391E7008327C4F9DC4313F7F70F51
:102D94008327C4F9A384E70019AC8327C4F903C7C4
:102DA4008700832784F92380E7008327C4F903D7A6
:102DB4002700854763F6E71E8327C4F90547239157
:102DC400E700F9AA8327C4F9DC4313F7F70F832735
:102DD400C4F92384E7008327C4F90547A385E700E2
:102DE400F9A28327C4F813F7F7018947631AF72474
:102DF400832704F893F7F70F63960724032704F94E
:102E0400854763C3E724832744F893F70708638F50
:102E140007220327C4F9832704F9938747028A0703
:102E2400BA979843FD576313F722832704F98A0757
:102E34003E87B787004093872702BA9709472380C4
:102E4400E700B5A28327C4F8FD8B6383072083279B
:102E5400C4F813F7F7018947631EF71E832704F8A4
:102E640093F7F70F639A071E032704F9854763CB8B
:102E7400E712832744F893F707086381071E0327A3
:102E8400C4F9832704F9938747028A07BA979843BA
:102E9400FD576315F71C832704F98A073E87B78714
:102EA400004093872702BA9703C70700832704F9D2
:102EB4008A07BE86B787004093872702B6971367B1
:102EC40037001377F70F2380E700E9A8832784F9F5
:102ED40023800700032784FA854763D7E70C8547D7
:102EE4002324F4FAD1A0832784F9238007008327BD
:102EF40084F98507238007008327C4F8FD8B91E7B5
:102F0400832784F923800700ADA08327C4F813F72F
:102F1400F70189476316F714032704F9854763C348
:102F2400E714832744F893F70708638F07120327EE
:102F3400C4F9832704F9938747028A07BA97984309
:102F4400FD576313F712832704F98A073E87B7876F
:102F5400004093872702BA9783C707008D8BF51724
:102F640093B7170093F7F70F3E87832784F92380DD
:102F7400E700032784FA894763DAE70289472324B1
:102F8400F4FA2DA0010025A0010015A0010005A060
:102F9400010031A8010021A8010011A8010001A825
:102FA400010031A0010021A0010011A0010083272C
:102FB400C4F893F70708A1C7832784FA130700040A
:102FC4006354F700930700042326F4FA032784FAD2
:102FD4008327C4FAB307F7402324F4FAB7870040E1
:102FE400938707020327C4FA1377F70F2380E700B8
:102FF400B7870040938727022380070069A08327AF
:1030040084FA85E3B787004093870702238007008B
:10301400B787004093872702130700042380E70043
:103024009DA0B787004093872702130700F92380E8
:10303400E70091A8010015A8010005A8010035A02A
:10304400010025A0010015A0010005A0010031A880
:10305400010021A8010011A8010001A8010031A06C
:10306400010021A0010011A00100B787004093874F
:1030740027021307F0FC2380E70031A0010021A000
:10308400010011A00100B787004009472383E7002E
:10309400C5A8835724FA858BB9C783C741C093F762
:1030A400F70F91C78D6713858739EFE0CF828327A8
:1030B400C4F9238407008327C4F9A3840700832762
:1030C400C4F9238507008327C4F9A3850700B787BC
:1030D4000040A3810700EFF0CF8AB787004005477F
:1030E4002383E70071A8835724FA918BADC783C764
:1030F40041C093F7F70F91C78D671385473AEFD017
:103104009FFDB787004011472383E7001305600440
:10311400EFE05FDDB787004083C7570093F7F70FF1
:10312400918B91CF8327C4F983C7A70093E7270026
:1031340013F7F70F8327C4F92385E70091A08327AA
:10314400C4F983C7A700F59B13F7F70F8327C4F9C6
:103154002385E70035A0B7870040035724FA137787
:10316400F70F2383E70083C741C093F7F70F89CB99
:10317400835724FABE858D671385473BEFC0DFFA7A
:103184000100BA40AA421A438A4376546655D6557A
:103194004656B656265796570658F648664ED64EA5
:1031A400464FB64F49617300203000000A0000000A
:1031B4000017000062180000621800006218000086
:1031C4006218000062180000621800006218000013
:1031D400621800006218000062180000A2170000C4
:1031E4004016000062180000621800006218000017
:1031F40062180000621800006218000062180000E3
:1032040062180000621800006218000062180000D2
:10321400621800006218000062180000EC17000039
:1032240062180000401600006218000062180000D6
:103234000017000012010002000000400912FFFF05
:10324400000101020001000005010902A1010901B8
:10325400A10005091901290315002501950375012C
:103264008102950175058103050109300931158134
:10327400257F750895028106C0C00000090222005E
:103284000101008032090400000103010200092148
:10329400110100012232000705810308000A000021
:1032A400040309040A035700430048000000000017
:1032B4002203430048003500370032002000480054
:1032C4004900440020004D006F0075007300650044
:1032D400000000000001000038320000120000006D
:1032E4000002000080320000220000000003000001
:1032F400A43200000400000001030904A832000005
:103304000A00000002030904B43200002200000095
:10331400002200004C320000320000005B55534292
:103324005D205452414E534645522C20746F6B65B8
:103334006E203D20253032782C206570203D2025DC
:10334400642C20626D52657175657374547970656F
:10335400203D20253032782C2062526571756573CA
:1033640074203D20253032780A0000005B5553421A
:103374005D2053455455503A20253032782025306D
:1033840032782025303264202530327820253034BC
:10339400780A00005B5553425D2052455345540062
:1033A4005B5553425D2053555350454E4400000035
:1033B4005B5553425D20696E7466677374203D20CB
:1033C400253034780A00000038300000383000001E
:1033D400982C0000BE2C000038300000383000006B
:1033E4003830000038300000383000008C2F0000E6
:1033F400562C0000782C0000EA2E0000E62D000078
:103404003C300000482E00003C3000008A2D0000B3
:10341400022D00003C3000009E2D0000C82D00004D
:08342400D02E0000A02F0000D3
:00000001FF
