:100000006F00C05C000000005006000050060000B9
:10001000A9BDF9F350060000000000000000000038
:100020005006000050060000000000000000000024
:100030005006000000000000500600000000000014
:100040005006000050060000500600005006000058
:10005000500600005006000050060000000000009E
:100060005006000050060000500600005006000038
:100070005006000050060000500600005006000028
:100080005006000050060000500600005006000018
:10009000370700E0832707349306073493F70708F0
:1000A000F5FBB7273078938787089CC271473706DE
:1000B00000E02548F1558327063493F70708E5FF4C
:1000C000B357E50093F6F700930700036354D80095
:1000D00093077005B697A20793E757082320F634D5
:1000E0007117E31AB7FC8280B7F700E09C4737F737
:1000F00000E03E951C47898FE3CE07FE8280B7075C
:1001000000E083A707348280370700E083270734A5
:10011000397106DE22DC26DA4AD84ED652D456D2BF
:100120005AD05ECE62CC66CA93F7070C9306000CD9
:10013000638AD70A02C62E84C5E98327073489C794
:1001400093F7070891E3653FF25022856254D25439
:100150004259B259225A925A025BF24B624CD24C2B
:1001600021618280B30C9440668963D39A011D4952
:1001700093071B0003270A3493060A3413760708F3
:1001800021EE11C3AD3F014663D49B011306D9FF95
:1001900093853400CE956800292BB24733879900A8
:1001A0002322FA3481470346070085077400BE9670
:1001B0002380C6006305F9000507E39687FF9307D0
:1001C000490093E707F82306F100B247CA942320B9
:1001D000FA34E3C984F88DBFFD17C9FF9C4293E749
:1001E000070C9CC201448DB7AA8981449D4A370BF4
:1001F0001000370A00E0894B0D4CE1BF93178501D1
:10020000E18763D9070EB71700401307000823AC36
:10021000E70A13070002B717004023ACE70A23A63A
:10022000E70A1377050471CF1307000823ACE70A28
:1002300013070002B717004023ACE70A23A6E70A1A
:100240001377050261C71307000823ACE70A1307F9
:100250000002B717004023ACE70A23A6E70A13778A
:10026000050155CB1307000823ACE70A130700026A
:10027000B717004023ACE70A23A6E70A13778500E7
:1002800045C31307000823ACE70A13070002B7179A
:10029000004023ACE70A23A6E70A1377450051C7BD
:1002A0001307000823ACE70A13070002B717004042
:1002B00023ACE70A23A6E70A1377250025CF130707
:1002C000000823ACE70A13070002B717004023AC6D
:1002D000E70A23A6E70A0589130700082DC123AC06
:1002E000E70AB71700401307000223ACE70A23A66A
:1002F000E70A8280B71700401307000823A6E70A21
:1003000009BF1307000823A6E70A1DB71307000853
:1003100023A6E70A2DBF1307000823A6E70AB9B7EB
:100320001307000823A6E70A8DB71307000823A6C2
:10033000E70A9DBF1307000823A6E70A69B723A6AB
:10034000E70A45B7411122C43714004013040408DA
:100350005C5405671307078006C6D98F5CD45C54CC
:1003600093E707015CD4593D1C54B24093E7070161
:100370001CD4224441018280411122C43714004020
:10038000130404081C5405671307078006C6D98F99
:100390001CD45C5493E707015CD48D351C54B240E7
:1003A00093E707011CD4224441018280357122CD9C
:1003B00026CB4AC94EC752C506CF3A8A56C3330721
:1003C000A6009307000F2A89AE84B689328463D7CA
:1003D000E7001304000F098C42044180B3879900A1
:1003E0001307000F6359F7009309000FB389994071
:1003F000C20993D909011305A002A9370145AD3FF0
:10040000937AF90F56858D3F330589007D15218537
:100410001375F50F95371385FAFF22951375F50FB0
:10042000A13F1305B002393F0145B93713F9F40F65
:100430004A859937338534017D1521851375F50F6C
:10044000253F1305F9FF4E951375F50F3537130545
:10045000C002CD3DB71700409387070898578566BF
:1004600093860680558F98D7D85713568A00137AEB
:10047000FA0F13670701D8D78A87BE8E2380C7007B
:10048000A380470118018907E31AF7FE33043403F8
:10049000B7170040130E0004130700089386870B5C
:1004A0009305000237130040228863748E001308FE
:1004B000000493181800C20893D808010145338638
:1004C000AE0003460600131F8601135F8F4163547D
:1004D0000F0A98C28CC223A6B70A137F0604630FC3
:1004E0000F0898C28CC223A6B70A137F0602630ABC
:1004F0000F0898C28CC223A6B70A137F06016305B2
:100500000F0898C28CC223A6B70A137F8600630027
:100510000F0898C28CC223A6B70A137F4600630B4C
:100520000F0698C28CC223A6B70A137F2600630663
:100530000F0698C28CC223A6B70A058A35C298C294
:1005400005058CC21316050123A6B70A4182E3688C
:1005500016F73304044129F88327830AFA406A44D2
:1005600093E707012324F30ADA444A49BA492A4A9D
:100570009A4A0D61828023A6E70AA9BF23A6E70A4B
:1005800095B723A6E70ABDB723A6E70AA5BF23A60A
:10059000E70A49B723A6E70A71B723A6E70A59BFB6
:1005A00023A6E70A71BF2A879306000F1306000FE0
:1005B00081450145E5BBB717004093870708D85B25
:1005C000498FD8DB9853598D88D3828097010020BA
:1005D000938101E3173100201301C1A2138541C0AB
:1005E000938541C06377B500232005001105E36DB5
:1005F000B5FE1705000013052573938541C01386CA
:1006000041C0638AC5008322050023A0550011055F
:100610009105E3EAC5FE93070000FD42739002BC1A
:1006200089629382828873A00230970200009382CD
:10063000629D93E2320073905230B7F700E00547B5
:1006400098C3814793072077739017347300203045
:1006500073251034353C732500301D3C7325303430
:10066000053C732520342D34370700E083270734F9
:100670009306073493F70708F5FB8567938757A818
:100680009CC2370700E0832707349306073493F7AB
:100690000708F5FBB7B7AAAA938737A89CC201A0A1
:1006A000AA8703C7070001E73385A7408280850733
:1006B000CDBF81476313F60082803387F500834600
:1006C00007003307F50085072300D700E5B7411180
:1006D00006C622C426C2AA84E1372A84AA852685B2
:1006E000253405658545130505CE393CB240130513
:1006F00014002244924441018280B71700409305C0
:1007000070052380B704130680FA2380C704010014
:10071000010003C7A700B72600401377F70F136740
:1007200007012385E7000547A383E68003C75680BA
:100730001377F70F13670701A382E680238007046E
:10074000010001002380B7042380C70401000100D9
:100750001307A0042384E70023800704010001009D
:10076000B70700E023A207341307000823A0E734EB
:100770008280011106CE22CC26CA4AC84EC652C477
:1007800056C25AC09D3F0565130545CE89371305EE
:100790000002153513050008393D371400401304D5
:1007A0000408930700025CD4930700085CD4414519
:1007B0001935856413850480FD3B13050040E53B36
:1007C0001C5493840480416993E707011CD41C5492
:1007D000056B856ADD8C04D41C54B7740B0013853B
:1007E000041B93E707401CD401325C541385041B9F
:1007F000056A93E707405CD4C5381C5437E51600FA
:100800001305053693E707401CD4F9381305F00E9D
:10081000153E1305B00E3D365145B93E1305E00FA8
:1008200015361305F00E393E1305B00E213E514525
:10083000A13613054008393613050004353E13056B
:10084000500809361305F00F053E13056008DD3C1E
:100850001305F00F153613057008ED341305F00F6E
:10086000213E13058008F93C2945393613059008C7
:10087000D13C1305100209361305A008E1340145E7
:10088000E53C1305B0087D3C13050008F53413055D
:10089000C0084D3C0545CD341305D00865340545E9
:1008A000E13C1305E008793C1305F00FF134130522
:1008B000F008493C1305F00FC1341305600B59349F
:1008C00001455D3C13050002453C130560039D3C5A
:1008D00021455D341305A003B5341545713C13055E
:1008E00000098D342145493C21457934214569343D
:1008F000214559341305D00BB1341945B53C1305C6
:10090000C00B893401458D3C1305F00F253C1305C0
:1009100000069D3405458D341145B93C1305300C56
:1009200015344D45913C1305400C293C4D45A934E7
:100930001305900C013C130520023D3C1305E00B10
:1009400011344545153C1305100EED3A41452D3443
:1009500039451D341305F00DF53213051002293CFD
:100960003145193C0945093C1305000FE13A1305CF
:1009700050041934254509342145FD3A2145ED3A05
:1009800013056002D53A1305A002FD321305100FBE
:10099000553A13053004CD3213050007F13A13051B
:1009A0002007D93A13056003C13A13057003E932F1
:1009B0001305F006D1321305200F693213055004D8
:1009C000653A2545553A2145453A21457532130585
:1009D00060025D321305A00245321305300F9D32CF
:1009E00013053004513A1305000779321305200727
:1009F000613213056003493213057003B53A1305DC
:100A0000F0069D3A1305D00E353A6D45B5322D45A9
:100A1000A5321305E00A3D3213057007B13A1305FC
:100A2000D00C0D3213053006813A13050007193A30
:100A30001D4599321D45893211453D3A39452D3ABA
:100A40003D451D3A25450D3A1D453D3221452D3286
:100A50000D451D321305800EF53013054003293A6C
:100A600013052006C5306145013A3545313213057D
:100A7000100719321305D00E013213050007ED38A7
:100A800013050007D5386145C5383D45F5301305D8
:100A90001007DD301305F00EC53013050007E938E7
:100AA00013050007D13813053006EFF0BF89614503
:100AB000E1304545D130130510077D381305100F7F
:100AC0006538130500074D3813050007753061457B
:100AD000EFF09F8A4D45EFF03F8A13051007EFF0C6
:100AE000BF891305300FEFF03F8913050007EFF0C2
:100AF000BF8813050007EFF03F8813054006EFF0AD
:100B00007F8413058002EFF03F8713059002EFF01A
:100B1000BF861305100FEFF03F860545EFF0DF8528
:100B20001305100FEFF05F850145EFF0FF841D45C1
:100B3000EFF09F8413056006EFF0DF801305C0031C
:100B4000EFF09F830145EFF03F831305D00CEFF0EA
:100B5000BF8213057006EFF03F8213055004EFF0DB
:100B6000BF8113055004EFF03F814145EFF0DF8076
:100B70000145EFF07F800145EFF01F800145EFF068
:100B8000AFFF13057006EFF0EFFB0145EFF0CFFE6E
:100B90001305C003EFF04FFE0145EFF0EFFD0145F7
:100BA000EFF08FFD0145EFF02FFD0545EFF0CFFC95
:100BB00013054005EFF04FFC4145EFF0EFFB130547
:100BC0002003EFF06FFB13058009EFF0EFFA130538
:100BD0004007EFF02FF74145EFF00FFA13055008EB
:100BE000EFF08FF913050008EFF00FF90145EFF072
:100BF000AFF80145EFF04FF81305E004EFF0CFF741
:100C00000145EFF06FF713058009EFF0AFF313051F
:100C1000E003EFF06FF61D45EFF00FF613055003FC
:100C2000EFF04FF213051002EFF0CFF14545EFF072
:100C30006FF137C50D00130505BAEFF0EFCA1305C4
:100C40009002EFF02FF0375502001305059FEFF0EB
:100C5000AFC90565130545CF377472008D3C930409
:100C600009801304040E856913058BD08D34268505
:100C70001D3A2285EFF04FC71385CAD0893C130572
:100C8000007E15322285EFF02FC613054AD181343C
:100C90007D45113A2285EFF02FC51385C9D1053C5A
:100CA000014511321307F9FF9306800713068007E9
:100CB0009305C0031305C003EFF04FEF268793069B
:100CC000C0031306C0039305A0051305A005EFF0AC
:100CD000EFED37E5E4001305051CEFF0EFC069B751
:100CE0000A00000047433941303120535049204425
:100CF000656D6F00446973706C617920496E697429
:100D000069616C697A656400526564004772656563
:100D10006E000000426C7565000000005061747444
:040D200065726E008A
:00000001FF
