:040000006F00C07855
:10000400000000000000000090000020AA02002070
:10001400A9BDF9F5900000200000000000000000D8
:10002400900000209000002000000000000000006C
:10003400900000200000000090000020000000005C
:1000440090000020900000209000002090000020EC
:10005400900000209000002090000020000000008C
:1000640090000020900000209000002090000020CC
:1000740090000020900000209000002090000020BC
:1000840090000020900000209000002090000020AC
:1000940001A0B7F707000111944B13078008F33749
:1000A400078093F787083EC20F100000B71700407F
:1000B4001308700523800705930580FA2380B7048D
:1000C4000F10000003C6B7041376F60DA385C7040A
:1000D400238007041246732606800F10000013764F
:1000E400050255CEF336078093F6860836C40F1002
:1000F4000000238007052380B7040F100000B70613
:1001040014007D89558D88C701000100010001009C
:1001140023800704A246F3A606800F10000073375D
:100124000780137787083AC60F100000238007055D
:100134002380B7040F1000000F1000003727004081
:1001440093061005A303D78023800704B247F3A7BF
:1001540007800F10000093078008F3B7078093F718
:1001640087083ECE0F100000B71700401307700534
:100174002380E704130780FA2380E7040F100000AC
:1001840003C7B70413670708A385E704238007049C
:10019400F247F3A707800F100000056182801376F1
:1001A400050459C2733607801376860832C80F10C7
:1001B4000000238007052380B7040F1000003706D2
:1001C4001400130606047D89518D88C701000100BF
:1001D40001000100238007044246732606800F10A5
:1001E400000073370780137787083ACA0F1000009E
:1001F400238007052380B7040F100000A54793F65A
:10020400F60F639EF600B727004013073005A3835B
:10021400E780B717004023800704D2470DBFB727F4
:10022400004013072005E5B7733707801377870865
:100234003ACC0F100000238007052380B7040F1069
:10024400000098471367070C98C723800704E24708
:10025400FDBD0111814601468145114506CE7D2A29
:1002640093078008F3B7078093F787083EC60F10FB
:100274000000B7170040130770052380E704130735
:1002840080FA2380E7040F10000003C76704136794
:1002940017002383E70423800704B247F3A70780EA
:1002A4000F100000F2400561828041118146014631
:1002B40081451145A52213078008F337078093F77A
:1002C40087083EC40F100000B717004013067005DE
:1002D4002380C704930680FA2380D7040F100000FC
:1002E400FD552396B70223800704A245F3A5058094
:1002F4000F10000073370780137787083AC60F1072
:1003040000002380C7042380D7040F10000003C714
:100314006704136717002383E70423800704B247A5
:10032400F3A707800F10000001A0BD473305F502B5
:1003340001007D1575FD8280411122C426C206C6C6
:10034400AA84014463179400B240224492444101B8
:10035400828005041305803E4204C13F4180DDB71D
:100364002303048015472303E48001002302A480AF
:10037400828083076480E3CE07FE230304808280A7
:1003840083076480E3CE07FE0345448082808307AD
:100394006480E3CE07FE2302A4808280411126C438
:1003A4004AC24EC006C61377F50BAD47AA892E89FB
:1003B40095446306F70019456537653F8D444E85BE
:1003C4004537FD59FD1463983401B240A2441249E3
:1003D400824941018280135509011375F50F453F88
:1003E4002209CDB7011126CC06CEB7040800513737
:1003F4001545BD37713769372AC6A53F324593770E
:10040400150089EB136515001375F50FF240E244EE
:1004140005618280FD14E9FC0145CDBF397126DCFC
:100424004ADA4ED852D656D45AD25ED006DE62CEBE
:1004340066CCB7E700E07D5783AA070022C603AA6B
:10044400470023A0E71823A2E718B71700401307B3
:1004540070052380E704130780FA2380E70483C729
:100464004704930B75FFB684E20793FBFB0F8546A5
:10047400AA892E8B328937240040E187015763FA19
:1004840076016308D5008946130700026313D5007B
:100494000157D98F93F7F70FB71C00402382FC0450
:1004A40011472303E4801305F00F5D3D094CD1355A
:1004B400636D7C11B7050700DA9537870700795516
:1004C40063F2E504B3879500636EF702370B080007
:1004D400A94733EB65016399F90689E48144513DE9
:1004E40026850DA0DA850945553D05090345F9FF23
:1004F400FD14050B693D81C49377FB0FFDF7DD35D2
:1005040069FD7D55B7170040130770052380E70484
:10051400130780FA2380E70403C74704418B23822F
:10052400E704F250B7E700E023A0571123A24711D4
:10053400E25432445259C259325AA25A125B825B73
:10054400724CE24C21618280A5476395F906856966
:100554001309F00FB3069900B3742B01B694134931
:10056400F9FFB3749900856B33796901416B938703
:10057400F9FFB3F7270199E363FC340193D94900E8
:10058400C147E3E637FF99BF0569C1697D19D9B74A
:100594001305800D638869011305000263847901E2
:1005A40013051008CA85DD3B353D21DD4E99B38422
:1005B4003441D9B7DA852D45D533CA94E30099F28D
:1005C40005097D3BA30FA9FED5BF9387F9FF93F7D8
:1005D400F70F6361FC0C83C71C0413073008631F07
:1005E400F70437070800636BEB04B3079B00B706F7
:1005F400100063F5D704334BEB0089476393F90686
:100604008980D549E38C04ECDA850945413B11091D
:100614000327C9FF91472320E48003076480E34E46
:1006240007FE23033481FD17EDFBFD14110B81C478
:100634009377FB0FE9FF7D3371F5E1B5B717004000
:1006440003C75704B70708001377070219E3B787EE
:1006540007007955E378FBEA33079B00E3FFE7F8EB
:1006640055B58547E382F9F2DA852D45053B938933
:10067400F4FFE38504E6293393F7390091EB8326ED
:1006840004800327090093074900E39AE6E43E89BE
:10069400CE84F1BFB5476396F9001305900BC931B9
:1006A40035BDB1471305B00AE38BF9FE9947639151
:1006B400F904B7050800B365BB002D45C531814475
:1006C4008D4BA149753963967401832704802320D7
:1006D400F9008504E39834FF8327048013172B0162
:1006E400635507002312F900D5BB2322F900FDB39B
:1006F4009D476399F90281451305B0044531BD4412
:100704002320090023220900FD599D3993F7740021
:10071400CA9703C70700FD14398D2380A700E39609
:1007240034FF6DBBA1476392F9046D398144630DB5
:100734000B008D479304C0036308FB00930400057A
:1007440063048B01930440041375C507E30895D82B
:100754001945393139390545213126850D39094580
:100764003D314931E31C05D669BB91476399F900D2
:1007740013056006F536F53E130590090DB7E38FB2
:0807840009D4F154A9BB0000E7
:10078C00970100209381C17F176100201301C106DE
:10079C001305400097050020938505861706002059
:1007AC00130606FE63FAC5008322050023A055003C
:1007BC0011059105E3EAC5FE171500001305851513
:1007CC00970500209385C5FB17060020130646FBF2
:1007DC0063FAC5008322050023A05500110591057D
:1007EC00E3EAC5FE17050020130585F997050020DF
:1007FC00938505F96377B500232005001105E36D9A
:10080C00B5FEFD42739002BC8D4273904280930200
:10081C0080087390023097F2FF1F9382E27D93E27F
:10082C00320073905230970200009382E211739061
:10083C0012347300203041118D453D6506C622C42B
:10084C007521371400408327C40A0D673D65D98F85
:10085C002326F40A1147B7570040A381E70013057C
:10086C0005A6D92B8146014681450545D5238146F0
:10087C00014681450945E92B8327840A1167B2405B
:10088C00D98F2324F40A8327840A2167D98F232440
:10089C00F40A224441018280411122C41714000041
:1008AC00130404D44AC00329040026C206C6CA8510
:1008BC00AA84EF00D00B6348A004930500002685A2
:1008CC00EF00501363490500930500002685EF00E7
:1008DC00100A634BA00281460146814505458D2BCC
:1008EC008146014681450945A523371700408327DA
:1008FC00C70AB24022448D66D58F2326F70A92444C
:10090C00024941018280CA8497170000938787CDE2
:10091C008C432685EF00D0160C405D23EF00503F32
:10092C00131405014180A2858546014605450D231A
:10093C00A2852244B24092440249854601460945AB
:10094C00410139A341111305800406C697F0FF1F1E
:10095C00E780A0730524C535F12A1716000013068D
:10096C00E6C881450145912E014517160000130676
:10097C00A6C885459926971700009387E7C6884334
:10098C00213F1305803E97000020E780609AD5BF79
:10099C004111A947A307F1008347F10093F7F70F23
:1009AC001387F7FF1377F70FA307E100F5F7410162
:1009BC008280411122C4371400408327840C06C660
:1009CC0093E707012324F40C8327840C93E707088F
:1009DC002324F40C753F8327C40C93E707012326CB
:1009EC00F40C7D378327C40CB24093E70708232609
:1009FC00F40C224441018280411122C4371400407E
:100A0C008327C40C06C693E707012326F40C83271F
:100A1C00840C93E707082324F40C9D3F8327840C54
:100A2C00B24093E707012324F40C224441018DB713
:100A3C00797122D426D206D64AD04ECEA144371490
:100A4C00004093178501E18763DA07068327840C3E
:100A5C0093E707012324F40C06051375F50F2AC63A
:100A6C00053F8327840CFD1493F4F40F93E70708D8
:100A7C002324F40C313F8327C40C324593E7070839
:100A8C002326F40CDDFC8327840C93E70701232435
:100A9C00F40CFD3D8327840C93E707082324F40C06
:100AAC00C53D8327C40CB250925493E70708232604
:100ABC00F40C22540259F249456182808327C40CFC
:100ACC0093E707012326F40C41BF411106C622C44B
:100ADC002A84C53513058007A13F0145913F228526
:100AEC00813F2244B240410101BF411106C622C4DC
:100AFC002A84C13513058007253F130500040D3FDB
:100B0C0022853D372244B2404101FDB5130505FB5A
:100B1C0041111375F50F06C622C42E847D3713754B
:100B2C00F4006537135544002244B24013650501A7
:100B3C00410161BF411122C44AC006C626C213043A
:100B4C00000B1309400B228549370145BD3F414538
:100B5C00AD3F930400080145FD14413FEDFC050435
:100B6C001374F40FE31124FFB2402244924402495F
:100B7C004101828041118D451305000906C6112CD7
:100B8C00371700408327870C1305E00A93E7070902
:100B9C002324F70C1D3F13050002053F0145353793
:100BAC001305800C1D3701450D374145393F1305A1
:100BBC000004213F13051008093F1305F00F3137CE
:100BCC001305100A19371305600A01371305800A3B
:100BDC00ED3D7D45DD3D1305300DC53D0145F5353C
:100BEC001305500DDD351305000FC5351305900D9C
:100BFC00E93D13052002D13D1305A00DF93509453A
:100C0C00E9351305B00DD135130500027D3D1305F3
:100C1C00D008653D5145553D1305F00A7D35B24070
:100C2C00410109BF01111307F6F906CE22CC26CAE1
:100C3C004AC84EC61377F70FE546AE8763E5E60064
:100C4C0001161376F60F0116130780071374F60FAF
:100C5C006376A700850793F7F70F0145AA853E85B4
:100C6C0075359307100463F0870219447D14014510
:100C7C001374F40F9D3D7DF8F2406244D244424916
:100C8C00B2490561828015463304C4028144971928
:100C9C000000938929971549B3079400CE9703C593
:100CAC00070085049935E39924FF6244F240D2444D
:100CBC004249B249014505610DBD411122C426C20C
:100CCC004AC006C62A842E89B28403C6040019E6DB
:100CDC00B240224492440249410182802285CA8555
:100CEC00190489371374F40F8504C5B7914763EE63
:100CFC00B70217170000130767A38A05BA959C4122
:100D0C00BA978287B717004003A7470B1345F5FF27
:100D1C00698F23AAE70A03A7070B698F23A8E70AA1
:100D2C0003A7070A798D23A0A70A8280B717004072
:100D3C0083A6470B1347F5FFF98E23AAD70A83A680
:100D4C00070B558D23A8A70A83A6070A758F23A026
:100D5C00E70A8280B717004003A7470B498F23AAE5
:100D6C00E70A03A7070B1345F5FF45BFB71700406C
:100D7C0083A6470B1347F5FF758F23AAE70A03A732
:100D8C00070A598D4DB7B717004003A7470B498F7A
:100D9C00EDB7914763EEB702171700001307479A98
:100DAC008A05BA959C41BA978287B717004003A76A
:100DBC00470D1345F5FF698F23AAE70C03A7070D11
:100DCC00698F23A8E70C03A7070C798D23A0A70C28
:100DDC008280B717004083A6470D1347F5FFF98EA5
:100DEC0023AAD70C83A6070D558D23A8A70C83A681
:100DFC00070C758F23A0E70C8280B717004003A760
:100E0C00470D498F23AAE70C03A7070D1345F5FFE0
:100E1C0045BFB717004083A6470D1347F5FF758FE5
:100E2C0023AAE70C03A7070C598D4DB7B717004041
:100E3C0003A7470D498FEDB737570040834727006D
:100E4C0093F7070F93E7C7002301F70048CB828085
:100E5C0099EAB757004003C707001345F5FF798D92
:100E6C002380A70082803757004039C28347170080
:100E7C00C98FA300F7003757004081470D489308EE
:100E8C0087009306470019463357F540058B01CB75
:100E9C00139717006364F80236972310B700850781
:100EAC00E394C7FEB757004003C70700598D4DBFE9
:100EBC00834617009347F5FFF58F65BF4697F1BF43
:100ECC003971935775014AD856D25ECE931A950054
:100EDC001359F50106DE22DC26DA4ED652D45AD04E
:100EEC0093F7F70F93DA9A00CA8B638207121307F2
:100EFC00F00F6384E7128E0A37070004B3EAEA00A6
:100F0C00138A17F80144014B93D7750193949500FC
:100F1C0093F7F70FA58093D9F501FDC71307F00FD1
:100F2C006387E7028E04938717F837070004D98C80
:100F3C00330AFA408146558C171700001307878136
:100F4C000A043A941C4033493901BA978287130A30
:100F5C001AF0F9E88946558C171700001307878398
:100F6C000A043A941C4033493901BA9782870149E3
:100F7C001307F00FB707400013959700F250625417
:100F8C009317770125817E095D8D33652501D25438
:100F9C004259B259225A925A025BF24B2161828019
:100FAC001307F00F8147C9BFA68ACE8B368B8947B2
:100FBC006309FB1A8D47E30CFBFA85476308FB0AB0
:100FCC001307FA0713F91B006355E01293F77A0025
:100FDC0099C793F7FA0091466383D700910A9397C8
:100FEC004A0063D90700B70700F8FD17B3FAFA00F7
:100FFC0013070A089307E00FE3C4E7FA93976A0014
:10100C00A5831377F70F8DBFB1E48546A9B7639419
:10101C000A021144014A054BC5BD63990A002144DB
:10102C00130AF00F094BCDB58D4631B73144130A75
:10103C00F00F0D4BD1BD56852EC635239307B5FF4A
:10104C00B39AFA009307A0F8338AA7400144014BE6
:10105C00B2455DBD2685012B1307B5FFB307AA006A
:10106C00B394E400138A67078146F1B513F91B00AA
:10107C000147814711B74166139554007D1693576C
:10108C000501698E63FA9A0AB3D5FA027D1AD686DF
:10109C0001473388C502B3F6F602C206558F637B4F
:1010AC0007012A979386F5FF6368A70A6376070BF7
:1010BC00F9152A9733070741B356F7023377F7022E
:1010CC00B38AC6029317070163FB5701AA971387CC
:1010DC00F6FF63E1A70863FF5707F916AA97C20545
:1010EC00B38A5741D58DB33A5001B3EA5501CA8B37
:1010FC00C1BD8546998E11C76D4601478147E34DA9
:10110C00D6E6130AEA09339A4A01B3D7DA00B33A9E
:10111C004001B3E7570113F7770019C713F7F7002E
:10112C0091466303D7009107139757006348070252
:10113C009A07A583014789B593D61A00B3D5F60251
:10114C001397FA0141833388C502B1B7CE8B368B26
:10115C00814AB1BDBA8661B7B685A9BF054781473B
:10116C0021BD13F91B001307F00F814731B59356BE
:10117C007501B7078000FD1713D6750193F6F60FAE
:10118C001308F00FB3F8A7001357F501ED8F137682
:10119C00F60FFD8163810603630C06018DE211E2FB
:1011AC00B1C3638E08026305B70405451DE7828051
:1011BC00F5D779558280E39E08FE6309D60211E2C9
:1011CC00EDD7E314B7FEE342D6FE63C7C600E3EEE9
:1011DC0017FD0145E3FDF8FC01E77D558280F5DD47
:1011EC00054582800145E39208FC8280F9DBD1B78A
:1011FC008146E1BF93567501B7078000FD1713D6E2
:10120C00750193F6F60F1308F00FB3F8A7001357F8
:10121C00F501ED8F1376F60FFD81638706036309E5
:10122C00060185EA11EA89EB0145639B080082807F
:10123C000945F5FFE5DA31A8638C08026300B704B1
:10124C00054575D77D55828009456398080263046E
:10125C00D60211E2F5D7E315B7FEE343D6FE63C71A
:10126C00C600E3EF17FD0145E3F3F8FC19E3D9BF22
:10127C00F1D905458280E5D3828082808146C5B74D
:10128C00797122D4135475014ECE52CC931995001A
:10129C0006D626D24AD056CA5AC81374F40F93D91C
:1012AC009900135AF50169C49307F00F6308F40E03
:1012BC009397390037070004B3E9E700130414F8D7
:1012CC008144014B13D77501939A95001377F70F4F
:1012DC0093DA9A0013D9F50145CF9307F00F630CFD
:1012EC00F7028E0A130717F8B7070004B3EAFA00DF
:1012FC003A94014633452A01BD47AA86930514004A
:10130C0063E09710170700001307C74C8A04BA94C0
:10131C009C40BA9782871304F40F63960A0C93E4EB
:10132C0024000946C1BF01451307F00FB707400061
:10133C00B2502254A6075E07A5837E05D98F92541E
:10134C000259F249624AD24A424B5D8D4561828014
:10135C00CA86D689328B8947630FFB088D47E30415
:10136C00FBFC854736856310FB1A01478147C9B7DB
:10137C00639D090413D77501939A95001377F70FA2
:10138C0091440144054B93DA9A0013D9F50131F7D6
:10139C00639D0A0093E414000546A9BF63920902F9
:1013AC00A1441304F00F094B31BF56856D2A9307E6
:1013BC00B5FF098CB39AFA001304A4F801461DBFBB
:1013CC00B1441304F00F0D4BF5BD4E852EC6612AAA
:1013DC009307B5FF1304A0F8B399F900098C814465
:1013EC00014BB245C5B593E434000D4621B789478E
:1013FC00D286E315FBF636851307F00F81470DBF38
:10140C0041639306F3FF13D6090193D80A01B3F78E
:10141C00D900B3FADA0033885703B389F8021357AB
:10142C000801B30A5603D6994E9733061603637315
:10143C0057011A96C167FD17B376F7003378F80099
:10144C00C206C2969399660093570701B3393001CF
:10145C00E982B2979A07B3E6D900B3E9D70093971C
:10146C00490063D9070013D7190093F71900B36922
:10147C00F7002E841307F4076350E00493F7790008
:10148C0099C793F7F90091466383D7009109939715
:10149C00490063D90700B70700F8FD17B3F9F90045
:1014AC00130704089307E00F63CBE70493976900D5
:1014BC00A5831377F70FADBD8547B386E74011C7FA
:1014CC006D4601478147E345D6E61307E409339798
:1014DC00E9003337E000B3D7D900D98F13F7770081
:1014EC0019C713F7F70091466303D70091071397B9
:1014FC005700634C07009A07A583014715BD1307D6
:10150C00F00F814735B52E84B5B7054781470DB52A
:10151C0013577501370680009307F6FF1377F70F03
:10152C009305E007B3F6A7009357F501014563F463
:10153C00E50099C3828082809307E0097D55E3EB37
:10154C00E7FE93055009B3E7C60063D7E500130720
:10155C00A7F63395E7008280130560093307E54051
:10156C0033D5E7008280C167637EF5029307F00FE5
:10157C001307000263ECA7009707000093878729E5
:10158C00AA9703C507003305A740828021819707DE
:10159C00000093872728AA9703C5070061473305E6
:1015AC00A7408280B7070001636EF5006181970741
:1015BC00000093872726AA9703C507002147330508
:1015CC00A74082804181970700009387A724AA97A0
:1015DC0003C5070041473305A74082800000C8427D
:1015EC0000606A47000040404D6F746F7220546574
:1015FC007374000052756E6E696E672E2E2E00008D
:10160C00000000000000005F00000007000700144D
:10161C007F147F14242A7F2A12231308646236490C
:10162C005522500005030000001C224100004122FD
:10163C001C0014083E081408083E0808005030002E
:10164C000008080808080060600000201008040268
:10165C003E5149453E00427F40004261514946217E
:10166C0041454B311814127F1027454545393C4AEA
:10167C00494930017109050336494949360649493A
:10168C00291E003636000000563600000814224190
:10169C0000141414141400412214080201510906F8
:1016AC00324979413E7E1111117E7F494949363EBE
:1016BC00414141227F4141221C7F494949417F09D7
:1016CC000909013E4149497A7F0808087F00417F9A
:1016DC0041002040413F017F081422417F4040409F
:1016EC00407F020C027F7F0408107F3E4141413E47
:1016FC007F090909063E4151215E7F091929464699
:10170C004949493101017F01013F4040403F1F20C1
:10171C0040201F3F4038403F631408146307087093
:10172C000807615149454300DCF5FFFF04F6FFFF54
:10173C002CF6FFFF44F6FFFF5EF6FFFF6EF6FFFF91
:10174C0096F6FFFFBEF6FFFFD6F6FFFFF0F6FFFFA3
:10175C0026F9FFFF50F8FFFF20F9FFFF58F8FFFFB5
:10176C0020F9FFFF1EF8FFFF20F9FFFF58F8FFFFDD
:10177C0050F8FFFF50F8FFFF1EF8FFFF58F8FFFF6F
:10178C005EF8FFFF5EF8FFFF5EF8FFFF1EF8FFFF3D
:10179C0010F8FFFF10F8FFFFE0F8FFFFBCF9FFFFA8
:1017AC00E0F8FFFFDEF7FFFFE0F8FFFFBCF9FFFFFB
:1017BC0010F8FFFF10F8FFFFDEF7FFFFBCF9FFFF8B
:1017CC001EF8FFFF1EF8FFFF1EF8FFFFDEF7FFFFFE
:1017DC0030FCFFFF82FBFFFF82FBFFFF80FBFFFF64
:1017EC0086FBFFFF86FBFFFF56FBFFFF80FBFFFF27
:1017FC0086FBFFFF56FBFFFF86FBFFFF80FBFFFF17
:10180C001EFCFFFF1EFCFFFF1EFCFFFF56FBFFFF35
:10181C00000102020303030304040404040404048B
:10182C00050505050505050505050505050505055C
:10183C00060606060606060606060606060606063C
:10184C00060606060606060606060606060606062C
:10185C00070707070707070707070707070707070C
:10186C0007070707070707070707070707070707FC
:10187C0007070707070707070707070707070707EC
:10188C0007070707070707070707070707070707DC
:10189C0008080808080808080808080808080808BC
:1018AC0008080808080808080808080808080808AC
:1018BC00080808080808080808080808080808089C
:1018CC00080808080808080808080808080808088C
:1018DC00080808080808080808080808080808087C
:1018EC00080808080808080808080808080808086C
:1018FC00080808080808080808080808080808085C
:10190C00080808080808080808080808080808084B
:00000001FF
