:040000006F00506ECF
:10000400000000000000000050040020C403002091
:10001400A9BDF9F300550100000000000000000034
:100024000055010000550100000000000000000020
:100034000055010000000000005501000000000010
:100044000000000000550100000000000055010000
:10005400005501000055010000550100000000009A
:1000640000550100000000000000000000550100E0
:10007400BE0000200055010000550100005501009C
:1000840000000000005501000000000000550100C0
:10009400411106C60923FDBF4111B7170040985FFF
:1000A4003AC6945F3247E39CE6FE324541018280C2
:1000B400B7E700E03707001023A0E7208280B717D6
:1000C4000040130700032388E702054723A0E192B9
:1000D40082809307000C01116310F50693078008D2
:1000E400F3B7078093F787083EC00F100000B717D7
:1000F4000040130770052380E704130780FA238068
:10010400E7040F10000003C7F7001377F70F136716
:100114000704A387E70003C78700136707FC137767
:10012400F70F2384E700238007048247F3A707809F
:100134000F10000005618280B717004003C7A700B5
:10014400118B6DE703C6E704130780081376F60FD7
:10015400F336078093F6860836C20F1000001308A2
:10016400700523800705930580FA2380B7040F10D8
:10017400000083C6E70493F6F60F93E63600238760
:10018400D70483C6A70093F6F60F93E646002385AB
:10019400D700238007049246F3A606800F100000C0
:1001A40083C6870093F6F60F7337078013778708A3
:1001B4003AC40F100000238007052380B7040F10F2
:1001C400000003C78700136707FC1377F70F238426
:1001D400E70023800704A247F3A707800F1000005D
:1001E400A5470100FD1793F7F70FE5FF9307800874
:1001F400F3B7078093F787083EC60F100000B717C0
:100204000040130770052380E704130780FA238056
:10021400E7040F1000002384D7002387C70423803A
:100224000704B247F3A707800F1000009377050C6B
:10023400130700046398E70A93078008F3B707805D
:1002440093F787083EC80F100000B7170040130744
:1002540070052380E704130780FA2380E7040F1056
:10026400000003C7A700B72600401377F70F1367F2
:1002740007012385E7000547A383E68003C756806B
:100284001377F70F13670701A382E680238007041F
:10029400C247F3A707800F10000093078008F3B745
:1002A400078093F787083ECE0F100000B717004071
:1002B400130770052380E704130780FA2380E704FB
:1002C4000F10000003C7F7001375F50F1377F70F2E
:1002D40013670704A387E7002384A7002380070488
:1002E400F247A9B59377F5019DCF93078008F3B73B
:1002F400078093F787083ECA0F100000B717004025
:10030400130770052380E704130780FA2380E704AA
:100314000F100000372700408946A303D7802380AD
:100324000704D247BDB793078008F3B7078093F754
:1003340087083ECC0F100000B71700401307700564
:100344002380E704130780FA2380E7040F100000DA
:10035400372700409D46A303D78023800704E24744
:100364000DBF0111814601468145114506CE9730E6
:1003740001E0E780C04493078008F3B7078093F750
:1003840087083EC60F100000B7170040130770051A
:100394002380E704130780FA2380E7040F1000008A
:1003A40003C767041377F70F136717002383E70462
:1003B40023800704B247F3A707800F100000F24020
:1003C400056182800111814601468145114506CEB1
:1003D400973001E0E780A03E13078008F3370780D9
:1003E40093F787083EC40F100000B71700401306A8
:1003F40070052380C704930680FA2380D7040F1066
:100404000000FD552396B70223800704A245F3A5F7
:1004140005800F10000073370780137787083AC6EA
:100424000F1000002380C7042380D7040F1000009E
:1004340003C767041377F70F136717002383E704D1
:1004440023800704B247F3A707800F10000001A020
:1004540001A0E5473305F50201007D1575FD828095
:10046400411122C406C62A847D1442041305803E29
:100474004180C53775F8B240224441018280411160
:1004840022C406C62A84972000E0E78040F6B240E2
:100494002285224441018280411122C406C6972745
:1004A400000083A767D81384018391C782971C40F7
:1004B400AA971CC021A083A74194EDFB0840B7472D
:1004C40003009387D73F3305F502B7A72600938728
:1004D40037ECB2403E9508C022444101828037E7A0
:1004E40000E01C43B70620002320D718F58F0F1017
:1004F400000019C191C111E637E700E02320F7108D
:1005040082802E960F70B650D5BF411126C2B7E433
:1005140000E022C48040B706200006C6758C23A0E4
:10052400D4180F10000011C111EAB7E700E023A0AE
:100534008710B2402244924441018280972000E017
:10054400E78040EC23A08410EDB737E700E01C43BC
:10055400B70620002320D718F58F0F10000001C51F
:1005640099C1014711EA37E700E02320F710054558
:1005740082800507E309E6FE3308E500B386E5005B
:10058400034808009422E306D8FE37E700E023205E
:10059400F71001458280797122D406D626D24AD03A
:1005A4004ECE52CC56CA5AC85EC662C41384C19396
:1005B4001C40D5E797240000938404C31389C19495
:1005C400032709009C2094300146B3A5E7208E211F
:1005D400C9C911C29CA08820636CD5089727000064
:1005E400238407C01C40F1E79389419483A7090041
:1005F400E9C3138A819303240A0045CC972B000096
:10060400938BCBC383A74B0037C9C901014B9CC44F
:100614001309F937972A0000938A0ABF3E20CDEBCD
:100624005C4463140B0A2320FA00032CC4002285C3
:100634004129628465F49727000083A727BFB5CBBF
:100644002254B25092540259F249624AD24A424B5D
:10065400B24B224C4561176301E0670063CF829778
:1006640081BF850793F7F70F0546E3E0D7F69DB7FB
:100674003327E5200E232310070097270000239833
:1006840007B683A78194B347F5209C4382979C20A7
:1006940083260900FA20B3A6D72092223377E540B7
:1006A400518F9AA299C385079CA098209C30E37728
:1006B400F7F2B250225492540259F249624AD24A91
:1006C400424BB24B224C456182802326FB00B1BFD2
:1006D40083A7090082971C443307F5406376F5002D
:1006E40003A74B001D8F2A976369E9022E20082077
:1006F400975001E0E78000065C409DD3104483A638
:100704004B00B2973E8763E4C70063E4D7003387A6
:10071400D74018C4228B404431BF03A74A027DDB73
:1007240063E9A7023385A7401C2099EF03C76A0138
:1007340083A64B005117B307A7003E8563E4E70087
:1007440063E4D7003385D7409C44E375F5FC88C443
:10075400D1B703A74B00BA97F1B7B7C700401387C7
:10076400C72014431396264910C30F100000938723
:10077400872617250000032565A89C436A0514C332
:1007840093C7F7FF99835D8D8280411126C29384BC
:10079400019D984006C622C43C4393D76748B1C321
:1007A400930700063CC39727000083C727BA93F733
:1007B400070417240000130464B999CB9727000099
:1007C40083A7C7A7829748C41C2093F7F70B1CA0E4
:1007D4001E2481CB03A7819E7CD397270000239BF3
:1007E40007B698403C4393D7474899C7C1473CC391
:1007F40083A7819E23A2070603A7C19C5C4393D7CA
:10080400174899C323220700B2402244924441016D
:100814008280A53F7300203083A6819E17270000A5
:100824001307C7B21C23858B91E71C33858B99E38F
:10083400FC52EDFB8280972600009386E69CDC52F6
:1008440085C7B7E700E03707200023A0E728B7F7FC
:1008540000E0938707D0984B6D9B98CB984B136718
:10086400870398CB7300501097270000A38007AE2E
:100874001387819E1C43054690C3DC5299CBB7F67F
:1008840000E083A706D193E7870023A8F6D073007E
:100894005010184397260000938646AB9C22858B04
:1008A40099E37C53E5FF82800111972700002380A0
:1008B40007AA4AC897270000A38B07A81729000096
:1008C400130989948327490222CC06CE26CA4EC630
:1008D4002A842E85B28585C7B7E700E03707200054
:1008E40023A0E728B7F700E0938707D0984B6D9BC8
:1008F40098CB984B1367870398CB730050108547A8
:100904009389019D9384819E6315F4060146975053
:1009140001E0E78080F683A7090098409C43A18307
:100924008D8BA9E7930760197CD38327490299CB60
:1009340037F700E0832707D193E787002328F7D010
:1009440073005010944017270000130727A03C237E
:10095400858B91E73C33858B99E3FC52EDFBF240A8
:100964006244D2444249B249056182809307E01B44
:1009740065BF975001E0E780A0E983A70900984389
:100984001317872998C3D85B719BD8DB59FC972729
:100994000000A38D079A9C40094798C379B703A721
:1009A400819E1C475447F58FB70604001CC7FD8E73
:1009B40091CAFD5634D7172600001306E682544A1E
:1009C400850654CA93F6870095C29726000083C60D
:1009D400069893E6160017260000230AD69603A667
:1009E400019D545AF19A93E6160054DA93F61700CF
:1009F40095C29726000083C6769593E616001726BF
:100A04000000A305D69403A6019D545AF19A93E6D7
:100A1400160054DA93F667009DCE918B83A5019D51
:100A24009726000093868692ADCF9C41A1838D8B3F
:100A3400B5E7DC4A9C43A18313F6F70F21E2930741
:100A440030055CCF9C2293E717009CA2DC59F19BF4
:100A540093E71700DCD983C7419EB9CF2382019E57
:100A640083A7019EA1C7411106C6829783C7419EF1
:100A740099E323A0019EB24041018280304B13F5DB
:100A8400C70F13760602498E01C69307100655BF99
:100A940093F7F70F8A079387370565B793072006FF
:100AA4004DB7BC3293E71700BCB24DB783C7419E24
:100AB40081E723A0019E82808280D5357300203097
:100AC400B7E700E003A807003707200023A0E718D2
:100AD4003378E8000F10000003AE01A703A381A63A
:100AE400F287814663F6670883A807006367F50801
:100AF40063E5A80813878700636CE506F223216782
:100B040005076317E6001386719B1822050718A2D0
:100B1400971500009385456DD223DA2123930700AE
:100B2400329733470708DAA16381C70303A5C1A637
:100B3400630DF500EA2211E9DE2223A01601210744
:100B44003E962106D2A2DAA1B687984363026702D1
:100B540083A6C1A6630ED700762399EAD62352232F
:100B64001843A106B296D6A398C3DE21A107DEA13D
:100B7400B7E700E023A007118280BE86C6879DB731
:100B840003A7819E3C5BFDFF0100010082800111EF
:100B940022CC26CA06CE2AC42EC61724000003245B
:100BA400E48E854419E0014505A09C841830858BAA
:100BB4006304F7000044FDB719469305A10013052B
:100BC40024006132E31895FEF2406244D244056188
:100BD4008280230304801547A2872303E480010055
:100BE40001002302A48003C7678062076187E34C86
:100BF40007FE2382A780228783476780E207E18775
:100C0400E3CC07FE82802303048015472303E4809A
:100C1400010001002302A480828083076480E3CE64
:100C240007FE23030480828083076480E3CE07FEEB
:100C340003454480828083076480E3CE07FE230259
:100C4400A4808280411126C44AC24EC006C61377CE
:100C5400F50BAD47AA892E8995446306F70019451B
:100C64005D37653F8D444E85793FFD59FD1463988A
:100C74003401B240A2441249824941018280135591
:100C840009011375F50F453F2209CDB7011126CC93
:100C940006CEB704080051371545B53771376937A3
:100CA4002AC6A53F32459377150089EB13651500D5
:100CB4001375F50FF240E24405618280FD14E9FCEE
:100CC4000145CDBF411106C6B71700401307700593
:100CD4002380E704130780FA2380E70403C747044B
:100CE4001305F00F1367070E2382E70491472303CC
:100CF400F480C535B24041010DB7011126CC4ACA72
:100D04004EC852C606CE2A89AE89B284554A5D3F82
:100D140091E82137F24026855249E244C249324AD9
:100D240005618280CA850945313F910903A7C9FF3E
:100D340091472320E48003076480E34E07FE2303E6
:100D44004481FD17EDFBFD14110981C49377F90F5C
:100D5400E9FF2D3F55FDFD5475BF011126CC4ACA4C
:100D64004EC852C656C45AC206CE2A89328A8D4902
:100D7400913FC164C16A056B9387F4FFB3F7270100
:100D840099E363719A02FD199180E39709FE713525
:100D94000145F240E2445249C249324AA24A124B46
:100DA400056182801305800D6388540113050002D8
:100DB4006384640113051008CA856935C13D09C5FA
:100DC4002699330A9A4075BF7D55E1B7011106CEC5
:100DD40026CC4ACAB2844EC82AC62E89E535324585
:100DE400FD14FD59AA852D45B13D639A340135356D
:100DF400F24026855249E244C249056182802D357C
:100E040093F7340091EB83260480032709009307AA
:100E14004900E39EE6FC3E89FD14C1BF011106CEE4
:100E24002AC64D353245C533F2400561FDB3011183
:100E340006CE26CC4ACA4EC852C6AA8956C42E89A2
:100E44005135CE852D45FD3B81448D4A214AE93BF0
:100E540063965401832704802320F9008504E398D2
:100E640044FF8327048013972901635C070023123E
:100E7400F900F240E2445249C249324AA24A0561A9
:100E840069BB2322F900F5B7411106C626C44AC23C
:100E94004EC0AE89053D81451305B0046533BD449C
:100EA4007D59593393F77400CE9703C70700FD1497
:100EB400398D2380A700E39624FFB240A24412494F
:100EC4008249410199BB411106C6ED3B13056006F9
:100ED4001D3BA133130590093D33B240410135BB9D
:100EE40097110020938141A3172100201301411180
:100EF4001305400097F5FF1F938585101706002002
:100F0400130606FE63FAC5008322050023A05500DC
:100F140011059105E3EAC5FE17650100130545B106
:100F2400970500209385C5FB1386818F63FAC5005E
:100F34008322050023A0550011059105E3EAC5FEAF
:100F44001385818F971500209385C5556377B50068
:100F5400232005001105E36DB5FE93025002739042
:100F640002BC8D42739042808542739012BC9302FE
:100F740080087390023097F2FF1F9382620893E215
:100F8400320073905230971200009382224C739077
:100F940012347300203001CE93070002918F63490D
:100FA400F000130506FE014733D5A500BA858280FB
:100FB40033D7C5003355C500B395F5004D8DFDB746
:100FC400AA88AE8732883685468363950620D5661F
:100FD400938646BB63FFC50A41676375E60A130738
:100FE400F00F3337C7000E073355E600AA9683C6C1
:100FF4000600130500023697B306E540630BE500CF
:10100400B395D70033D7E8003318D600D98D33937E
:10101400D80093580801B3D615031316080141826A
:101024009357030133F715033685B305D6024207F8
:10103400D98F63FCB700C2971385F6FF63E70701F6
:1010440063F5B7001385E6FFC2978D8F33F7170357
:10105400420313530301B3D71703420733636700F3
:10106400B306F6023E86637BD30042931386F7FFF2
:10107400636603016374D3001386E7FF4205518D51
:1010840081455DA8370500014147E36FA6F4614738
:10109400A1BF01E605473358C7024167637FE808EB
:1010A4001307F00F6373070121453357A800BA965D
:1010B40003C70600130600022A97B306E640631529
:1010C400E608B387074185459358080113160801BC
:1010D400418213570301B3F61703B3D71703C206AC
:1010E400558F330EF6023E85637CC7014297138504
:1010F400F7FF636707016375C7011385E7FF42972D
:101104003307C741B377170342031353030133571C
:101114001703C20733E36700B306E6023A86637B2C
:10112400D30042931306F7FF636603016374D3008D
:101134001306E7FF4205518D8280370700014145C0
:10114400E365E8F6614595B73318D80033D5E70071
:101154003393D800B397D70033D7E80093580801E6
:101164003366F7003377150393170801C18393554A
:1011740006013355150342074D8FB386A702AA858E
:10118400637CD70042979305F5FF63670701637596
:10119400D7009305E5FF4297B306D74033F716030C
:1011A40042064182B3D6160342073385D702B3679A
:1011B400C700368763FCA700C2971387F6FF63E76F
:1011C400070163F5A7001387E6FFC297C205898F5D
:1011D400D98DDDBD63E1D514416763FEE6021307D3
:1011E400F00FB335D7008E05556733D5B600130716
:1011F40047BB2A9703470700130500022E97B30540
:10120400E5406311E5020545E3E8F6F233B5C800AD
:101214001345150015B737070001C145E3E6E6FCA1
:10122400E145D9B73358E600B396B6003368D80021
:1012340033DEE700935E0801B376DE03B397B700AD
:1012440033D7E8003313B6003366F7009317080169
:10125400C18313570601335EDE03C206558F338FF5
:10126400C7037285637CE70142971305FEFF63673A
:1012740007016375E7011305EEFF42973307E74162
:10128400B376D7033357D703C206338EE7029317D7
:101294000601C183D58F3A8663FCC701C297130642
:1012A400F7FF63E7070163F5C7011306E7FFC2977A
:1012B4004205C16E518D9386FEFF3378D5001356D7
:1012C4000501B376D30013530301B387C741330E2B
:1012D400D802B306D60213570E01330868023698B3
:1012E4004297330666026373D700769693560701D6
:1012F400369663E0C702E395C7D8C167FD177D8FB3
:101304004207337EFE00B398B80072978145E3F537
:10131400E8E27D15B5B38145014539BD37081000B4
:101324007D180111B377B80013D745013378D8007D
:1013340013D3460122CC8E071374F77F1357D501BC
:101344000E0826CAD98F93D4F5011357D601137307
:10135400F37F06CE4AC84EC6FD8233670701931554
:1013640035000E06330864406398D4226353000F9B
:1013740063180302B366C700638306581305F8FFB6
:1013840009E92E963335B600BA97AA97B285054473
:10139400B9A89306F07F631DD8001304F07F4DA213
:1013A4009306F07F630ED418B7068000558F4285EC
:1013B4009306800363CBA608FD4663C2A606130802
:1013C40000023308A840B3160701B358A600331629
:1013D4000601B3E616013336C000558E3357A70015
:1013E4002E963335B6003E97B307A700B28537076C
:1013F40080007D8F6306071405041307F07F630DD7
:10140400E448370780FF7D17F98F13F5150013D7CC
:101414001500598D9395F701C98D858315A29306FF
:1014240005FE93080002B356D7000148630815016E
:10143400130800043305A8403318A7003366C80016
:101444003336C000558E014761BF598E3336C00014
:10145400DDBF630B080A330583400DE4B3E6B70030
:10146400638306429306F5FF99E6B295BA9733B6BD
:10147400C500B29729BF1308F07F631D0501BA8721
:10148400B28521BF9306F07FE30BD3FEB70680003D
:10149400D58FAA86130580036343D5067D45634B28
:1014A400D502130800023308D84033950701B3D896
:1014B400D500B395050133651501B335B0004D8DE5
:1014C400B3D7D700B305C500BA9733B6C500B297F2
:1014D4001A8431BF138506FE9308000233D8A7008F
:1014E40001456387160113050004158D3395A70084
:1014F4004D8D3335A0003365A8008147E1B733E54E
:10150400B7003335A000D5BF9306140013F5E67F6A
:101514003DE1B3E6B70029E4638B0636B366C70042
:1015240085C22E96BA973335B600AA97370780003E
:101534007D8FB28511C7370780FF7D17F98F05446A
:1015440013F77500630C073413F7F500914663072E
:10155400D734138745003335B700AA97BA853DAE13
:1015640099DE598EE30B06E28144B70740008145BA
:101574001304F07F25A61305F07F638DA6302E9605
:101584003335B600BA97AA971395F7010582B36568
:10159400C500858336846DB76356000D6311030857
:1015A400B366C700638D06341305F8FF11E933866B
:1015B400C54033B5C500998F898FB2850544B1A064
:1015C4009306F07FE30BD8DC9306800363C8A60878
:1015D400FD4663CFA604130800023308A840B316DF
:1015E4000701B358A60033160601B3E616013336D5
:1015F400C000558E3357A7003386C54033B5C500A8
:101604003387E740B307A740B2853709800033F733
:1016140027011DD77D1933F92701AE895DAA9306E9
:10162400F07FE30FD4F0B7068000558F428569BF81
:10163400930605FE93080002B356D70001486308D9
:101644001501130800043305A8403318A7003366B6
:10165400C8003336C000558E014779BF598E3336E2
:10166400C000DDBF6305080C330583401DE833E883
:10167400B700630808281308F5FF631B0800B305C7
:10168400B640B307F7403336B600918FB6843DB702
:101694009308F07F63101503BA87B2851304F07FB3
:1016A4007DA01308F07FE30903FF37088000B3E748
:1016B40007012A8813058003634605077D45634DAA
:1016C400050393080002B38808413395170133DEFC
:1016D4000501B39515013365C501B335B0004D8DD2
:1016E400B3D70701B305A640B307F7403336B600B6
:1016F400918F1A84B68411BF130508FE130E0002DD
:10170400B3D8A70001456308C801130500043305D5
:1017140005413395A7004D8D3335A00033E5A8006E
:101724008147C9B733E5B7003335A000D5BF1305EA
:1017340014001375E57F25E933E8B7003365C70066
:1017440021E8631808006302051CBA87B285B684D1
:10175400C5BBE30705DE3388C540B3B8050133854F
:10176400E74033051541B7088000B3781501638A53
:101774000800B305B640B307F7403336B600918F7F
:10178400F9B7B365A80063860518AA87C2854DBB5F
:101794006318080063010518BA87B285B684F5BEDC
:1017A400E30D05BED1B3B389C54033B535013389E3
:1017B400E7403309A940370580003375A90025C9DE
:1017C400B309B640B307F740333636013389C7400F
:1017D400B684630409064A85EF00503D130785FF6C
:1017E400FD4763C2E70693070002998F3319E900A6
:1017F400B3D7F900B3E72701B395E900634F870630
:10180400018F930617007D466345D6041307000233
:10181400158F3396E70033D5D500B395E500498E8F
:10182400B335B000D18DB3D7D700014411BBB3E5B4
:101834002901C5F181470144D9A84E85EF0010372D
:101844001305050261BF930785FDB397F900814530
:1018540075B705171306000233D7E7000145638700
:10186400C60013050004158D3395A7004D8D33353F
:10187400A000B365A70081474DBF198C370780FFCF
:101884007D17F98F75B9BA87B2852A8455B9BA8795
:10189400B2857DB11304F07F81478145370780000D
:1018A4007D8F11CB05041307F07F630BE406370724
:1018B40080FF7D17F98F1397D70113D53500598D04
:1018C4001307F07F8D836319E4005D8D814709C59B
:1018D400B70708000145814413174401B706F07F98
:1018E400B207F2406244758FB183FE04D98F33E7A7
:1018F40097004249D244B249BA8505618280428444
:1019040081B1BA87B2852A8499B5814781458144DA
:1019140071B78147EDBF81458144B707400089B95C
:101924008147814549BF79714AD013D9450126D2EF
:101934004ECE52CC5AC862C49394C50006D622D463
:1019440056CA5EC61379F97F2A8A328B368CB180E7
:1019540093D9F501630209089307F07F6308F90C32
:10196400935AD5018E04B3E49A00B70A8000B3EA0F
:10197400540113143500130919C0814B1315CC00FD
:101984009354C50013554C019375F57F135CFC010A
:10199400E9C19307F07F6389F510139534009357D9
:1019A400DB015D8DB7048000C98C931F3B00138558
:1019B40015C0814713972B005D8F7D173946B3C639
:1019C4008901B305A9406363E61055660A07130647
:1019D400C6B3329718430287B3EAA40063820A06A7
:1019E4009DC82685EF00901C930755FF71476349F6
:1019F400F702F54A130485FFB38AFA40B3948400CE
:101A0400B35A5A01B3EA9A0033148A009305D0C03A
:101A14003389A5409DB7EF00701913050502E9B796
:101A2400930485FDB31A9A000144CDB7B3EAA40028
:101A3400638C0A002A84A68A1309F07F8D4B3DBF6C
:101A440001440149854B1DBF01441309F07F894BB3
:101A540035B7B3EF640163820F069DC82685EF0096
:101A6400F014AA85938755FF71476349F702F54639
:101A7400938F85FF9D8E3395F401B356DB00B3E459
:101A8400A600B31FFB019306D0C03385B64015B73B
:101A94005A85EF00B01193050502E9B7138585FD5A
:101AA400B314AB00814FC5B7B3EF6401638B0F0070
:101AB400DA8F1305F07F8D47F5BD814401458547D5
:101AC400D5BD81441305F07F8947EDB563E6540124
:101AD40063969A2A6364F42B1396FA01135714003D
:101AE4009317F40193DA1A003364E6001395840023
:101AF40093D88F01B3E8A800418133DEAA02939EF4
:101B0400080193DE0E011357040113938F00B3FAF7
:101B1400AA0272863388CE03C20A33675701637CF4
:101B2400070146971306FEFF6367170163750701F4
:101B34001306EEFF469733070741335EA7024204BC
:101B440041803377A702F2823388CE034207418F64
:101B5400637C070146979302FEFF63671701637571
:101B640007019302EEFF469733040741420641689A
:101B7400B3625600130EF8FF13D6020133F7C20105
:101B8400135F0301337EC301B303EE02B304C60340
:101B94003307EF02B30FE6033306970013D70301AD
:101BA400329763739700C29F135607017E96C16FE5
:101BB400FD1F3378F7014208B3F3F3011E986367FE
:101BC400C4009684631EC40263FC07039A9733B768
:101BD400670046973A949384F2FF63E68800639122
:101BE400880263EF67006366C400631B860063F9C1
:101BF40007019A9733B7670046979384E2FF3A94B4
:101C040033880741118CB3B707011D8CFD5F6387CF
:101C1400880EB35FA402135708013374A4027E86AE
:101C2400B387FE034204598C637CF4004694138604
:101C3400FFFF636714016375F4001386EFFF469496
:101C44001D8C3357A4024208135808013374A402AC
:101C5400BA87B38EEE02420433648800637CD401F5
:101C640046949307F7FF636714016375D4019307E0
:101C7400E7FF469442065D8E93170601C18313570E
:101C840006013308EF023304D441330FFF02B38E4D
:101C9400C703330EC70393D70E01729FFA9763F4F9
:101CA400C70141673A9813D70701429741687D18E5
:101CB40033F507014205B3FE0E0176956366E40031
:101CC400631FE418B28F1DC94694930FF6FF636136
:101CD40014036366E4006313E418637DA30093179D
:101CE400130033B367009A98930FE6FF46943E833C
:101CF4006314E4006304650093EF1F009387F53FCA
:101D0400635BF00A13F77F0001CF13F7FF0011465E
:101D14006308C70013864F00B33FF601FE94B28FE9
:101D240037070001658F19C7B70700FFFD17FD8C42
:101D3400938705401307E07F6342F70693DF3F0074
:101D44001397D4013367F70113D53400D20737064C
:101D5400F07F3205B2502254F18F31815D8DFE0641
:101D6400B367D50092540259F249624AD24A424BAF
:101D7400B24B224C3A85BE8545618280FD15814770
:101D8400B5B3CE86D684A28FDE870D47638AE70A71
:101D94000547638EE70A0947E392E7F601450147E1
:101DA4009307F07F65B7E286CDB7B7040800814F8B
:101DB40081468D47D9BF05451D8D130780036348B0
:101DC400A7087D476349A7049385E541B397B40009
:101DD40033D7AF00B395BF00D98FB335B000CD8FE3
:101DE40033D5A40013F7770001CF13F7F70011469A
:101DF4006308C70013874700B337F7003E95BA87D7
:101E040037078000698F39E71317D5018D835D8FFC
:101E14000D81814725BF0557B307F740130600021C
:101E2400B3D7F40001476306C5001387E54333972E
:101E3400E4003367F7013337E000D98F01455DB71C
:101E44003705080001479307F07F814601B7014534
:101E54000147C1B7014501478547CDBD7E86B28F95
:101E640061BD79714ECE93D9450122D426D252CC8C
:101E740056CA5EC69394C50006D64AD05AC893F98A
:101E8400F97F2A84B28BB68AB18013DAF501638FA5
:101E940009069307F07F6381F90C9357D5018E04EB
:101EA400DD8CB7078000DD8C13193500938919C0C8
:101EB400014B13D54A011394CA001375F57F318081
:101EC40093DAFA0145CD9307F07F630FF50E93D7AC
:101ED400DB010E045D8CB70780005D8C130515C013
:101EE40093973B00014793162B00D98E4E95FD1610
:101EF400394833465A01930515006368D80E556571
:101F04008A06130585B7AA969442828633E9A4000B
:101F1400630D090485C826855129130755FFF14728
:101F240063C6E702F547130985FF998FB39424012B
:101F3400B357F400DD8C331924019309D0C0B3895D
:101F4400A940BDB7A52113050502C1BF930485FDB2
:101F5400B31494000149D5B733E9A400630B090015
:101F64002A899309F07F0D4BA9B781448149054B18
:101F740089B781449309F07F094B25BFB367740186
:101F8400A1CF05C822851D21930655FFF14763C7DC
:101F9400D7027547930785FF158F3314F40033D7A1
:101FA400EB00598CB397FB001307D0C03305A7404F
:101FB40015BF5E85E52E13050502F9B7130485FDEB
:101FC40033948B008147CDB7B367740191CBDE871F
:101FD4001305F07F0D4701BF01440145054721B7B3
:101FE40001441305F07F0947FDBD416F930EFFFFC8
:101FF4001357090193D807013379D901B3F7D701EE
:1020040033882803B306F902B30FF7023303F80148
:1020140013D806011A98330E17036373F8017A9ED6
:10202400935308013378D801B3F6D601135F040142
:10203400B372D40142083698B30E5702B30659025C
:1020440033092F033303D90113D906011A9933072E
:10205400E7036374D90141631A97935E0901C16967
:10206400BA9E1387F9FF3379E900F98E13D404017A
:102074004209F98C338797023699CA933303F402E1
:10208400B3869802B3878802B38866009356070123
:10209400C69663F36600CE9793D80601C169B38FE1
:1020A400F8009387F9FFB3889202FD8E7D8FC206F4
:1020B400BA96B3075402B3049F0233038F02BE944B
:1020C40013D40801A29463F3F4004E93C167FD177F
:1020D40033F7F400B3F8F80042071E9E46973339ED
:1020E4002E01769733042701369EB336DE00B308FB
:1020F400F401338FD8003337D70133342401598C9A
:10210400C180B3B8F801B336DF002694B3E6D80033
:1021140036941A9493577F0126045D8C93179E007E
:10212400B3E70701B337F000135E7E0113179F0076
:10213400B3E7C701D98F37070001618F4DCB13D7A0
:102144001700858BD98F1317F401D98F05809386D7
:10215400F53F6350D00A13F7770001CF13F7F70068
:1021640011456308A70013874700B337F7003E946F
:10217400BA8737070001618F19C7370700FF7D173A
:10218400798C938605401307E07F634ED70E13D7EF
:1021940037009317D401D98F0D8013974601320469
:1021A400B706F07F758F3180598C7E06B250336745
:1021B400C400225492540259F249624AD24A424B10
:1021C400B24B3E85BA854561828052862684CA8791
:1021D4005A8789466309D70A8D46630FD70885460F
:1021E400E317D7F6014481479DA05686DDB7AA853B
:1021F400B9BF0545158D13078003E345A7FE7D4749
:102204006349A7049385E5413317B400B3D6A70007
:10221400B397B700558FB337F000D98F3354A40068
:1022240013F7770001CF13F7F70091466308D7003F
:1022340013874700B337F7003E94BA873707800007
:10224400618F39E71317D4018D83D98F0D808146AF
:10225400A9B70557158F130800023357E4008146C8
:10226400630605019385E543B316B400D58FB337F0
:10227400F000D98F01446DB73704080081479306F5
:10228400F07F014619BF014481479306F07F31B7BF
:1022940001448147854611B713D74501370810001B
:1022A4009307F8FF1377F77F1306E03FED8FAA86B5
:1022B400FD816351E6041306F0410D8E1385F5FF8D
:1022C400635BC702014585E913053043198D7D46DB
:1022D400B3E70701634AA6001307D7BEB397E70025
:1022E40033D5A6005D8D828013053041198D33D519
:1022F400A700828001458280411106C622C426C2FD
:1023040021CD9357F54133C4A7001D8C9354F50197
:10231400228569281307E041A947098F63C8A702EA
:10232400AD47898F5505B357F4003314A4002685AF
:10233400B2075207B1837E05D98FB24033E7A700B5
:10234400228522449244BA85410182805515B317EF
:10235400A40026850144E9BF01478147E5BF411137
:1023640022C406C62A8421C191201307E041A9474B
:10237400098F63C4A702AD47898F5505B357F4008D
:102384003314A400B2402285B20722445207B18319
:10239400B366F700B68541018280930755FFB317F2
:1023A400F4000144C5B781470147E9BFC1676375BC
:1023B400F5029307F00FB3B7A7008E07556793068E
:1023C40000029D8E3355F500930747BB3E950345A8
:1023D40005003385A640828037070001C147E36FBB
:1023E400E5FCE147E1BF2A8309CA83830500230092
:1023F40073007D16050385056DFA82802A8311C654
:102404002300B3007D16050365FE82801307800553
:1024140023A8E1A87D5582801307800523A8E1A89D
:102424007D5582801307800523A8E1A80145828099
:102434001307800523A8E1A87D5582801307800532
:1024440023A8E1A87D558280411122C4371400409D
:102454008357840171777D17C207C183F98F06C63C
:10246400231CF4001945EF1040321305600497E073
:10247400FF1FE78000C6A147232CF40A8D452145A0
:10248400EF10401E014681450545EF10C02CEF10AA
:102494006029556513050504EF10815FEF00B06CEA
:1024A400EF100001EFD0100BEF00900CED2297E03D
:1024B400FF1FE780E0BD82803D897D15954763E578
:1024C400A70ED567938787D50A053E951C41011150
:1024D40006CE82872C0013054030EFD0C05F2C005D
:1024E4000545EF30D0725565130545CBEF10415AC1
:1024F400F2400561828003C725008D47E31AF7FE89
:102504005565130545CCF24005616F10615803C74A
:1025140025009547E31EF7FC03D7A5000D66239815
:10252400E18003C52181130606209145EF10B01DFB
:102534005565130545CDC1BF03C725008D47E31974
:10254400F7FA5565130505CE7DBF83C725001147EE
:102554006398E7005565130585CFEF10615319A8FB
:1025640019476393E70283C565005565130545D193
:10257400EF1001378547300085451305503023049B
:10258400F100EFD02061ADB71547E395E7FE55653F
:10259400130505D3D9B7F24083C525005565130546
:1025A40085D405616F10C13382803688BA863E8730
:1025B4006315080083C60600B9A485476313F800B1
:1025C400BDA48947631FF80003C521814111130687
:1025D400401F894506C6EF101013B2400145410162
:1025E40082800145828001119397050122CC06CE99
:1025F400C1872E8463DF070003C52181EF10A05E2D
:1026040019C1EF1000532165218DF2406244056128
:10261400828093F7150013C51500E5FB93F7450079
:1026240099CF83C7218103D501811307401F8146B8
:102634002146A145EFD0E02C13454400F9B793F7A8
:10264400850095C303D50181014789460946814523
:10265400EFD00070AA855565130505D7EF10412802
:10266400134584005DB713F5250045D1B707020073
:102674009387072074001146854501453EC6EF0047
:10268400807503C52181130600328945EF10B00718
:10269400134524009DBF0111096522CC1305A55ED5
:1026A40006CE26CA13842181EF10504485442300AA
:1026B400A400700085451305503023069100EFD027
:1026C400604D37160020130686119D4513056030B2
:1026D400EFD0404C37160020130606EFE9451305EA
:1026E4007030EFD0204B5566130686D8D54501458A
:1026F400EFC010618D4770009145130570402305AC
:10270400F10023049100A305910002C6A304010073
:10271400EFB0D0773000854513050040EFB0107757
:1027240013069100854513051040EFB0307613066B
:10273400A100854513052040EFB050751306B10084
:10274400854513055040EFB070741520B71500206F
:10275400938505EE13858180EF00A0660345040090
:102764006244F240D244854505616F20317EB7252D
:102774000020416541119385C51A7D1506C622C402
:1027840026C24AC0EF60200037150020B71600208B
:102794001304C5F09386C6024146C9451305C5F026
:1027A400EF50B0744C4CAA840945392C83D741822C
:1027B400372900209305C91B2392F5008357A40CE5
:1027C40003D70182239505002390F5008357A40DB8
:1027D4002396E5000357A4102391F500854723832E
:1027E400F5002394E5002387F5000D45C105E92A8A
:1027F4009305C91B0D45D92BB240224402492685B5
:102804009244410182808D679387D7A40145631F59
:10281400F6008D472945639BF50085473545639749
:10282400F600034707000145A38CE18E82808D6783
:102834009387D7A4631EF6008D47639BF50083C777
:10284400918F2300F70085472390F600014582808D
:1028540023900600E5BF03A84500411122C406C623
:1028640026C283471800834808000D68A207B3E70F
:102874001701130828902944639607038547B284F7
:10288400EF40E04E2A8419ED03A7019001CF83C7DE
:10289400140003C50400A207C98F93B7170013855A
:1028A40017000297B240228522449244410182805B
:1028B40083474500858BADC7011122CC2A8403557B
:1028C4002500B72500209385451D06CEEF40204501
:1028D400058939C103552400014781460546ED4564
:1028E400EF40C0002AC60DC9B717002083D72706BA
:1028F40001462C002314F10085472315F10083C7FA
:1029040061822300F50003552400EF50000A09C535
:10291400ED452800EF40E014F240624405618280F6
:1029240082802D4821E3D84132858347170003462E
:1029340007000D67A207D18F130697A16396C702FC
:1029440003C6618213072003938761826304E60050
:102954002380E70005472390E60083C7070001486A
:102964002300F50042858280130787902948E39B62
:10297400E7FECC45894741112390F600094606C677
:1029840097E0FF1FE780A0B5B240014842854101AE
:102994008280B7250020416541119385451D7D1531
:1029A40006C6EF50505EB240B7160020371500201F
:1029B40093868608414695451305850341016F506A
:1029C400D05223A0A19082808947630BF5008D47E4
:1029D4006300F50231E183C761822380F5008280C0
:1029E400B717002083D727042390F5000145828080
:1029F40083D781822392F500B7170020938787033A
:102A040003D7A70283D7A7032390E5002391F500FA
:102A140085472383F500D9BF094582809387618266
:102A240083C6070013072003638FE60041110D6579
:102A340006C61305458B2380E700EF60D06AB240D9
:102A440001454101828001458280C167F917630E07
:102A5400F502411122C406C685472A84639CF50009
:102A640022852244B240B72500209385451D4101AB
:102A74006F50705189476396F5008545EF6050614A
:102A840065D1B24022444101828082802A8703A515
:102A9400819183C7C19083C6718199E30145828086
:102AA400035605006316E60003466500E309D6FEF7
:102AB400FD1793F7F70F2105CDB7B2862E86AA85A9
:102AC4005565130505DD6F00B16101119305000320
:102AD400094506CEEF20907A930500050D45EF20B9
:102AE400F0799305C0030545EF2050798547130617
:102AF400F100854513055030A307F100EFD080099C
:102B0400F2400561828085476398F50019E22383CA
:102B1400B190238EC190828009476395E50019E244
:102B24002383F19082808547631AF50003C5D19011
:102B34001166130686A989456F10E03C894763171F
:102B4400F50003C5D19089456F10405B828083A74F
:102B54000191011122CC06CE2E8499C79C4789C7C6
:102B64006244F240056182876C0013057040EFB047
:102B7400900B324622858145EFB0306CF2406244BE
:102B84000561828001119397050126CA06CE22CCE5
:102B94004AC84EC652C4C187AE8463D3070803C56E
:102BA400D190EF1040042A8421C9034705009307FC
:102BB400000D6310F7048347250045476388E70445
:102BC40065476398E7025565130545DFEF005151EA
:102BD400130954009309B400556A83450900130589
:102BE4008AE00509EF00D14FE39929FF2945EF0059
:102BF400D1522285EF00F0732165258DF2406244A5
:102C0400D2444249B249224A0561828003466500A2
:102C1400834575005565130505E1EF00714CD1BF7F
:102C240093F7150085C303C5D19037160020B71557
:102C340000201306060A93854509EFC0305113C5D9
:102C440014006DBF13F5250055D9C93B03C5D190B8
:102C54001166130686A98945EF10E02A13C52400DE
:102C640071BF797122D44AD04ECE06D626D252CC28
:102C740056CA91472A84AE8913898190631BF50251
:102C840003D7A5002392E1902383019083A70191A8
:102C940091C7DC4781C7CE8522858297232089008E
:102CA400B250225492540259F249624AD24A4561BE
:102CB400828003270900E31BF7FC9384419003D52A
:102CC40004008545593383DA0400C167F917639D0D
:102CD400FA022383019085449305E10013055041D2
:102CE400A38B918023070100EFB0E0738347E100D9
:102CF400B1E39384C19103C704009147E318F7F843
:102D0400E9332380040059B703AA819183C4C19095
:102D1400E9D003552A0011C99305E100EF40605B37
:102D240009C54C455685EF501026FD1493F4F40F55
:102D3400210AF9BF83A7419183C74700898BD5DB5B
:102D44009305000A0945EF2070539305000A0D45C9
:102D5400EF20D05281450545EF2050521306E10083
:102D640085451305503023079100EFC0B06251B779
:102D740001110D6522CC130585B806CE1384D190BC
:102D8400EF10C05685471306F10085452300A400C3
:102D940013054041A307F100EFB0500F7D55EFC07C
:102DA400B0067D55EF50101BED360D651305A5B229
:102DB4000939034504006244F240854505616F20EA
:102DC400F11823A8B19023AAA190828023ACB190DA
:102DD4002386A190828083A78190797106D622D41C
:102DE40026D24AD04ECE52CC56CA11476393E70C32
:102DF40083C76190414495CF03A4819183C7C19057
:102E040003C771813289B68985C783464400639CB0
:102E1400A602834654006398B60283466400639412
:102E2400E6020355240093056100EF40804A0DE15A
:102E34005544B2502285225492540259F249624AAE
:102E4400D24A45618280FD1793F7F70F21046DBFC5
:102E5400938441904C4503D50400EF30506C0589B0
:102E640061D903D50400131A0901135A0A01014751
:102E740081465286ED45835A0400EF3030272AC636
:102E84004D4445D94A86CE85231451012315410169
:102E940097D0FF1FE780A06403D5040001462C00EF
:102EA400EF40B0302A8451D5ED452800EF30703B17
:102EB40049B709474144E38EE7F62C001305504116
:102EC40023040100EFB02056834781008DCB930586
:102ED40000020945EF20903A930500030D45EF20C9
:102EE400F03995450545EF20703985473000854513
:102EF400130550302304F100EFC0D0491DBFF13653
:102F0400414405BF41114AC03689D44126C206C690
:102F140022C403C41600B28403C6060022040D684A
:102F2400518C01CF1308B8A42D4563080407B2409F
:102F3400224492440249410182809306D8A463004A
:102F4400D402930628A2630CD400F5789388E85C35
:102F5400A298C20893D80801854663EC160303D5EA
:102F6400A5002D361DC183A701912286224403A802
:102F7400070083455500B24003454500A6874A87AC
:102F84009244024985464101028823100900014503
:102F940079BF1306B8A46319C40203D8A1811D45DF
:102FA400E37707F93308E84063D307013E88CC454B
:102FB40013160801231009014182BA95268597D07A
:102FC400FF1FE780C051E1B79307A8A46318F4007A
:102FD40091472310F9001146CC45CDB7930788904B
:102FE4006317F40089472310F9000946F5B79307DE
:102FF400E8A4631AF400DC452310D90083C7070052
:103004002380F40069B713087890E31204F9D9BF58
:10301400011122CC06CE26CA4AC82317D1002D445A
:1030240029EBDC412E89B28403C4170083C6070050
:103034008D672204558C9386D7A46306D4009386A7
:1030440027A3631FD4020355A900EFF03FA419E19D
:10305400014405A083A7019183455500034545001C
:1030640003A807002286A6871307E1008146029879
:103074002A84F24022856244D24442490561828016
:103084009386C7A46313D4028357E10005473544EC
:10309400E391E7FE0345060013040008E3EBA7FCF5
:1030A40083A70191DC43829765B7938627906315C4
:1030B400D4068356E1008547EF30704B2A8455F9D6
:1030C40003A781918356A90083C7C190D1D3035626
:1030D4002700631CD60283A701910345470083455B
:1030E400570003A8070083C7140003C704008946D8
:1030F400A207D98F0547639FE7000D66A6871307CC
:10310400E100130626900298ADB7FD1793F7F70F69
:1031140021076DBF8D46D5B79387E7A4E31AF4F270
:103124008357E10005473544E395E7F4034506007A
:1031340013040008E3EFA7F2DC452380A70083A76C
:1031440001913335A0000905DC43B1BF37070020E6
:103154001307870918C13707C0A858C105671307A3
:10316400479C2315E500370700201307070B23149A
:10317400B50018C98280397126DA06DE22DC4AD805
:103184004ED652D493048008F3B7048093F787088B
:103194003EC20F10000037140040130A70052300CC
:1031A4004405930980FA230034050F100000834777
:1031B400F40293F7F70F93E71700A307F402230031
:1031C40004049247F3A707800F1000001945312526
:1031D40013894192AA852320A90055651305C5E2E8
:1031E400EF0001708146714685458147014713050B
:1031F400507ED525B7070020938787093EC6B707B9
:10320400C0A83EC88567035709009387479C231BC2
:10321400F100B70700209387070B6800231AE10029
:103224003ECEEF10E037F3B4048093F4840826C450
:103234000F10000023004405230034050F10000084
:10324400010001008347140393F7F70F93E7070284
:10325400A308F40223000404A247F3A707800F1075
:103264000000F2506254B7E700E03707001023A0D3
:10327400E710D2544259B259225A21618280B2874E
:10328400411113962500BE8506C6EF00F006B24034
:10329400014541018280011122CC26CA9396250062
:1032A4002A84B284AA850146054506CE36C6EF00B7
:1032B4008150B2462686A2850945EF00C14FF240EF
:1032C4006244D2440145056182805D719397050192
:1032D400A2C486C6A6C2C1872E8463DE0700EF009F
:1032E400901019C1EF00F0042165218DB6402644E9
:1032F40096446161828093F7150013C51500FDF7AC
:103304008964B3F79500B9C3EF8070591945F12169
:1033140023A2A192AA850A85153D51468A85681083
:10332400EFF06F8C6810EF108024552A37F60200F6
:103334002397A192130606E0896503C5C192258CE3
:10334400EF00703C1315040141814DB7916433F5CE
:10335400950049DD55651305C5E3EF006173130658
:1033640000649165D9BFD56555655D715D469385EA
:1033740005E41305050486C6A2C497D0FF1FE780A1
:10338400C01C19E55565130585E5EF00617001A0C2
:10339400B7F700E023A40700795798CB3D4798C3BB
:1033A40093078008F3B7078093F787083EC00F1090
:1033B4000000B7170040130770052380E7041307C4
:1033C40080FA2380E7040F100000B847B70600C155
:1033D400FD16758FB706000E558FB8C723800704F6
:1033E4008247F3A707800F100000B71700209387C8
:1033F400E79923A4F192130700F8B7E700E0A38A42
:10340400E740130640038145680097D0FF1FE7801B
:10341400C00FB71700209387C73A05643EC69307C9
:1034240004E02318F100E17793C727812310F10208
:10343400B7B703003ECAB7070103938707103ECC12
:10344400ED47231EF1008547230FF1008D67938715
:1034540027283EDC8D679387A7293EDEB7F5030056
:103464008D679387C76081465000E10519453ED6B4
:10347400EF00613419464C0013053102EFE0BFF64A
:10348400B24799C7835701011304F4BF6363F4007F
:1034940001A06800EF003068AA8519C555651305B9
:1034A400C5E6EF00E14301A0B64026446161828095
:1034B40041110D6522C41305E52C06C61384C1927F
:1034C400EF00D0622300A4007D31034504002244B0
:1034D400B24013060032896541016F00D02203A572
:1034E4000193411106C622C426C24AC0EFE03FE759
:1034F4002A86AE8603A5818583A5C185EFE0AFC288
:1035040003A6018683A64186EFE0BF9503A6018644
:1035140083A64186EFE0FF942A86AE8603A58185C3
:1035240083A5C185EFE02FC02A86AE862A89AE84A2
:1035340003A5818583A5C185EFE0EFBE03A681863F
:1035440083A6C186EFE0FF9103A6018783A6418786
:10355400EFD0DFDCEFE05FD49307850CC207C183B3
:10356400130700641305006463E3E7003E85420526
:103574004181EFE07FD84A86A686EFE09F8E03A6BE
:10358400018783A64187EFD07FD9EFE0FFD0B24017
:103594002244420592440249418141018280B71785
:1035A400004003C787009306000C1377070C6315CC
:1035B400D70003A50193828003C787009306000404
:1035C4001377070C6313D70283C68700130700021F
:1035D400FD8A89C603C587001377F5013745C323E0
:1035E400130505603345E502828083C6870013070F
:1035F4000002FD8A89C603C587001377F501375594
:10360400E80113050580F9BFB7F700E08847828019
:1036140032858147B7360040214663C3A7008280C4
:1036240003C7B6401377F70FE30CC7FE3387F500E3
:103634000347070085072384E640C5B71387C18283
:10364400AA870843B72600209386464AAA9763E9C7
:10365400D7008A86938606FC63E4F6001CC3828046
:103664007D558280914763E8B702D5679387C7E8A1
:103674008A05BE959C418287B71700409387070847
:10368400D85B1345F5FF698FD8DB985B698F98DBAE
:103694009853798D88D38280B717004093870708A1
:1036A400D45B1347F5FFF98ED4DB945B558D88DB2F
:1036B4009453758F98D38280B71700409387070877
:1036C400D85B498FD8DB985B1345F5FFC1B7B717B3
:1036D400004093870708D45B1347F5FF758FD8DB49
:1036E4009853598D45BFB717004093870708D85B97
:1036F400498FF5B7411122C406C62A844D3529479E
:10370400B307E502B2408D83B3D7870222449507FD
:10371400B3D7E70237370040C207C1832316F74007
:1037240041018280716541111305052006C6D93710
:10373400B7370040130710F82381E7400D47A381F2
:10374400E74013070004A380E74005472387E740C9
:10375400B24041018280371700408357A701C20756
:10376400C18393F707FCC207C183231DF70009CD6A
:103774008357A7018E05C207C1835D8ED18DC20513
:10378400C181231DB70082808280371700408347A0
:10379400E70412054111BD8BC98F93F7F70F930608
:1037A4008008F3B6068093F6860836C60F1000002C
:1037B400930670052300D704930680FA2300D704E8
:1037C4000F1000002307F70423000704B247F3A7F0
:1037D40007800F10000041018280011106CE22CC27
:1037E40026CA894763EFA70A0544B314A400B71790
:1037F400004003D70705B16642074183558F2398DC
:10380400E7041307800873370780137787083AC6DD
:103814000F100000130770052380E704130780FAD4
:103824002380E7040F10000003C737051375F50F55
:10383400136707F81377F70FA389E704A389A7048D
:1038440003C737051377F70F13670702A389E70444
:1038540023800704B247F3A707800F1000008147B5
:103864000146371700408355070513950501635B2F
:1038740005040354070503472705A2074A041377E1
:10388400F70FBA97BA0749803E94113B3354940218
:10389400F240D24433558502624423A8A1920561C3
:1038A4008280954763E8A700930725000544B31475
:1038B400F40035BF994793040040E30AF5F29304FA
:1038C400F07F35B78346270593F6F60F63F3C600FA
:1038D4008507368649BF011122CEAA880143930E7B
:1038E400407E130F0019930F400663E41E199308DA
:1038F4000019130E4006B3781503854F8D42994382
:103904007D44337EC5030D891335150063E8BF1864
:10391400E1457D161A96B3F6B60293058070B38618
:10392400B602F9453307B7028145369793D6170097
:103934003697858B83A6019391C3B685B307D602C8
:1039440021667D161308302A13D5F700F18F33074B
:10395400D702B3870703798E06063D83B385D50264
:103964009166B69593F6F71F9E06BD81B296AE9604
:10397400A583BA9713D70601BA972D671307078C47
:1039840033D6E702C206C182B7150040B3F7E70297
:103994002A96C207DD8E83C7F50293F70708A303AF
:1039A400F1000347710083C7F5021377F70F93F70C
:1039B4000708E312F7FE83477100B715004093F739
:1039C400F70F6385071293078008F3B7078093F70F
:1039D40087083EC40F100000B71700401307700596
:1039E4002380E704130780FA2380E7040F10000004
:1039F400D0DB03C71703136707F81377F70FA38800
:103A0400E70223800704A247F3A707800F100000F2
:103A14001166371700407D165C5B485F93054703CA
:103A2400A98FF18FF5FB93078008F3B7078093F70D
:103A340087083EC60F100000930770052300F704A3
:103A4400930780FA2300F7040F10000094C1834702
:103A5400170393F7F70F93E70704A308F70223006C
:103A64000704B247F3A707800F10000072440561F2
:103A74008280FD1833FEE8031308E016630E0E007F
:103A840033FEF8031308D01663080E0013F8380049
:103A9400133818001308D816429381BD639D55004E
:103AA400054863860800014863030E002A887108EC
:103AB4004293FD15A1BD13FF1500938EE5FF330856
:103AC400E441E3F7D3FF1308EF01DDB783C7F50241
:103AD40093F70708A303F1000347710083C7F502B6
:103AE4001377F70F93F70708E312F7FE8347710084
:103AF40093F7F70FE1DFC1BD0D06719A81473307D4
:103B0400F5006393C700828014433387F50091075F
:103B140014C3F5B723AC05FE1C4189E7010001007D
:103B24000CC182803E8783A787FFEDFF232CB7FE5D
:103B34008280411122C437E400E026C204403707E2
:103B4400200006C6F98C2320E4180F10000009E9B0
:103B5400232094101545B2402244924441018280AE
:103B64000347E5FF9307F00F6306F7002320941043
:103B74001145D5B797D0FF1FE78080F40145232076
:103B84009410D1BF411126C2B7E400E04AC003A992
:103B94000400B707200006C622C43379F90023A025
:103BA400F4180F10000009E523A02411014535A0E5
:103BB4009565938505D0C98D2A842105B3C505086B
:103BC40033450508EF10116365D1FD572320050027
:103BD40042A17CA123A024112105B2402244924495
:103BE4000249410182804111B7E700E026C28443C3
:103BF4003707200006C622C4F98C23A0E7180F104B
:103C0400000093864193904201440147B28799EFA3
:103C140019C8832784FF6311C4069CC2FD57232C53
:103C240004FE230FF4FEA165D1291DA083C5E7FF7F
:103C3400639DA50221C0832784FF6315C4029CC22F
:103C4400FD57232C04FE230FF4FEA165EF10113061
:103C5400B24022852244B7E700E023A097109244A3
:103C640041018280232CF7FEE1BF11E03E8783A748
:103C740087FF71BF3E84E5BF232CF7FE45B7411192
:103C84004AC037E900E022C403240900B707200032
:103C940006C626C27D8C2320F9180F10000089E582
:103CA40023208910154515A0AA8497E7FF1F83C711
:103CB40077532E8563F5F400854763EE9700953DB1
:103CC400B7E700E023A087100D45B2402244924498
:103CD40002494101828083A785FF99E703C7E5FF75
:103CE4009307F00F6308F700A935B7E700E023A0B6
:103CF40087104DBF238F95FE13854193213DA16508
:103D04002685EF10B1240145232089107DBF23AA05
:103D1400019282802A8713F5F50F2DC1411122C427
:103D240026C206C64AC013F41500AE8419C08147E2
:103D340009A88147A1468507638AD70233D6F44888
:103D44007DDAB1463367F7203307D70203A901951B
:103D5400B317F02833C407083A99832709000325C9
:103D64004900829723200900232209003345940047
:103D7400B24022449244024941018280828001116E
:103D8400B7E700E026CA84434AC83707200006CEB6
:103D940022CC2A892E86F98C23A0E7180F10000064
:103DA4009305F00432C633450608EF10B1442A8463
:103DB40019C53246CA8597C0FF1FE7804072F2409A
:103DC40022856244B7E700E023A097104249D24419
:103DD40005618280411193757500014506C6B315CE
:103DE400B028B3C50508EF10817109C50845B24074
:103DF400410182800145E5BFB7E700E09843B7067B
:103E0400200023A0D718758F0F10000097E6FF1F1E
:103E140083C6563D637ED50083A6C1943325D52041
:103E24001621B3F5B6400EA123A0E7100145828008
:103E340023A0E7100D4582807971B7E700E026D210
:103E440084433707200006D622D44AD04ECE52CC23
:103E5400F98C23A0E7180F100000930785FF93F750
:103E6400F70F1D47636BF70831473307E50283A754
:103E74000195BA979C43D1C31D893315A028AE89F7
:103E8400B345050805452EC6EF1061672A8929C97F
:103E9400B245054517EAFF1F130A0A3AB13F83A743
:103EA4004194829783578A002A8481463387370353
:103EB40013060064B3B7370313050732B335E500BF
:103EC400BE95EFD0EF8FB307850083264A003E8767
:103ED40063E4A70063E4D7003387D7402324E900D1
:103EE400B7E700E023A097100145B2502254925442
:103EF4000259F249624A45618280B7E700E023A093
:103F040097100945DDB7797122D437E400E04AD02F
:103F140003290400B707200006D626D24ECE52CC81
:103F240056CA5AC85EC63379F9002320F4180F1014
:103F3400000097E7FF1F83C7F72A6376F50083AB7A
:103F4400419463970B00B7E700E023A0271199A0E1
:103F540097EAFF1F938A4A2E03AB4A00B74736FEFF
:103F6400938707C83E9B83D78A002E8AAA84B38589
:103F7400C702B2898146B3B7C70213850532B33588
:103F8400B50013060064BE95EFD08F836370AB0257
:103F9400232024110145B250225492540259F2496B
:103FA400624AD24A424BB24B45618280829B83D79C
:103FB4008A002A8413060064B38537038146B3B7A5
:103FC400370313850532B335B500BE95EFC05FFFE7
:103FD400B307850003A74A003E8463E4A70063E4B3
:103FE400E7003384E740D2852685EF10415101C9AB
:103FF40000C5B7E700E023A02711054569BF93E595
:1040040004F04145B3C50508EF10D11E11E997E747
:10401400FF1F83A7A72185DBA6851145829725B7B6
:10402400138781931C4399EB08C32326050000C51D
:104034002311450104A12322050065BF3E87DC4707
:10404400F5FF48C7DDB77971B7E700E026D28443AE
:104054003707200006D622D44AD04ECE52CC56CAB8
:104064005AC85EC662C466C2F98C23A0E7180F1052
:10407400000021CD2A892E8AB28AB6892144B14C06
:10408400138B0195414CB30B940383270B00DE97EC
:104094009C43A1EF9375740056860545B315B0286B
:1040A400B3C505088D3531C183270B00DE9723A0E6
:1040B400270123A247016384090023808900B7E70D
:1040C40000E023A09710014521A023A097100945E3
:1040D400B250225492540259F249624AD24A424B93
:1040E400B24B224C924C456182800504E31D84F955
:1040F400B7E700E023A097102145D9BF011126CAD4
:10410400B7E400E04EC683A9040022CC52C4B7072A
:10411400200006CE4AC82A8A2E84B3F9F90023A0C7
:10412400F4180F100000EF10813D17E9FF1F130969
:10413400690B1DE1A2855285C13183470900638162
:10414400470523A034111945F2406244D244424940
:10415400B249224A0561828023110500A285528555
:10416400EFF09FC9834709006386470123A03411F8
:104174000145D9BF83576900C18F2313F900FDB7E7
:10418400835769005D8C2313890065BF01114AC8F8
:1041940037E900E022CC03240900B707200006CE4B
:1041A40026CA4EC67D8C2320F9180F100000BD4787
:1041B40063E5A704B144B30495029389019583A7E9
:1041C4000900A6979C4395CB937575000D81B31593
:1041D400B028B3C505081D3783A709000145A69774
:1041E40023A0070023A2070023208910F240624481
:1041F400D2444249B24905618280B7E700E023A076
:1042040087100945E5B7411106C623A0A19402957C
:10421400B24097E7FF1F23AFA7FC0145410182800D
:1042240023A2A19401458280411111468145138541
:10423400C19306C622C426C223AC019223A00194D2
:1042440023A2019497C0FF1FE780202C13060002CD
:10425400814517E5FF1F1305E5F897C0FF1FE780A9
:10426400C02AEFB0F037C14717E4FF1F130484F7E7
:104274008545130500123CA093840195EF108177C6
:1042840088C025C13020994781453306F6021306BC
:10429400060C97C0FF1FE78040279C40382093847A
:1042A40081949387070C9CC0B347F72023A6F1940D
:1042B400EFF0FFA5652E1C30984017160100130679
:1042C400E625B3C6E72090C293862700850793F7B7
:1042D400F70FB3C7E72014B0170700001307C7A3ED
:1042E40098C3B240224492444101828097E6FF1F62
:1042F400938646EF2A87BC228832637BF500130637
:10430400150083A7819490B2B347F52098C38280A7
:104314001305F00F82801C41F1C7370700F07D8F31
:10432400B706002089476310D70C5A21411122C4D3
:1043340006C62A845DC319469305F00F5D05EF1088
:10434400012D05478D47630AE5081C4491C758545D
:10435400994741C7185851C313064003814517E5CF
:10436400FF1F130525EA97C0FF1FE780001A1306F5
:104374004003A28517E5FF1F1305C5E897C0FF1F7B
:10438400E780E01597E7FF1F9387C7E7DA2701E780
:1043940013070010DAA7F82719E30547F8A79A2BA3
:1043A40019E36D479AABF83719E30D47F8B7B82B03
:1043B40019E30547B8ABB83B19E3F837B8BBD82BBA
:1043C40019E34947D8AB583801E713074006D8BB6F
:1043D400FD572382F1A6893D8147B24022443E85A0
:1043E4004101828089473E85828079714ECE97E96A
:1043F400FF1F938969E483A7090006D622D426D235
:104404004AD052CC829713090064B335250303D6EE
:104414008900814617EAFF1F130ACADC32C6330536
:104424002503EFC0FFB983240A012A84014563866A
:10443400840232463305944063EF840003A54900A7
:104444008146B335A9023305A902EFC07FB7B3078C
:1044540095403385870023288A00B2502254925411
:104464000259F249624A45618280011122CC0A85CF
:104474002E844146970501009385456B06CEEFD007
:104484009FF618083324E420035704FFF2406244E3
:1044940097E7FF1F83D7E7DA37450F00BA9713056D
:1044A40005243355F5020561828097E7FF1F83D702
:1044B40047D951471D45637CF7027947194563780D
:1044C400F7021307200315456373F7021307B004BB
:1044D4001145637EF700130740060D456379F70025
:1044E4001307600909456374F70013B5B70F828099
:1044F400411122C426C22E84AA8406C6058C97C004
:10450400FF1FE78060F9B327A402B2402244338539
:1045140097001375F50F924441018280411122C422
:1045240026C22E84AA8406C6058C97C0FF1FE78086
:10453400A0F6B327A402B240224433859700334542
:104544000508924441018280411122C426C22E846E
:10455400AA8406C6058C97C0FF1FE780E0F33335B5
:10456400A402B24022442695924441018280AA8545
:1045740017E5FF1F130545CC184197C7FF1F938705
:10458400C71D630DF7004111514606C697C0FF1FB2
:10459400E780E0F4B2400145410182800545828014
:1045A400411106C622C426C249C51C41AA85054537
:1045B400A5CFDC41B5CB9E25A5CBBE25B5C75146BD
:1045C40017E5FF1F130545C797C0FF1FE78020F1BC
:1045D40097E7FF1F238807C697E4FF1F9384C4C58A
:1045E400884017E4FF1F1304E4C1EFF07FC37C2865
:1045F40099EF8A249307807037460F003305F5023C
:104604001306062481468145EFC09F9B68A878283D
:10461400AD4763E4E700B1477CA817050000130524
:1046240005DDEFF05FBE0145B240224492444101F2
:10463400828097E7FF1F23A107BC97E7FF1F93879B
:10464400A7BF17C7FF1F1307471198C33787320047
:10465400FD56130727A1D4C398C797E7FF1F2383E9
:1046640007BEB7C7004023A4D726BDB7011122CC8B
:1046740017E4FF1F130404B9084406CE26CA4AC827
:1046840001E90545F2406244D24442490561828011
:104694005C54E5DB185875D770008545829718443B
:1046A400B247E300F7FE4A249305E00417E9FF1F2D
:1046B400130949B3EF100134232CA90079D15224F2
:1046C4009305F00F814497C0FF1FE78000E47C242A
:1046D4000326890163C1F402328597C0FF1FE78076
:1046E400203E014597E7FF1F23AA07B097E7FF1F66
:1046F40023A807B041BF4E241844B387950289818B
:1047040085043385E7001C5808C28297C9B7011194
:104714004EC697E9FF1F9389E9AE83A7890022CC8F
:104724004AC852C406CE26CA56C25AC02A8A2E8401
:104734003289638F071C03A7C902630E071013078E
:10474400F01F636CA71097E4FF1F9384A4A983AAA6
:10475400840163970A0803D5C9009565938515E01C
:10476400EF10412988CC2A867DC583D5C90083A74B
:10477400C90203A589008981829783A7890083AA36
:104784008401DCCC89476313FA08C1476315F40C30
:1047940083D7C9001147938707FCB3C7E702B3C7A0
:1047A4005721B4231307A0056393E60A9A236310E1
:1047B400470B938547004A85228697C0FF1FE780F1
:1047C40000D29C4C5685639D57110145F2406244CA
:1047D400D2444249B249224A924A024B056182803C
:1047E400D84CE381E7FA03D5C9009565938525E0A4
:1047F400EF104120AA8A25C183D5C9002A8683A740
:10480400C90203A5890089818297ADBF8D47631CC6
:10481400FA00C1476311F40483D7C900938747FDA5
:10482400F19BD697BDBF91476318FA006315440303
:1048340083D7C900A117EDB793070010631DFA00D1
:10484400A14763EA870083D7C900C117D1BF9C4C35
:104854005685639A570B294595BF1D676377E5080D
:10486400130705E099463347D70283D6C90017EBEF
:10487400FF1F130B2B973307D702B30AF7008327C5
:10488400CB016395570183248B018DE003D5C900C7
:104894009305E004EF100116AA8455DD83D5C90001
:1048A40083A7C9022A868981568582979145130771
:1048B400A00593F5C50FB387B400B4236390E60451
:1048C4009623639B460391052286A6954A8597C045
:1048D400FF1FE780C0C083278B01E38897EE2685FE
:1048E40097C0FF1FE780C01DCDB5A166F916E3E4AC
:1048F400A6F63307E54095BFAC3365BF83278B012C
:10490400E38B97F4268597C0FF1FE780601BA1B750
:1049140097E5FF1F83A5858E9DDD91479306A0052E
:1049240093F7C70F3387F5003023E316D6F212232B
:10493400631B460191072286BE954A8597C0FF1FD7
:10494400E780E0B959B53C33E1BF97E7FF1F938790
:10495400678B984721C7985B31C385466310D5049C
:10496400411122C417E4FF1F1304C487104C06C668
:1049740015C2CE27484C89810297084C97C0FF1F67
:10498400E780001497E7FF1F23AA078697E7FF1F16
:1049940023A80786B240224441018280828001110B
:1049A40022CC17E4FF1F1304E4854EC68329840038
:1049B40026CA4AC852C406CE56C22A89AE84328A4E
:1049C4006385091A1C5899EB2945F2406244D24484
:1049D4004249B249224A924A056182805C54EDD729
:1049E4009307F01F63E0A70C97D9FF1F9389897F72
:1049F40083A78901A9C7084483A7C901639AA704A7
:104A040089476311F906C147E390F4FC5E2411471A
:104A1400938707FCB3C7E70203A78901B3C7E7205D
:104A24001307A005B8A3239027012686D2851385F2
:104A3400470097C0FF1FE78080AA014579B74A2441
:104A44009305E004EF00117B23ACA9004DF5ADBF45
:104A54004E245C5403A68901898182971C4423AEA9
:104A6400F90079BF8D47631DF900C147E39EF4F453
:104A74005A24130747FD83A78901719BBA974DB741
:104A840091476317F900E39124F55A242117E5B7F8
:104A940093070010E31AF9F2A147E3E797F25A24C7
:104AA4004117D1BF9D676372F506930705E0194767
:104AB400B3C7E7025A2497DAFF1F938AAA72B3870F
:104AC400E702BE9983A78A01A1CB83A7CA01639E8B
:104AD400370503A58A0191471308A0059305F00F34
:104AE40013F7C70FB306E500B022631D060583D88C
:104AF4000600B03263962805B307F64063C19704F5
:104B040011072686D2853A952DB721677917E36D6B
:104B1400A7EAB307F54079BF4A249305E004EF0000
:104B2400716D23ACAA0055F145B54E245C5403A61F
:104B34008A0189814E85829723AE3A0159BF8EA29C
:104B4400B28779BF5224B38597009105130606FCFA
:104B5400E36CB6E613863400719A1106B29723818A
:104B6400060123902601BCB261BF97D9FF1F938928
:104B7400696783A789019DCB03A589019147130820
:104B8400A0059305F00F13F7C70FB306E500B02295
:104B9400631C060383D80600B03263972801B30769
:104BA400F640E3DF97F48EA2B287F1BF7C244A2457
:104BB4009305E0043305F50233450508EF009163DE
:104BC40023ACA90055F909B552246C24B385C50258
:104BD400338697001106E3E9C5DEADBF0145828047
:104BE400011106CE2EC6EF40103B19C5B245F24066
:104BF4002A2105616F802032F24049450561828097
:104C0400A38A0196238A019623A8019623A60196D6
:104C140023AC019423AA019497D7FF1F93870763BA
:104C24003707B40098C33707A0001307070AD8C38F
:104C340037C70700130707B898C741674107D8C7A4
:104C440037077F0098CB370781FFD8CB7D579AAFC2
:104C54008280011152C42A8A214522CC26CA4AC81C
:104C64004EC606CE2E84B2893689BA84EFE09FF10F
:104C740005C9930700FD1CA19947A30045013CA168
:104C84002303250164B123123501AA8522856244D8
:104C9400F240D2444249B249224A05616FE03FFEE4
:104CA400F2406244D2444249B249224A05618280B8
:104CB40023A8A196828023A6A1968280011122CCEA
:104CC40026CA4AC806CE4EC62A89AE840144B30910
:104CD400890063699400F2406244D2444249B24973
:104CE4000561828097B0FF1FE780007BB34705080A
:104CF400A1832380F9009307140093F7F70F850924
:104D040063F89700CA97090488A31374F40FC1B712
:104D14003E84C1B7411122C417D4FF1F1304845425
:104D24000A28C16706C6FD17630AF50003C6419C3D
:104D34009385C195EF405009FD571EA8B240224407
:104D44004101828023900500B1CE8147130E000CEF
:104D540063FAC7043387F600034807001387170074
:104D64003347070863000804B308E800634C1603DC
:104D7400B388E60083C8080063860802138328FC0E
:104D84001373F30F63706E021303F8FF239065002F
:104D94006396A80005073385E6008280C297B3C7EF
:104DA40007087DB701458280011122CC26CA4AC872
:104DB4004EC606CE97D4FF1F9384C44A2E8990C44E
:104DC400CCC088C02A8441469305F00F4A85EF0081
:104DD4001104854963173503C840C145C5354146AB
:104DE4009305F00F2285EF00910205496313250313
:104DF40062448840F240D2444249B249C145056107
:104E040075BD414681454A85EF007100E31935FDC2
:104E1400E1B7414681452285EF00617FE30A25FD24
:104E2400F2406244D2444249B24905618280411150
:104E340022C426C22E84AA847146814517D5FF1F39
:104E44001305454206C64AC097B0FF1FE780E06BD2
:104E540017D9FF1F130909412384819CA3079900D3
:104E6400EF80E00C854719C1814749452306F900C5
:104E7400B240224492440249410182809DC11DC135
:104E840085476317F500DC3193E707FCDCB121A00B
:104E940089476304F50005458280DC3193F7F70305
:104EA400F5B7014582808DC10DC1DC311307000CBB
:104EB400054593F7070C638AE700130700040945C7
:104EC4006395E7000D45828001458280411122C42B
:104ED400005D06C626C21DC8AA84085009C597C02D
:104EE400FF1FE780E0BD485009C597C0FF1FE7805A
:104EF40020BD085409C597C0FF1FE78060BC228508
:104F040097C0FF1FE780C0BB23AC0402B240224419
:104F140092444101828009ED97D7FF1F83C767350B
:104F240017D5FF1F1305453581CB13854196828024
:104F340017D5FF1F13054534828017D5FF1F03457E
:104F44004533828017D5FF1F0325C531828017D5CD
:104F5400FF1F03256531828097D7FF1F83A7073181
:104F64008843828017D7FF1F1307C72F14479C421B
:104F740085079CC268379307F00F6305F5009165B8
:104F84006F00C17C8280011122CC06CE2E8432C6F1
:104F9400EF40B00E9147B245631CF50083A7C1965C
:104FA40081CB9C4391C722856244F240056182878C
:104FB400F2406244054505618280797122D42A84D5
:104FC4004A214ECE06D626D24AD0EF40406C938971
:104FD400419731E583C409009307F00F639AF40005
:104FE40083C551972685EFF0BFBF19E1238A019647
:104FF4004A20EF4090089147631CF50097D7FF1FA4
:105004009387472656209A2B6394E6007D579AABE4
:10501400B250225492540259F24945618280582573
:1050240004212A893AC65D354A85EF4030324A2048
:10503400EF40300083C70900324799C3E38297FAEF
:105044009307F00F5220E385F4FA74202820A685F4
:10505400EFF03FC071BF411126C206C622C44AC048
:1050640097D4FF1F93840420F8349307F00F63034D
:10507400F7042A892945EFE0FFB02A8405CD930778
:1050840000FD1CA1A147A30025013CA1FC2493859C
:1050940041961105A30FF5FE194697B0FF1FE7804F
:1050A4000044A2852244E834B240924402494101BA
:1050B4006FE0FFBCB2402244924402494101828025
:1050C40079715AC82A8B2E854ECE52CC56CA06D632
:1050D40022D426D24AD05EC62E8AB28AB689EF403E
:1050E400005B6DC5045D2A89F5C09C50130540031F
:1050F40091E361459C5489C79307450133C507086B
:10510400638609009307C50133C50708DC5089C7C6
:105114009307750133C50708EFE0DFA62A845DC550
:105124006146814597B0FF1FE780203E97DBFF1F54
:1051340083CBCB1263940B00834B0900930700FDD0
:105144001CA0A947A30064013CA0230354018C5074
:10515400231244011305840191C908C47146130A3A
:10516400440397B0FF1FE780803752858C5491C960
:1051740048C45146130A450197B0FF1FE780203603
:105184005285638C090008C87146CE85130AC5018F
:1051940097B0FF1FE780A0345285CC5099C548C80A
:1051A4005D4697B0FF1FE7808033A2855E85EFE000
:1051B4001FAD2254B2509254F249624AD24A424B31
:1051C400B24B4A85025945616FF05FD0B250225408
:1051D40092540259F249624AD24A424BB24B456157
:1051E400828001114EC6AA892E8526CA06CE22CCFB
:1051F4004AC8AE84EF40A04931C517D9FF1F0349FF
:10520400E90563140900034905001945EFE09F9778
:105214002A840DC98145194697B0FF1FE780E02E07
:10522400930700FD1CA0B947A30034013CA046A08D
:10523400A2856244F240D244B2494A85424905619A
:105244006FE0FFA3F2406244D2444249B24905618F
:105254008280797162C42A8C2E8526D24ECE52CC9D
:1052640056CA5AC85EC606D622D44AD0AE84B28B79
:10527400368BBA8A3E8AC289EF40604125C52A89A5
:105284004145EFE03F902A8431CD4146814597B0B6
:10529400FF1FE780802717D5FF1F034525FC19E171
:1052A40003450900930700FD1CA0BD47A30084012A
:1052B4003CA023047401A304640123055401A30541
:1052C400440146A023263401A2852254B2509254AC
:1052D4000259F249624AD24A424BB24B224C4561CE
:1052E4006FE0FF99B250225492540259F249624A33
:1052F400D24A424BB24B224C45618280411126C2B4
:1053040006C622C44AC097D4FF1F9384A4F5F83478
:105314009307F00F6306F7042A893945EFE09F8667
:105324002A841DCD930700FD1CA1A30025012301A0
:10533400050097D5FF1F938525F40D05194697B0F1
:10534400FF1FE780C019BE28A2853EA4DC345CA4FC
:105354002244E834B2409244024941016FE03F9252
:10536400B24022449244024941018280011156C252
:10537400AA8A314526CA4AC84EC652C406CE22CC91
:105384005AC0AE84328AB6893A89EFE0AFFF3DC194
:105394002A842685EF40A02F29C903CB919C639BC7
:1053A4000A0083A781A39C4791C7CA864E86D285EB
:1053B40026858297930700FD1CA09D47A3005401F6
:1053C4003CA046A0231344012314340123152401D3
:1053D400A2856244F240D2444249B249224A924AE6
:1053E4005A85024B05616FE09F8917DBFF1F034B52
:1053F4005BE8C9B7F2406244D2444249B249224A06
:10540400924A024B05618280411126C2AA84214539
:1054140022C406C62E84EFE0EFF615C5930700FDFF
:105424001CA1C5473CA13C30AA853CB15E205EA1CD
:105434007C207CA17C307CB12244B24026859244FD
:1054440041016FE0DF83B2402244924441018280F3
:10545400797162C42A8C594526D24AD04ECE52CC98
:1054640056CA5AC85EC666C26AC006D622D4035D4E
:105474000103834C41032E89B28BB6843A8BBE8AD6
:10548400428AC689EFE00FF035C5930700FD1CA1E1
:105494009547A30085013CA1A30175012A841946FF
:1054A4001105B9C0A68597B0FF1FE7804003230606
:1054B4005401230A9401231564012317440123187A
:1054C40034012319A401A2852254B2509254F24902
:1054D400624AD24A424BB24B224C924C024D4A850C
:1054E400025945616FE0AFF9814597B0FF1FE7802E
:1054F400C00175BFB250225492540259F249624A13
:10550400D24A424BB24B224C924C024D45618280AE
:10551400411122C406C617D4FF1F1304A4D47C244B
:105524008DC7AA8519461385419697B0FF1FE7805A
:1055340000FB682493854196EFF05F942244B240C7
:105544001385419641016F709022B2402244014577
:1055540041018280797122D406D626D24AD04ECE19
:1055640052CC094459C12A890A212E8A5144EF4058
:105574000012AA843DC91C5D4544A5EB9165938541
:1055840045711305C002EF00E14688DCAA894D4449
:1055940029CD1306C002814597B0FF1FE780E0F6CE
:1055A400835709009386490036852391F900714693
:1055B4009305490036C697B0FF1FE78040F289473C
:1055C4002380F900B2460356090083C5419C014576
:1055D400EF40F0632A8463060A00D2852685EF40F3
:1055E400C07C01C42685EFF07F8EB2502285225400
:1055F40092540259F249624A4561828031CA41118A
:1056040022C426C24AC006C62E89B284EF402008AE
:105614002A84514505C8485409C597B0FF1FE7803F
:10562400204AF1452685EFE08FF5AA8748D44D45F9
:1056340091CB582093674700630409009367670080
:105644005CA00145B2402244924402494101828057
:1056540009458280AD4763EAA70097D7FF1F938768
:10566400E7BE3325F5200A21828041657D158280BD
:10567400011122CC2A842E8526CA06CEAE84EF40A0
:1056840000010DCDB7470F009387F723094563E267
:10569400870281450A85414697B0FF1FE780E0E60F
:1056A400A68560800A8541804081A3010100EF4006
:1056B400B042F2406244D244056182804945D5BF7C
:1056C4002383A19C82806F40504C797152CC2A8AEA
:1056D400328526D24AD04ECE56CA5AC85EC662C455
:1056E40006D622D42E8CB28A368BBA8B3E89C289D6
:1056F400C684EF30D07905C92A8463100A189377D9
:105704004B000343450085CF13632301639A0B14B5
:1057140063180912639B090885E81C5C1373B3FFC3
:1057240023026400C5E7B250225492540259F2494C
:10573400624AD24A424BB24B224C45618280137377
:10574400D3FF13630301D9B7136343002302640037
:105754009C484146A6851CD41305840197B0FF1FBD
:10576400E780E0D763190C1063860B0A485409C517
:1057740097B0FF1FE780C034F1455E85EFE02FE06E
:1057840048D4005C4DD01C5081EB916593853571F4
:105794007145EF00212608D008500DC17146DE8501
:1057A40097B0FF1FE780A0D311A81363430023021F
:1057B4006400D9FC005C630C0C0235D4639A0902C2
:1057C400B1EC29A0005C25D0639409022254B250A4
:1057D4009254F249B24B224CCA865A860259424B21
:1057E400D6855285D24A624A45616FF07F8D05DCC9
:1057F4005C5081EB9165938525715D45EF00811FB8
:1058040048D0485055DD5D46CE8597B0FF1FE780F0
:1058140000CD7DB7005C01D8E39C09FC1C5481EBEE
:105824009165938515715145EF00C11C08D4085446
:1058340051DD5146A68597B0FF1FE78040CA79B76E
:105844001363430023026400E39404F0E30C0CF6B6
:10585400485415E9F1454A85EFE06FD248D431A8A0
:105864001363430023026400E39404EEE3000CF0AA
:10587400E31009FE39B7E31D09FC005CE30504EA03
:10588400E3930BF025BF97B0FF1FE7806023D9B7E0
:10589400011126CA52C406CE22CC4AC84EC62A8A50
:1058A400AE84EF30D05E25C12A893945EFE08FAD53
:1058B4002A8431C997D9FF1F83C9499A639409007F
:1058C400834909009307000D1EA0AD473CA0930532
:1058D400690013053400194697B0FF1FE78020C004
:1058E40093F714005CA493D4144844B423154401DE
:1058F400A2856244F240D2444249224A4E85B249CA
:1059040005616FE0CFB7F2406244D2444249B249E4
:10591400224A0561828003A5419501CD411106C645
:1059240097B0FF1FE780C019B24023AA0194410138
:1059340082808280411122C406C626C24AC02E84B7
:10594400EF30F05439C900D517D9FF1F0349099125
:10595400AA8463140900034905004145EFE08FA2BE
:105964002A8405CD9307000D1EA1A5473CA1DC3078
:10597400938564001105A30FF5FE194697B0FF1F28
:10598400E780E0B59C54A285B2405CC422449244B2
:105994004A85024941016FE08FAEB24022449244ED
:1059A4000249410182809387C1958EA3B2A3BE852B
:1059B40003C6419CD6A3FAA36F301041011122CC37
:1059C40026CA06CEAA842E84EF30704C0DC9542505
:1059D4001147AA874945639FE6009C5F91C3E02B6A
:1059E400975600009386E6ED0A8689452685408011
:1059F400EF40A032F2406244D244056182805145B6
:105A0400D5BF21C6411122C426C24AC006C62E896A
:105A1400B284EF30D0472A84514515C0630609008B
:105A24005C2093E727005CA0130584014146A6850A
:105A340097B0FF1FE780A0AA9C4801451CD4B24040
:105A44002244924402494101828009458280011125
:105A540022CC26CA06CE2A84AE84EF30504319C91C
:105A64006C0022854486EF40E030F2406244D24428
:105A7400056182805145D5BF6F30B0562D47AA8746
:105A84006360A70241677D170945638CE50017C76A
:105A9400FF1F1307A77BB3A7E72001458EA38280CE
:105AA40009458280011122CC3E8606CE26CA4AC808
:105AB400914709446392F50232C6B6843A89EFF0FD
:105AC4000FB732462A8409E9CA852685EFF0CFAD9F
:105AD400EF003041EF001021F24022856244D244AD
