:040000006F00D03588
:1000040000000000000000001808002092070020F3
:10001400A9BDF9F3943B00000000000000000000BB
:10002400943B0000943B000000000000000000002E
:10003400943B000000000000943B0000000000001E
:1000440000000000943B000000000000943B00000E
:10005400943B0000943B0000943B0000000000002F
:10006400943B00000000000000000000943B0000EE
:10007400943B0000943B0000943B0000943B000040
:1000840000000000943B000000000000943B0000CE
:100094004111814601468145114506C6973000E06D
:1000A400E7808074B727004011472383E780B7F7C0
:1000B40000E003A707D16D9B23A8E7D003A707D1CE
:1000C4005D9B23A8E7D07300501001000100B240EB
:1000D400410182800111814601468145114506CEC8
:1000E400973000E0E7804070B72700401147238332
:1000F400E780B717004083C6E70483C7A70093F6D9
:10010400F60FA18B99E393E6360013078008F337C3
:10011400078093F787083EC00F100000B717004010
:10012400930570052380B704130680FA2380C7045F
:100134000F10000023820702238007040245732561
:1001440005800F10000073350780137585082AC2D7
:100154000F1000002380B7042380C7040F10000091
:100164002387D704238007049246F3A606800F1042
:100174000000F336078093F6860836C40F1000009B
:100184002380B7042380C7040F10000083C6B7047C
:1001940093E60602A385D70423800704A246F3A6A8
:1001A40006800F100000B7F600E003A506D1136522
:1001B400450023A8A6D003A506D15D9923A8A6D0FF
:1001C400730050100100010073370780137787080C
:1001D4003AC60F1000002380B7042380C7040F1011
:1001E400000003C7B7041377F70DA385E704238042
:1001F4000704B247F3A707800F100000F24005611F
:100204008280B717004003C8870083C5E704011143
:100214001378F80F93E5350013078008F336078049
:1002240093F6860836C40F10000013067005238069
:10023400C704930680FA2380D7040F10000023829A
:10024400070223800704A248F3A808800F100000C7
:10025400F338078093F8880846C60F1000002380FF
:10026400C7042380D7040F1000002387B70423801A
:100274000704B245F3A505800F100000B7F500E0B0
:1002840083A805D193E8480023A815D1E5789108FF
:100294003365150142054181F338078093F88808D6
:1002A40046C80F1000002380C7042380D7040F1012
:1002B40000002390A702238007044245732505808C
:1002C4000F10000073350780137585082ACA0F10B4
:1002D40000002380C7042380D7040F1000001305F7
:1002E40090052384A70023800704524573250580C5
:1002F4000F10000003A505D15D9923A8A5D07300B4
:10030400501001000100F335078093F585082ECCC9
:100314000F1000002380C7042380D7040F100000AF
:100324002384070123800704E245F3A505800F1009
:10033400000073370780137787083ACE0F10000048
:100344002380C7042380D7040F10000003D70702BB
:10035400460745832390E70283D6070271777D170A
:10036400758F2390E70223800704F247F3A70780E1
:100374000F10000013058002056145A1797156CA6A
:100384008146AA8A01468145114522D426D206D641
:100394004AD04ECE52CC37140040973000E0E7806C
:1003A400A0448347E4049304800893E7370073B7B9
:1003B4000480137787083AC00F1000009309700572
:1003C40023003405130980FA230024050F100000CC
:1003D40023020402230004040247732707800F103A
:1003E400000073B70480137787083AC20F10000027
:1003F40023003405230024050F1000002307F40410
:10040400230004049247F3A707800F10000037FA73
:1004140000E083270AD11305900593E747002328BA
:10042400FAD04D20F3B7048093F787083EC40F1029
:10043400000023003405230024050F100000A167E9
:10044400B3EAFA002310540323000404A247F3A7D9
:1004540007800F10000083270AD1DD9B2328FAD0E0
:100464007300501001000100814601468145114589
:10047400973000E0E7804037F3B4048093F48408B5
:1004840026C60F10000023003405230024050F1096
:100494000000FD572316F4028347640493E7170012
:1004A4002303F40423000404B247F3A707800F10C6
:1004B4000000B250225492540259F249624AD24A7C
:1004C400456182809307000C0111631CF5049307B6
:1004D4008008F3B7078093F787083EC00F10000029
:1004E400B7170040130770052380E704130780FA49
:1004F4002380E7040F10000003C7F7001367070405
:10050400A387E70003C787001367070C2384E7006A
:10051400238007048247F3A707800F1000000561BA
:100524008280B717004003C7A700118B79EF83C6F9
:10053400E7041307800893F6F60F733607801376E3
:10054400860832C20F1000001308700523800705C7
:10055400930580FA2380B7040F10000003C6E70454
:10056400136636002387C70403C6A7001366460034
:100574002385C700238007041246732606800F10C4
:10058400000003C687001376F60F733707801377CE
:1005940087083AC40F100000238007052380B7049E
:1005A4000F10000003C787001367070C2384E700BC
:1005B40023800704A247F3A707800F100000A54774
:1005C4000100FD1793F7F70FE5FF93078008F3B7D2
:1005D400078093F787083EC60F100000B717004046
:1005E400130770052380E704130780FA2380E704C8
:1005F4000F1000002384C7002387D7042380070437
:10060400B247F3A707800F1000009377050C130778
:1006140000046392E70A93078008F3B7078093F70F
:1006240087083EC80F100000B71700401307700575
:100634002380E704130780FA2380E7040F100000E7
:1006440003C7A7008546136707012385E7003727FB
:100654000040A303D7808346578093E60601A30294
:10066400D78023800704C247F3A707800F10000038
:1006740093078008F3B7078093F787083ECE0F10DF
:100684000000B7170040130770052380E704130721
:1006940080FA2380E7040F10000003C7F7001375E6
:1006A400F50F13670704A387E7002384A7002380BB
:1006B4000704F2478DB59377F5019DCF9307800822
:1006C400F3B7078093F787083ECA0F100000B717E7
:1006D4000040130770052380E704130780FA238082
:1006E400E7040F100000372700408946A303D78092
:1006F40023800704D2478DBF93078008F3B7078090
:1007040093F787083ECC0F100000B717004013077B
:1007140070052380E704130780FA2380E7040F1091
:100724000000372700409D46A303D7802380070499
:10073400E2471DBF0111814601468145114506CEA0
:10074400973000E0E780400A93078008F3B70780FA
:1007540093F787083EC60F100000B7170040130731
:1007640070052380E704130780FA2380E7040F1041
:10077400000003C76704136717002383E70423807B
:100784000704B247F3A707800F100000F240056189
:10079400828041118146014681451145973000E030
:1007A400E780800413078008F337078093F78708EE
:1007B4003EC40F100000B7170040130670052380D5
:1007C400C704930680FA2380D7040F100000FD5558
:1007D4002396B70223800704A245F3A505800F10D2
:1007E400000073370780137787083AC60F1000009C
:1007F4002380C7042380D7040F10000003C76704B5
:10080400136717002383E70423800704B247F3A781
:1008140007800F10000001A001A0A9473305F502CD
:100824007D1511E182800100E5BF411122C406C695
:100834002A847D1442041305803E4180F93F75F8F3
:10084400B240224441018280230304801547A287D9
:100854002303E480010001002302A48003C767800E
:1008640062076187E34C07FE2382A78022878347C0
:100874006780E207E187E3CC07FE828023030480DC
:1008840015472303E480010001002302A480828031
:1008940083076480E3CE07FE2303048082808307FA
:1008A4006480E3CE07FE034544808280830764802E
:1008B400E3CE07FE2302A4808280411126C44AC2EB
:1008C4004EC006C61377F50BAD47AA892E89954409
:1008D4006306F70019455D37653F8D444E85793FC2
:1008E400FD59FD1463983401B240A244124982496F
:1008F40041018280135509011375F50F453F220903
:10090400CDB7011126CC06CEB704080051371545E2
:10091400B537713769372AC6A53F32459377150035
:1009240089EB136515001375F50FF240E244056178
:100934008280FD14E9FC0145CDBF411106C6B717FD
:100944000040130770052380E704130780FA23800F
:10095400E70403C747041305F00F1367070E238248
:10096400E70491472303F480C535B24041010DB734
:10097400011126CC4ACA4EC852C606CE2A89AE896F
:10098400B284554A5D3F91E82137F24026855249A9
:10099400E244C249324A05618280CA850945313F31
:1009A400910903A7C9FF91472320E48003076480CA
:1009B400E34E07FE23034481FD17EDFBFD141109EB
:1009C40081C49377F90FE9FF2D3F55FDFD5475BFA1
:1009D400011126CC4ACA4EC852C656C45AC206CEC3
:1009E4002A89328A8D49913FC164C16A056B938714
:1009F400F4FFB3F7270199E363719A02FD1991801B
:100A0400E39709FE71350145F240E2445249C24977
:100A1400324AA24A124B056182801305800D638815
:100A24005401130500026384640113051008CA8588
:100A34006935C13D09C52699330A9A4075BF7D556C
:100A4400E1B7011106CE26CC4ACAB2844EC82AC6E2
:100A54002E89E5353245FD14FD59AA852D45B13D54
:100A6400639A34013535F24026855249E244C2493D
:100A7400056182802D3593F7340091EB8326048041
:100A84000327090093074900E39EE6FC3E89FD1411
:100A9400C1BF011106CE2AC64D353245C533F240D9
:100AA4000561FDB3011106CE26CC4ACA4EC852C612
:100AB400AA8956C42E895135CE852D45FD3B8144E6
:100AC4008D4A214AE93B63965401832704802320FD
:100AD400F9008504E39844FF8327048013972901D0
:100AE400635C07002312F900F240E2445249C24910
:100AF400324AA24A056169BB2322F900F5B74111C4
:100B040006C626C44AC24EC0AE89053D81451305BA
:100B1400B0046533BD447D59593393F77400CE97BF
:100B240003C70700FD14398D2380A700E39624FF33
:100B3400B240A24412498249410199BB411106C6FF
:100B4400ED3B130560061D3BA133130590093D33AE
:080B5400B240410135BB000075
:100B5C00971100209381C102172100201301C14974
:100B6C001305400097F5FF1F9385054917060020D4
:100B7C00130606FE63FAC5008322050023A0550068
:100B8C0011059105E3EAC5FE173500001305450074
:100B9C00970500209385C5FB1386018163FAC50078
:100BAC008322050023A0550011059105E3EAC5FE3B
:100BBC0013850181938501C76377B5002320050058
:100BCC001105E36DB5FE93025002739002BC8D4289
:100BDC00739042808542739012BC9302800873908C
:100BEC00023097F2FF1F9382224193E232007390FE
:100BFC005230970200009382420E739012347300AD
:100C0C0020303D432A876373C3029377F700BDEF0F
:100C1C00ADE5937606FF3D8ABA960CC34CC30CC760
:100C2C004CC74107E36BD7FE11E28280B306C34089
:100C3C008A069702000096966780A6002307B700E5
:100C4C00A306B7002306B700A305B7002305B7001A
:100C5C00A304B7002304B700A303B7002303B70012
:100C6C00A302B7002302B700A301B7002301B7000A
:100C7C00A300B7002300B700828093F5F50F93967D
:100C8C008500D58D93960501D58D61B79396270078
:100C9C009702000096968682E78086FA9680C117A6
:100CAC001D8F3E96E374C3F8A5B7411106C6B7175E
:100CBC0000401307002023ACE70A854513050010FC
:100CCC00EF0030248D4513050020EF009023B24037
:100CDC0041016F00305541111305A00406C622C412
:100CEC0097F0FF1FE780807D1145EF0010108522E3
:100CFC000145EF0020764164894701479306F4FFD4
:100D0C0017360000130646C09305C0036145EF007B
:100D1C009003854701479306007E173600001306A3
:100D2C00E6BF9305400613055004EF00D00185473C
:100D3C0001479306048017360000130666BF93051F
:100D4C00300713058004EF00100085470147930618
:100D5C00F4FF173600001306E6BE930520081305B2
:100D6C00B004EF00407E854701479306F07F1736AD
:100D7C000000130626BE9305000A13055004EF006D
:100D8C00807C253717350000130505BEEF00705821
:100D9C0005651305853897000020E78080A88547F6
:100DAC000147FD4617360000130646BE9305400B5F
:100DBC001305E004EF00207913054006970000208E
:100DCC00E78020A6EF00500085457D55EF0070139D
:100DDC000146A1450545EF00301D3775020013058E
:100DEC000510EF00900B014597F0FF1FE78080582E
:100DFC0001A04111856722C426C206C637140040E3
:100E0C0093870780232CF40AC1442326940AEF000D
:100E1C001001B240232C940A224492444101828056
:100E2C004111856722C426C206C637140040938739
:100E3C0007802326F40AC1442326940AEF00207E5F
:100E4C00B240232C940A22449244410182804111E5
:100E5C009145414506C622C426C2EF00900A85641E
:100E6C00138504809145EF00D0099145130500408E
:100E7C00EF003009C14737140040232CF40A938447
:100E8C000480232C940A93040040232C940A130509
:100E9C00400697000020E780C098130540062326E3
:100EAC00940A97000020E780C0971305800C232C30
:100EBC00940A97000020E780C0961305F00E8D373A
:100ECC001305B00EB13F51452D371305E00F893F87
:100EDC001305F00EB1371305B00E99375145113F7C
:100EEC0013054008353F130500042137130550083E
:100EFC00053F1305F00FF53D130560081537130575
:100F0C00F00FC53D13057008213F1305F00FD535C3
:100F1C001305800831372945E93D13059008093739
:100F2C0013051002F9351305A008DD3D0145D13537
:100F3C001305B008F53513050008653D1305C00809
:100F4C00C53505457D351305D008D93D05455535C5
:100F5C001305E008F1351305F00F613D1305F0089A
:100F6C00C1351305F00F71351305600B553D014567
:100F7C00493513050002B53D130560035535214570
:100F8C008D3D1305A003693D1545A53513050009D5
:100F9C00413D2145B93D2145A93D2145993D21457D
:100FAC00893D1305D00BAD3D1945A1351305C00B7B
:100FBC00853D01453D3D1305F00F9D35130500069C
:100FCC000D3D05453D3511452D351305300C893D3D
:100FDC004D4505351305400CA1354D45193D1305FF
:100FEC00900C3D3D1305200229351305E00B0D3DFA
:100FFC00454501351305100E25354145DD3B394579
:10100C00CD3B1305F00D293D13051002DD333145A1
:10101C00CD330945F93B1305000F19351305500461
:10102C00C93B2545F9332145E9332145D93313050E
:10103C006002C1331305A0026D3B1305100FCD33B5
:10104C00130530047D3313050007653313052007A2
:10105C004D3313056003713B13057003593B1305A6
:10106C00F006413B1305200F653B1305500451332B
:10107C00254541332145B53B2145A53B1305600270
:10108C008D3B1305A002B5331305300F513B1305EF
:10109C003004853313050007A93B13052007913B4A
:1010AC0013056003B93313057003A1331305F00660
:1010BC0089331305D00EAD336D45253B2D45153BBE
:1010CC001305E00AB13B1305700725331305D00C4B
:1010DC00813B13053006313B1305000791331D4549
:1010EC00093B1D45393311452933394519333D45E4
:1010FC0009332545FD391D45ED392145DD390D45B2
:10110C00CD391305800E293B13054003DD31130542
:10111C00200639336145F1393545E139130510079E
:10112C00C9391305D00EF13113050007D931130558
:10113C000007C131614575393D4565391305100707
:10114C004D391305F00E7531130500075D3113058C
:10115C000007453113053006E131614559394545E4
:10116C0049391305100771311305100F5931130547
:10117C000007413113050007AD3961459D394D45D7
:10118C008D3913051007B5311305300F9D3113053B
:10119C000007853113050007A939130540064931AD
:1011AC0013058002B93113059002A1311305100FFC
:1011BC00893105453D391305100F25390145153980
:1011CC001D45053913056006A1391305C0031531FA
:1011DC00014505311305D00C293913057006113959
:1011EC001305500439311305500421314145113197
:1011FC00014501310145F53E0145E53E13057006FB
:10120C0005310145FD361305C003E5360145D536DC
:10121C000145C5360145F13E0545E13E1305400546
:10122C00C93E4145F93613052003E1361305800903
:10123C00C93613054007ED364145653E1305500888
:10124C004D3E13050008753601456536014555368A
:10125C001305E004793E0145693E13058009C93642
:10126C001305E00379361D456936130550034D3ED1
:10127C00130510027536454565361305800797F042
:10128C00FF1FE780005A13059002593E2244B240DA
:10129C0092445145410117F3FF1F67008358011118
:1012AC0026CAAA841305A00206CE22CC4AC82E84D4
:1012BC0036894EC652C4328AEFF09FB613D58400DD
:1012CC00EFF03FB393F9F40F4E85EFF09FB23385F7
:1012DC0044017D1521851375F50FEFF09FB11305B2
:1012EC00FAFF4E951375F50FEFF0BFB01305B00272
:1012FC00EFF01FB313558400EFF0BFAF9374F40FEE
:10130C002685EFF01FAF330524017D15218513755C
:10131C00F50FEFF01FAE1305F9FF26951375F50FBA
:10132C00EFF03FAD6244F240D2444249B249224A06
:10133C001305C00205616FF0BFAE797122D426D2BD
:10134C0006D6B6844AD04ECEB306C5009307000F1E
:10135C00328463D7D7001304000F098C42044180F8
:10136C00B38795009306000F63D7F6009304000F24
:10137C008D8CC204C180A68622863AC60D373247B0
:10138C008567B71600409387078023ACF60AC147E0
:10139C0023A6F60A13568700938701821377F70F5B
:1013AC00938601C22380C700A380E7008907E39BD3
:1013BC00D7FE33049402130900209389018209ECAF
:1013CC00B2502254B7170040414723ACE70A92545D
:1013DC000259F24945618280A284637489009304A6
:1013EC00002093951400C205C1814E858124058C83
:1013FC00F9B79307F00E63E6A70463E4B704011191
:10140C0022CC85463284054606CE26CA493D1316A3
:10141C0084002180518C8567231681009387078077
:10142C0037140040232CF40AC1442326940A680084
:10143C008945ED2AF240232C940A6244D24405617A
:10144C00828082809307F00E63E5A70063E3B70008
:10145C00EDB582802A879306000F1306000F814595
:10146C000145E1BD5D715ED686C6BE8BA2C4A6C227
:10147C00CAC04EDE52DC56DA5AD862D466D26AD072
:10148C006ECE36C43AC69307F00E63E9A708AE8A4F
:10149C0063E6B708930706FE93F7F70F1307E0050B
:1014AC002A846374F700130600020116954733066D
:1014BC00F602130A5400172900001309294E139D34
:1014CC000B01420A135D0D01135A0A01A284054C4B
:1014DC009D4C3299034B0900D689814D93761B00A4
:1014EC00224791E23247135B1B0063988B05B3854F
:1014FC00BA01C2053A86C1812285E53DEA99C20945
:10150C00850D93D90901E39B9DFD05044204EA94E2
:10151C00C20441800509C180E31E8AFAB640264404
:10152C0096440649F259625AD25A425BB25B225C2B
:10153C00925C025DF24D61618280EA866A86CE859C
:10154C002685093765BF797152CC154A56CA338A3C
:10155C004703BE8AC207C1834AD0194922D426D276
:10156C004ECE5AC8338927035EC662C466C206D6FD
:10157C002A84AE84B289B68B3A8C139B3700930CB9
:10158C00F00E03C6090011EEB250225492540259C7
:10159C00F249624AD24A424BB24B224C924C4561C0
:1015AC008280B307440163D6FC00DA94C204C18084
:1015BC00014422854A94D6876287DE86A68542043A
:1015CC0055354180850975BF41111305800206C64A
:1015DC00EFF01F854145EFF0BF84B2401305800743
:1015EC00410117F3FF1F6700C323411122C48D452E
:1015FC002A84414506C63122B7170040414723AC27
:10160C00E70A8D451305000AED28612C09C4B7477C
:10161C000040A3818700B2402244410182804111E5
:10162C0006C64D2CB24001454101828001114AC8C9
:10163C000569791922CC4EC652C456C206CE26CAAA
:10164C002A8AAE890144CA8A636B3401F24062442F
:10165C00D2444249B249224A924A05618280B387F8
:10166C008940C207C183BE846373F900D684C20467
:10167C00C18033058A002694A68542044924418002
:10168C00E1B74111B7170040985F3AC6945F3247F3
:10169C00E39CE6FE324541018280011122CC06CE4C
:1016AC002A84C5372295B707C0A863F5A700B707EA
:1016BC0040573E9593078008F3B7078093F7870848
:1016CC003EC60F100000B7170040130770052380AB
:1016DC00E704130780FA2380E7040F100000C8DB2F
:1016EC0003C7170313670702A388E70223800704C5
:1016FC00B247F3A707800F100000F2406244056167
:10170C008280914763EEB7021727000013078746C4
:10171C008A05BA959C41BA978287B717004003A7F0
:10172C00470B1345F5FF698F23AAE70A03A7070B9D
:10173C00698F23A8E70A03A7070A798D23A0A70AB4
:10174C008280B717004083A6470B1347F5FFF98E2D
:10175C0023AAD70A83A6070B558D23A8A70A83A60D
:10176C00070A758F23A0E70A8280B717004003A7EA
:10177C00470B498F23AAE70A03A7070B1345F5FF6D
:10178C0045BFB717004083A6470B1347F5FF758F6E
:10179C0023AAE70A03A7070A598D4DB7B7170040CC
:1017AC0003A7470B498FEDB7411131E5930780082B
:1017BC00F3B7078093F787083EC00F100000B717E8
:1017CC000040130770052380E704130780FA238079
:1017DC00E7040F10000003C7E70093C5F5FFF98D70
:1017EC002387B700238007048247F3A707800F10D5
:1017FC0000004101828013078008F337078093F7BC
:10180C0087083EC20F100000B71700401305700583
:10181C002380A704930680FA2380D7040F100000BE
:10182C0003C8E700B3E5050193E505042387B7007A
:10183C00238007049245F3A505800F100000F335B3
:10184C00078093F585082EC40F1000002380A70491
:10185C002380D7040F10000083C5F70093F5850F84
:10186C00A387B70023800704A245F3A505800F10BA
:10187C00000073370780137787083AC60F100000F3
:10188C002380A7042380D7040F10000003C7F700A0
:10189C00598E1376F60FA387C70023800704B2472F
:1018AC00A9B7B74700401147A381E7000947238038
:1018BC00E700130700062380E70003C71700136730
:1018CC000701A380E70003C717001377E70FA38076
:1018DC00E7008280B747004003C707001377F70E75
:1018EC002380E70005472396E7002388A7003747A6
:1018FC0000408347670093F70704E5DF8280B74712
:10190C00004003C707001377F70E2380E700131777
:10191C0005012E9541834205239CE7004181239EBE
:10192C00A7002396B70025472383E70003C71700BA
:10193C0013671700A380E70003C76700058B6DDFF3
:10194C0003C717001377E70FA380E7008280B71750
:10195C00004003C787009306000C1377070C63162F
:10196C00D700938701818843828003C78700930641
:10197C0000041377070C6311D70203C787007D8B14
:10198C000DCB03C587009377F5013745C3231305AA
:10199C0005603345F502828003C787007D8B19CF24
:1019AC0003C587009377F5013755E80113050580CA
:1019BC00CDB737251E01130505A3828037450F00CF
:1019CC00130505248280970700209387679B9C430F
:1019DC00138701C73E95636DE5000A87130707FC63
:1019EC006368A70017070020232CA7983E858280E8
:1019FC00FD57EDBF411122C406C62A84893F2947F1
:101A0C00B307E502B2408D83B3D787022244950712
:101A1C00B3D7E70237370040C207C1832316F7401C
:101A2C0041018280716541111305052006C6D93725
:101A3C00B7370040130710F82381E7400D47A38107
:101A4C00E74013070004A380E74005472387E740DE
:101A5C00B24041018280797122D42A842E8526D20B
:101A6C0006D6AE84752813071500972600009386BA
:101A7C00A6113AC61C5C180836CC3AC285460947F2
:101A8C0026C82ACA36CE3AC40444ADC3FC500397C8
:101A9C00C400858B93160701C18281E793F706205A
:101AAC00ADC39397260163CB0700FC508966558F15
:101ABC00F976FD16F58F2396E400FCD022855000B4
:101ACC00A685792AFC503334A00033048040559805
:101ADC00858B290491E783D7C40093F7072091CB1A
:101AEC002285B25022549254456182802285012A6B
:101AFC0071BFA84C35232285B250225492544561B3
:101B0C008280A84C292B0397C40093160701C1822D
:101B1C0049BF970700209387E786AA85884325BF8E
:101B2C00937735002A87A1E3B7867F7F9386F6F7F4
:101B3C00FD5511070326C7FFB377D600B697D18F93
:101B4C00D58FE388B7FE8346C7FFB307A74003468C
:101B5C00D7FF0345E7FF8DC60DC23335A0003E9578
:101B6C0079158280F1D283470700050793763700F9
:101B7C00F5FB098F1305F7FF82801385D7FF828051
:101B8C001385C7FF8280411122C406C62A842316FE
:101B9C00B5002317C50023200500232205002324AC
:101BAC0005002322050623280500232A0500232CE3
:101BBC000500214681451305C505EFF08F84971765
:101BCC000000938727181CD0971700009387071BDA
:101BDC005CD0971700009387871F1CD497170000C1
:101BEC009387072340CC5CD4130584052244B24070
:101BFC00410125A1971500009385C5374DA64111CC
:101C0C0022C42A84138541C506C611291C5C8DEF9C
:101C1C00484017070000130727FE9307C42E58DC13
:101C2C000D472324F42E2322E42E01469145232034
:101C3C00042E913F08440546A545B1374844094652
:101C4C00C945913785471CDC2244B240138541C5F8
:101C5C004101F9A6138581C6D9A6138581C6C9A6EB
:101C6C001C466388072483D7C500797122D452CCD3
:101C7C0056CA06D626D24AD04ECE5AC85EC662C4C2
:101C8C0066C26AC013F787002E84AA8A328A25C7D7
:101C9C00984935C313F7270083240A0035CB5850D5
:101CAC005C4C370B008081490149134B0BC04E86AD
:101CBC00BE855685630B0902CA8663732B01DA86CF
:101CCC0002976350A01E83278A00AA993309A94062
:101CDC003385A7402324AA00630A05185C4C58508E
:101CEC004E86BE855685E31909FC83A9040003A919
:101CFC004400A1046DBFA2855685EF100015631E2C
:101D0C0005288357C40083240A0013F7270041FBDE
:101D1C0013F717006311071A832C84000840B70BC4
:101D2C00008013CCEBFF014B014993CBFBFF63000D
:101D3C00090C13F707206301071A668D636F991F4F
:101D4C0013F707483DC754480C48130719009399DB
:101D5C001600CE9693D9F601B30CB540B69993D92B
:101D6C00194066974E8663F4E900BA893A8693F770
:101D7C000740638C071EB285568565242A8D63083F
:101D8C0005200C486686EF0050158357C40093F766
:101D9C00F7B793E707082316F40033059D01B387C3
:101DAC0099412328A40108C0232A3401CA8C1CC4DD
:101DBC004A8D6A86DA85EF0070201C441040CA896F
:101DCC00B38C97416A962324940110C00149832750
:101DDC008A004E9BB389374123243A016388090852
:101DEC00832C840008408357C400E31409F403AB2C
:101DFC00040003A94400A1041DBF83A9440083ABC4
:101E0C000400A104E38B09FE4E86A9455E85EF0014
:101E1C0050025DCD0505330B7541DA874E8C63F3AB
:101E2C0037013E8C08401C48544863F7A70003292F
:101E3C0084003699634B8905634BDC105C504C4C29
:101E4C005E86568582972A89635DA004330B2B41ED
:101E5C00054563070B0E83278A00CA9BB38929416A
:101E6C003389274123242A01631B09040145B250FD
:101E7C00225492540259F249624AD24A424BB24B12
:101E8C00224C924C024D45618280DE854A86EF00E1
:101E9C00F0121C40A2855685CA971CC0EF10A035C5
:101EAC0055D58317C40093E707042316F4007D551A
:101EBC007DBF01458280014B0145814B8149E38EF9
:101ECC0009F221FD4E86A9455E85EF00807639F139
:101EDC00938719003E8B99B71C4863E8A7025C48AE
:101EEC006365F902CA8663732C01DE86B3C6F602FB
:101EFC0058504C4C5A865685B386F6020297E352DC
:101F0C00A0FAAA8933093941D9B5E68963739901D5
:101F1C00CA894E86DA85EF00700A1C441840B387D4
:101F2C0037414E971CC418C0F1FFA2855685EF109F
:101F3C00802C25F93309394159BDCA8C4A8D95BD80
:101F4C00A2855685EF10202BE30705F099BF62861A
:101F5C00DE85EF00B00618441C40628933078741C8
:101F6C003E9C18C423208401D5B55685EF00101370
:101F7C002A8DE31405E20C485685EF10E03C8317DC
:101F8C00C400314723A0EA0093F7F7F729BFB14704
:101F9C0023A0FA008317C40039B77D55C9BD7971E8
:101FAC0056CA06D622D426D24AD04ECE52CC5AC8C5
:101FBC005EC6930A052E63800A06AE8B2A8B014AF5
:101FCC0085497D5983A44A0003A48A00FD1463C487
:101FDC0004028357C400FD1463FBF9008317E4006B
:101FEC00A2855A8563852701829B336AAA00130454
:101FFC008406E39024FF83AA0A00E3950AFCB250FE
:10200C002254528592540259F249624AD24A424BA6
:10201C00B24B45618280014ADDB78280828082802A
:10202C008280797126D24AD006D622D44ECE52CC9A
:10203C0056CA5AC85EC662C466C29384B500D947F4
:10204C002A8963E59704C14763E4B71AEF001004CB
:10205C00C144E147094697F9FF1F9389E9F1CE97EF
:10206C00C043138787FF630DE41A5C40544410444B
:10207C00F19BA297D84354C690C6136717004A85A4
:10208C00D8C3EF00300113058400BDA2E19863C1F1
:10209C00041663EFB414EF00607F9307701F63FEA8
:1020AC00973693D794006386071611476362F7320D
:1020BC0093D7640013869703138587039316360012
:1020CC0097F9FF1F938949EBCE96C042E1166385C1
:1020DC0086025C40BD45F19B3387974063CDE5009C
:1020EC006354072A4044638986005C40F19B338724
:1020FC009740E3D7E5FE2A8603A4090117F8FF1FD2
:10210C00130808E8630A04134C403D47F199B38760
:10211C0095406343F73217F7FF1F232907E717F79B
:10212C00FF1F232307E763DF072E9307F01F63E0EE
:10213C00B7268D81938715008E0703A54900CE978E
:10214C009443898505473317B700498F938587FFDB
:10215C004CC414C497F5FF1F23A2E5E280C3C0C68C
:10216C00935726408546B396F6006360D70EB3F7B7
:10217C00E60081EF8606719AB3F7E600110691E747
:10218C008606B3F7E6001106E5DF3D4593183600E9
:10219C00CE98C6853283C0456398850091AC635058
:1021AC0007264044638685245C40F19B3387974027
:1021BC00E357E5FE5444104493E514004CC054C658
:1021CC0090C6A29497F6FF1F23A296DC97F6FF1FEA
:1021DC0023AC96DA9366170023A6040123A404010A
:1021EC00D4C0A2974A8598C375251305840029A0ED
:1021FC00B1472320F9000145B250225492540259A0
:10220C00F249624AD24A424BB24B224C924C456143
:10221C00828093060020130600041305F0034DB5CD
:10222C00C0470906E39387E403A4090117F8FF1FCD
:10223C00130808D5E31A04ED03A749009357264069
:10224C008546B396F600E374D7F203A48900832A7B
:10225C00440093FBCAFF63E79B00B3879B403D4759
:10226C006344F7109387C181138C818083AA070084
:10227C0003270C00FD57330A7401A69A630BF7264B
:10228C008567BD07BE9AFD77B3FAFA00D6854A85F5
:10229C00EF00F027FD572A8B6304F51E6360451F82
:1022AC00938C01C283A70C00D69723A0F1C23E8762
:1022BC006306AA2C83260C00FD57638DF62CB307FE
:1022CC004B41BA9723A0F1C2137C7B0063020C2410
:1022DC00330B8B418567210B138AF7FFDA9AA10721
:1022EC0033F74A01B3878741998F33FA4701D28577
:1022FC004A85EF00D021FD576300F52E330565416B
:10230C00B30A450183A70C0017F7FF1F232A67C7E1
:10231C0093EA1A00D29723A0F1C223225B01630E29
:10232C0034273D46637D7627544013874BFF619BD2
:10233C00858AD98E54C09545B306E400CCC28CC6B0
:10234C006362E62A832A4B005A841387418118431F
:10235C006374F70023AAF180138781811843637596
:10236C00F71223ACF1800DA213E7140058C0A2940D
:10237C0017F7FF1F232697C093E717004A85DCC089
:10238C00112B130584008DBD54441044DDB193D73B
:10239C0095001147637CF70C5147636FF7189386D0
:1023AC00C7051387B7058E06CE969C42E11663844B
:1023BC00F614D843719B63F5E5009C47E39BF6FE4E
:1023CC00D44703A7490054C41CC480C6C0C749BB2A
:1023DC0051476378F70C13074005636BF71693D7D7
:1023EC00C4001386F7061385E70693163600C9B9A1
:1023FC00050393773300A105E39F07D87DA8A29727
:10240C00D8435444104413671700D8C354C64A85A4
:10241C0090C6492113058400C5B313D634009387A5
:10242C00840015B9A295DC414A8593E71700DCC1FD
:10243C00952113058400C9B313E7140058C0A29466
:10244C0017F7FF1F232497B417F7FF1F232E97B2FC
:10245C0013E7170023A6040123A40401D8C0A295F6
:10246C004A859CC105291305840079B393D765006F
:10247C0093869703138787038E063DB76307340F44
:10248C0003A48900832A440093FACAFFB3879A40B5
:10249C0063E59A003D47E349F7EC4A85E52E014593
:1024AC00A1BB1386C7051385B7059316360009B96A
:1024BC0083A788007D16639B171793773600E11866
:1024CC00E5FB03A7490093C7F6FFF98F17F7FF1F2A
:1024DC002326F7AA8606E3EAD7D6E38806D633F78F
:1024EC00F60011E7860633F7F600110365DF1A864E
:1024FC0071B9C10A61BB03A5490093552740054733
:10250C003317B700498F97F5FF1F23A9E5A665BDC3
:10251C0085671387F7FF330A5B01337AEA00B387C9
:10252C00474133FAE700D2854A85EF00407EFD57DC
:10253C00E316F5DC014AF9B3130740056365F706AA
:10254C0093D7C5009386F7061387E7068E06A9BDB9
:10255C00130740156365F70693D7F40013868707B6
:10256C001385770793163600A1BE938C01C283A7FF
:10257C000C003387FA0023A0E1C22DBB93164A014D
:10258C00E39A06D203A48900DE9A93EA1A00232266
:10259C00540165BB23A4618105BB5A847DB3854777
:1025AC002322FB00DDBD130740156369F70493D7A5
:1025BC00F50093868707138777078E06F5B3130705
:1025CC0040556369F70493D724011386D707138505
:1025DC00C70793163600EDB4611CE29AB38A6A41C0
:1025EC00014A0DB3930584004A85EF00F05503A40E
:1025FC00890083A70C00832A440081BB1307405534
:10260C006361F70293D725019386D7071387C70712
:10261C008E0659BB9306803F1306F0071305E0079F
:10262C0045B49306803F1307E007BDBB83A7490061
:10263C0055B59377350013F8F50FD1CF9307F6FF07
:10264C0039C20347050063010705FD5601A8FD17B4
:10265C00638BD7020347050063080703050513774F
:10266C00350075F70D476362F70291CF03470500FC
:10267C00630C0701AA9729A003470500630607010D
:10268C000505E39BA7FE0145828041679398850071
:10269C007D17B3F8E80093F5F50FB3E5B800939800
:1026AC000501B3E8B80037868080B705FFFE938537
:1026BC00F5EF130606080D43184133C7E800B306BF
:1026CC00B7001347F7FF758F718F4DF3F117110595
:1026DC00E364F3FE59BFB28771B7B3C7A5008D8B06
:1026EC00B308C500A1E78D4763F2C70493773500A3
:1026FC002A87A9EB13F6C8FF930706FE6367F70654
:10270C006373C702AE86BA8703A8060091079106C9
:10271C0023AE07FFE3EAC7FE9307F6FF998FF19B01
:10272C0091073E97BE956366170182802A87E37EE8
:10273C0015FF83C7050005078505A30FF7FEE36AA0
:10274C0017FF828083C60500050793773700A30F18
:10275C00D7FE8505C5D383C60500050793773700DB
:10276C00A30FD7FE8505F9FF71B7944183A24500ED
:10277C0083AF850003AFC50083AE050103AE4501F1
:10278C0003A3850103A8C5019385450214C383A641
:10279C00C5FF232257002324F7012326E701232812
:1027AC00D701232AC701232C6700232E0701130707
:1027BC004702232ED7FEE36AF7FA99B763F2A50214
:1027CC00B387C500637EF5003307C50045CAFD1706
:1027DC0083C607007D172300D700E39AF5FE82809D
:1027EC00BD4763E1C702AA879306F6FF49CE85066B
:1027FC00BE96850503C7F5FF8507A38FE7FEE39A11
:10280C00D7FE8280B3E7A5008D8BB5EB930806FF4E
:10281C0093F808FFC108330815012E87AA871443C3
:10282C00C107410723A8D7FE832647FF23AAD7FE5B
:10283C00832687FF23ACD7FE8326C7FF23AED7FEA4
:10284C00E31FF8FC1377C600C6951378F6000DCF7E
:10285C002E87BE880D4E11070323C7FF9108B306C0
:10286C00E84023AE68FEAE96E367DEFE1307C8FFB2
:10287C00719B11070D8ABA97BA95BDB782809306E2
:10288C00F6FFAA87ADB782804286B9BF138581C592
:10289C006FF0EFF8138581C56FF08FF879714ECE1C
:1028AC0006D622D426D24AD052CC56CA5AC85EC6B4
:1028BC0062C4B2896381051A2E8BAA8AC13F138424
:1028CC00B900D94763F0870C619822876340040CE8
:1028DC00636E340B8327CBFF13098BFF93F4C7FF75
:1028EC00330A990063D9E41297E6FF1F9386C668F2
:1028FC00904683264A006301461B13F6E6FF529668
:10290C005042058A631E0612F19A3386D400635D29
:10291C00E626858B8DE3032C8BFF330C89418327B3
:10292C004C00F19BBE96B38B960063D2EB08B38B35
:10293C00F40063DCEB26CE855685EFF08FEEAA898A
:10294C001DCD8327CBFF130785FFF99BCA976387A0
:10295C00E7241386C4FF9307400263E7C72A4D4759
:10296C0083260B00636EC71CAA875A8794C35443F3
:10297C00D4C3184798C7DA855685EF00F01C5685E6
:10298C00113F09A841444147E37634F5B14723A0F0
:10299C00FA008149B25022544E8592540259F249A0
:1029AC00624AD24A424BB24B224C45618280832709
:1029BC00CA0003278A001386C4FF930640025CC733
:1029CC0098C703278C008327CC0093098C00330A0B
:1029DC007C015CC798C763EDC622CD4603270B006C
:1029EC00CE8763F0C6022324EC0003274B00ED478F
:1029FC002326EC0003278B0063E0C72893070C0108
:102A0C00210B98C303274B00DE846289D8C30327AC
:102A1C008B004E8B98C703264900B38784403D47F3
:102A2C00058A6368F704458E2322C90083274A0070
:102A3C0093E717002322FA005685A93DDA8999BF3E
:102A4C00858BE39A07EE032C8BFF330C894183278C
:102A5C004C00F19BE9BD2254B25092540259F249F8
:102A6C00624AD24A424BB24B224CB28545616FF05E
:102A7C004FDB418E2322C900B305890093E7170071
:102A8C00DCC183274A00A105568593E71700232252
:102A9C00FA00EF00700B4DB7F19A3386D400930512
:102AAC000401635DB60A858BE39707E8032C8BFF63
:102ABC00330C894183274C00F19BBE96338A9600D8
:102ACC00E347BAE68327CC0003278C001386C4FFA8
:102ADC00930640025CC798C793098C0063EEC61A34
:102AEC00CD4503270B00CE8763F0C5022324EC00F1
:102AFC0003274B00ED472326EC0063EEC71C03278E
:102B0C008B0093070C01210B98C303274B00D8C3F0
:102B1C0003278B0098C733078C00B3078A4097E6CE
:102B2C00FF1F23AFE64493E717005CC383274C00D9
:102B3C005685858B5D8C23228C00EFF0BFD599BD1B
:102B4C0014C183264B006D4754C1636BC70C13072C
:102B5C008B009307850083268B0009BD2299B30750
:102B6C00864017E7FF1F232D274193E717002322E9
:102B7C00F9008327CBFF5685DA89858B5D8C232E54
:102B8C008BFEEFF03FD139B58327CA0003278A00AB
:102B9C00B284330AC9005CC798C7B5BD8327C5FF8B
:102BAC00F19BBE94330A9900BDB50327CC00832654
:102BBC008C001386C4FF93054002D8C614C7930932
:102BCC008C00330A7C0163E5C5044D4583260B005C
:102BDC004E876370C5022324DC0003274B00ED47AE
:102BEC002326EC0063EAC70683268B0013070C012F
:102BFC00210B14C383264B00DE84628954C38327C4
:102C0C008B004E8B1CC701BDDA85EFF03FBBA5B323
:102C1C00DA854E85EFF09FBA4E8BDE846289E5BB78
:102C2C0003278B0018C50327CB0058C56309F60092
:102C3C0013070B019307050183260B0105BB8326A4
:102C4C000B0113078B019307850114C983264B01D4
:102C5C0054C983268B0119BB83278B002328FC00C6
:102C6C008327CB00232AFC00630DB60283260B01BD
:102C7C0013078C01410BB5BF2328EC000327CB00B5
:102C8C0093074002232AEC0003270B016309F60289
:102C9C0093078C01410BB5B3DA854E85EFF01FB26B
:102CAC009DBD83270B0113070C02610B232CFC0029
:102CBC008327CBFF232EFC0083260B001DBF232C68
:102CCC00EC0003274B0193070C02610B232EEC0045
:102CDC0003270B003DB383278B002328FC0083279D
:102CEC00CB00232AFC0003270B016306D6009307B5
:102CFC008C01410B11BD232CEC0003274B019307D6
:102D0C000C02610B232EEC0003270B00F5BB4111C9
:102D1C0022C42A842E8523A601C606C6EFE0BFCAAC
:102D2C00FD576306F500B24022444101828093872F
:102D3C00C1C69C43EDDB1CC0B240224441018280E1
:102D4C00411122C42E848395E50006C6EF00B01A0B
:102D5C00634905003C48B240AA973CC82244410153
:102D6C0082808357C4007D777D17F98F2316F4007A
:102D7C00B2402244410182808397C500011122CCCC
:102D8C0026CA4AC84EC606CE13F707102E84AA844C
:102D9C003289B6898395E50005E37D777D17F98F38
:102DAC002316F4006244F240CE864A86B249424968
:102DBC002685D2440561B1A889460146EF00007D05
:102DCC008317C4008315E400C9BF411122C42E84AB
:102DDC008395E50006C6EF00607BFD57630DF5009B
:102DEC008357C400056728C8D98F2316F400B24056
:102DFC002244410182808357C4007D777D17F98F6F
:102E0C002316F400B2402244410182808395E500F0
:102E1C003DA2AE87411122C4B2852A8436863E85F6
:102E2C0006C623A601C6EF00701AFD576306F5000F
:102E3C00B2402244410182809387C1C69C43EDDBA2
:102E4C001CC0B24022444101828097E7FF1F938748
:102E5C0067539C43411122C426C206C6AA842E8401
:102E6C0099C3985F29CF0317C40093170701C18337
:102E7C0093F68700A5C21448BDCA13F7170011CFEB
:102E8C005C48232404000145B307F0401CCC89CED8
:102E9C00B2402244924441018280898B014791E3E4
:102EAC00584818C40145EDF68317C40013F70708FA
:102EBC0065D393E707042316F4007D55D1BF3E85F7
:102ECC00EFE0FFD30317C40093170701C18393F6F8
:102EDC008700D5F293F60701B9CA918B95E7144890
:102EEC00936787002316F400C207C183D9F613F742
:102EFC00072813060020E302C7F8A2852685912730
:102F0C008357C400144895BF0C5899C993070404FF
:102F1C006386F50026850D290317C40023280402B7
:102F2C0014481377B7FD2322040014C055BFA547DE
:102F3C009CC0136707042316E4007D5591BF411113
:102F4C0022C42A842E8523A601C606C6EF0050048F
:102F5C00FD576306F500B2402244410182809387FD
:102F6C00C1C69C43EDDB1CC0B240224441018280AF
:102F7C00411106C622C426C24AC0D1CDAA842E84D1
:102F8C0019C11C5DCDC37C500317C400858BADC724
:102F9C0059C3A2852685C1285C542A8991C74C4CFB
:102FAC0026858297634905088357C40093F7070861
:102FBC00C9EB0C5889C9930704046384F500268572
:102FCC006126232804026C4089C52685B52E232250
:102FDC000404EFE03FC87C5023160400858BC1C36A
:102FEC00284CEFF0AF83EFE05FC7B24022444A8534
:102FFC0092440249410182801377072059FB284CE7
:10300C00EFF0EF818317C400C9F703294406137945
:10301C001900630C0902B240224401494A859244CA
:10302C00024941018280EFE09FBD7C500317C40030
:10303C00858BB9FFD1B78357C4007D5993F7070827
:10304C00ADDB0C4826850926ADB7284CEFE05FFDBB
:10305C00B24022444A859244024941018280284C64
:10306C00EFE01FFCB5BF8397C500011122CC13976D
:10307C00070141834EC606CE26CA4AC893768700FE
:10308C002E84AA89D5EA056713070780D441D98F06
:10309C002396F500635DD00E185459C7C207C1833F
:1030AC0083A409009396370123A009004C4C63C4F8
:1030BC00060E014685464E850297FD572A86630209
:1030CC00F5108357C40018544C4C918B99C754403D
:1030DC001C58158E99C35C5C1D8E81464E850297DB
:1030EC00FD57631CF50A03A709008317C40065CBC1
:1030FC00F5466305D700D9466319D70E14487D777A
:10310C001307F77FF98F2316F4002322040014C051
:10311C000C5823A0990089C9930704046384F50013
:10312C004E851D24232804020145F2406244D244FA
:10313C004249B2490561828003A90501E30609FEF3
:10314C0084410D8B23A02501B3842441814711E3D5
:10315C00DC491CC463469000C1BF2A99E35690FC1D
:10316C005C504C4CA6864A864E858297898CE346E9
:10317C00A0FE8357C400F240D24493E70704231601
:10318C00F40062444249B2497D5505618280D85DA4
:10319C00E344E0F051BF30480DBF8357C4007D7746
:1031AC001307F77FF98F1448C207C1872316F40061
:1031BC002322040014C013973701E35B07F428C8DB
:1031CC0081BF83A70900E38E07EE75476385E7008F
:1031DC005947E390E7FA23A099000145B9B77D77E9
:1031EC001307F77F1448F98FD1B793E70704231619
:1031FC00F4007D551DBF411122C426C206C64AC02B
:10320C00AA842E8419C11C5D9DCF8317C40001496B
:10321C0085C77850058B01E793F7072085CBA285EE
:10322C002685EFF05FE47C502A89858B91E78357E4
:10323C00C40093F707209DC7B24022444A859244AC
:10324C00024941018280EFE09F9BC1B7284CEFE01F
:10325C001FDDA2852685EFF01FE17C502A89858B26
:10326C00E1FFF1B7284CEFE0BFDBB24022444A85C6
:10327C009244024941018280011122CC26CA4AC8DB
:10328C004EC62E8406CE97E9FF1F9389E9CE2A8974
:10329C00EFF0CFDF83A6890005679307F7FEC442E2
:1032AC0033848740F198269431807D143204634B2B
:1032BC00E40081454A85EFF09FA583A78900A69776
:1032CC00630DF5004A85EFF0EFDCF2406244D24426
:1032DC004249B249014505618280B30580404A8567
:1032EC00EFF0FFA2FD57630AF502938701C29C43DE
:1032FC0003A78900818C93E41400338487404A85AA
:10330C0044C323A081C2EFF0EFD8F2406244D24410
:10331C004249B24905450561828081454A85EFF0F5
:10332C001F9F03A78900BD46B307E540E3DCF6F811
:10333C0097E6FF1F93864605944293E717005CC3FC
:10334C00158D23A0A1C2BDBFEDC5411122C426C25B
:10335C002E84AA8406C6EFF06FD38325C4FF13070F
:10336C0084FF17E5FF1F130525C193F7E5FF33060F
:10337C00F700544203288500F19A6307C81254C21F
:10338C0085893308D600BDED032384FF83254800CF
:10339C0097E8FF1F9388C8BE330767400328870050
:1033AC009A9785896305180F0323C70023266800A5
:1033BC00232403016387051493E6170054C31CC22E
:1033CC009306F01F63E1F6088D83938617008E0633
:1033DC004C413695104193D627408547B397D7007B
:1033EC00CD8F930685FF54C710C797E6FF1F23A701
:1033FC00F6B818C158C62244B24026859244410101
:10340C006FF04FC98325480085898DE5B69797E8FD
:10341C00FF1F9388E8B6144613E81700B305F700AE
:10342C006389160F5046D0C614C6232207019CC1CF
:10343C0041BF828093E61700232ED4FE1CC2930654
:10344C00F01FE3F3F6F893D697001146636CD60899
:10345C0093D6670093859603138686038E05AA95EB
:10346C009441E1156387D50CD042719A63F5C7007E
:10347C009446E39BD5FECC464CC714C7224498C552
:10348C00B24026859244D8C641016FF0AFC0639A12
:10349C00050E0C465046B69793E61700D0C50CC6E1
:1034AC0054C33E971CC381BF8589B69789E9832590
:1034BC0084FF0D8F54471047AE9754C690C6938621
:1034CC00C18013E61700944250C317E6FF1F23294F
:1034DC00E6AAE3E2D7F29387C1818C432685EFF00D
:1034EC00BFD911BF51466370D60213064005636DF8
:1034FC00D60493D6C7009385F6061386E6068E058A
:10350C00B9BFB69709BF9385C6051386B6058E0558
:10351C00B9B797E6FF1F23ABE6A697E6FF1F23A5D7
:10352C00E6A62326170123241701232207019CC199
:10353C00D9B54841854709863396C700498E97E728
:10354C00FF1F23ADC7A20DBF13064015636AD6003B
:10355C0093D6F70093858607138676078E0501B7F9
:10356C0013064055636AD60093D627019385D60778
:10357C001386C6078E05E5B59305803F1306E00755
:10358C00F9BD93E6170054C31CC2B5B5AE87411103
:10359C0022C4B2852A8436863E8506C623A601C679
:1035AC00112CFD576306F500B24022444101828084
:1035BC009387C1C69C43EDDB1CC0B2402244410141
:1035CC0082805971A2D42E848395E500A6D2CAD0EC
:1035DC0086D6B284368963CB05023000812A6347D4
:1035EC0005023247BD67B650F98F7977BA9793B712
:1035FC00170026542320F900930700409CC0056552
:10360C009654065913050580656182808357C40062
:10361C002320090093F7070899CBB650265493073B
:10362C0000049CC006599654014565618280B650D1
:10363C002654930700409CC0065996540145656179
:10364C00828003D7C500011122CC06CE26CA4AC8F7
:10365C00098B2E8409CF1387350498C198C9054767
:10366C00D8C9F2406244D244424905618280740058
:10367C003000AA84B937A2452A892685EFE07F9AC3
:10368C008317C40015C997E6FFFF9386E656D4DC72
:10369C00A246324793E707082316F40008C008C86F
:1036AC0054C815EBB3E727012316F400F24062442B
:1036BC00D24442490561828013F707205DF3F19BE8
:1036CC0093E72700130734042316F400854718C02A
:1036DC0018C85CC879B78315E4002685512001E52C
:1036EC008317C400C1B78357C400F19B93E717003D
:1036FC00C207C18745BFAE87411122C4B2852A8457
:10370C0036863E8506C623A601C65D28FD57630690
:10371C00F500B2402244410182809387C1C69C438C
:10372C00EDDB1CC0B240224441018280AE874111C6
:10373C0022C4B2852A843E8506C623A601C6B928B2
:10374C00FD576306F500B240224441018280938705
:10375C00C1C69C43EDDB1CC0B240224441018280B7
:10376C00411122C42A842E8523A601C606C62D2803
:10377C00FD576306F500B2402244410182809387D5
:10378C00C1C69C43EDDB1CC0B24022444101828087
:10379C009307800523A6F1C67D558280930780058B
:1037AC0023A6F1C67D5582809307800523A6F1C61A
:1037BC00014582809307800523A6F1C67D55828042
:1037CC009307800523A6F1C67D558280930780055B
:1037DC0023A6F1C67D55828001112A8706CE2E853F
:1037EC0026CCB2854ACA368622C637240040B7E7B3
:1037FC0000E0FD5603A90700C44323A0D71823A259
:10380C00D7189307F7FF93F7F70F0948636AF8087F
:10381C00B717004083C75704B7C80300F957637440
:10382C001505B306C50063E0D804631407050982C7
:10383C0097D0FF1FE7804013AA87371700409306E5
:10384C0070052300D704930680FA2300D70483461F
:10385C004704C18A2302D70437E700E0232027114D
:10386C00232297103244F240E24452493E850561CE
:10387C0082808547631FF7008567FD173E96E98FA9
:10388C003E96FD777D8E7D8D97D0FF1FE780C01310
:10389C0065B797D0FF1FE780401A9307150071BFDB
:1038AC00B547631AF7001305900B97D0FF1FE780FD
:1038BC00C01D814759B7B1476315F7001305B00A0E
:1038CC00EDB799476317F70097D0FF1FE780001DEE
:1038DC00CDB79D47631BF70023A0050023A205006D
:1038EC0097D0FF1FE7802021E9B791476317F700B6
:1038FC0097D0FF1FE78000246DBF81471DDFF15774
:10390C002DBF0000536C65657020506F7765722079
:10391C0054657374000000004D6F64653A20536861
:10392C007574646F776E28302900000052414D2069
:10393C0052657461696E65643A204E6F0000000038
:10394C004163746976652054696D653A2032730061
:10395C00536C656570696E6720696E2035732E2E09
:10396C002E000000536C65657020506F77657220D7
:10397C00546573742E20536C656570696E6720698D
:10398C006E2035732E2E2E00446973706C61792075
:10399C004F46462E2E2E0000000000000000005F57
:1039AC0000000007000700147F147F14242A7F2ACC
:1039BC001223130864623649552250000503000097
:1039CC00001C2241000041221C0014083E0814086F
:1039DC00083E08080050300000080808080800607D
:1039EC0060000020100804023E5149453E00427F11
:1039FC00400042615149462141454B311814127F18
:103A0C001027454545393C4A4949300171090503A0
:103A1C003649494936064949291E00363600000008
:103A2C0056360000081422410014141414140041DA
:103A3C002214080201510906324979413E7E1111C6
:103A4C00117E7F494949363E414141227F41412205
:103A5C001C7F494949417F090909013E4149497A7D
:103A6C007F0808087F00417F41002040413F017FD3
:103A7C00081422417F404040407F020C027F7F04AB
:103A8C0008107F3E4141413E7F090909063E4151E4
:103A9C00215E7F09192946464949493101017F01B7
:103AAC00013F4040403F1F2040201F3F4038403FD7
:103ABC0063140814630708700807615149454300F3
:103ACC007F4141000204081020040201020440401E
:103ADC00404040000102040020545454787F484474
:103AEC0044383844444420384444487F385454546F
:103AFC0018087E0901020C5252523E7F08040478C9
:103B0C0000447D40002040443D007F1028440000CC
:103B1C00417F40007C041804787C08040478384405
:103B2C004444387C14141408081414187C7C0804BD
:103B3C0004084854545420043F4440203C40402046
:103B4C007C1C2040201C3C4030403C442810284425
:103B5C000C5050503C4464544C4400083641000016
:103B6C00007F000000413608001008081008000013
:103B7C00AADBFFFFD2DBFFFFFADBFFFF12DCFFFF4C
:083B8C002CDCFFFF0A00000021
:023B940001A08E
:103B980000000000440E0020AC0E0020140F00208E
:103BA800000000000000000000000000000000000D
:103BB80000000000000000000000000000000000FD
:103BC80000000000000000000000000000000000ED
:103BD80000000000000000000000000000000000DD
:103BE80000000000000000000000000000000000CD
:103BF80000000000000000000000000000000000BD
:103C080000000000000000000000000000000000AC
:103C1800000000000000000000000000000000009C
:103C2800000000000000000000000000000000008C
:103C3800000000000000000001000000000000007B
:103C48000E33CDAB34126DE6ECDE05000B00000040
:103C5800000000000000000000000000000000005C
:103C6800000000000000000000000000000000004C
:103C7800000000000000000000000000000000003C
:103C8800000000000000000000000000000000002C
:103FC800800F0020800F0020880F0020880F00201D
:103FD800900F0020900F0020980F0020980F0020CD
:103FE800A00F0020A00F0020A80F0020A80F00207D
:103FF800B00F0020B00F0020B80F0020B80F00202D
:10400800C00F0020C00F0020C80F0020C80F0020DC
:10401800D00F0020D00F0020D80F0020D80F00208C
:10402800E00F0020E00F0020E80F0020E80F00203C
:10403800F00F0020F00F0020F80F0020F80F0020EC
:104048000010002000100020081000200810002098
:104058001010002010100020181000201810002048
:1040680020100020201000202810002028100020F8
:1040780030100020301000203810002038100020A8
:104088004010002040100020481000204810002058
:104098005010002050100020581000205810002008
:1040A80060100020601000206810002068100020B8
:1040B8007010002070100020781000207810002068
:1040C8008010002080100020881000208810002018
:1040D80090100020901000209810002098100020C8
:1040E800A0100020A0100020A8100020A810002078
:1040F800B0100020B0100020B8100020B810002028
:10410800C0100020C0100020C8100020C8100020D7
:10411800D0100020D0100020D8100020D810002087
:10412800E0100020E0100020E8100020E810002037
:10413800F0100020F0100020F8100020F8100020E7
:104148000011002000110020081100200811002093
:104158001011002010110020181100201811002043
:1041680020110020201100202811002028110020F3
:1041780030110020301100203811002038110020A3
:104188004011002040110020481100204811002053
:104198005011002050110020581100205811002003
:1041A80060110020601100206811002068110020B3
:1041B8007011002070110020781100207811002063
:1041C8008011002080110020881100208811002013
:1041D80090110020901100209811002098110020C3
:1041E800A0110020A0110020A8110020A811002073
:1041F800B0110020B0110020B8110020B811002023
:10420800C0110020C0110020C8110020C8110020D2
:10421800D0110020D0110020D8110020D811002082
:10422800E0110020E0110020E8110020E811002032
:10423800F0110020F0110020F8110020F8110020E2
:10424800001200200012002008120020081200208E
:10425800101200201012002018120020181200203E
:1042680020120020201200202812002028120020EE
:10427800301200203012002038120020381200209E
:10428800401200204012002048120020481200204E
:1042980050120020501200205812002058120020FE
:1042A80060120020601200206812002068120020AE
:1042B800701200207012002078120020781200205E
:1042C800801200208012002088120020881200200E
:1042D80090120020901200209812002098120020BE
:1042E800A0120020A0120020A8120020A81200206E
:1042F800B0120020B0120020B8120020B81200201E
:10430800C0120020C0120020C8120020C8120020CD
:10431800D0120020D0120020D8120020D81200207D
:10432800E0120020E0120020E8120020E81200202D
:10433800F0120020F0120020F8120020F8120020DD
:104348000013002000130020081300200813002089
:104358001013002010130020181300201813002039
:1043680020130020201300202813002028130020E9
:104378003013002030130020381300203813002099
:104388004013002040130020481300204813002049
:1043980050130020501300205813002058130020F9
:1043A80060130020601300206813002068130020A9
:1043B8007013002070130020781300207813002059
:1043C800F8170020580B0020FFFFFFFF0000020035
:00000001FF
