:100000006F00A031000000009C0300009C03000072
:10001000A9BDF9F39C0300000000000000000000EF
:100020009C0300009C030000000000000000000092
:100030009C030000000000009C0300000000000082
:100040009C0300009C0300009C0300009C03000034
:100050009C0300003A0A00009C030000000000001E
:100060009C0300009C0300009C0300009C03000014
:100070009C0300009C0300009C0300009C03000004
:100080009C0300009C0300009C0300009C030000F4
:10009000B707FDFFB7C600401387F7FF83A7061019
:1000A000F98F1DC137070200D98F23A0F61037D76B
:1000B00000401C47B7063300D58F1CC7B7C70040A8
:1000C00093870720A8CB82804167D98F23A0F610A1
:1000D000B7D600409C463707CEFF7D17F98F9CC6E8
:1000E000F1BF37D700405C4385669386C6B0F99B65
:1000F000AA965CC383C70600B166105F938606F0BC
:10010000A207B69781769386F60F758ED18F1CDF86
:100110005C4337060002B706000493E717005CC390
:10012000B7C700400967130707F493870720F8D380
:10013000B7C5004037D7004083270709F18F89C72B
:1001400083270709F58F89E793870520FC53EDF78F
:10015000B7D7004003A5070983A747091375F5031F
:10016000A98393F7F707E2075D8D8280411102C6EC
:100170000547B2476354F700410182800100B2474E
:1001800085073EC6FDB7371700408327870A93E7E8
:1001900007022324F70A8280B717004093870708D5
:1001A000D85B1377F7FBD8DB985B1367070498DB02
:1001B00098531377F7FB98D398571367070498D78A
:1001C0008280B717004093870708D85B136707043E
:1001D000D8DB98531367070498D3D85713670704DD
:1001E000D8D78280411106C6453F713F4137D13F84
:1001F000B53F371700408327C70AB24093E707028D
:100200002326F70A41018280411106C65D3FB93FAE
:100210009D3FA93F5137B240410189BF011122CC16
:1002200026CA4AC806CE4EC62A842149B7140040C1
:1002300093178401E18763D70704B93F053FA137CE
:10024000353783A7C40A06047D1993E7070223A65E
:10025000F40A1374F40FE31D09FC3D3F013F2537F9
:10026000313703A5440A83A7C40AF240624493E7E6
:10027000070223A6F40A4249D244B2491375050481
:10028000056182803D3F5DBF411122C406C62A84BC
:10029000913F13058007593709E5493719E1228550
:1002A000B53F2244B240410185B701114EC6856970
:1002B00026CA52C456C206CE22CC4AC8AA84930A81
:1002C000E005154A938949B383C7040091EBF240D6
:1002D0006244D2444249B249224A924A056182802C
:1002E000811713F7F70F8504E3E0EAFE3384470331
:1002F000D53D130580071D37130500040537014957
:10030000B3072401CE9703C507000509013FE31990
:1003100049FF01452137CD3D45BF9701002093811D
:10032000210E173100201301E1CD138541C09385C3
:1003300001056377B500232005001105E36DB5FEC7
:10034000171500001305059D938541C0138641C014
:10035000638AC5008322050023A05500110591057D
:10036000E3EAC5FE93070000FD42739002BC896278
:100370009382828873A0023097020000938282C821
:1003800093E2320073905230B7F700E0154798C3FC
:1003900093074043739017347300203001A02A96CE
:1003A000AA876393C70082802380B7008507D5BFE3
:1003B00081476313F60082803387F5008346070088
:1003C0003307F50085072300D700E5B7B7170040CE
:1003D000930570052380B704130680FA2380C704B1
:1003E0000100010003C7A700B72600401377F70FED
:1003F000136707012385E7000547A383E68003C74A
:1004000056801377F70F13670701A382E6802380D6
:100410000704010001002380B7042380C704010002
:1004200001001307A0042384E700238007040100D0
:1004300001008280197186DEA2DCA6DACAD8CED687
:10044000D2D4D6D2DAD0DECEE2CCE6CAEAC8EEC644
:10045000B53FB717004093870708D85B0144E544D0
:100460001377F7DFD8DB98531367072098D3985793
:100470001367072098D7D85B13670702D8DB985318
:100480001367070298D30133013B85656546938561
:1004900085AC2808313FB933130580074133014546
:1004A000B53B3C08A29703C507000504853BE31A4A
:1004B00094FE993B1304000B1309400B2285E9338A
:1004C0000145D9334145C933313B13058007B93361
:1004D00013050004A13393040008FD14014593F4AF
:1004E000F40F2D3BFDF805041374F40F313BE317B3
:1004F00024FD1305000B493B014579334145693320
:10050000056A13054AAE5533B7C6004093870620E7
:100510001307C008D8CB13066007D0CFD8D3D8DBD9
:10052000F8C3F0C71307C006D8D7D8DF1307800772
:10053000D8C33707160023AA07043D07D8C7138777
:1005400001C1F8DF7D5737D4004098C793070048B2
:100550001CD41C583707FAFF7D17F98F1CD81C587C
:100560003707007037060002D98F1CD8585CB707D0
:1005700000F9FD177D8F518F58DC5C5C3707004018
:10058000B70402008E078D83D98F5CDC3C443707AB
:10059000F9FF7D17F98F3CC438487D16D14B13778E
:1005A000F78F1367073038C87C4C370707001305EF
:1005B0008055D98F7CCC7C4C37077000938901C162
:1005C000D98F7CCC138706109387C4201CDF930738
:1005D00000055CDF5C5BF18F370600A4D18F5CDB2C
:1005E00003A70610B7E700E01377F7CF23A0E610C4
:1005F000A3897705713C5840FD76FD161377F7EF18
:1006000058C0185413055002758F18D458543D9B88
:1006100058D41C44C58F1CC45C4093E707015CC0E0
:10062000C9342A84135B8501130570025D3CAA84DA
:10063000935C850149457534137CF503935A850114
:100640001306400281452A891374F40368083304B1
:10065000844102CCA933B307740393F4F403056611
:10066000137BFB0793FCFC0793FAFA07B3049C4047
:100670000147D145411633D5B70234083388E60027
:100680000507818F93164500F18EC98E2300D8008F
:10069000E313B7FE05668146D14841161305800273
:1006A000B3D516033C083388E7000507A696939751
:1006B0004500F18FCD8F2300F800E313A7FE3C081F
:1006C000814637D5004029468C43138786020A07A6
:1006D0002A970CC385069107E398C6FE330B5B414E
:1006E0009546B306DB020566B38A9A4102C602C884
:1006F00002CA854799454116780033D5B6023308BA
:10070000F7008507B386664113174500718F498F3F
:100710002300E800E392B7FE0566014719439308FA
:1007200006FF2D45B355670274003388F600850730
:10073000569793964500B3F61601CD8E2300D80048
:10074000E392A7FEB246B7D700401387070834C725
:10075000C24674C7D24634CBD843C176FD163D9B02
:10076000D8C3D843799BD8C39857518F98D7D857B7
:1007700013670701D8D7985F137707FC33678701A2
:1007800098DF885F370700817D17698F3705007F05
:100790003375A900598D88DFD84313670710D8C374
:1007A000B84B758FB8CB9847B7062000558F98C7C0
:1007B000D847B7C6004013670701D8C7D843518F41
:1007C000D8C3B7C700401307400693870720F8D364
:1007D00037D7004093870620FC5391C78327C7096A
:1007E00093F70710E5FBB7D7004013870708584F6A
:1007F000938681C07D8B98C2B84B4166938481C03B
:10080000518FB8CBB84B9042019B518FB8CB9847D2
:100810003706E0FF7D16718F98C79842F946FD476D
:10082000090763E4E6009C40890723A6F1C0B7D717
:100830000040B84FC176FD16758FB8CF9847C16696
:100840000145558F98C7D847B706EFFFFD161367C8
:100850000710D8C7D843B70B00FA370C01FF758FC4
:10086000B7061000558FD8C3EFF09F8237E700E03E
:1008700083475741B70C790037C9898E93E707F84A
:1008800093F7F70FA30AF740B75A5500B7072000B0
:10089000370B80002320F710FD1B130C0CC0938C2A
:1008A000CC09130969ED938A5A55130BDB32856D18
:1008B0000145EFF0EFFDB7C7004003A7072093867F
:1008C00007200D8B19CBB84A1377F78FB8CA03A747
:1008D00007201367870023A0E720B7C700401387CE
:1008E000072023220706B7D60040D85613058015E7
:1008F00013840710759BD8D603A70710137707F842
:100900001367570223A0E710EFF08FF8B7C7004036
:1009100003A7071037060002B7D600401377F7CFBA
:100920001367071023A0E710585033777701518FD2
:1009300058D0B84A9040019B7D8A518FB8CA584818
:10094000370600FF137707FC1367B70058C8584CE9
:10095000337787013367970158CC2326240123225C
:10096000540123202407232C54051444F18EB3E6AC
:10097000660114C4784C718F3367670178CC0547E2
:1009800023A0E720938741C023A00700138741C01D
:100990001C43FDDF03C729009307A00CE31AF7F0FF
:1009A00003C739009307E00FE314F7F003C74900CA
:1009B0009307A00BE31EF7EE03C759009307E00B64
:1009C000E318F7EE371700408327C70A1305000B1B
:1009D00093E707202326F70AEFF01F8B0145EFF07E
:1009E000BF8A4145EFF05F8A13858DAFEFF0FF8B33
:1009F000B7F700E09847B7975B00938707D83E9713
:100A0000B7F600E09C46998FE3CE07FE371700400B
:100A10008327870A1305000B93E707202324F70A8F
:100A2000EFF09F860145EFF03F864145EFF0DF850F
:100A300013054AAEEFF07F87A5BD5D7126DCB7C414
:100A4000004022DE138404203AD23ED058441C4495
:100A50002ADA86C696C49AC29EC02ED832D636D41A
:100A600042CE46CC72CA76C87AC67EC4F98F1CC400
:100A7000138704105C5B0145F19B93E717005CDB77
:100A8000EFF00FE13C480547B64093F7F78F3CC8BD
:100A900083A704207254A64293E7870023A0F42082
:100AA00023A2E1C016438643E2545255C255325642
:100AB000A256125782577248E248524EC24E324FE7
:100AC000A24F616173002030AED580A81FD30040D3
:100AD0008D142000A1C8DA02818FD9F1DB40A4A6D1
:100AE000AF000000427574746F6E3A2052454C4559
:100AF0004153454400000000427574746F6E3A2003
:100B000050524553534544200000000001020304A5
:100B100005060708090A0C0D0E0F10111213141503
:100B2000161718191A1B1C1D1E1F202122232425ED
:100B300026000B27000000000000005F00000007F7
:100B4000000700147F147F14242A7F2A122313081D
:100B5000646236495522500005030000001C224102
:100B6000000041221C0014083E081408083E080832
:100B700000506000000808080808006060000020BD
:100B8000100804023E5149453E00427F4000426148
:100B90005149462141454B311814127F10274545D4
:100BA00045393C4A494930017109050336494949EB
:100BB00036064949291E0036360000005636000028
:100BC00008142241001414141414004122140802C1
:100BD00001510906324979413E7E1111117E7F494A
:100BE0004949363E414141227F4141221C7F4949CA
:100BF00049417F090909013E4149497A7F080808AE
:100C00007F00417F41002040413F017F0814224185
:100C10007F404040407F020C027F7F0408107F3EEF
:100C20004141413E7F090909063E4151215E7F094C
:100C3000192946464949493101017F01013F404098
:100C4000403F1F2040201F3F4038403F631408149E
:100C50006307087008076151494543007F4141001F
:100C600002040810200041417F00040201020440F8
:100C700040404040000102040020545454787F4812
:100C80004444383844444420384444487F38545419
:100C90005418087E0901020C5252523E7F08040487
:100CA0007800447D40002040443D007F10284400EF
:100CB00000417F40007C041804787C0804047838E4
:100CC000444444387C14141408081414187C7C0818
:100CD0000404084854545420043F4440203C4040FD
:100CE000207C1C2040201C3C4030403C44281028E4
:100CF000440C5050503C4464544C4400083641006D
:100D000000007F00000041360800100808100800AD
:00000001FF
