:100000006F00E05100000000A2050000A205000002
:10001000A9BDF9F3A20500000000000000000000E7
:10002000A2050000A2050000000000000000000082
:10003000A205000000000000A20500000000000072
:10004000A2050000A2050000A2050000A205000014
:10005000A20500006A0E0000A205000000000000DA
:10006000A2050000A2050000A2050000A2050000F4
:10007000A2050000A2050000A2050000A2050000E4
:10008000A2050000A2050000A2050000A2050000D4
:10009000011126CA4AC84EC606CE22CCAE84AA8911
:1000A000B2850149BDC663D49600B6840549338440
:1000B00096406353040001443A852286F92D2A872D
:1000C000B306850081473386F4406346C00463D39A
:1000D00004008144338696003305E6406304090238
:1000E0006372C7029307A002A30FF6FE9306F6FF02
:1000F000637AD700230FF6FE9306E6FF6374D700FA
:10010000A30EF6FEF2406244D2444249B249056170
:100110008280A68669BF3386F90083450600338650
:10012000F60085072300B60079BF814863560500B5
:1001300081E63305A04085489307100619C293074E
:1001400010043A88254E138667FFB377B5022A83D9
:1001500093F6F70F6364FE049386060393F6F60F97
:100160002300D800930718003355B5026376B30215
:10017000638808009306D0022380D70093072800E5
:100180003385E74009462380070081463346C50290
:10019000FD1763C7C60082803E8845BFB2967DBF0B
:1001A000B305D70083C8070003C805008506238070
:1001B000150123800701E9BFB707FDFFB7C600405F
:1001C0001387F7FF83A70610F98F1DC137070200B9
:1001D000D98F23A0F61037D700401C47B70633004D
:1001E000D58F1CC7B7C7004093870720A8CB828054
:1001F0004167D98F23A0F610B7D600409C46370739
:10020000CEFF7D17F98F9CC6F1BF37D700405C4306
:100210008566938606F4F99BAA965CC383C706009D
:10022000B166105F938606F0A207B6978176938633
:10023000F60F758ED18F1CDF5C4337060002B706C0
:10024000000493E717005CC3B7C7004009671307B2
:1002500007F493870720F8D3B7C5004037D700408D
:1002600083270709F18F89C783270709F58F89E756
:1002700093870520FC53EDF7B7D7004003A5070986
:1002800083A747091375F503A98393F7F707E207D7
:100290005D8D8280B7C603007D15B717004037F724
:1002A00000E09386C66C7D5803A6C70A1366062035
:1002B00023A6C70A0C47B69510470D8EE34E06FEDF
:1002C00003A6870A1366062023A4C70A19C50C478C
:1002D000B69510470D8EE34E06FE7D15E31605FD1F
:1002E0008280B70700E083A707348280370700E0E9
:1002F00083270734397106DE22DC26DA4AD84ED647
:1003000052D456D25AD05ECE62CC66CA93F7070C4E
:100310009306000C638AD70A02C62E84C5E9832798
:10032000073489C793F7070891E3653FF2502285A8
:100330006254D2544259B259225A925A025BF24B39
:10034000624CD24C21618280B30C9440668963D3A5
:100350009A011D4993071B0003270A3493060A34A8
:100360001376070821EE11C3AD3F014663D49B010C
:100370001306D9FF93853400CE9568000529B2474E
:10038000338799002322FA34814703460700850703
:100390007400BE962380C6006305F9000507E39646
:1003A00087FF9307490093E707F82306F100B24758
:1003B000CA942320FA34E3C984F88DBFFD17C9FF1E
:1003C0009C4293E7070C9CC201448DB7AA898144E3
:1003D0009D4A370B1000370A00E0894B0D4CE1BFF6
:1003E000411122C406C62E841137B2402285224410
:1003F00041018280797126D2B7C4004022D413848F
:100400000410585806D61375F507719B136717002B
:1004100058D837D700405C5793840420F59B5CD7AD
:1004200083A704F093F707F8C98F23A0F4F013050E
:100430008025593337C7898E130767EDB7575500A5
:1004400058C4938757555CC038D03CCC1844370605
:1004500000FFB70680009386D632718F558F18C47F
:100460007C4C938541C0F18FD58F7CCC056493077C
:1004700024304D461305A1002314F100052E3C0045
:10048000BCDCB7D600409307A4BB37060001B856C2
:10049000718F19E3FD17E5FFB7C7004013870710F9
:1004A0001443370600FA7D1693F6F6CF93E606104E
:1004B00014C3545393870720F18E37060002D18E60
:1004C00054D3944B01767D16F18E94CBB70602007F
:1004D00094C7896693860660F4D3144337060001F7
:1004E000D18E14C3545BF19A54DB094798C337C7C4
:1004F0000040130407207C50EDFF014575391C4076
:100500008D8B89CB3C4893F7F78F3CC81C4093E711
:1005100087001CC0B25022549254456182809701DA
:1005200000209381E1ED173100201301A1AD138567
:10053000C1C1938581066377B500232005001105AD
:10054000E36DB5FE17150000130585A3938541C023
:100550001386C1C1638AC5008322050023A055000C
:1005600011059105E3EAC5FE93070000FD42739073
:1005700002BC89629382828873A0023097020000D5
:10058000938242A893E2320073905230B7F700E0B2
:10059000054798C385679387878D739017347300D9
:1005A000203001A0AA8703C7070001E73385A740D1
:1005B00082808507CDBF5971A2D4A6D2CAD0CECE33
:1005C000D2CCD6CADEC686D6DAC8E2C4E6C2EAC053
:1005D000AA842E893284B68B8149130A5002A94A13
:1005E00083470400130C1400A307F10085E3B65001
:1005F000265496540659664AD64A464BB64B264C64
:10060000964C064D4E85F64965618280638C4701A4
:100610004A8685451305F10082945E8B6284AA990F
:10062000DA8B7DBF83471400930600031307240071
:10063000A307F100130C0003639FD7063A84014D12
:100640000147254601A8330D5D03834704000504D7
:100650000547369D938607FD93F5F60FE375B6FEC5
:1006600019C3A307F1006147EA8C6353A701E14C6A
:100670009306C00601476398D700834704000547E7
:100680000504A307F1008346F10093074006638148
:10069000F60663E5D70293078005638CF608930797
:1006A00030066389F60AA1D64A8685451305F1000E
:1006B00082945E8BADB7130C000249B793075007C5
:1006C0006388F602930780076385F6069307300771
:1006D000E39CF6FC138B4B0083AB0B005E85D93596
:1006E000AA8563060D083810E68662865E851DA021
:1006F000138B4B0015C79386B6F8180893B61600EF
:1007000003A50B000146A9450D343810E686628624
:10071000AA850808B53AAA854A862810829401B7A6
:100720009307500718086394F6008546D1BF8146A9
:10073000C1BF03A50B00138686FA18088546133639
:100740001600C145DD32138B4B00AA853810E686B2
:100750006286C1B783A70B00138B4B003810A30729
:10076000F100E686628685451305F10065B74A8685
:100770005E856DB7397132D42A862ED236D6814540
:1007800054101305003E06CE3AD83EDA42DC46DE6F
:1007900036C61535F240216182802A96AA87639376
:1007A000C70082802380B7008507D5BF81476313C8
:1007B000F60082803387F500834607003307F50093
:1007C00085072300D700E5B7411106C622C426C21B
:1007D000AA84C93B2A84AA852685093E05658545E4
:1007E000130585EF2136B2401305140022449244CC
:1007F00041018280B70700E083A707341307000C8C
:1008000093F7070C638CE7044111B707100022C46B
:1008100006C62A848507B70600E003A706341386B8
:1008200006349375070885E111C3653C41657D1564
:1008300093178400E98F93E75708370700E02320D8
:10084000F734054501A8FD17E9FB1C42014593E774
:10085000070C1CC2B24022444101828001458280C3
:10086000B7170040930570052380B704130680FA7C
:100870002380C7040100010003C7A700B72600407A
:100880001377F70F136707012385E7000547A38355
:10089000E68003C756801377F70F13670701A3821B
:1008A000E68023800704010001002380B704238031
:1008B000C704010001001307A0042384E70023807C
:1008C000070401000100B70700E023A20734130763
:1008D000000823A0E7348280197186DEA2DCA6DA44
:1008E000CAD8CED6D2D4D6D2DAD0DECEE2CCE6CAC0
:1008F000EAC8EEC6B537B717004093870708D85B3C
:10090000B7C60040130660071377F7DFD8DB9853AC
:1009100037D400401367072098D393870620130726
:10092000C008D8CBD0CFD8D3D8DBF8C3F0C71307D3
:10093000C006D8D7D8DF13078007D8C337071600FB
:1009400023AA07043D07D8C7138781C2F8DF7D5764
:1009500098C7930700481CD41C583707FAFF7D1727
:10096000F98F1CD81C583707007037060002D98F42
:100970001CD8585CB70700F9FD177D8F518F58DCE4
:100980005C5C37070040370902008E078D83D98FE2
:100990005CDC3C443707F9FF7D17F98F3CC43848CD
:1009A0007D16D14A1377F78F1367073038C87C4C10
:1009B0003707070013058055D98F7CCC7C4C37074F
:1009C0007000938481C2D98F7CCC13870610930763
:1009D000C9201CDF930700055CDF5C5BF18F3706E5
:1009E00000A4D18F5CDB03A70610B7E700E0137704
:1009F000F7CF23A0E610A3895705EFF0EFFB58408F
:100A0000FD76FD161377F7EF58C018541305500202
:100A1000758F18D458543D9B58D41C44B3E7270114
:100A20001CC45C4093E707015CC0EFF00FFE2A8412
:100A3000135A850113057002EFF02FFD2A8B135C0A
:100A400085014945EFF06FFC937BF50393598501D0
:100A50001306400281452A891374F403680833049D
:100A6000744102CC1D3B33075403137BFB03056623
:100A7000137AFA07137CFC0793F9F907338B6B4160
:100A80008147D14541163355B70234083388F60003
:100A90008507018F93164500F18EC98E2300D8007B
:100AA000E393B7FE05668146D148411613058002DF
:100AB000B3D5160338083308F7008507DA9613977D
:100AC0004500718F4D8F2300E800E393A7FE3C089B
:100AD000814637D5004029468C43138786020A0792
:100AE0002A970CC385069107E398C6FE330A3A415C
:100AF0009546B306DA020567B389894102C602C882
:100B000002CA854799454117700033D5B6023308AC
:100B1000F6008507B386464113164500798E498E47
:100B20002300C800E392B7FE056601471943930806
:100B300006FF2D45B355670274003388F60085071C
:100B40004E9793964500B3F61601CD8E2300D8003C
:100B5000E392A7FEB246B7D700401387070834C711
:100B6000C2463705007F3379A90074C7D24634CB1B
:100B7000D843B7060081FD163D9BD8C3D843799B67
:100B8000D8C39857518F98D7D85713670701D8D72C
:100B9000985F137707FC3367770198DF985F758F4D
:100BA0003369270123AC2703D843C176FD161367A9
:100BB0000710D8C3B84B758FB8CB9847B70620003D
:100BC000558F98C7D847B7C6004013670701D8C7E5
:100BD000D843518FD8C3B7C7004013074006938747
:100BE0000720F8D337D7004093870620FC5391C7DE
:100BF0008327C70993F70710E5FBB7D70040138792
:100C00000708584F938601C27D8B98C2B84B416646
:100C1000138901C2518FB8CBB84B9042019B518FC1
:100C2000B8CB98473706E0FF7D16718F98C798427A
:100C3000F946FD47090763E5E600832709008907B0
:100C400023A2F1C2B7D70040B84FC176FD16758F09
:100C5000B8CF9847C1660145558F98C7D847B706A2
:100C6000EFFFFD1613670710D8C7D843370B00FAFC
:100C7000B70B01FF758FB7061000558FD8C3EFF083
:100C8000AFD337E700E0834757411545370C79006C
:100C900093E707F893F7F70FA30AF740B707200089
:100CA0002320F710EFF00FDF05651305C5EF293E90
:100CB00013055002EFF00FF413056002EFF08FF30D
:100CC00013057002B7CA898E056AEFF0AFF27D1B7B
:100CD000938B0BC0130CCC09938A6AED856C9389B6
:100CE00041C0130A8AF60145EFF00FCDB7C70040A7
:100CF00003A70720938607200D8B19CBB84A1377DB
:100D0000F78FB8CA03A707201367870023A0E7203F
:100D100037CD004093070D2023A20706B7DD004022
:100D200083A7CD021305801513040D10F59B23A690
:100D3000FD0283270D1093F707F893E7570223204E
:100D4000FD10EFF06FC783270D103707000237063D
:100D500000FF93F7F7CF93E707102320FD105C50B7
:100D6000B70680009386D632B3F76701D98F5CD07F
:100D700083A70D0503270900819B7D8BD98F23A8AD
:100D8000FD045C4893F707FC93E7B7005CC85C4C34
:100D9000B3F77701B3E787015CCCB757550023263B
:100DA0005401938757555CC0232054073CCC18440A
:100DB000718F558F18C47C4CF18FD58F7CCC8547B3
:100DC0002320FD201387C1C1232007009387C1C1C1
:100DD00098437DDF0545EFF0EFCB03C6140083C5D4
:100DE00004000565130505F171321D44856D094D3B
:100DF000B387840083C5070013854DF27D149D3AA7
:100E0000E318A4FF83C5240005651305C5F29D32D0
:100E1000214483C71400850763D087042945D93A44
:100E200083C774001305500213D74700BD8B529738
:100E3000D2970347070083C70700A388E9002389E7
:100E4000F900EFF02FDB13056002EFF0AFDA1305C6
:100E50007002EFF02FDA41BDB387840083C507002D
:100E600013858CF3050439326DB75D7126DCB7C488
:100E7000004022DE138404203AD23ED058441C4461
:100E80002ADA86C696C49AC29EC02ED832D636D4E6
:100E900042CE46CC72CA76C87AC67EC4F98F1CC4CC
:100EA000138704105C5B0145F19B93E717005CDB43
:100EB000EFF08FB03C480547B64093F7F78F3CC83A
:100EC00083A704207254A64293E7870023A0F4204E
:100ED00023AEE1C016438643E2545255C255325602
:100EE000A256125782577248E248524EC24E324FB3
:100EF000A24F6161730020300A0000002E7E206343
:100F000068333266756E2069534C4552207E2E0040
:100F1000525353493A2564206C656E3A2564204D3E
:100F200041433A00253032783A00000025303278CB
:100F300020646174613A000025303278200000009E
:100F40000102030405060708090A0C0D0E0F101113
:100F500012131415161718191A1B1C1D1E1F2021F9
:100F60002223242526000B273031323334353637FF
:0C0F70003839414243444546000000006F
:100F7C0066554433221103190000060943483332E5
:080F8C0046554E000000000074
:00000001FF
