:040000006F0080729B
:100004000000000000000000E40300205E03002064
:10001400A9BDF9F31C0A0000000000000000000064
:100024001C0A00001C0A0000000000000000000080
:100034001C0A0000000000001C0A00000000000070
:10004400000000001C0A0000000000001C0A000060
:100054001C0A00001C0A00001C0A0000000000002A
:100064001C0A000000000000000000001C0A000040
:100074001C0A00001C0A00001C0A00001C0A0000E4
:10008400000000001C0A0000000000001C0A000020
:100094009307000C0111631CF50493078008F3B760
:1000A400078093F787083EC00F100000B717004081
:1000B400130770052380E704130780FA2380E704FD
:1000C4000F10000003C7F70013670704A387E700B6
:1000D40003C787001367070C2384E7002380070402
:1000E4008247F3A707800F10000005618280B717CD
:1000F400004003C7A700118B79EF83C6E7041307F9
:10010400800893F6F60F733607801376860832C29A
:100114000F1000001308700523800705930580FA6B
:100124002380B7040F10000003C6E70413663600EB
:100134002387C70403C6A700136646002385C700A8
:10014400238007041246732606800F10000003C69E
:1001540087001376F60F73370780137787083AC43E
:100164000F100000238007052380B7040F10000040
:1001740003C787001367070C2384E7002380070461
:10018400A247F3A707800F100000A5470100FD1741
:1001940093F7F70FE5FF93078008F3B7078093F70A
:1001A40087083EC60F100000B717004013077005FC
:1001B4002380E704130780FA2380E7040F1000006C
:1001C4002384C7002387D70423800704B247F3A7F7
:1001D40007800F1000009377050C13070004639247
:1001E400E70A93078008F3B7078093F787083EC8A8
:1001F4000F100000B7170040130770052380E704B1
:10020400130780FA2380E7040F10000003C7A70038
:100214008546136707012385E70037270040A303BA
:10022400D7808346578093E60601A302D7802380B4
:100234000704C247F3A707800F1000009307800844
:10024400F3B7078093F787083ECE0F100000B71767
:100254000040130770052380E704130780FA238006
:10026400E7040F10000003C7F7001375F50F1367B9
:100274000704A387E7002384A70023800704F24729
:100284008DB59377F5019DCF93078008F3B7078069
:1002940093F787083ECA0F100000B71700401307F2
:1002A40070052380E704130780FA2380E7040F1006
:1002B4000000372700408946A303D7802380070422
:1002C400D2478DBF93078008F3B7078093F7870859
:1002D4003ECC0F100000B7170040130770052380B1
:1002E400E704130780FA2380E7040F100000372780
:1002F40000409D46A303D78023800704E2471DBF27
:100304000111814601468145114506CE970000E062
:10031400E780205D93078008F3B7078093F7870889
:100324003EC60F100000B717004013077005238066
:10033400E704130780FA2380E7040F10000003C7C3
:100344006704136717002383E70423800704B24775
:10035400F3A707800F100000F2400561828041116D
:100364008146014681451145970000E0E7806057CA
:1003740013078008F337078093F787083EC40F10EC
:100384000000B7170040130670052380C7049306C6
:1003940080FA2380D7040F100000FD552396B7027E
:1003A40023800704A245F3A505800F1000007337CE
:1003B4000780137787083AC60F1000002380C7040C
:1003C4002380D7040F10000003C7670413671700C6
:1003D4002383E70423800704B247F3A707800F10A1
:1003E400000001A001A0A9473305F5027D1511E124
:1003F40082800100E5BF411122C406C62A847D140F
:1004040042041305803E4180F93F75F8B24022440E
:1004140041018280230304801547A2872303E480DB
:10042400010001002302A48003C76780620761877B
:10043400E34C07FE2382A780228783476780E20775
:10044400E187E3CC07FE828023030480154723035E
:10045400E480010001002302A48082808307648079
:10046400E3CE07FE23030480828083076480E3CE07
:1004740007FE03454480828083076480E3CE07FE41
:100484002302A4808280411126C44AC24EC006C6FB
:100494001377F50BAD47AA892E8995446306F700B7
:1004A40019455D37653F8D444E85793FFD59FD14EF
:1004B40063983401B240A2441249824941018280C6
:1004C400135509011375F50F453F2209CDB70111E5
:1004D40026CC06CEB704080051371545B537713719
:1004E40069372AC6A53F32459377150089EB136512
:1004F40015001375F50FF240E24405618280FD1486
:10050400E9FC0145CDBF411106C6B71700401307EA
:1005140070052380E704130780FA2380E70403C7E8
:1005240047041305F00F1367070E2382E70491476E
:100534002303F480C535B24041010DB7011126CC27
:100544004ACA4EC852C606CE2A89AE89B284554AD2
:100554005D3F91E82137F24026855249E244C24981
:10056400324A05618280CA850945313F910903A752
:10057400C9FF91472320E48003076480E34E07FE0C
:1005840023034481FD17EDFBFD14110981C4937706
:10059400F90FE9FF2D3F55FDFD5475BF011126CC20
:1005A4004ACA4EC852C656C45AC206CE2A89328A8C
:1005B4008D49913FC164C16A056B9387F4FFB3F71A
:1005C400270199E363719A02FD199180E39709FE6B
:1005D40071350145F240E2445249C249324AA24AC5
:1005E400124B056182801305800D63885401130545
:1005F40000026384640113051008CA856935C13D8E
:1006040009C52699330A9A4075BF7D55E1B7011192
:1006140006CE26CC4ACAB2844EC82AC62E89E535EF
:100624003245FD14FD59AA852D45B13D639A340127
:100634003535F24026855249E244C249056182803B
:100644002D3593F7340091EB8326048003270900AA
:1006540093074900E39EE6FC3E89FD14C1BF0111E6
:1006640006CE2AC64D353245C533F2400561FDB389
:10067400011106CE26CC4ACA4EC852C6AA8956C40F
:100684002E895135CE852D45FD3B81448D4A214A25
:10069400E93B63965401832704802320F9008504F1
:1006A400E39844FF8327048013972901635C0700C0
:1006B4002312F900F240E2445249C249324AA24AA2
:1006C400056169BB2322F900F5B7411106C626C4AA
:1006D4004AC24EC0AE89053D81451305B004653359
:1006E400BD447D59593393F77400CE9703C707006F
:1006F400FD14398D2380A700E39624FFB240A24461
:1007040012498249410199BB411106C6ED3B1305CB
:1007140060061D3BA133130590093D33B2404101EE
:0407240035BB0000E1
:100728009711002093810180173100201301018D5A
:1007380013054000970500209385458C1706002077
:10074800130606FE63FAC5008322050023A05500A0
:1007580011059105E3EAC5FE170500001305052CF0
:10076800970500209385C5FB17060020130686FB16
:1007780063FAC5008322050023A0550011059105E1
:10078800E3EAC5FE170500201305C5F99705002003
:10079800938545F96377B500232005001105E36DBE
:1007A800B5FE93025002739002BC8D427390428052
:1007B8008542739012BC93028008739002309702AE
:1007C80000209382A28393E2320073905230970202
:1007D80000009382020173901234730020300111DB
:1007E8001305A00406CE22CC26CA4AC84EC69700D6
:1007F8000020E780A0898D451305001037140040BC
:1008080005281309840B9304001093090010232072
:1008180039011305401F97000020E78080BD1305AC
:10082800401F2326940A97000020E78080BCC5B7A4
:10083800914763EEB702170700001307A71C8A0544
:10084800BA959C41BA978287B717004003A7470B10
:100858001345F5FF698F23AAE70A03A7070B698FDA
:1008680023A8E70A03A7070A798D23A0A70A82808D
:10087800B717004083A6470B1347F5FFF98E23AA45
:10088800D70A83A6070B558D23A8A70A83A6070AAC
:10089800758F23A0E70A8280B717004003A7470B8C
:1008A800498F23AAE70A03A7070B1345F5FF45BF9E
:1008B800B717004083A6470B1347F5FF758F23AA88
:1008C800E70A03A7070A598D4DB7B717004003A7D2
:1008D800470B498FEDB701112A8706CE2E8526CC06
:1008E800B2854ACA368622C637240040B7E700E0F8
:1008F800FD5603A90700C44323A0D71823A2D7187D
:100908009307F7FF93F7F70F0948636AF808B717D3
:10091800004083C75704B7C80300F9576374150527
:10092800B306C50063E0D80463140705098297007D
:100938000020E78060C0AA8737170040930670053B
:100948002300D704930680FA2300D704834647047C
:10095800C18A2302D70437E700E023202711232286
:1009680097103244F240E24452493E850561828044
:100978008547631FF7008567FD173E96E98F3E960A
:10098800FD777D8E7D8D97000020E780E0C065B7FC
:1009980097000020E78060C79307150071BFB5472F
:1009A800631AF7001305900B97000020E780E0CA50
:1009B800814759B7B1476315F7001305B00AEDB77A
:1009C80099476317F70097000020E78020CACDB742
:1009D8009D47631BF70023A0050023A2050097008D
:1009E8000020E78040CEE9B791476317F7009700EA
:1009F8000020E78020D16DBF81471DDFF1572DBF53
:100A080048FEFFFF70FEFFFF98FEFFFFB0FEFFFFEE
:040A1800CAFEFFFF14
:020A1C0001A037
:00000001FF
