:100000006F00E05F00000000AA060000AA060000E2
:10001000A9BDF9F3AA0600000000000000000000DE
:10002000AA060000AA060000000000000000000070
:10003000AA06000000000000AA0600000000000060
:10004000AA060000AA060000AA060000AA060000F0
:10005000AA060000B20B0000AC0600000000000081
:10006000AA060000AA060000AA060000AA060000D0
:10007000AA060000AA060000AA060000AA060000C0
:10008000AA060000AA060000AA060000AA060000B0
:10009000411122C406C62A8499E523110500B24005
:1000A0002244410182808947E39BF5FE9147639595
:1000B000F60A1842B70700019387271A631EF7084C
:1000C000B7E700E037074000B716004023A0E71865
:1000D00083D7860175777D17C207C183F98F239C6B
:1000E000F6001947B78700402380E7002380070008
:1000F00013056004E700C043D1452945E700405A95
:10010000B7C5030009669385050C370500209710D5
:1001100000E0E78000ABD167370700209387575096
:10012000372500202326F710130640478145130585
:1001300005BA971000E0E780A0A7B72100209381BF
:100140008139B712002093826219739012347300C0
:1001500020302301040EA1B79387811383C70700C2
:100160001387811393F7F70FEDF793F7F60F23003B
:10017000F7008147E3DFD7FC8507B305F60003C529
:10018000F5FFB305F7002380A500EDB7938741C1C4
:1001900003C71700BA97038547008280938741C140
:1001A00003C71700BA9703C55700118113451500FF
:1001B0000589828001114EC6B7C9004022CC138444
:1001C00009105C5806CE26CAF19B93E717004AC86F
:1001D00052C456C22A8A5CD83685AE8AB2843A891D
:1001E000E700205813058025E700604AB7575500FF
:1001F00023264401938757555CC0232044073CCCF9
:100200001444370600FF37078000F18E1307D732FA
:10021000D98E14C47C4CB7D60040F18FD98F7CCCDA
:10022000856723AC59279387A7BB37060001B856CB
:10023000718F19E3FD17E5FF89476311F90AB7C705
:10024000004083A7071093F7F7CF37C70040930606
:1002500007102320F710DC52370700FA7D170946F4
:10026000F98F01476304C90037070002D98F37C7E8
:100270000040DCD293070720904B8175FD156D8EF1
:1002800090CB3706020090C7A604E4D3832707105B
:1002900037060001D18F2320F710DC5AF19BDCDAFE
:1002A00089472320F720130407207C50EDFF0145E8
:1002B000E700604A1C408D8B89CB3C4893F7F78F51
:1002C0003CC81C4093E787001CC0F2406244D24403
:1002D0004249B249224A924A05618280B7C700402A
:1002E00083A7071093F7F7CF93E70710B9BF011162
:1002F00026CAAA84014522CC4EC606CE4AC8AE897B
:100300003284E700604AB7C7004003A707200D8B7F
:1003100009CF93860720B84A1377F78FB8CA03A787
:1003200007201367870023A0E72037C90040930701
:10033000092023A207064E85E700205813058015E3
:10034000E700604A8947631BF40C8327091093F781
:10035000F7CF37C70040930607102320F710DC5271
:10036000370700FA7D170946F98F01476304C40077
:1003700037070002D98FDCD2B7D70040BC4B13F748
:1003800007FE89476313F40A83A701C1FD8BD98F48
:1003900037D700403CCBB7C7004093870710D84BF6
:1003A0000946B546137707FC6303C400AD46558F75
:1003B000D8CBD84FB70701FF938707C07D8F8947F8
:1003C0006308F406B70779009387C709B7C50040EB
:1003D0005D8F93870510D8CF37575500C4C71307D3
:1003E0005755D8C3A4D3B8CF9447370500FF370675
:1003F00080001306D632E98ED18E94C7F84FF240B2
:100400006244698F518FF8CF854723A0F52023A43C
:1004100001C0D2444249B249056182808327091054
:1004200093F7F7CF93E707102DB783A7C1C0B9BFE4
:0C043000B7077F009387070A51BF000048
:10043C00B7F700E09C4737F700E03E951C47898FE3
:10044C00E3CE07FE828093874105054723AAE70C7C
:10045C0093060004378700402306D700FD5623ACD3
:10046C00D70CA146A306D700938607012318D70003
:10047C0093860705231AD70093860709231CD700F8
:10048C00C9462301D70289462303D702A380070E4E
:10049C00230507022381070E8280B707FDFFB7C62D
:1004AC0000401387F7FF83A70610F98F1DC137078C
:1004BC000200D98F23A0F61037D700401C47B7068F
:1004CC003300D58F1CC7B7C7004093870720A8CB34
:1004DC0082804167D98F23A0F610B7D600409C4686
:1004EC003707CEFF7D17F98F9CC6F1BF37D7004079
:1004FC005C4385669386C61AF99BAA965CC383C730
:10050C000600B166105F938606F0A207B697817657
:10051C009386F60F758ED18F1CDF5C433706000275
:10052C00B706000493E717005CC3B7C70040096720
:10053C00130707F493870720F8D3B7C5004037D7C4
:10054C00004083270709F18F89C783270709F58F97
:10055C0089E793870520FC53EDF7B7D7004003A537
:10056C00070983A747091375F503A98393F7F707C1
:10057C00E2075D8D828037D700405C571375F50715
:10058C00F59B5CD737C700408327071093F707F814
:10059C00C98F2320F7108280011122CC0964130427
:1005AC00C4D4338485024EC6B719004026CA4AC843
:1005BC0052C456C25AC006CE2A898144938AC90AAB
:1005CC00130A0020130B0020228523A06A018D350D
:1005DC00228523AC490B8504A13DE31799FEF2401B
:1005EC006244D2444249B249224A924A024B0561C2
:1005FC008280970100209381A11A173100201301EA
:10060C00A19F138581C0938581176377B500232043
:10061C0005001105E36DB5FE1305000997050020D3
:10062C009385859D170600201306C6D763FAC5006F
:10063C008322050023A0550011059105E3EAC5FEB0
:10064C0017150000130545C0938541C0138681C062
:10065C00638AC5008322050023A05500110591056E
:10066C00E3EAC5FE93070000FD42739002BC896269
:10067C009382828873A00230970200009382C29703
:10068C0093E2320073905230B7F700E0054798C3FD
:10069C0085679387E7C4739017347300203001A0EB
:1006AC005D7122DE378400403ED0835764003AD21D
:1006BC0086C696C49AC29EC026DC2ADA2ED832D6BA
:1006CC0036D442CE46CC4ACA4EC872C676C47AC21A
:1006DC007EC013F727006305073E13D7C74093D599
:1006EC0087400D8B8946BD896308D7048D46630509
:1006FC00D71A2DEB8346840093F6F60F63960516F6
:10070C001167F98FA5C31387410503460700A5465A
:10071C0093874105630FD6122391070003871700B7
:10072C00634507000547A381E70EB7870040238088
:10073C00070213070005C1A8B5C16345B70293971B
:10074C002500130424023E948347040093C7070436
:10075C00F19B93E727002300F40093874105BE9596
:10076C002380050EB787004009472383E7007254A6
:10077C00B640A64216438643E2545255C2553256F1
:10078C00A256125782577248E2485249C249324E19
:10079C00A24E124F824F6161730020309387410546
:1007AC0083D727009384410589E7930700F8230139
:1007BC00F40283A9C400A381040E6389090403D441
:1007CC00240093070004228963F4870013090004B2
:1007DC004209135909013304244142044A86CE8547
:1007EC00138504014180352E23918400814719C063
:1007FC00B3872901DCC4B78700402380270303C7D4
:10080C002702134707042381E702A9BF83C71400FB
:10081C0093F7070691CF83D72400A9D703C7040009
:10082C008547E301F7F4B787004023800702C1BF77
:10083C0003C704009547E317F7F237870040834757
:10084C00370083C6940093F70708D58FA301F700F0
:10085C0011BF03572700E30307EC8347240293C718
:10086C0007F82301F402FDBD93972500130424021D
:10087C003E94834704001386410593C707F8230071
:10088C00F40093976500C1073E961385410597F0D8
:10089C00FF1FE7806076F9B583477400E207E187B4
:1008AC00E3D207EC9307A0FD2301F40293874105E3
:1008BC0003D7070103D6470103D3270193168700FB
:1008CC00420741832183558F83C8070183D6670173
:1008DC002390E70013170601336767002391D700B5
:1008EC00D8C313F3080603CE17013688630C030034
:1008FC0001131373030C63170304B787004013072A
:10090C00F0FC11B72D43E36AC3FF856E13132E0061
:10091C00938ECE177693032303000283056613068A
:10092C00461F9305860403230600631AE30458420A
:10093C0013854105D8C7034786006353D700BA8691
:10094C002311D5001397880161876350071613078D
:10095C000004635407011308000437870040230088
:10096C00070399466300DE1483D6270033880641BB
:10097C0023910701930700042301F702E5B3310625
:10098C00E313B6FA9DBFA384E7006DBF03C78700CE
:10099C002388E7000547E377D7FA2391E7005DB793
:1009AC002384E7000547A385E7003787004083468B
:1009BC00670293F6F6032303D7028346A70293F646
:1009CC00F6032305D702BDBF93F6F8010945E3965C
:1009DC00A6F21377F70F15F3E3C1B6F213760608F8
:1009EC0009DE138745030A073E9710437D57E3162C
:1009FC00E6F013972500B7850040BA952381D50200
:100A0C0091B793F6F8010945E399A6EE1377F70F22
:100A1C00E31507EEE3C8B6F213760608E30F06EC0F
:100A2C00138745030A073E9714437D57E397E6EC7B
:100A3C0037870040130727028A05BA9503C70500BC
:100A4C00136737002380E500F5BD23880700E35BBF
:100A5C00D0EE0548C5BD2398070013F7F80115CF54
:100A6C000945E31CA7E8E34AB7E813760608E30652
:100A7C0006E8138745030A073E9710437D57E31E8C
:100A8C00E6E68A0537870040BA9503C625020D8A2B
:100A9C007516133616002388C7000947E354D7EAA6
:100AAC0009484DB52301070275B9B78700401307F4
:100ABC0000F9E31A08D42380070213070004A1B33A
:100ACC0013F7170011CB23AE0104A3010400A53AC0
:100ADC0085472303F40061B913F7470093F7F70F29
:100AEC006DDB91472303F400130560049132034737
:100AFC00540093874105118B01CB03C7A7001367E3
:100B0C0027002385E700A5B103C7A700759BD5BFB8
:100B1C002A96AA876393C70082802380B700850733
:100B2C00D5BF81476313F60082803387F500834677
:100B3C0007003307F50085072300D700E5B7B71783
:100B4C000040930570052380B704130680FA2380B8
:100B5C00C7040100010003C7A700B72600401377A4
:100B6C00F70F136707012385E7000547A383E6808A
:100B7C0003C756801377F70F13670701A382E6802C
:100B8C0023800704010001002380B7042380C704DD
:100B9C00010001001307A0042384E700238007044D
:100BAC000100010082805D7126DCB7C4004022DEAA
:100BBC00138404203AD23ED04ACA032984005844F4
:100BCC001C442ADA86C696C49AC29EC02ED832D647
:100BDC0036D442CE46CC72C876C67AC47EC2F98F61
:100BEC001CC4138704105C5B014513791900F19B3D
:100BFC0093E717005CDB55303C4893F7F78F3CC804
:100C0C0083A7042093E7870023A0F4206305090041
:100C1C00054723A4E1C07254B640A642164386434E
:100C2C00E2545255C2553256A25612578257724848
:100C3C00E2485249424EB24E224F924F61617300CC
:100C4C002030597186D6A2D4A6D2CAD0CECED2CC60
:100C5C00D6CADAC8DEC6E535B71700409387070851
:100C6C00D85BB7C60040130660071377F7DFD8DBF5
:100C7C00985337D40040B70402001367072098D369
:100C8C001307002098DF938706201307C008D8CBE2
:100C9C00D0CFD8D3D8DBF8C3F0C71307C006D8D74A
:100CAC00D8DF13078007D8C33707160023AA070419
:100CBC003D07D8C7138741C1F8DF7D5798C7930705
:100CCC0000481CD41C583707FAFF7D17F98F1CD825
:100CDC001C583707007037060002D98F1CD8585C97
:100CEC00B70700F9FD177D8F518F58DC5C5C370717
:100CFC0000407D168E078D83D98F5CDC3C44370712
:100D0C00F9FF7D17F98F3CC43848D149130580553C
:100D1C001377F78F1367073038C87C4C37070700F9
:100D2C00D98F7CCC7C4C37077000D98F7CCC138747
:100D3C0006109387C4201CDF930700055CDF5C5B07
:100D4C00F18F370600A4D18F5CDB03A70610B7E741
:100D5C0000E01377F7CF23A0E610A3893705EFF057
:100D6C00CFF35840FD76FD161377F7EF58C01854A3
:100D7C0013055002758F18D458543D9B58D41C44FD
:100D8C00C58F1CC45C4093E707015CC0EFF00FF605
:100D9C00135785012A8413057002137BF707EFF0B4
:100DAC00EFF4135985012A8A4945EFF02FF4937A11
:100DBC00F503130640028145937BF907AA84135966
:100DCC0085011374F40368083304544102CC89334D
:100DDC0033073403137AFA0305661379F907338A58
:100DEC004A418147D145411634083388F6003355C2
:100DFC00B7028507018F93164500F18EC98E23002B
:100E0C00D800E393B7FE05668146D1484116130519
:100E1C008002B3D5160338083308F7008507D2963D
:100E2C0013974500718F4D8F2300E800E393A7FEC5
:100E3C003408014737D5004029468C429307870276
:100E4C008A07AA978CC305079106E318C7FE3307D8
:100E5C002B419546B306D70285653309794102C605
:100E6C0002C802CA85471945C115700033D8A602BD
:100E7C00B308F6008507998E131648006D8E3366FD
:100E8C0006012380C800E392A7FE056601471943BB
:100E9C00930806FF2D45B355670274003388F6009E
:100EAC0085074A9793964500B3F61601CD8E23001D
:100EBC00D800E392A7FEB246B7D7004013870708C5
:100ECC0034C7C2463705007FE98C74C7D24634CB91
:100EDC00D843B7060081FD163D9BD8C3D843799BF8
:100EEC00D8C39857518F98D7D85713670701D8D7BD
:100EFC00985F137707FC3367570198DF985F758FFE
:100F0C00D98C84DFD843C176FD1613670710D8C37C
:100F1C00B84B758FB8CB9847B7062000558F98C73C
:100F2C00D847B7C6004013670701D8C7D843518FBD
:100F3C00D8C3B7C700401307400693870720F8D3E0
:100F4C0037D7004093870620FC5391C78327C709E6
:100F5C0093F70710E5FBB7D7004013870708544FEA
:100F6C001387C1C0FD8A14C3B44B4166D18EB4CB78
:100F7C00B44B1043819AD18EB4CB94473706E0FF23
:100F8C007D16F18E94C714437946FD478906636438
:100F9C00D6001C43890723A8F1C0B7D70040B84F2F
:100FAC00C176FD16758FB8CF9847C1660145558F30
:100FBC0098C7D847B706EFFFFD1613670710D8C7B9
:100FCC00D843B7E400E037840040758FB7061000B3
:100FDC00558FD8C3EFF06FCC83C7544137170040FF
:100FEC008D6693E707F893F7F70FA38AF440B707DA
:100FFC00200023A0F4108357870113056004375A8F
:10100C003412C207C183D58F231CF70099472300E4
:10101C00F40023000400EFF0AFC19D472301F4005E
:10102C00A3010400930790022300F400FD5723034F
:10103C00F400EFF04FC1930710F8A300F400B707CA
:10104C00400023A0F410D1452945138481139384C7
:10105C004105A56AEFF04FD4B7890040138B040506
:10106C00930B1400130A8A67938ACA2783470400D8
:10107C0093F7F70FE5DF930540060545EFF0CFD169
:10108C0083C7140E858BEDFF0349040083C7340E10
:10109C001379F90F93F7F70FA9E383C7140E93F79E
:1010AC00F70F85EF83D724008DEB83C77900E20718
:1010BC00E18763C4070263080900239A69014A8621
:1010CC00DE855A85B93C83C7690223822903F19BCB
:1010DC002383F9028547A380F40E9307A0EC231C0D
:1010EC00F1008347140037C700400D49230DF10070
:1010FC0083472400A30DF10083473400230EF10035
:10110C008327071093E707042320F710054793065E
:10111C00500215462C08528597F0FF1FE7800000FF
:10112C0056857D19EFF0CFB0E31209FE23000400C1
:10113C0035BF000008033500380035000000000002
:10114C001403420075006C006B0020006400650005
:10115C006D006F0000000000100363006800330096
:10116C003200660075006E000000000004030904E4
:10117C00620A0000D4090000060900000E0A0000F3
:10118C000609000092090000280900000609000069
:10119C0098090000AC090000560A00005009000034
:1011AC000102030405060708090A0C0D0E0F1011A5
:1011BC0012131415161718191A1B1C1D1E1F20218B
:1011CC002223242526000B2709022000010100A060
:1011DC00320904000002FFFFFF03070581024000F3
:1011EC000107050202400001000100003C12000052
:1011FC001200000000020000D411000020000000CA
:10120C000003000078110000040000000103090431
:10121C006411000010000000020309044C110000CE
:10122C001400000003030904401100000800000032
:10123C001201000200000040091235D00700010223
:04124C00030100009A
:00000001FF
