:040000006F0080729B
:100004000000000000000000E40300205E03002064
:10001400A9BDF9F3E42F0000000000000000000077
:10002400E42F0000E42F00000000000000000000A6
:10003400E42F000000000000E42F00000000000096
:1000440000000000E42F000000000000E42F000086
:10005400E42F0000E42F0000E42F00000000000063
:10006400E42F00000000000000000000E42F000066
:10007400E42F0000E42F0000E42F0000E42F000030
:1000840000000000E42F000000000000E42F000046
:100094009307000C0111631CF50493078008F3B760
:1000A400078093F787083EC00F100000B717004081
:1000B400130770052380E704130780FA2380E704FD
:1000C4000F10000003C7F70013670704A387E700B6
:1000D40003C787001367070C2384E7002380070402
:1000E4008247F3A707800F10000005618280B717CD
:1000F400004003C7A700118B79EF83C6E7041307F9
:10010400800893F6F60F733607801376860832C29A
:100114000F1000001308700523800705930580FA6B
:100124002380B7040F10000003C6E70413663600EB
:100134002387C70403C6A700136646002385C700A8
:10014400238007041246732606800F10000003C69E
:1001540087001376F60F73370780137787083AC43E
:100164000F100000238007052380B7040F10000040
:1001740003C787001367070C2384E7002380070461
:10018400A247F3A707800F100000A5470100FD1741
:1001940093F7F70FE5FF93078008F3B7078093F70A
:1001A40087083EC60F100000B717004013077005FC
:1001B4002380E704130780FA2380E7040F1000006C
:1001C4002384C7002387D70423800704B247F3A7F7
:1001D40007800F1000009377050C13070004639247
:1001E400E70A93078008F3B7078093F787083EC8A8
:1001F4000F100000B7170040130770052380E704B1
:10020400130780FA2380E7040F10000003C7A70038
:100214008546136707012385E70037270040A303BA
:10022400D7808346578093E60601A302D7802380B4
:100234000704C247F3A707800F1000009307800844
:10024400F3B7078093F787083ECE0F100000B71767
:100254000040130770052380E704130780FA238006
:10026400E7040F10000003C7F7001375F50F1367B9
:100274000704A387E7002384A70023800704F24729
:100284008DB59377F5019DCF93078008F3B7078069
:1002940093F787083ECA0F100000B71700401307F2
:1002A40070052380E704130780FA2380E7040F1006
:1002B4000000372700408946A303D7802380070422
:1002C400D2478DBF93078008F3B7078093F7870859
:1002D4003ECC0F100000B7170040130770052380B1
:1002E400E704130780FA2380E7040F100000372780
:1002F40000409D46A303D78023800704E2471DBF27
:100304000111814601468145114506CE971000E052
:10031400E780202793078008F3B7078093F78708BF
:100324003EC60F100000B717004013077005238066
:10033400E704130780FA2380E7040F10000003C7C3
:100344006704136717002383E70423800704B24775
:10035400F3A707800F100000F2400561828041116D
:100364008146014681451145971000E0E7806021F0
:1003740013078008F337078093F787083EC40F10EC
:100384000000B7170040130670052380C7049306C6
:1003940080FA2380D7040F100000FD552396B7027E
:1003A40023800704A245F3A505800F1000007337CE
:1003B4000780137787083AC60F1000002380C7040C
:1003C4002380D7040F10000003C7670413671700C6
:1003D4002383E70423800704B247F3A707800F10A1
:1003E400000001A001A0A9473305F5027D1511E124
:1003F40082800100E5BF411122C406C62A847D140F
:1004040042041305803E4180F93F75F8B24022440E
:1004140041018280230304801547A2872303E480DB
:10042400010001002302A48003C76780620761877B
:10043400E34C07FE2382A780228783476780E20775
:10044400E187E3CC07FE828023030480154723035E
:10045400E480010001002302A48082808307648079
:10046400E3CE07FE23030480828083076480E3CE07
:1004740007FE03454480828083076480E3CE07FE41
:100484002302A4808280411126C44AC24EC006C6FB
:100494001377F50BAD47AA892E8995446306F700B7
:1004A40019455D37653F8D444E85793FFD59FD14EF
:1004B40063983401B240A2441249824941018280C6
:1004C400135509011375F50F453F2209CDB70111E5
:1004D40026CC06CEB704080051371545B537713719
:1004E40069372AC6A53F32459377150089EB136512
:1004F40015001375F50FF240E24405618280FD1486
:10050400E9FC0145CDBF411106C6B71700401307EA
:1005140070052380E704130780FA2380E70403C7E8
:1005240047041305F00F1367070E2382E70491476E
:100534002303F480C535B24041010DB7011126CC27
:100544004ACA4EC852C606CE2A89AE89B284554AD2
:100554005D3F91E82137F24026855249E244C24981
:10056400324A05618280CA850945313F910903A752
:10057400C9FF91472320E48003076480E34E07FE0C
:1005840023034481FD17EDFBFD14110981C4937706
:10059400F90FE9FF2D3F55FDFD5475BF011126CC20
:1005A4004ACA4EC852C656C45AC206CE2A89328A8C
:1005B4008D49913FC164C16A056B9387F4FFB3F71A
:1005C400270199E363719A02FD199180E39709FE6B
:1005D40071350145F240E2445249C249324AA24AC5
:1005E400124B056182801305800D63885401130545
:1005F40000026384640113051008CA856935C13D8E
:1006040009C52699330A9A4075BF7D55E1B7011192
:1006140006CE26CC4ACAB2844EC82AC62E89E535EF
:100624003245FD14FD59AA852D45B13D639A340127
:100634003535F24026855249E244C249056182803B
:100644002D3593F7340091EB8326048003270900AA
:1006540093074900E39EE6FC3E89FD14C1BF0111E6
:1006640006CE2AC64D353245C533F2400561FDB389
:10067400011106CE26CC4ACA4EC852C6AA8956C40F
:100684002E895135CE852D45FD3B81448D4A214A25
:10069400E93B63965401832704802320F9008504F1
:1006A400E39844FF8327048013972901635C0700C0
:1006B4002312F900F240E2445249C249324AA24AA2
:1006C400056169BB2322F900F5B7411106C626C4AA
:1006D4004AC24EC0AE89053D81451305B004653359
:1006E400BD447D59593393F77400CE9703C707006F
:1006F400FD14398D2380A700E39624FFB240A24461
:1007040012498249410199BB411106C6ED3B1305CB
:1007140060061D3BA133130590093D33B2404101EE
:0407240035BB0000E1
:1007280097110020938181C2173100201301018D98
:1007380013054000970500209385458C1706002077
:10074800130606FE63FAC5008322050023A05500A0
:1007580011059105E3EAC5FE1735000013058588E4
:1007680097050020938505FC1386818063FAC500F0
:100778008322050023A0550011059105E3EAC5FE73
:1007880013858180938501316377B50023200500A7
:100798001105E36DB5FE93025002739002BC8D42C1
:1007A800739042808542739012BC930280087390C4
:1007B8000230970200209382628493E232007390A1
:1007C8005230970200009382C20E73901234730065
:1007D80020305D71172700001307875C52DC032A5D
:1007E8000700172700001307E75B4EDE8329070081
:1007F800172700001307475B5AD8032B0700CAC006
:1008080056DA5ED662D466D26AD06ECE86C6A2C4E6
:10081800A6C2970A0020938AEA730149528CCE8CAB
:100828001D4D815DF94B4A85EF204021D285EF109F
:10083800905ECE85EF100042AA85EF1090342AC64C
:10084800568481442685EF20601FE285EF10B05C56
:10085800E685EF102040AA85EF10B032B245EF10C0
:10086800603FDA85EF103029634EA0022300A4010F
:10087800A300B40185040904E39674FD0509938A6D
:10088800CA03E31299FAB640264496440649F25937
:10089800625AD25A425BB25B225C925C025DF24DB4
:1008A8006161828023000400A3000400E1B75D7148
:1008B8001305A00486C6A2C4A6C24EDE52DC6AD0C6
:1008C800CAC056DA5AD85ED662D466D26ECE97F0CF
:1008D800FF1FE780A07B4145B12491260145EF0029
:1008E800700FC53D972700009387474C03AA070060
:1008F800972700009387C74B83A907009727000015
:100908009387474B8043972700009387E74A9C4388
:10091800A284172D0000130D6D4A3EC42685EF20D2
:10092800C00BAA8D930A15FF2285EF20000BCE85F8
:100938002A89130B15FF2685EF10C031AA84D285AA
:100948002285EF102031972B0000938BAB4683A5AF
:100958000B002A842685EF10104C83A50B002A8CE7
:100968002285EF10504BAA8BE2856285EF1070212B
:10097800AA8CDE855E85EF10D020AA856685EF10EB
:10098800602DA245AA8CEF10B00E6346050E668551
:10099800EF001025AA8CAA856285EF1040622A8C88
:1009A800E6855E85EF10A061AA8BE2854E85EF1083
:1009B800501D2AC6DE855285EF10B01C3247AA8525
:1009C8003A85EF102029AA85EF10C028E2852AC6AB
:1009D800EF10301BAA854E85EF10F0433247AA89E5
:1009E800DE853A85EF10F019AA855285EF10B042DE
:1009F8002A8AEF00D019D1473365F5025915EF203F
:100A0800E00383250D00EF10D017CE85EF1080246A
:100A1800AA89EF00D017D1473365F5025915EF20A1
:100A2800E00183250D00EF10D015D285EF1080224C
:100A3800972700009387C7388C432A8A6685EF106A
:100A4800903D972700009387E7358C43EF1080206F
:100A5800E2852AC6EF10F012AA852685EF10B03B72
:100A6800B247DE85AA843E85EF10B011AA8522859B
:100A7800EF10703A2A842685EF1030762AC6930C38
:100A880015FF2285EF107075B2472A8C930B15FF5E
:100A980063DFFD043386B741420693150B01014716
:100AA800F9464182C18113950A014181EF008071A5
:100AB800635E8905B3062C41C2060147C1827946A7
:100AC80093150B0113950A01C1814181EF00806FD5
:100AD80093950B0113950C011707002013078747FF
:100AE800F9467946C1814181EF00C06F05BDE3D168
:100AF800B7FD3386FD401385F700420693150B01B9
:100B08000147F9464182C181420545B7E3522CFDB0
:100B1800B30689419385EB01C2060147C182794634
:100B2800C2054DB7411122C48D452A84414506C6E8
:100B3800EF00C070B7170040414723ACE70A8D4566
:100B48001305000AEF00806FEF00A07909C4B747CA
:100B58000040A3818700B2402244410182804111B4
:100B680006C6EF00207BB240014541018280011199
:100B78004AC80569791922CC4EC652C456C206CE57
:100B880026CA2A8AAE890144CA8A636B3401F240B4
:100B98006244D2444249B249224A924A056182805B
:100BA800B3878940C207C183BE846373F900D684C2
:100BB800C204C18033058A002694A6854204EF004A
:100BC80000784180D9B74111856722C426C206C67C
:100BD8003714004093870780232CF40AC144232646
:100BE800940AB53FB240232C940A2244924441010E
:100BF80082804111856722C426C206C63714004088
:100C0800938707802326F40AC1442326940A813F48
:100C1800B240232C940A224492444101828041111B
:100C28009145414506C622C426C2EF00206185646D
:100C3800138504809145EF006060914513050040DD
:100C4800EF00C05FC14737140040232CF40A938497
:100C58000480232C940A93040040232C940A13053F
:100C6800400697F0FF1FE780C0781305400623264B
:100C7800940A97F0FF1FE780C0771305800C232C98
:100C8800940A97F0FF1FE780C0761305F00E95379A
:100C98001305B00EB93F51453D371305E00F913F9D
:100CA8001305F00EB9371305B00EA1375145213F92
:100CB800130540083D3F130500043137130550085C
:100CC8000D3F1305F00F0137130560081D37130595
:100CD800F00FD53D13057008293F1305F00FE535D2
:100CE8001305800839372945F93D13059008113750
:100CF80013051002C93D1305A008E53D0145E1357E
:100D08001305B008FD3513050008753D1305C00827
:100D1800CD3505454D3D1305D008E13D0545653503
:100D28001305E008F9351305F00F713D1305F008B8
:100D3800C9351305F00F413D1305600B5D3D0145B5
:100D48005935130500024135130560035D3521450A
:100D58009D3D1305A003713D1545B53513050009E3
:100D6800493D21458D352145B93D2145A93D2145BF
:100D7800993D1305D00BB53D1945B1351305C00B89
:100D88008D3D014589351305F00FA535130500067E
:100D98001D3D05450D3D11453D351305300C913D73
:100DA8004D4515351305400CA9354D45293D13050D
:100DB800900C81351305200239351305E00B153DDC
:100DC800454511351305100E2D354145ED3B394587
:100DD800DD3B1305F00D313D13051002ED333145B0
:100DE800DD330945CD331305000F213513055004B4
:100DF800D93B2545C93B2145F9332145E93313053D
:100E08006002D1331305A0027D3B1305100FD533C3
:100E1800130530044D3B13050007753313052007F0
:100E28005D3313056003453313057003693B1305F0
:100E3800F006513B1305200F6D3B13055004613339
:100E480025455133214541332145B53B1305600202
:100E58009D3B1305A002853B1305300F593B130535
:100E68003004953313050007B93B13052007A13B50
:100E780013056003893B13057003B1331305F006AE
:100E880099331305D00EB5336D45353B2D45253BBC
:100E98001305E00AB93B1305700735331305D00C69
:100EA800893B1305300605331305000799331D45A3
:100EB800193B1D45093B11453933394529333D4512
:100EC8001933254509331D45FD392145ED390D45B2
:100ED800DD391305800E313B13054003ED31130551
:100EE8002006013B6145C5313545F1391305100729
:100EF800D9391305D00EC13913050007E931130597
:100F08000007D1316145C1313D45753913051007D9
:100F18005D391305F00E4539130500076D311305CA
:100F28000007553113053006E931614569394545F2
:100F380059391305100741391305100F6931130585
:100F48000007513113050007BD396145AD394D45DD
:100F58009D391305100785391305300FAD31130579
:100F68000007953113050007B939130540065131BB
:100F780013058002893913059002B1311305100F4A
:100F88009931054589311305100F35390145253942
:100F98001D45153913056006A9391305C003253108
:100FA800014515311305D00C39391305700621395F
:100FB80013055004093913055004313141452131D5
:100FC80001451131014501310145F53E1305700612
:100FD8000D310145CD3E1305C003F5360145E53613
:100FE8000145D5360145C5360545F13E1305400591
:100FF800D93E4145C93E13052003F1361305800942
:10100800D93613054007F5364145753E1305500896
:101018005D3E13050008453E0145753601456536B8
:101028001305E0044D360145793E13058009D13694
:101038001305E003493E1D45793613055003553E17
:10104800130510027D3645456D361305800797F068
:10105800FF1FE780003A13059002613E2244B24028
:1010680092445145410117F3FF1F6700833801116E
:1010780026CAAA841305A00206CE22CC4AC82E840A
:1010880036894EC652C4328AEFF0BFB613D58400F3
:10109800EFF07FB393F9F40F4E85EFF0DFB23385AD
:1010A80044017D1521851375F50FEFF0DFB11305A8
:1010B800FAFF4E951375F50FEFF0FFB01305B00268
:1010C800EFF03FB313558400EFF0FFAF9374F40FC4
:1010D8002685EFF05FAF330524017D152185137553
:1010E800F50FEFF05FAE1305F9FF26951375F50FB1
:1010F800EFF07FAD6244F240D2444249B249224AFD
:101108001305C00205616FF0DFAE797122D426D2D3
:1011180006D6B6844AD04ECEB306C5009307000F54
:10112800328463D7D7001304000F098C420441802E
:10113800B38795009306000F63D7F6009304000F5A
:101148008D8CC204C180A68622863AC60D373247E6
:101158008567B71600409387078023ACF60AC14716
:1011680023A6F60A13568700938781801377F70F13
:10117800938681C02380C700A380E7008907E39B8B
:10118800D7FE33049402130900209389818009EC67
:10119800B2502254B7170040414723ACE70A925493
:1011A8000259F24945618280A284637489009304DC
:1011B800002093951400C205C1814E85EFF03F9B36
:1011C800058CF1B79307F00E63E5A70063E3B7005A
:1011D8002DBF82802A879306000F1306000F8145D2
:1011E800014525B7011106CE22CC26CA3284B68421
:1011F8003AC6B53DB305940232478567B716004035
:101208009387078023ACF60AC1473A8523A6F60AD6
:101218008605C205C181EFF09F9537470040834797
:10122800670093F70704E5DFF2406244B717004010
:10123800414723ACE70AD24405618280914763EEB7
:10124800B702172700001307E7B78A05BA959C412C
:10125800BA978287B717004003A7470B1345F5FFD6
:10126800698F23AAE70A03A7070B698F23A8E70A50
:1012780003A7070A798D23A0A70A8280B717004021
:1012880083A6470B1347F5FFF98E23AAD70A83A62F
:10129800070B558D23A8A70A83A6070A758F23A0D5
:1012A800E70A8280B717004003A7470B498F23AA94
:1012B800E70A03A7070B1345F5FF45BFB71700401B
:1012C80083A6470B1347F5FF758F23AAE70A03A7E1
:1012D800070A598D4DB7B717004003A7470B498F29
:1012E800EDB7B74700401147A381E70009472380BE
:1012F800E700130700062380E70003C717001367FA
:101308000701A380E70003C717001377E70FA3803F
:10131800E7008280B747004003C707001377F70E3E
:101328002380E70005472396E7002388A70037476F
:1013380000408347670093F70704E5DF8280B747DB
:10134800004003C707001377F70E2380E700131741
:1013580005012E9541834205239CE7004181239E88
:10136800A7002396B70025472383E70003C7170084
:1013780013671700A380E70003C76700058B6DDFBD
:1013880003C717001377E70FA380E700828097F75A
:10139800FF1F9387A77B03A80700B785954C938504
:1013A800D5F28326880A0327C80AB387B6021386AC
:1013B8001700B337F6002324C80A37F65158130626
:1013C800D6423386C6023307B702B3B6B60232979F
:1013D8003697BA97139517002326F80A0581828055
:1013E800397122DC26DA4AD806DE2A84752097F776
:1013F800FF1F9387E7758443FD572A89638EF4009E
:10140800A2852285EF10A05901E9930500002285E5
:10141800EF00706E63490500F25062544A85D25459
:1014280042592161828085473EC422859727000062
:101438009387879A3EC602D4EF10A06C2ACC2ECE92
:101448002AC82ECA95CC014681463285B685892C94
:101458002AD02ED289476397F402EF1050139307CE
:1014680010021CC1A25785E702559255EF1020744F
:10147800F25062542A894A85D254425921618280A5
:1014880002D002D22800F52069D9A257F1DFEF1067
:101498001010A2571CC1C9BF41119317150022C4CF
:1014A80006C685833707807F2A84AA8563F8E708FC
:1014B800C9C3AA876341050A698F9356754105E335
:1014C800131785006344070A014711A0328786076E
:1014D8009395870013061700E3DA05FE998E370700
:1014E80080001306F7FFF18F938616F85D8F13F6C9
:1014F80016009317170029EE13D816400145E54644
:101508008145370700013386E500FD1663C6C7002D
:10151800B305E600918F3A9586070583EDF699C3E2
:10152800050579990585B705003FAA9593167801B1
:10153800B695B24022442E8541018280EF00706446
:10154800A285092FB2402244AA852E8541018280B6
:101558009317270055B7EF10000CAA85EF00302627
:10156800B2402244AA852E85410182807D57998EFA
:10157800BDB70145828001112A8706CE2E8526CC6B
:10158800B2854ACA368622C637240040B7E700E04B
:10159800FD5603A90700C44323A0D71823A2D718D0
:1015A8009307F7FF93F7F70F0948636AF808B71727
:1015B800004083C75704B7C80300F957637415057B
:1015C800B306C50063E0D80463140705098297F0E1
:1015D800FF1FE78060F6AA8737170040930670055B
:1015E8002300D704930680FA2300D70483464704D0
:1015F800C18A2302D70437E700E0232027112322DA
:1016080097103244F240E24452493E850561828097
:101618008547631FF7008567FD173E96E98F3E965D
:10162800FD777D8E7D8D97F0FF1FE780E0F665B72B
:1016380097F0FF1FE78060FD9307150071BFB5475E
:10164800631AF7001305900B97F0FF1FE780E0007F
:10165800814759B7B1476315F7001305B00AEDB7CD
:1016680099476317F70097F0FF1FE7802000CDB771
:101678009D47631BF70023A0050023A2050097F0F0
:10168800FF1FE7804004E9B791476317F70097F019
:10169800FF1FE78020076DBF81471DDFF1572DBF72
:1016A800397193D7450122DC4AD856D22A89139436
:1016B800C50006DE26DA4ED652D45AD05ECE13F5D1
:1016C800F77F318093DAF501630B05109307F07FFC
:1016D800630BF514135AD9010E0433648A00370AD0
:1016E8008000336A4401131B3900930415C0014478
:1016F800814B13D846011399C6001378F87FB28836
:101708001359C90093D9F601630E08089307F07FAF
:101718006300F8041357D6010E093369270113082B
:1017280018C0B70780003367F90093183600B384F0
:1017380004418145BD4733C83A0163E4871A9717C6
:1017480000009387E7690A043E9410403E9602869B
:101758003367C9009384148063120710136424004C
:1017680081488945C1BF1306F07F81470147B20709
:10177800F25062545206B1837E08D18FB3E7070155
:10178800D2544259B259225A925A025BF24B3A85C4
:10179800BE852161828001481306F07FB7070800E3
:1017A8000147F1B73367C9004DC7630809304A8557
:1017B80032C4EF1060562246130755FFF5479306CB
:1017C80085FF998F3319D900B357F60033E72701FE
:1017D800B318D60026959304353F8145A1BF336AD7
:1017E800240163030A0636C632C46306042A228526
:1017F800EF1080522246B246AA84130755FF754A55
:10180800138B84FF330AEA4033146401335A4901C5
:10181800336A8A00331B69011305D0C0B3049540AD
:101828000144814BF9B5336A240163180A00214445
:10183800014B9304F07F894B6DBD228A4A8B31445A
:101848009304F07F8D4B75B51144014B8144854B52
:101858004DB51364140081488545E9BD136434000F
:101868004A878D45C1BD630A052E8547898F930632
:10187800800363DDF632014681470147CDBDCE8640
:101888008947638DF53A8D47E387F5F085473688B4
:10189800E383F5FE1385F43FE357A0FC93F7780044
:1018A8006396072893D638009317770063D8070004
:1018B800B70700FFFD177D8F138504409307E07F6E
:1018C800E3C3A7EA1316D70193179700B1833367C9
:1018D800D6001376F57F61BDD6865287DA88DE8515
:1018E80045B763614723630DEA20DA86FD14528405
:1018F800014B9317870013D388013363F300935E7A
:101908000301B357D403131F0301135F0F0193D5CA
:101918000601139E88003374D4033307FF02420480
:10192800C18D63FBE5009A951386F7FF63EE652684
:1019380063FCE526F9179A95998D33D7D503C20626
:10194800C182B3F5D5033306EF02C205D58D63FB1B
:10195800C5009A959306F7FF63E6652463F4C524EA
:1019680079179A95C20741645D8F9307F4FF337521
:10197800F70093580701935F0E01B377FE00B30297
:10198800F502B386C540B383F80293D502013386C6
:10199800AF021E962E963385F80363737600229560
:1019A800C168FD1893550601337616014206B3F84F
:1019B8001201AA95469663E6B6126382B6123306FA
:1019C800CB408D8E333BCB00338B66411385F43F80
:1019D800630C6317B358DB0393550601337BDB03B2
:1019E800B3061F03420B33EB6501637BDB001A9BD5
:1019F8009385F8FF636D6B20637BDB20F9181A9BD6
:101A0800330BDB40B356DB0342064182337BDB03F7
:101A1800330FDF02420B33666601637BE6011A96D9
:101A28009385F6FF6367661E6375E61FF9161A96B7
:101A3800C208B3E8D8009395080193D20801C18180
:101A4800B38EF5023306E641B385BF0293D60E0185
:101A5800B387F202BE95AE96B38F5F0263F4F600C9
:101A6800C167BE9FC165FD1593D70601ED8EC206FD
:101A7800B3FEBE00BE9FF696637FF6091A9693875B
:101A8800F8FF6369661A6368F619630FF61BBE8868
:101A980093E8180011B54A85EF100028130755017F
:101AA800F145930405022246B246E3DAE5D413046D
:101AB80085FF331A8900014B85B3328532C4EF1094
:101AC800A02513075501F146AA87224613050502EA
:101AD800E3D6E6CEE1173317F6008148E5B9E3709F
:101AE800CBEE729B3335CB011A95AA961305F7FFF7
:101AF8006378D30263E6B6106382D5102A87C1B52E
:101B0800E3651BDF93551B009316FA0113541A0063
:101B1800CD8E7E0BF9BBE31DF6F7E38F06D6B9BF72
:101B2800E31ED3FCE378CBFD2A8751BD93F7F80079
:101B38009146E389D7D693B7C8FF9386480093C7E1
:101B480017008D823E978DB381468547E34CA0FEF2
:101B5800FD58E31C05D0930410C085471385E44164
:101B6800B316A70033D6F8003395A800D18E3335C5
:101B7800A000C98E13F676003357F70001CE93F70D
:101B8800F60011466388C70093874600B3B6D700AE
:101B98003697BE869317870063D8070405468147A2
:101BA8000147F1B636877DBBB28779B3FD46E3D7E7
:101BB800F6FA0556098E930600023356C700638865
:101BC800D7009387E443B317F700B3E8F800B336B8
:101BD8001001D18E13F67600814701CE93F7F600F7
:101BE80011460147E392C7FA931797001316D701D6
:101BF800B18313D73600518F014695BEE370CBF001
:101C0800729B3335CB011A957917AA964DBBAE88CE
:101C1800C5BBAE8631BD93171E0033BEC701729394
:101C28001A96F9183E8EE315F6E7E307DEC693E841
:101C380018009DB1BE88E30AF6FF99BD36881306E1
:101C4800F07F8147014725B6E367DEFCBE88E310D5
:101C5800DEFE99B14111370780007D1713D8750151
:101C680026C2935475013373A70093F4F40FB37627
:101C7800B7004AC01378F80F1359F50106C622C4F5
:101C8800FD819A8726854A86131E3300939E360067
:101C9800B3880441630AB90E6350100D6304081435
:101CA8009307F00F638BF414B7070004B3EEFE003C
:101CB800ED4763C1172993070002B3871741B3970C
:101CC800FE00B3D81E01B337F000B3E7F800B3073E
:101CD800FE4013975700635E0718370400047D140D
:101CE8007D8C2285EF1040036D15B317A40063485F
:101CF800951A058D1304150013070002018F3397F9
:101D0800E7003337E000B3D78700D98F814413F752
:101D1800770019C713F7F70091466303D7009107B7
:101D280013975700635B071485041307F00F4A865F
:101D38006383E4169A07A58313F5F40FB24022448F
:101D4800A6079314750113D59700458D7E06924416
:101D58000249518D410182806399080A1387140052
:101D68001377E70F6317071463900422630D0E1EA1
:101D7800E3860EFCB307DE41139757006350072232
:101D8800B387CE412E8961B7635C100B630E0808D8
:101D98009307F00F6383F406B7070004B3EEFE0061
:101DA800ED4763C9171F93070002B3871741B3971D
:101DB800FE00B3D81E01B337F000B3E7F800F2977E
:101DC800139757006357070A85041307F00F6384B6
:101DD800E40CB706007E13D71700FD16858B758FA8
:101DE800D98F35B7638D0E08FD18B307DE41E3823E
:101DF80008EE9307F00FE39DF4EA630D030801462C
:101E08001305F00FB707400015BF33079840EDE8FA
:101E180063020E147D17630807189307F00F631900
:101E2800F80E2E893683D1BF638B0E04FD18B307D5
:101E3800DE01E38708F89307F00FE393F4F675BF24
:101E480063950808850413F7E40F631307126317F3
:101E58000510630F0E14E3830EEEB307DE0113972C
:101E68005700814463570700370700FC7D17F98F37
:101E7800854413F77700E31F07E813D33700930768
:101E8800F00FE38CF4F693179300A58313F5F40F82
:101E98004A866DB54A861305F00F814745B5370761
:101EA80000FC7D17F98F13F77700898CE31407E698
:101EB800E9B73304DE419317540063C3070CE312F8
:101EC80004E201460145814795BD33079840ADC4FA
:101ED8009307F00FE308F8F4B7070004336EFE0029
:101EE800ED4763CCE70C93070002998FB317FE0008
:101EF8003357EE00B337F000D98FF697C284C9B5CF
:101F08009307F00FE30FF8F0B7070004336EFE00F5
:101F1800ED4763C3E70893060002998EB316DE0007
:101F2800B357EE003337D000D98FB387FE40C28451
:101F38002E8945B3854761BB630E0E067D17B3072F
:101F4800DE01C284E30E07E69307F00FE31AF8F800
:101F5800368365B53683C2842E8915B7E3040EEC43
:101F6800E38D0EE869BD638D0E022E86B687F9B340
:101F78009307F00FE381F4F2B307DE018583D5BD43
:101F88003384CE412E89B1BBE31C0EFCE3890EE6F7
:101F98002E8949BD854725B5854741BFE39B07EC99
:101FA8000146814761BBB387CE41C2842E8915B3F0
:101FB800B68769B33683C284D9B585473DBF3971C1
:101FC800935775014AD856D25ECE931A9500135985
:101FD800F50106DE22DC26DA4ED652D45AD093F723
:101FE800F70F93DA9A00CA8B638207121307F00F70
:101FF8006384E7128E0A37070004B3EAEA00138AFB
:1020080017F80144014B93D775019394950093F702
:10201800F70FA58093D9F501FDC71307F00F638764
:10202800E7028E04938717F837070004D98C330A20
:10203800FA408146558C17170000130767DE0A041B
:102048003A941C4033493901BA978287130A1AF027
:10205800F9E88946558C17170000130767E00A044A
:102068003A941C4033493901BA97828701491307CA
:10207800F00FB707400013959700F250625493177A
:10208800770125817E095D8D33652501D25442593A
:10209800B259225A925A025BF24B2161828013078D
:1020A800F00F8147C9BFA68ACE8B368B8947630B51
:1020B800FB1A8D47E30CFBFA8547630AFB0A1307F3
:1020C800FA0713F91B006357E01293F77A0099C7D0
:1020D80093F7FA0091466383D700910A93974A00D1
:1020E80063D90700B70700F8FD17B3FAFA0013071A
:1020F8000A089307E00FE3C4E7FA93976A00A583F9
:102108001377F70F8DBFB9E48546A9B763940A0220
:102118001144014A054BC5BD63990A002144130ABD
:10212800F00F094BCDB58D4631B73144130AF00F86
:102138000D4BD1BD56852EC6EF00103E9307B5FF57
:10214800B39AFA009307A0F8338AA7400144014BD9
:10215800B24555BD2685EF00303C1307B5FFB307E0
:10216800AA00B394E400138A67078146E1B513F91E
:102178001B000147814701B74166139554007D163E
:1021880093570501698E63FA9A0AB3D5FA027D1A44
:10219800D68601473388C502B3F6F602C206558FC4
:1021A800637B07012A979386F5FF6368A70A63761E
:1021B800070BF9152A9733070741B356F702337708
:1021C800F702B38AC6029317070163FB5701AA9760
:1021D8001387F6FF63E1A70863FF5707F916AA9765
:1021E800C205B38A5741D58DB33A5001B3EA5501B8
:1021F800CA8BF1B58546998E11C76D46014781474F
:10220800E34BD6E6130AEA09339A4A01B3D7DA0050
:10221800B33A4001B3E7570113F7770019C713F72B
:10222800F70091466303D700910713975700634857
:1022380007029A07A58301473DBD93D61A00B3D577
:10224800F6021397FA0141833388C502B1B7CE8BE2
:10225800368B814AA1BDBA8661B7B685A9BF054745
:10226800814711BD13F91B001307F00F814721B5F2
:1022780093567501B7078000FD1713D6750193F6BD
:10228800F60F1308F00FB3F8A7001357F501ED8FF9
:102298001376F60FFD8163810603630C06018DE258
:1022A80011E2B1C3638E08026305B70405451DE753
:1022B8008280F5D779558280E39E08FE6309D602AD
:1022C80011E2EDD7E314B7FEE342D6FE63C7C600BA
:1022D800E3EE17FD0145E3FDF8FC01E77D5582803B
:1022E800F5DD054582800145E39208FC8280F9DB33
:1022F800D1B78146E1BF93567501B7078000FD1736
:1023080013D6750193F6F60F1308F00FB3F8A7006C
:102318001357F501ED8F1376F60FFD8163870603DA
:102328006309060185EA11EA89EB0145639B080008
:1023380082800945F5FFE5DA31A8638C080263005D
:10234800B704054575D77D5582800945639808020D
:102358006304D60211E2F5D7E315B7FEE343D6FED0
:1023680063C7C600E3EF17FD0145E3F3F8FC19E383
:10237800D9BFF1D905458280E5D382808280814624
:10238800C5B7797122D4135475014ECE52CC931926
:10239800950006D626D24AD056CA5AC81374F40FE6
:1023A80093D99900135AF50169C49307F00F63088C
:1023B800F40E9397390037070004B3E9E7001304D4
:1023C80014F88144014B13D77501939A950013773C
:1023D800F70F93DA9A0013D9F50145CF9307F00F59
:1023E800630CF7028E0A130717F8B7070004B3EA5D
:1023F800FA003A94014633452A01BD47AA86930557
:10240800140063E2971017170000130767A98A04DE
:10241800BA949C40BA9782871304F40F63980A0C05
:1024280093E424000946C1BF01451307F00FB7071D
:102438004000B2502254A6075E07A5837E05D98FB7
:1024480092540259F249624AD24A424B5D8D456123
:102458008280CA86D689328B89476301FB0A8D47F9
:10246800E304FBFC854736856312FB1A0147814765
:10247800C9B7639E090413D77501939A950013771A
:10248800F70F91440144054B93DA9A0013D9F501EB
:1024980031F7639D0A0093E414000546A9BF6393CE
:1024A8000902A1441304F00F094B31BF5685EF0010
:1024B800B0069307B5FF098CB39AFA001304A4F881
:1024C800014615BFB1441304F00F0D4BEDBD4E8509
:1024D8002EC6EF0070049307B5FF1304A0F8B39954
:1024E800F900098C8144014BB245F1BD93E43400F5
:1024F8000D4611B78947D286E313FBF636851307D5
:10250800F00F81473DB741639306F3FF13D60901E6
:1025180093D80A01B3F7D900B3FADA00338857031E
:10252800B389F80213570801B30A5603D6994E9790
:1025380033061603637357011A96C167FD17B376FE
:10254800F7003378F800C206C2969399660093574D
:102558000701B3393001E982B2979A07B3E6D90087
:10256800B3E9D7009397490063D9070013D7190037
:1025780093F71900B369F7002E841307F407635023
:10258800E00493F7790099C793F7F90091466383BC
:10259800D70091099397490063D90700B70700F856
:1025A800FD17B3F9F900130704089307E00F63CB8D
:1025B800E70493976900A5831377F70F9DBD8547B7
:1025C800B386E74011C76D4601478147E343D6E626
:1025D8001307E4093397E9003337E000B3D7D9008C
:1025E800D98F13F7770019C713F7F70091466303DC
:1025F800D700910713975700634C07009A07A583E4
:10260800014705BD1307F00F814725B52E84B5B7DF
:102618000547814739BD3707800041117D1793561B
:10262800750113D87501B377A70093F6F60F935E7B
:10263800F5013376B70026C24AC01378F80F06C6EC
:1026480022C41303F00F3E8E3689F684139F370099
:10265800FD8113153600B38806416302681093C5DF
:102668001500638CBE106354100D631008106304CA
:10267800051EFD18B307AF40638608029307F00FE5
:102688006388F616ED4763C7172913070002330757
:1026980017413317E500B35715013337E000D98FD9
:1026A800B307FF40139757006351071A3704000414
:1026B8007D147D8C22858D256D15B317A400634E7E
:1026C800251B330525411304150013070002018F4C
:1026D8003397E7003337E000B3D78700D98F014934
:1026E80013F7770019C713F7F70091466303D7006C
:1026F800910713975700635E071493061900130791
:10270800F00F93FE14006386E6169A07A58393F6E6
:10271800F60FA607B240224413D59700DE0693971A
:10272800FE01558D924402495D8D4101828063927C
:10273800080A138716001377E70F631B07146394BF
:10274800062263020F2071D5B307AF4013975700D5
:1027580063550722B307E5410149AE8451B7E30049
:1027680005F0638ABE0AE35410FD9307F00F6381F6
:10277800F608B70700045D8D31B7635E1009630181
:1027880008089307F00F6385F606B70700045D8D08
:10279800ED4763C0171F13070002330717413317AC
:1027A800E500B35715013337E000D98FFA9713972F
:1027B8005700635C070805091307F00F630BE90A64
:1027C800B706007E13D71700FD16858B758FD98F36
:1027D80001BF3307D84063950610630D0F147D17AA
:1027E8006303071A9307F00F6314F810AE84328E50
:1027F800630F0E06814E9306F00FB707400011BF16
:1028080039C9FD18B307AF00E38308FA9307F00F3F
:10281800E390F6F8F1BF6399080813891600137757
:10282800E90F63160712639B061063030F16E30292
:1028380005EEB307AF001397570001496357070028
:10284800370700FC7D17F98F054913F77700E31C5C
:1028580007E813DE37009307F00FE30BF9F8931737
:102868009E00A5839376F90F93FE14005DB593FE41
:1028780014009306F00F814769BD370700FC7D17E8
:10288800F98F13F777003309A940E31E07E4D1B79E
:102898003304AF409317540063C3070CE31C04E0F0
:1028A800814E81468147B5B53307D840B5C69307F1
:1028B800F00FE30EF8F2B7070004336FFF00ED479F
:1028C80063CDE70C93070002998FB317FF003357C6
:1028D800EF00B337F0005D8FB307A7004289C1BD91
:1028E8009307F00FE304F8F0B7070004336FFF0015
:1028F800ED4763C2E70893070002998FB317FF00FB
:102908003357EF00B337F000D98FB307F54042894A
:10291800AE8449BB854769B3630E0F067D17B307BD
:10292800AF004289E30507E89307F00FE319F8F8C9
:10293800328E7DBD328E4289AE8431BFE3090FEA03
:10294800E30805EA45BD0DCDAE8EB287D9B393072E
:10295800F00FE300F9F2B307AF008583FDB5330448
:10296800E541AE8481BBE31D0FFCE30505E8AE84B9
:10297800BDBD854725BD854749BF0149E39707EC9C
:10298800814E814779B3B307E5414289AE8419BBCB
:10299800B28741B3328E42897DBD054735BF935614
:1029A8007501B7078000FD1713D6750193F6F60F6A
:1029B8001308F00F33F7A7001376F60FED8F638B2C
:1029C80006011307F00F01456303E60082803335E3
:1029D800F0008280054575D782803706800013573E
:1029E80075019307F6FF1377F70F9305E007B3F622
:1029F800A7009357F50163FCE5009305D00963FA36
:102A0800E500370500801345F5FF3E9582800145B6
:102A1800828093055009D18E63CDE50013066009C5
:102A28003307E64033D7E6003305E040F5F33A854F
:102A380082801307A7F63397E600FDB7411106C653
:102A480022C426C20DCD9357F54133C4A7001D8C6F
:102A5800AA842285D1249307E0093387A7409307E6
:102A68006009FD8063CCE702A1469377F70F63D531
:102A7800A60061153314A4002604258021A08144F2
:102A880081470144260413559400B2402244DE07CE
:102A9800FE045D8D458D9244410182809307900923
:102AA80063DDE7009307B5019546B317F400898EF7
:102AB8003354D400B337F0005D8C954763D6A70034
:102AC8009307B5FF3314F400B70600FCFD1693779F
:102AD80074003376D40085C39377F4009145638CF2
:102AE800B70011069317560063D707009307F0093C
:102AF800758E3387A7401314660025809377F70FE8
:102B080051B7135775011377F70F41119307170042
:102B180022C426C21314950006C693F7E70F258032
:102B28009354F50185C79357340013070738760483
:102B3800B2075207B1831395F401D98FC98FB240F8
:102B4800228522449244BE854101828005EB39C426
:102B58002285D922A94763C6A7042D47098F930761
:102B680055013357E4003314F4009317C7001307D3
:102B78009038098FB1831377F77F5DBF01CC135766
:102B88003400B7070800D98FB2077604B18313075A
:102B9800F07F79BF1307F07F814759BF014781470D
:102BA80041BF130755FF3317E40001447DBF93D697
:102BB80045019397C50093F6F67FB18313861600F7
:102BC8008E071357D5011376E67FFD815D8F931825
:102BD800350035CE138806C89307E00F63DD07017B
:102BE8008147139597009306F00FDE062581FE05B1
:102BF800558D4D8D82806355000B931765000E0728
:102C0800B337F000D98F93D8D801B3E7170113F77A
:102C180077006301071013F7F70091466303D700A5
:102C28009107370700047D8F75C71307180013062F
:102C3800F00F9376F70FE305C7FA9A07A583139564
:102C48009700DE062581FE05558D4D8D8280B36780
:102C5800170199EE85CF95479A07A5831395970095
:102C680093F6F60FDE062581FE05558D4D8D828083
:102C7800A5DBB7074000139597009306F00FDE0613
:102C880081452581FE05558D4D8D8280814713959F
:102C980097008146DE062581FE05558D4D8D828083
:102CA800A5576348F804F94737068000B3870741FA
:102CB8007D45598E6351F50479573307074113054C
:102CC80000023357E6006388A700938626CAB31626
:102CD800D600B3E8D800B3371001D98F13F77700BF
:102CE800014815FB139757008546E34807F48146CA
:102CF800A5B781468DB7938626C83397D800333752
:102D0800E000B316D600B3D8F800B367D700B3E72E
:102D1800F800E9B7C28689B7C167637EF5029307F1
:102D2800F00F1307000263ECA700970700009387D2
:102D3800271BAA9703C507003305A7408280218176
:102D4800970700009387C719AA9703C5070061472B
:102D58003305A7408280B7070001636EF5006181E3
:102D6800970700009387C717AA9703C5070021474D
:102D78003305A74082804181970700009387471653
:102D8800AA9703C5070041473305A740828097E704
:102D9800FF1F9387A7DB88438280000000007041F3
:102DA8000000003F00006143C3F54840CDCC2C40F3
:102DB8000000F04200442C46CDCC4C3D0000D242ED
:102DC80094E4FFFFBCE4FFFFE4E4FFFFFCE4FFFF43
:102DD80016E5FFFF737172746600000006EBFFFFD3
:102DE8008AE9FFFF9AEAFFFFA2EAFFFF9AEAFFFFDC
:102DF800BAE9FFFF9AEAFFFFA2EAFFFF8AE9FFFFAD
:102E08008AE9FFFFBAE9FFFFA2EAFFFFFCEAFFFF3A
:102E1800FCEAFFFFFCEAFFFFBAE9FFFF5CF3FFFFF4
:102E280082F2FFFF56F3FFFF8AF2FFFF56F3FFFF20
:102E380050F2FFFF56F3FFFF8AF2FFFF82F2FFFF17
:102E480082F2FFFF50F2FFFF8AF2FFFF90F2FFFFCE
:102E580090F2FFFF90F2FFFF50F2FFFF42F2FFFFF8
:102E680042F2FFFF16F3FFFFF2F3FFFF16F3FFFF37
:102E780010F2FFFF16F3FFFFF2F3FFFF42F2FFFF2E
:102E880042F2FFFF10F2FFFFF2F3FFFF50F2FFFFE5
:102E980050F2FFFF50F2FFFF10F2FFFF6AF6FFFF4C
:102EA800B8F5FFFFB8F5FFFFB6F5FFFFBCF5FFFF6C
:102EB800BCF5FFFF8CF5FFFFB6F5FFFFBCF5FFFF84
:102EC8008CF5FFFFBCF5FFFFB6F5FFFF58F6FFFFD7
:102ED80058F6FFFF58F6FFFF8CF5FFFF00010202CE
:102EE800030303030404040404040404050505059A
:102EF8000505050505050505050505050606060676
:102F08000606060606060606060606060606060659
:102F18000606060606060606060606060707070745
:102F28000707070707070707070707070707070729
:102F38000707070707070707070707070707070719
:102F48000707070707070707070707070707070709
:102F580007070707070707070707070708080808F5
:102F680008080808080808080808080808080808D9
:102F780008080808080808080808080808080808C9
:102F880008080808080808080808080808080808B9
:102F980008080808080808080808080808080808A9
:102FA8000808080808080808080808080808080899
:102FB8000808080808080808080808080808080889
:102FC8000808080808080808080808080808080879
:0C2FD8000808080808080808080808088D
:022FE40001A04A
:102FE80000000000140A00207C0A0020E40A0020E7
:102FF80000000000000000000000000000000000C9
:1030080000000000000000000000000000000000B8
:1030180000000000000000000000000000000000A8
:103028000000000000000000000000000000000098
:103038000000000000000000000000000000000088
:103048000000000000000000000000000000000078
:103058000000000000000000000000000000000068
:103068000000000000000000000000000000000058
:103078000000000000000000000000000000000048
:103088000000000000000000010000000000000037
:103098000E33CDAB34126DE6ECDE05000B000000FC
:1030A8000000000000000000000000000000000018
:1030B8000000000000000000000000000000000008
:1030C80000000000000000000000000000000000F8
:1030D80000000000000000000000000000000000E8
:103408000000000000000000280700200100000064
:00000001FF
