:040000006F00007B12
:10000400000000000000000090000020CE0200204C
:10001400A9BDF9F5900000200000000000000000D8
:10002400900000209000002000000000000000006C
:10003400900000200000000090000020000000005C
:1000440090000020900000209200002090000020EA
:10005400900000209000002090000020000000008C
:1000640090000020900000209000002090000020CC
:1000740090000020900000209000002090000020BC
:1000840090000020900000209000002090000020AC
:1000940001A0371700408357E70993F7070491CB72
:1000A4009386C1809C4285079CC293070004231F4A
:1000B400F70873002030B7F70700944B01111307BA
:1000C4008008F337078093F787083EC20F100000BB
:1000D400B71700401308700523800705930580FABD
:1000E4002380B7040F10000003C6B7041376F60D7F
:1000F400A385C704238007041246732606800F10C5
:1001040000001376050255CEF336078093F6860871
:1001140036C40F100000238007052380B7040F1096
:100124000000B70614007D89558D88C701000100C1
:100134000100010023800704A246F3A606800F10E5
:10014400000073370780137787083AC60F10000042
:10015400238007052380B7040F1000000F10000050
:100164003727004093061005A303D7802380070494
:10017400B247F3A707800F10000093078008F3B776
:10018400078093F787083ECE0F100000B717004092
:10019400130770052380E704130780FA2380E7041C
:1001A4000F10000003C7B70413670708A385E7040B
:1001B40023800704F247F3A707800F1000000561AE
:1001C40082801376050459C2733607801376860835
:1001D40032C80F100000238007052380B7040F10D6
:1001E400000037061400130606047D89518D88C764
:1001F4000100010001000100238007044246732628
:1002040006800F10000073370780137787083ACAF7
:100214000F100000238007052380B7040F1000008F
:10022400254793F7F60F639EE700B72700401307AF
:100234003005A383E780B717004023800704D24723
:100244000DBFB727004013072005E5B773370780B4
:10025400137787083ACC0F1000002380070523800A
:10026400B7040F10000098471367070C98C7238042
:100274000704E247FDBD0111814601468145114550
:1002840006CE7D2A93078008F3B7078093F7870883
:100294003EC60F100000B7170040130770052380F7
:1002A400E704130780FA2380E7040F10000003C754
:1002B4006704136717002383E70423800704B24706
:1002C400F3A707800F100000F240056182804111FE
:1002D4008146014681451145A52213078008F3375D
:1002E400078093F787083EC40F100000B71700403B
:1002F400130670052380C704930680FA2380D7046D
:100304000F100000FD552396B70223800704A24571
:10031400F3A505800F100000733707801377870853
:100324003AC60F1000002380C7042380D7040F109F
:10033400000003C76704136717002383E7042380BF
:100344000704B247F3A707800F10000001A0BD47C0
:100354003305F50201007D1575FD8280411122C42B
:1003640026C206C6AA84014463179400B2402244FC
:1003740092444101828005041305803E4204C13F3A
:100384004180DDB72303048015472303E480010083
:100394002302A480828083076480E3CE07FE2303C4
:1003A4000480828083076480E3CE07FE0345448093
:1003B400828083076480E3CE07FE2302A4808280C8
:1003C400411126C44AC24EC006C61377F50BAD4789
:1003D400AA892E8995446306F70019456537653F58
:1003E4008D444E854537FD59FD1463983401B24060
:1003F400A2441249824941018280135509011375AF
:10040400F50F453F2209CDB7011126CC06CEB7041E
:10041400080051371545BD37713769372AC6A53FDE
:1004240032459377150089EB136515001375F50FA5
:10043400F240E24405618280FD14E9FC0145CDBF30
:10044400397126DC4ADA4ED852D656D45AD25ED006
:1004540006DE62CE66CCB7E700E07D5783AA0700CC
:1004640022C603AA470023A0E71823A2E718B71758
:100474000040130770052380E704130780FA2380E4
:10048400E70483C74704930B75FFB684E20793FB25
:10049400FB0F8546AA892E8B328937240040E187D9
:1004A400015763FA76016308D500894613070002F1
:1004B4006313D5000157D98F93F7F70FB71C00408A
:1004C4002382FC0411472303E4801305F00F5D3DF0
:1004D400094CD135636D7C11B7050700DA95378770
:1004E4000700795563F2E504B3879500636EF7025C
:1004F400370B0800A94733EB65016399F90689E4D2
:100504008144513D26850DA0DA850945553D0509EF
:100514000345F9FFFD14050B693D81C49377FB0F77
:10052400FDF7DD3569FD7D55B717004013077005EC
:100534002380E704130780FA2380E70403C74704F2
:10054400418B2382E704F250B7E700E023A0571160
:1005540023A24711E25432445259C259325AA25A80
:10056400125B825B724CE24C21618280A5476395E9
:10057400F90685691309F00FB3069900B3742B01CA
:10058400B6941349F9FFB3749900856B3379690103
:10059400416B9387F9FFB3F7270199E363FC3401B7
:1005A40093D94900C147E3E637FF99BF0569C1699B
:1005B4007D19D9B71305800D6388690113050002FD
:1005C4006384790113051008CA85DD3B353D21DDBF
:1005D4004E99B3843441D9B7DA852D45D533CA94BD
:1005E400E30099F205097D3BA30FA9FED5BF9387CC
:1005F400F9FF93F7F70F6361FC0C83C71C0413071F
:100604003008631FF70437070800636BEB04B30774
:100614009B00B706100063F5D704334BEB00894702
:100624006393F9068980D549E38C04ECDA8509459E
:10063400413B11090327C9FF91472320E4800307A5
:100644006480E34E07FE23033481FD17EDFBFD14A4
:10065400110B81C49377FB0FE9FF7D3371F5E1B58D
:10066400B717004003C75704B707080013770702FA
:1006740019E3B78707007955E378FBEA33079B0052
:10068400E3FFE7F855B58547E382F9F2DA852D45AE
:10069400053B9389F4FFE38504E6293393F7390096
:1006A40091EB832604800327090093074900E39A0A
:1006B400E6E43E89CE84F1BFB5476396F90013059D
:1006C400900BC93135BDB1471305B00AE38BF9FE70
:1006D40099476391F904B7050800B365BB002D453C
:1006E400C53181448D4BA1497539639674018327C3
:1006F40004802320F9008504E39834FF83270480D1
:1007040013172B01635507002312F900D5BB2322CD
:10071400F900FDB39D476399F90281451305B004BF
:100724004531BD442320090023220900FD599D3988
:1007340093F77400CA9703C70700FD14398D23800B
:10074400A700E39634FF6DBBA1476392F9046D39AA
:100754008144630D0B008D479304C0036308FB00C1
:100764009304000563048B01930440041375C507C7
:10077400E30895D81945393139390545213126859C
:100784000D3909453D314931E31C05D669BB914713
:100794006399F90013056006F536F53E13059009D3
:0C07A4000DB7E38F09D4F154A9BB00008D
:1007B00097110020938101801761002013018104AB
:1007C00013054000970500209385C5831706002078
:1007D000130606FE63FAC5008322050023A0550018
:1007E00011059105E3EAC5FE171500001305456ED6
:1007F000970500209385C5FB17060020130646FCCD
:1008000063FAC5008322050023A055001105910558
:10081000E3EAC5FE1385C180938501816377B50046
:10082000232005001105E36DB5FEFD42739002BC67
:100830008D4273904280930280087390023097F249
:10084000FF1F9382227C93E2320073905230970212
:1008500000009382420D73901234730020304111D6
:1008600006C622C426C22E844AC02A89EF10000E72
:10087000AA84EF10A013AA854A85EF00705497054B
:10088000002083A525F3EF003026EF10200C9307FE
:10089000300663DF9704930710032300F4009307E7
:1008A0000003A300F4002301F400A30104000147A6
:1008B000B307E400838607000507FDFA9306E0020C
:1008C0002380D700A9463A943347D5023365D50231
:1008D000130707032300E400A381070013050503A2
:1008E0002381A700B2402244924402494101828000
:1008F00063D90400930700032300F400A30004005D
:100900007DB725478147635A9700A947B3E4F402AE
:1009100085479384040323009400A2972380070053
:1009200079B701111305800406CE22CC26CA4AC825
:1009300097F0FF1FE78060788D453D655921B71717
:1009400000409387870A9843B1668545558F98C3C1
:1009500013051006312385454145A5218945130519
:100960000004712BB7E700E03707040023A0E7106D
:100970001305800C97000020E780809E0926752CC7
:100980001716000013064622814501451121B7576D
:10099000004011479D64A381E70013850453F92BA0
:1009A000056493054419854601460545E5238546BA
:1009B0000146930544190945F12B1305401F970083
:1009C0000020E780E0991384C1801305803E03294D
:1009D000040097000020E780A098084033052541D7
:1009E000EF1080099705002083A505DDEF00206149
:1009F0009705002083A585DCEF00100F8A858535DB
:100A0000171600001306461B8545014551260A8628
:100A1000854513050003AD2E938504538546014695
:100A200005458D2B854601469385045309459D2335
:100A30001305401F97000020E78080921305803E39
:100A4000044097000020E780A0910840058DEF103A
:100A5000A0029705002083A525D6552397050020E1
:100A600083A5C5D5EF0050088A85D53B1716000031
:100A70001306061589450145212E0A868945130569
:100A8000000339268146014681450545212301465B
:100A9000814509458146FD29171600001306C61237
:100AA0008D450145F5241305400697000020E78099
:100AB000208BD5BF4111A947A307F1000347F100DF
:100AC0009307F7FF93F7F70FA307F10065FB4101C9
:100AD0008280411122C4371400409307840C98434C
:100AE00006C61304C40C1367070198C39843136721
:100AF000070898C3C1371C4093E707011CC05D3F3E
:100B00001C40B24093E707081CC022444101828088
:100B1000411122C4371400401307C40C1C4306C6FD
:100B20001304840C93E707011CC31C4093E70708D8
:100B30001CC049371C40B24093E707011CC0224447
:100B400041018DBF011122CC4AC852C406CE26CA2B
:100B50004EC62A842149371A004093178401E18741
:100B600013078A0C63C407001307CA0C1C439304C1
:100B70008A0C7D1993E707011CC32D3F9C40060496
:100B80001379F90F93E707089CC02D378327CA0C08
:100B90001374F40F93E707082326FA0CE31F09FAEE
:100BA0009C4093E707019CC031379C4093E70708BE
:100BB0009CC009378327CA0CF240624493E70708B8
:100BC0002326FA0CD2444249B249224A0561828066
:100BD000411106C622C42A84ED3D130580079D37C6
:100BE00001458D372285B93F2244B24041010DB7FE
:100BF000411106C622C42A84E93D130580079937AE
:100C00001305000481372285353F2244B24041015B
:100C100001B7130505FB41111375F50F06C622C474
:100C20002E847D371375F400653713554400224434
:100C3000B24013650501410161BF411122C44AC0A0
:100C400006C626C21304000B1309400B2285493740
:100C50000145BD3F4145AD3F93040008FD140145EA
:100C600093F4F40F7137FDF805041374F40FE31FC8
:100C700024FDB24022449244024941018280411144
:100C80008D451305000906C6E12AB7170040938772
:100C9000870C98431305E00A1367070998C30D3FB3
:100CA000130500023537014525371305800C0D3734
:100CB0000145393F4145293F13050004113F130504
:100CC000100839371305F00F21371305100A0937BB
:100CD0001305600AF53D1305800ADD3D7D45CD3DD8
:100CE0001305300DF5350145E5351305500DCD35AE
:100CF0001305000FF13D1305900DD93D130520029A
:100D0000C13D1305A00DE9350945D9351305B00DD1
:100D1000C135130500026D3D1305D008553D514501
:100D2000453D1305F00A6D35B240410139B7011157
:100D300022CCAA87130406FE06CE26CA4AC84EC68F
:100D4000130780072E851374F40F6377F70013855C
:100D500015001375F50F8147BE85653D9547330432
:100D6000F402814497190000938909E71549B38774
:100D70008400CE9703C5070085049D3DE39924FFB9
:100D80006244F240D2444249B249014505618DB501
:100D9000411122C426C24AC006C62A842E89B284C2
:100DA0000386040019E6B2402244924402494101FC
:100DB00082802285CA8519049D3F1374F40F85042F
:100DC000C5B7914763EAB70897170000938747F3C1
:100DD0008A05BE9598413E97B71700409387470B09
:100DE000028794431345F5FF37170040E98E94C3FB
:100DF0009306070B9C42E98F9CC29307070A98430E
:100E0000798D88C3828090439346F5FF3717004061
:100E1000758E90C31306070B1C42C98F1CC2930723
:100E2000070A9843F98E94C3828094433717004091
:100E3000C98E94C39306070B9C421345F5FF65BF0B
:100E400094431347F5FF758F98C3B71700409387F6
:100E5000070A9843498F98C382809843498FEDB71A
:100E6000914763EAB708971700009387A7EA8A05B6
:100E7000BE9598413E97B71700409387470D02876C
:100E800094431345F5FF37170040E98E94C393064A
:100E9000070D9C42E98F9CC29307070C9843798DFC
:100EA00088C3828090439346F5FF37170040758EC4
:100EB00090C31306070D1C42C98F1CC29307070C71
:100EC0009843F98E94C38280944337170040C98EAB
:100ED00094C39306070D9C421345F5FF65BF9443E9
:100EE0001347F5FF758F98C3B71700409387070C1A
:100EF0009843498F98C382809843498FEDB79357A1
:100F0000E50093F70730C98FC2070947C183638B98
:100F1000E5046362B70213C6F7FF9DE93717004087
:100F200083566709F18E231BD7081307C70C144398
:100F3000C98E14C321A00D47638CE502371700400A
:100F4000231FF70883562709D58F2319F7088280B6
:100F50003717004083566709F18E231BD708130704
:100F6000870CF1B73717004083566709DD8E65BFE0
:100F70003717004083566709DD8EC5B737570040E5
:100F80008347270093F7070F93E7C7002301F70074
:100F900048CB82803757004089EA834707001345D2
:100FA000F5FF7D8D2300A7008280834717001DC6B3
:100FB000C98FA300F700B7570040910701471948B0
:100FC0008D48B356E540858A1306170091CE63EB32
:100FD000E8002390B70032878907E5B79346F5FF0D
:100FE000F58FC1BF2392B7003287E31706FF37574B
:100FF000004083470700C98F2300F7008280797182
:10100000935775014AD04ECE06D69319950022D437
:1010100026D252CC56CA5AC893F7F70F93D99900E3
:101020001359F501F1CF1307F00F6381E70E8E0915
:1010300037070004B3E9E900938A17F80144014B2C
:1010400093D77501139A950093F7F70F135A9A00E7
:1010500093D4F501C1C71307F00F6380E70C0E0AA4
:1010600037070004336AEA00938717F80146BD4644
:1010700033479900B38AFA4063EB861A971600004B
:10108000938686CA0A0436941C40B69782879307D3
:10109000F00F8146B250225413957701558D7E078B
:1010A00092540259F249624AD24A424B598D4561E3
:1010B00082808D47630EFB0085476315FB0E2A87F0
:1010C00081478146C1BF8D472685D289631CF60CB6
:1010D00001479307F00FB70640006DBF631D0A0874
:1010E00013641400B54733479900E3E287FA971673
:1010F0000000938666C70A0436941C40B697828720
:10110000639B09041144814A054B1DBF6390090488
:101110002144930AF00F094B25B763130A021364A5
:1011200024007514AD4633479900E3EB86F8171693
:1011300000001306E6C60A0432941440B296828672
:10114000136434009307F00F0D4615B73144930A2A
:10115000F00F0D4BF5B54E852EC6EF00B01D930771
:10116000B5FFB399F9009307A0F8B245B38AA74039
:101170000144014BF1B55285EF00D01B9307B5FF39
:10118000331AFA009307A0F8898F0146CDB5938AE8
:101190001AF089474A85E31EFBF02A879307F00F70
:1011A0008146CDBD2A879387FA076351F00493F6F1
:1011B000790099C693F6F90011466383C600910938
:1011C000B7060008B3F6D90081CAB70700F8FD17C3
:1011D000B3F9F90093870A089306E00FE3C9F6EA2A
:1011E00093966900A58293F7F70F6DB5054699C7E9
:1011F0001D8EED4581478146E3CEC5E89386EA0919
:10120000B396D900B336D000B3D7C900D58F93F6C3
:10121000770099C693F6F70011466383C6009107DD
:10122000B7060004FD8ED5CA85478146A5B5C166BF
:1012300013185A00FD1693550801B376D80063F8C9
:10124000490733D6B902CE87FD1A81493305D60244
:10125000B3F7B702C207B3E7370163F8A700C29735
:101260009308F6FF63F607074686898F33D5B702E2
:10127000B3F7B702B306D502C20763F2D702B3854C
:101280000701B3B8F5001303F5FFAE8763980800B4
:1012900063F6D5007915B387050111A01A854206BA
:1012A000958F498EB337F000B369F600EDBD93D743
:1012B000190033D6B702FE0993D909013305D602C6
:1012C00041BF26852A87EDBB0147B7064000D9B349
:1012D000E3FCA7F87916C29749BF9A0793D69700FF
:1012E00081474DBB268555BD79719357750152CC09
:1012F00056CA1317950006D622D426D24AD04ECE0F
:101300005AC893F7F70F935A9700135AF501638B56
:1013100007101307F00F638DE71013973A00B70615
:101320000004B36AD700938417F80149014B93D79F
:1013300075011394950093F7F70F258093D9F50164
:10134000F9C71307F00F6382E706938717F8338511
:1013500097000E0437070004A947598C814693046F
:10136000150063CF270FB3453A0109472E88634C18
:1013700027057D190546636C26136382E60C8547B5
:10138000C2856394F60681470147B25022541395F3
:101390007701598D9397F50192540259F249624AA7
:1013A000D24A424B5D8D456182801385F40F49CC52
:1013B000B3453A011369390029472E8893840410F4
:1013C0006347271F8D4605473317270113760753B9
:1013D00019CE89476305FB068D476304FB02DA8655
:1013E00085475684C285E380F6FA268535A2937731
:1013F000072481EB137787085DCB4E88A28A368B52
:10140000C9BF81459307F00F37074000BDBF3DECD2
:10141000268513691900A947854693041500E3D46E
:1014200027F53DA863950A0411498144054B01B78E
:10143000639A0A0221499304F00F094BCDBDC2857E
:101440009307F00F014791B713692900A9479384C7
:10145000041039478946E3D827F1AD47E30FF7F881
:10146000528885BF31499304F00F0D4BC9B556859D
:101470002EC6C9259307B5FFB39AFA009307A0F8C3
:10148000B245B384A7400149014B55B522855D257E
:10149000B387A4401307B5FF1385A7F8A9473314F2
:1014A000E400814693041500E3DF27EB55BFC168D4
:1014B0009387F8FF13D60A0113580401B3FAFA0010
:1014C000E18FB3865703B307F60213D70601B30AB9
:1014D0005803BE9A5697330606036373F700469681
:1014E00041687D18B3770701B3F60601C207B697C6
:1014F0009396670013540701E9833337D000329481
:10150000D98F1A045D8CB7070008E18F91C79357F4
:10151000140005885D8C26859307F507635FF0024C
:101520001377740019C71377F40091466303D7004B
:10153000110437070008618F19C7B70700F8FD17B6
:101540007D8C930705081307E00F6349F704131711
:101550006400258393F7F70F0DBD854699C79D8ECF
:101560006D4681470147E342D6E21307E509331789
:10157000E4003337E000B357D400D98F13F7770076
:1015800019C713F7F70091466303D7009107370790
:1015900000047D8F01CB85470147C5BB9307F00F42
:1015A0000147E5B39A0713D797008147F9BBBD46BA
:1015B000814537074000E30AD9DC2D478D4671BDD0
:1015C000B70780004111FD1713D6750133F7A70047
:1015D00093567501ED8F26C24AC09354F50106C695
:1015E00022C41376F60F1305F00F13F9F60F2688B1
:1015F0000E07FD81939637006303A60493C515007B
:10160000B307C940638FB400635AF03035E2638F8B
:1016100006141386F7FF6302062A638FA702B287B8
:10162000A9A86359F0307DCA6308A90237060004EF
:10163000D18E6D466352F6140507CA878DA89307AD
:1016400019F0D5E693C515006383B40E638D0718B2
:1016500063090910AE8436870D8313F8140013054F
:10166000F00F3DCB01481305F00F37074000ADA048
:10167000E304A9FE37060004D18EED45054663CD8F
:10168000F500130600021D8E3396C600B3D6F60091
:10169000B337C00033E6F600118FB7070004B37606
:1016A000F7006394061093767700CA87E1C29376B9
:1016B000F70011466383C6001107B7060004F98ED0
:1016C000D5C685079306F00F13F81400638BD70C6B
:1016D0001A0713F5F70F2583B24022445E05598D92
:1016E0009317F801924402495D8D41018280E39F86
:1016F000B4F4B9C36311091C9307F00F3DC7938578
:10170000F7FF638905121305F00F6386A71AED47EB
:1017100063DBB71A13871600B28751BFA1CA1386BD
:10172000F7FF63090610E389A7F2B28719B789C7E3
:10173000E30409FC01470DB79307190013F6E70FFF
:1017400063150614631809166306071A6396061ACA
:101750000D8381472607258313F5F70F13F814002F
:10176000A5BF9307F00F65EBAE8436879306F00FA5
:101770000D83E384D7EEF9BF130600021D8E339666
:10178000C6003336C000B3D6F600D18E3697B70701
:101790000004F98F89DB930719009306F00F639318
:1017A000D70A1305F00F014705BFFD173374F70083
:1017B000228549269307B5FF3314F40063CA270531
:1017C000B38727418507130700021D8F3317E400F5
:1017D0003337E0003354F400418F8147937677002C
:1017E000E39706ECD9BD9307190093F7E70F85EB54
:1017F000631A090A65CFA9DEB307D740370600048C
:101800007D8E630806103387E6408147AE84F9B7C2
:10181000370700FC7D17B307F940618FC1B7330468
:10182000D740B7070004E18FD1E359F001480145E3
:1018300001475DB53697B7060004F98E894705491B
:10184000E38306E63706007E935617007D16058B68
:10185000F18E558F61B71385F7FF41C51308F00F5F
:10186000AE84638A0705ED45854763CCA5009307E1
:101870000002898FB317F7003355A700B337F00084
:10188000C98F3387F640328909BD1306F00FE38A0A
:10189000C7F0BA9613D7160013767700E31906E05F
:1018A0000D834DBD11EFE38F06DA6DB33384E6404F
:1018B000AE84FDBD11E7368745B3158F0549F1BBF1
:1018C000E38C06D845B3930700028D8FB317F7005A
:1018D000B355B700B337F000DD8D3387D5003289BB
:1018E0007DB53387E640AE84054945BBA1D2AE84C1
:1018F0003687B9BD3687A9BD369737060004798E7D
:10190000814759DEB70700FCFD177D8F0D838547A2
:1019100091B589DF3E870D8381472DBDE38507ECB7
:1019200033052641AA87E30009E4B70700045D8F69
:10193000AE8415BFE38207E0B305264163140900B6
:10194000AE876DBBB70700045D8FD1B3370680004B
:10195000135775019307F6FF1377F70F9305E00709
:10196000B3F6A7009357F50163DBE5009305D009B3
:1019700063D9E500370500807D153E9582800145DD
:10198000828093055009D18E63CDE500130660096E
:101990003307E640B3D6E6003305D040F5F336858D
:1019A00082801307A7F6B396E600FDB7411106C67D
:1019B00022C426C215CD1357F5413344A700198C14
:1019C000AA87228593D4F701B5221307E009B3074C
:1019D000A74013076009634AF70221476308E50837
:1019E00061153317A4002607258313F5F70F21A0EF
:1019F000814401450147B24022445E059397F401BA
:101A0000598D92445D8D4101828013079009634393
:101A1000F70415479306B5FF6304E5003314D400BB
:101A2000B70600FCFD16137674003377D40011CE90
:101A30003D881146630BC400110737060004798EF8
:101A400009C69307F009758F898F1A07258313F547
:101A5000F70F55B71307B50195463317E400898E84
:101A60003354D4003337E000598C5DBF260413573C
:101A700094001305600941B70DCD411122C406C67B
:101A80002A844D289307E009898F1307600963476B
:101A9000F7022147630AE50861153317A4002607FA
:101AA000258313F5F70FB24022445E05598D41019D
:101AB0008280014501475E05598D82801307900998
:101AC0006348F70415479306B5FF6304E500331434
:101AD000D400B70600FCFD16137674003377D400EB
:101AE00011CE3D881146630BC40011073706000470
:101AF000798E09C69307F009758F898FB240224409
:101B00001A0713F5F70F25835E05598D4101828071
:101B10001307B50195463317E400898E3337E0008B
:101B20003354D400598C75B7260413579400130509
:101B3000600995BFC1676376F5029337051093C7B7
:101B400017008E07130700021D8F3355F500970706
:101B500000009387E727AA9703C507003305A7402E
:101B60008280B70700016370F502C1473355F50065
:101B7000970700009387C725AA9703C50700414729
:101B80003305A7408280E1473355F50097070000F1
:101B900093870724AA9703C5070021473305A74069
:101BA000828000004D6F746F722052616D702055FD
:101BB00070202000313525202020000031303025D4
:101BC00020200000446F6E652E2020202020202041
:101BD00020200000000000000000005F000000075F
:101BE000000700147F147F14242A7F2A122313086D
:101BF000646236495522500005030000001C224152
:101C0000000041221C0014083E081408083E080881
:101C1000005030000008080808080060600000203C
:101C2000100804023E5149453E00427F4000426197
:101C30005149462141454B311814127F1027454523
:101C400045393C4A4949300171090503364949493A
:101C500036064949291E0036360000005636000077
:101C60000814224100141414141400412214080210
:101C700001510906324979413E7E1111117E7F4999
:101C80004949363E414141227F4141221C7F494919
:101C900049417F090909013E4149497A7F080808FD
:101CA0007F00417F41002040413F017F08142241D5
:101CB0007F404040407F020C027F7F0408107F3E3F
:101CC0004141413E7F090909063E4151215E7F099C
:101CD000192946464949493101017F01013F4040E8
:101CE000403F1F2040201F3F4038403F63140814EE
:101CF000630708700807615149454300E6F0FFFF9C
:101D00000AF1FFFF2EF1FFFF44F1FFFF5EF1FFFF3D
:101D100070F1FFFF94F1FFFFB8F1FFFFCEF1FFFF7D
:101D2000E8F1FFFF0AF5FFFF6AF3FFFF9CF3FFFFF7
:101D3000A2F3FFFF9CF3FFFFACF3FFFF9CF3FFFF59
:101D4000A2F3FFFF6AF3FFFF6AF3FFFFACF3FFFFAD
:101D5000A2F3FFFF6EF4FFFF6EF4FFFF6EF4FFFFD0
:101D6000ACF3FFFF2AF3FFFF2AF3FFFF5CF3FFFF53
:101D70005EF5FFFF5CF3FFFF6CF3FFFF5CF3FFFF1B
:101D80005EF5FFFF2AF3FFFF2AF3FFFF6CF3FFFF6F
:101D90005EF5FFFF2EF4FFFF2EF4FFFF48F5FFFF77
:101DA00024F3FFFF2CF5FFFF24F3FFFF48F5FFFFAF
:101DB000F2F2FFFFF2F2FFFF2CF5FFFF48F5FFFF05
:101DC000F2F3FFFFF2F3FFFFF2F3FFFF0001020265
:101DD00003030303040404040404040405050505C3
:101DE000050505050505050505050505060606069F
:101DF0000606060606060606060606060606060683
:101E0000060606060606060606060606070707076E
:101E10000707070707070707070707070707070752
:101E20000707070707070707070707070707070742
:101E30000707070707070707070707070707070732
:101E4000070707070707070707070707080808081E
:101E50000808080808080808080808080808080802
:101E600008080808080808080808080808080808F2
:101E700008080808080808080808080808080808E2
:101E800008080808080808080808080808080808D2
:101E900008080808080808080808080808080808C2
:101EA00008080808080808080808080808080808B2
:101EB00008080808080808080808080808080808A2
:0C1EC000080808080808080808080808B6
:101ECC00000000000000C8420000AF430B5A8E3ED9
:00000001FF
