:040000006F00C07855
:10000400000000000000000090000020AA02002070
:10001400A9BDF9F5900000200000000000000000D8
:10002400900000209000002000000000000000006C
:10003400900000200000000090000020000000005C
:1000440090000020900000209000002090000020EC
:10005400900000209000002090000020000000008C
:1000640090000020900000209000002090000020CC
:1000740090000020900000209000002090000020BC
:1000840090000020900000209000002090000020AC
:1000940001A0B7F70700944B011113078008F33749
:1000A400078093F787083EC20F100000B71700407F
:1000B4001308700523800705930580FA2380B7048D
:1000C4000F10000003C6B7041376F60DA385C7040A
:1000D400238007041246732606800F10000013764F
:1000E400050255CEF336078093F6860836C40F1002
:1000F4000000238007052380B7040F100000B70613
:1001040014007D89558D88C701000100010001009C
:1001140023800704A246F3A606800F10000073375D
:100124000780137787083AC60F100000238007055D
:100134002380B7040F1000000F1000003727004081
:1001440093061005A303D78023800704B247F3A7BF
:1001540007800F10000093078008F3B7078093F718
:1001640087083ECE0F100000B71700401307700534
:100174002380E704130780FA2380E7040F100000AC
:1001840003C7B70413670708A385E704238007049C
:10019400F247F3A707800F100000056182801376F1
:1001A400050459C2733607801376860832C80F10C7
:1001B4000000238007052380B7040F1000003706D2
:1001C4001400130606047D89518D88C701000100BF
:1001D40001000100238007044246732606800F10A5
:1001E400000073370780137787083ACA0F1000009E
:1001F400238007052380B7040F100000254793F7D9
:10020400F60F639EE700B727004013073005A3836A
:10021400E780B717004023800704D2470DBFB727F4
:10022400004013072005E5B7733707801377870865
:100234003ACC0F100000238007052380B7040F1069
:10024400000098471367070C98C723800704E24708
:10025400FDBD0111814601468145114506CE7D2A29
:1002640093078008F3B7078093F787083EC60F10FB
:100274000000B7170040130770052380E704130735
:1002840080FA2380E7040F10000003C76704136794
:1002940017002383E70423800704B247F3A70780EA
:1002A4000F100000F2400561828041118146014631
:1002B40081451145A52213078008F337078093F77A
:1002C40087083EC40F100000B717004013067005DE
:1002D4002380C704930680FA2380D7040F100000FC
:1002E400FD552396B70223800704A245F3A5058094
:1002F4000F10000073370780137787083AC60F1072
:1003040000002380C7042380D7040F10000003C714
:100314006704136717002383E70423800704B247A5
:10032400F3A707800F10000001A0BD473305F502B5
:1003340001007D1575FD8280411122C426C206C6C6
:10034400AA84014463179400B240224492444101B8
:10035400828005041305803E4204C13F4180DDB71D
:100364002303048015472303E48001002302A480AF
:10037400828083076480E3CE07FE230304808280A7
:1003840083076480E3CE07FE0345448082808307AD
:100394006480E3CE07FE2302A4808280411126C438
:1003A4004AC24EC006C61377F50BAD47AA892E89FB
:1003B40095446306F70019456537653F8D444E85BE
:1003C4004537FD59FD1463983401B240A2441249E3
:1003D400824941018280135509011375F50F453F88
:1003E4002209CDB7011126CC06CEB7040800513737
:1003F4001545BD37713769372AC6A53F324593770E
:10040400150089EB136515001375F50FF240E244EE
:1004140005618280FD14E9FC0145CDBF397126DCFC
:100424004ADA4ED852D656D45AD25ED006DE62CEBE
:1004340066CCB7E700E07D5783AA070022C603AA6B
:10044400470023A0E71823A2E718B71700401307B3
:1004540070052380E704130780FA2380E70483C729
:100464004704930B75FFB684E20793FBFB0F8546A5
:10047400AA892E8B328937240040E187015763FA19
:1004840076016308D5008946130700026313D5007B
:100494000157D98F93F7F70FB71C00402382FC0450
:1004A40011472303E4801305F00F5D3D094CD1355A
:1004B400636D7C11B7050700DA9537870700795516
:1004C40063F2E504B3879500636EF702370B080007
:1004D400A94733EB65016399F90689E48144513DE9
:1004E40026850DA0DA850945553D05090345F9FF23
:1004F400FD14050B693D81C49377FB0FFDF7DD35D2
:1005040069FD7D55B7170040130770052380E70484
:10051400130780FA2380E70403C74704418B23822F
:10052400E704F250B7E700E023A0571123A24711D4
:10053400E25432445259C259325AA25A125B825B73
:10054400724CE24C21618280A5476395F906856966
:100554001309F00FB3069900B3742B01B694134931
:10056400F9FFB3749900856B33796901416B938703
:10057400F9FFB3F7270199E363FC340193D94900E8
:10058400C147E3E637FF99BF0569C1697D19D9B74A
:100594001305800D638869011305000263847901E2
:1005A40013051008CA85DD3B353D21DD4E99B38422
:1005B4003441D9B7DA852D45D533CA94E30099F28D
:1005C40005097D3BA30FA9FED5BF9387F9FF93F7D8
:1005D400F70F6361FC0C83C71C0413073008631F07
:1005E400F70437070800636BEB04B3079B00B706F7
:1005F400100063F5D704334BEB0089476393F90686
:100604008980D549E38C04ECDA850945413B11091D
:100614000327C9FF91472320E48003076480E34E46
:1006240007FE23033481FD17EDFBFD14110B81C478
:100634009377FB0FE9FF7D3371F5E1B5B717004000
:1006440003C75704B70708001377070219E3B787EE
:1006540007007955E378FBEA33079B00E3FFE7F8EB
:1006640055B58547E382F9F2DA852D45053B938933
:10067400F4FFE38504E6293393F7390091EB8326ED
:1006840004800327090093074900E39AE6E43E89BE
:10069400CE84F1BFB5476396F9001305900BC931B9
:1006A40035BDB1471305B00AE38BF9FE9947639151
:1006B400F904B7050800B365BB002D45C531814475
:1006C4008D4BA149753963967401832704802320D7
:1006D400F9008504E39834FF8327048013172B0162
:1006E400635507002312F900D5BB2322F900FDB39B
:1006F4009D476399F90281451305B0044531BD4412
:100704002320090023220900FD599D3993F7740021
:10071400CA9703C70700FD14398D2380A700E39609
:1007240034FF6DBBA1476392F9046D398144630DB5
:100734000B008D479304C0036308FB00930400057A
:1007440063048B01930440041375C507E30895D82B
:100754001945393139390545213126850D39094580
:100764003D314931E31C05D669BB91476399F900D2
:1007740013056006F536F53E130590090DB7E38FB2
:0807840009D4F154A9BB0000E7
:10078C00970100209381C17F176100201301C106DE
:10079C001305400097050020938505861706002059
:1007AC00130606FE63FAC5008322050023A055003C
:1007BC0011059105E3EAC5FE17050000130585191F
:1007CC00970500209385C5FB17060020130646FBF2
:1007DC0063FAC5008322050023A05500110591057D
:1007EC00E3EAC5FE17050020130585F997050020DF
:1007FC00938505F96377B500232005001105E36D9A
:10080C00B5FEFD42739002BC8D4273904280930200
:10081C0080087390023097F2FF1F9382E27D93E27F
:10082C003200739052309702000093820201739051
:10083C0012347300203041111305800406C6970052
:10084C000020E78080848D451305003C89288D4568
:10085C003D65B120B71700409387870A9843896696
:10086C001367071098C398431367070498C39843FA
:10087C001367072098C398431367070898C39843D6
:10088C00558F98C39843A166558F98C39843856636
:10089C00558F98C398439166558F98C301A0914783
:1008AC0063EAB70897070000938787098A05BE9506
:1008BC0098413E97B71700409387470B02879443A4
:1008CC001345F5FF37170040E98E94C39306070BC9
:1008DC009C42E98F9CC29307070A9843798D88C381
:1008EC00828090439346F5FF37170040758E90C376
:1008FC001306070B1C42C98F1CC29307070A9843A7
:10090C00F98E94C38280944337170040C98E94C3E8
:10091C009306070B9C421345F5FF65BF94431347A1
:10092C00F5FF758F98C3B71700409387070A984354
:10093C00498F98C382809843498FEDB782FFFFFFA0
:10094C00A6FFFFFFCAFFFFFFE0FFFFFFFAFFFFFF5D
:00000001FF
