:040000006F00100578
:1000040000000000000000009000002070030020A9
:10001400A9BDF9F5900000200000000000000000D8
:10002400900000209000002000000000000000006C
:10003400900000200000000090000020000000005C
:100044009200002008010020B2000020900000204F
:10005400900000209000002090000020000000008C
:1000640090000020900000209000002090000020CC
:1000740090000020900000209000002090000020BC
:1000840090000020900000209000002090000020AC
:1000940001A03727004083476700858B89CB8547BC
:1000A4002303F7001387C1861C4385071CC3730011
:1000B4002030B717004003D7E7091377070421C39B
:1000C4009387470C98439443938741871377070496
:1000D4003336E000858A6316D6029443850694C3BA
:1000E400894511E38D4513050004972000E0E7805E
:1000F400C092B717004013070004239FE70873005A
:1001040020309443FD16E1BFB717004003D7C70959
:10011400418B15CF9387470A98439C439386018765
:10012400418B95833336E000858B6314F6029C4241
:1001340085079CC2894511E38D454145972000E020
:10014400E7804086B71700404147239EE7087300C5
:1001540020309C42FD17F1BFB7F70700944B011103
:1001640013078008F337078093F787083EC20F1000
:100174000000B71700401308700523800705930596
:1001840080FA2380B7040F10000003C6B704137667
:10019400F60DA385C7042380070412467326068040
:1001A4000F1000001376050255CEF336078093F640
:1001B400860836C40F100000238007052380B70487
:1001C4000F100000B70614007D89558D88C7010003
:1001D40001000100010023800704A246F3A6068063
:1001E4000F10000073370780137787083AC60F1083
:1001F4000000238007052380B7040F1000000F10B0
:1002040000003727004093061005A303D7802380FE
:100214000704B247F3A707800F1000009307800874
:10022400F3B7078093F787083ECE0F100000B71787
:100234000040130770052380E704130780FA238026
:10024400E7040F10000003C7B70413670708A3856A
:10025400E70423800704F247F3A707800F10000088
:10026400056182801376050459C2733607801376BC
:10027400860832C80F100000238007052380B704C6
:100284000F10000037061400130606047D89518DF3
:1002940088C70100010001000100238007044246D1
:1002A400732606800F1000007337078013778708C2
:1002B4003ACA0F100000238007052380B7040F10EB
:1002C4000000254793F7F60F639EE700B727004029
:1002D40013073005A383E780B71700402380070482
:1002E400D2470DBFB727004013072005E5B7733782
:1002F4000780137787083ACC0F1000002380070586
:100304002380B7040F10000098471367070C98C7A1
:1003140023800704E247FDBD011181460146814562
:10032400114506CE7D2A93078008F3B7078093F71B
:1003340087083EC60F100000B7170040130770056A
:100344002380E704130780FA2380E7040F100000DA
:1003540003C76704136717002383E7042380070494
:10036400B247F3A707800F100000F24005618280B6
:1003740041118146014681451145A5221307800894
:10038400F337078093F787083EC40F100000B717B0
:100394000040130670052380C704930680FA238067
:1003A400D7040F100000FD552396B70223800704DD
:1003B400A245F3A505800F1000007337078013775B
:1003C40087083AC60F1000002380C7042380D7048F
:1003D4000F10000003C76704136717002383E704A3
:1003E40023800704B247F3A707800F10000001A081
:1003F400BD473305F50201007D1575FD828041116D
:1004040022C426C206C6AA84014463179400B240DB
:10041400224492444101828005041305803E420433
:10042400C13F4180DDB72303048015472303E480E3
:1004340001002302A480828083076480E3CE07FE48
:1004440023030480828083076480E3CE07FE034590
:100454004480828083076480E3CE07FE2302A48065
:100464008280411126C44AC24EC006C61377F50BDA
:10047400AD47AA892E8995446306F7001945653767
:10048400653F8D444E854537FD59FD14639834010D
:10049400B240A244124982494101828013550901A4
:1004A4001375F50F453F2209CDB7011126CC06CEB1
:1004B400B704080051371545BD37713769372AC667
:1004C400A53F32459377150089EB13651500137525
:1004D400F50FF240E24405618280FD14E9FC014518
:1004E400CDBF397126DC4ADA4ED852D656D45AD208
:1004F4005ED006DE62CE66CCB7E700E07D5783AA05
:10050400070022C603AA470023A0E71823A2E7187E
:10051400B7170040130770052380E704130780FA18
:100524002380E70483C74704930B75FFB684E2076F
:1005340093FBFB0F8546AA892E8B32893724004012
:10054400E187015763FA76016308D50089461307EA
:1005540000026313D5000157D98F93F7F70FB71C27
:1005640000402382FC0411472303E4801305F00FA9
:100574005D3D094CD135636D7C11B7050700DA95F3
:1005840037870700795563F2E504B3879500636EF6
:10059400F702370B0800A94733EB65016399F906A5
:1005A40089E48144513D26850DA0DA850945553DF0
:1005B40005090345F9FFFD14050B693D81C49377D3
:1005C400FB0FFDF7DD3569FD7D55B71700401307B7
:1005D40070052380E704130780FA2380E70403C728
:1005E4004704418B2382E704F250B7E700E023A0DD
:1005F400571123A24711E25432445259C259325A74
:10060400A25A125B825B724CE24C21618280A54744
:100614006395F90685691309F00FB3069900B3745D
:100624002B01B6941349F9FFB3749900856B3379A0
:100634006901416B9387F9FFB3F7270199E363FCE1
:10064400340193D94900C147E3E637FF99BF0569EF
:10065400C1697D19D9B71305800D63886901130534
:1006640000026384790113051008CA85DD3B353D1A
:1006740021DD4E99B3843441D9B7DA852D45D5337C
:10068400CA94E30099F205097D3BA30FA9FED5BFE7
:100694009387F9FF93F7F70F6361FC0C83C71C047E
:1006A40013073008631FF70437070800636BEB0474
:1006B400B3079B00B706100063F5D704334BEB0078
:1006C40089476393F9068980D549E38C04ECDA857C
:1006D4000945413B11090327C9FF91472320E480C1
:1006E40003076480E34E07FE23033481FD17EDFB0B
:1006F400FD14110B81C49377FB0FE9FF7D3371F572
:10070400E1B5B717004003C75704B70708001377CC
:10071400070219E3B78707007955E378FBEA330743
:100724009B00E3FFE7F855B58547E382F9F2DA85E4
:100734002D45053B9389F4FFE38504E6293393F7BC
:10074400390091EB832604800327090093074900AD
:10075400E39AE6E43E89CE84F1BFB5476396F90097
:100764001305900BC93135BDB1471305B00AE38BAE
:10077400F9FE99476391F904B7050800B365BB0016
:100784002D45C53181448D4BA1497539639674015A
:10079400832704802320F9008504E39834FF83270A
:1007A400048013172B01635507002312F900D5BBEE
:1007B4002322F900FDB39D476399F902814513058E
:1007C400B0044531BD442320090023220900FD590A
:1007D4009D3993F77400CA9703C70700FD14398D38
:1007E4002380A700E39634FF6DBBA1476392F9040D
:1007F4006D398144630D0B008D479304C003630876
:10080400FB009304000563048B01930440041375F7
:10081400C507E30895D819453931393905452131DA
:1008240026850D3909453D314931E31C05D669BB9F
:1008340091476399F90013056006F536F53E1305F3
:0C08440090090DB7E38F09D4F154A9BB53
:10085000971100209381018617610020130181FA0E
:100860001305400097F5FF1F9385C57917060020F3
:10087000130606FE63FAC5008322050023A0550077
:1008800011059105E3EAC5FE173500001305051AA9
:10089000970500209385C5FB1386C18663FAC500C2
:1008A0008322050023A0550011059105E3EAC5FE4A
:1008B0001385C186938581886377B5002320050061
:1008C0001105E36DB5FEFD42739002BC8D4273903D
:1008D0004280930280087390023097F2FF1F938248
:1008E000627293E23200739052309702000093825A
:1008F000822973901234730020302A8309CA8383BB
:100900000500230073007D16050385056DFA8280BE
:1009100015C22A8385466367B500FD561307F6FFA7
:100920003A93BA9583830500230073007D163693AE
:10093000B6956DFA8280411126C29704002083A4E7
:1009400024F8A68522C406C62A84EF2040276342E5
:10095000A0089704002083A464F6A6852285EF20D2
:10096000602F63460506930500002285EF20802E48
:1009700063520506B71700409387C70A98439166EC
:10098000558F98C3B70700803D8C930500002285E2
:10099000EF20E0226359A0049705002083A585F28B
:1009A0002285EF20A0349705002083A565F1EF1084
:1009B0007072EF20F01F2244B2409244931505015B
:1009C00085460146C181054541016F10200E2684F0
:1009D00055B72684B71700409387870A98439166D6
:1009E000558F98C35DB78146014681450545EF1097
:1009F000E00BB71700409387C70A9843B2402244E0
:100A00008566558F98C3924441018280411126C268
:100A10009704002083A4C4EAA68522C406C62A84BB
:100A2000EF20E0196342A0089704002083A404E9A2
:100A3000A6852285EF200022634605069305000067
:100A40002285EF20202163520506B71700409387C7
:100A5000C70A9843A166558F98C3B70700803D8C9D
:100A6000930500002285EF2080156359A0049705A7
:100A7000002083A525E52285EF204027970500204B
:100A800083A505E4EF101065EF2090122244B240D8
:100A900092449315050185460146C18109454101EE
:100AA0006F10C000268455B72684B717004093877F
:100AB000870A9843A166558F98C35DB78146014662
:100AC00081450945EF00907EB71700409387C70A1C
:100AD0009843B24022448966558F98C3924441019D
:100AE000828041118D453D6506C622C4EF009057B6
:100AF000371400401307C40A1C438D668545D58F03
:100B00001CC313051004EF00D05F854513050003D7
:100B1000EF005055894513050004EF00D06F89455B
:100B20004145EF00F067B7E700E03707040023A076
:100B3000E7103707020023A0E7103D65B7570040D4
:100B40001147A381E700130505A6EF00B0748146A5
:100B5000014681450545EF00707581460146814596
:100B60000945EF00B0749307840A98439166B24038
:100B7000558F98C398432244A166558F98C341016D
:100B8000828075711305800406C7E2D4EAD022C5BD
:100B900026C34AC1CEDED2DCD6DADAD8DED6E6D239
:100BA000EECE97F0FF1FE780605B3D65130505A65D
:100BB000EF0010793727004083472700014D93E766
:100BC00017002301F700B7E700E0416723A0E71013
:100BD000EF0070313937854537054000EF0070521E
:100BE00017070020032787CE8147170C0020032C0E
:100BF000ACCD3AC209476369F77E8547014419A81D
:100C0000418B6304072491EB854513050009EF0030
:100C1000504F8147B719004021AC8D45130500099D
:100C2000EF00304E83A7890C93E7070923A4F90C42
:100C3000EF00302725E8173600001306669081453F
:100C40000145EF00103F12459705002083A5C5C957
:100C5000EF20C009EF20C06FA947B366F502124527
:100C600036C4EF20E06EA2462A86973500009385B1
:100C7000258E0818EF00106E101885450145EF000D
:100C8000503B173600001306A68D89450145EF003D
:100C9000503A173600001306A68D8D450145EF002A
:100CA00050399DB76285EF20A06A8547AA846311F9
:100CB000F406173600001306A68C81450145EF00A7
:100CC00050379705002083A5A5BF6285EF2000025D
:100CD000EF20006893064006B366D5022686973556
:100CE00000009385258B0818EF00D0661018854505
:100CF0000145EF001034173600001306A68A894517
:100D00000145EF001033173600001306E68A71B76D
:100D1000173600001306468B81450145EF00703100
:100D20001245EF20E0622A86973500009385058BF7
:100D30000818EF003062101885450145EF00702F4C
:100D40009705002083A5C5B76285EF10307AEF20A4
:100D5000206093064006B366D502268697350000CC
:100D6000938505880818EF00F05E10188545130577
:100D70000005EF00102C173600001306268731BF40
:100D8000528BF5A01DC06314940F89C86285970526
:100D9000002083A565B4EF20E0222A8C63060A14A4
:100DA00097070020938707B51DAAF1C09707002079
:100DB0009387C7B38C431245EF20C02097070020CC
:100DC000938747B18C432AC2EF10D0686351050A5C
:100DD00097070020938707B09C433EC249A8970716
:100DE0000020938767AF8C436285EF20A01D2A8C7B
:100DF000DDA0B3674B0193F7F70F638F07109307DD
:100E0000F018638D040E63FC270179141334140069
:100E10001305200397F0FF1FE780A05E09A86DE48B
:100E20001305200397F0FF1FE780A05D0544854769
:100E30001387490C1043B7054000144318436D8EC7
:100E400009C693F60608E39D06DA854513050009F1
:100E5000EF00302B014A014B81440149938A490C30
:100E6000B70B4000854C130DF018930D800C83A731
:100E70000A00B3F7770191E3854483A70A0093F74B
:100E8000070891E3054B83A70A00C18B91E3054A4C
:100E900083A70A00B3F7770191CB83A70A0093F7E2
:100EA000070889C783A70A00C18BA1F7294529092B
:100EB00097F0FF1FE780E054E37B2DFBB377B90386
:100EC000DDF7E3010BECE31D0AEAE30004EE8547DE
:100ED000E31FF4F889F497070020938767A18C43F8
:100EE0006285EF20200E2A8C930500006285EF10AA
:100EF0007056E35E05F6130C000095BF63EC2709FE
:100F000001D885476308F4061305200397F0FF1FF7
:100F1000E780204F094421BF9307F01863EC2707AF
:100F200005ECE38704EE12459705002083A5059C98
:100F3000EF10C0639704002083A48499A6852AC279
:100F4000EF10F047E356A0EC1305200397F0FF1FC6
:100F5000E780204B26C2E1BD8547631BF402E3898D
:100F600004EA9705002083A525976285EF100060AD
:100F70002A8C79BD63090B00E31C0AE89705002061
:100F800083A50597DDB79705002083A5A596F1BF3A
:100F9000138424001305200397F0FF1FE7806046A9
:100FA0008D47631BF4548D4513050009EF00701540
:100FB000B71700409387870C98430149814A13670C
:100FC000070998C3EF00E06D1726000013060663BB
:100FD00081450145EF00F00523AA018623A801867B
:100FE0009705002083A54591628523A60186EF1011
:100FF000F04FEF20E0352A8A12459705002083A59F
:10100000258E814BEF10904EEF2080349307000027
:10101000130700003ECC3ECA2AD681473AC63AC4DE
:1010200002D4014D970C002083ACCC8B1387C18672
:10103000832D0700A5463386FD4063D6C61483A9D9
:10104000418793D7F94183A40187B3C9370132554A
:10105000B389F94093D7F441BD8C9D8CEF20603A61
:101060002AD06E85EF20E039825517040020130442
:10107000A486EF1030060C402AC8EF105034635499
:10108000A0001C403EC8C2452E85EF1030462ACE37
:101090005285EF200037F2452AD24245EF10104525
:1010A0009705002083A58585EF1050442A8472455A
:1010B0009705002083A5C584EF105043AA8522859B
:1010C000EF10C04A9255EF107042EF2060282A8B33
:1010D0006353AA00528B72459705002083A5858231
:1010E000EF10D0402A8442459705002083A5C58192
:1010F000EF10D03FAA852285EF10404782552A8401
:101100001255EF10207DAA852285EF10303E97F50D
:10111000FF1F83A5A57FEF10703D97F7FF1F9387F3
:10112000277A8C432AC8EF1090296341A0064245D4
:1011300093050000EF10103293070000634D050483
:10114000638D0B046355392717F4FF1F032484793B
:1011500063870A26A25763D5972817FBFF1F032B27
:101160006B782285EFF02FFD5A854D3089476396C5
:10117000FB0063947A019147B5BC5ACC22CAEE8732
:1011800026D44E8965B5832D070075B597F7FF1FE7
:10119000938707739C433EC865B763CA4911630CC4
:1011A0000D206684854BE3970AFA63DF44213305FB
:1011B0009B40EF200025AA852A893245EF10003B8D
:1011C00097F7FF1F9387C7718C432AC6EF10301F14
:1011D000634FA01E324597FAFF1F83AA2A70D68557
:1011E000EF105027634C051E4245CA85EF100038AA
:1011F0002A89324597F5FF1F83A58571EF10102FBF
:10120000AA854A85EF1080362A8933859940EF20D8
:10121000401F97F5FF1F83A5E56FEF10302DAA85BE
:101220004A85EF10A034930500002A89EF10902220
:101230006347052C930500004A85EF105018635E44
:10124000A00097F7FF1F9387276A8C434A85EF100A
:1012500070206354050063474B2B97FAFF1F938A56
:101260002A6683A50A004A85EF1070156354A00012
:1012700003A90A00624597F5FF1F83A5E569814A26
:10128000EF10C02ECA852A8BEF10D01CE34B05EC63
:10129000624597F5FF1F83A52568EF10B052CA85F8
:1012A0002A8BEF10D011E34EA0EA4A8B5DBD3305C7
:1012B0003B41EF200015AA852A842245EF10002B20
:1012C00017F9FF1F0329C961CA852AC4EF10300F1F
:1012D000634DA00C224517F9FF1F03292960CA8519
:1012E000EF1050176343050C4245A285EF1000280C
:1012F0002A84224597F5FF1F83A58561EF10101FF3
:10130000AA852285EF1080262A8433853441EF2078
:10131000400F97F5FF1F83A5E55FEF10301DAA85ED
:101320002285EF10A024930500002A89EF10901267
:101330006341051E930500004A85EF105008635E67
:10134000A00017F4FF1F0324245AA2854A85EF103A
:1013500070106354050063414B1D17F4FF1F130405
:1013600024560C404A85EF1090056354A0000329D1
:101370000400524597F5FF1F83A5055AEF10001F83
:10138000CA852A84EF10100DE34405DC524597F519
:10139000FF1F83A56558EF10F042CA852A84EF101D
:1013A0001002E347A0DA4A8465B34AC435BF130488
:1013B0000000894B71BB6E8D6684854B51BBE3C8C1
:1013C00044DF63130D006E8D668B854A59BB97F71A
:1013D000FF1F9387E7509C433EC639B556C629B5D3
:1013E000130B0000894AB5BBE38607800549371413
:1013F0000040B704400013050000EFF0CFD3130501
:101400000000EFF0AFE0630809088D4513050009FF
:10141000EF00204FB71700409387870C984313675E
:10142000070998C3BD2C172600001306E61D814549
:10143000014501216A86972500009385A51D08189E
:1014400003A9418783A90187EF00C0701018854563
:101450000145C5264E9909453345A902EF10707A1A
:1014600097F5FF1F83A5854BEF10C046EF10506E18
:101470002A86972500009385E51A0818EF00806DED
:101480001018894501457526172600001306461ACF
:101490008D450145792E8545130500099D2193074A
:1014A000440C944398439C43E58E0149E39506F42C
:1014B0001377070801C7C18BE39F07F23714004079
:1014C000B704400031A0294597F0FF1FE78060F383
:1014D0009307440C9843658F7DD79843137707088B
:1014E0007DD39C43C18BE5D31305200397F0FF1FE9
:1014F000E78020F16FF06FF085476FF0AFF11309CF
:1015000000008DBB97F7FF1F9387073E03A90700D5
:1015100095B313090000B1BD2289A1BD4111A947AE
:10152000A307F1000347F1009307F7FF93F7F70FC5
:10153000A307F10065FB41018280411122C43714E9
:1015400000409307840C984306C61304C40C136729
:10155000070198C398431367070898C3C1371C4015
:1015600093E707011CC05D3F1C40B24093E70708AA
:101570001CC0224441018280411122C43714004022
:101580001307C40C1C4306C61304840C93E707011D
:101590001CC31C4093E707081CC049371C40B240DD
:1015A00093E707011CC0224441018DBF011122CCE9
:1015B0004AC852C406CE26CA4EC62A842149371AC2
:1015C000004093178401E18713078A0C63C4070066
:1015D0001307CA0C1C4393048A0C7D1993E7070177
:1015E0001CC32D3F9C4006041379F90F93E70708AD
:1015F0009CC02D378327CA0C1374F40F93E7070898
:101600002326FA0CE31F09FA9C4093E707019CC0CC
:1016100031379C4093E707089CC009378327CA0CE1
:10162000F240624493E707082326FA0CD244424969
:10163000B249224A05618280411106C622C42A8429
:10164000ED3D130580079D3701458D372285B93F54
:101650002244B24041010DB7411106C622C42A847A
:10166000E93D13058007993713050004813722856A
:10167000353F2244B240410101B7130505FB41113A
:101680001375F50F06C622C42E847D371375F4003A
:101690006537135544002244B240136505014101EA
:1016A00061BF411122C44AC006C626C21304000B02
:1016B0001309400B228549370145BD3F4145AD3FE8
:1016C00093040008FD14014593F4F40F7137FDF8FD
:1016D00005041374F40FE31F24FDB2402244924426
:1016E00002494101828041118D451305000906C65A
:1016F000092CB71700409387870C98431305E00A1D
:101700001367070998C30D3F1305000235370145DC
:1017100025371305800C0D370145393F4145293FD9
:1017200013050004113F1305100839371305F00F96
:1017300021371305100A09371305600AF53D130513
:10174000800ADD3D7D45CD3D1305300DF535014564
:10175000E5351305500DCD351305000FF13D13058B
:10176000900DD93D13052002C13D1305A00DE935AB
:101770000945D9351305B00DC135130500026D3D7E
:101780001305D008553D5145453D1305F00A6D350B
:10179000B240410139B71377F60F01119306F7F9FB
:1017A000AA8706CE2E8522CC26CA4AC84EC693F6F4
:1017B000F60FE54563E6D50001171316870161862C
:1017C0000116130780071374F60F6376F7000505FB
:1017D0001375F50F8147BE854D359307100463F0EF
:1017E000870219447D1401451374F40FB5357DF853
:1017F000F2406244D2444249B24905618280954731
:101800003304F402814497290000938969E3154960
:10181000B3878400CE9703C507008504353DE3995F
:1018200024FF6244F240D2444249B2490145056175
:1018300025B5411122C426C24AC006C62A842E8973
:10184000B2840386040019E6B2402244924402495D
:10185000410182802285CA851904353F1374F40F33
:101860008504C5B7914763EAB708972700009387B7
:10187000A7EF8A05BE9598413E97B717004093871A
:10188000470B028794431345F5FF37170040E98E55
:1018900094C39306070B9C42E98F9CC29307070AE7
:1018A0009843798D88C3828090439346F5FF37171C
:1018B0000040758E90C31306070B1C42C98F1CC2D3
:1018C0009307070A9843F98E94C38280944337178D
:1018D0000040C98E94C39306070B9C421345F5FF45
:1018E00065BF94431347F5FF758F98C3B717004042
:1018F0009387070A9843498F98C382809843498FFA
:10190000EDB7914763EAB70897270000938707E789
:101910008A05BE9598413E97B71700409387470DBB
:10192000028794431345F5FF37170040E98E94C3AF
:101930009306070D9C42E98F9CC29307070C9843BE
:10194000798D88C3828090439346F5FF3717004016
:10195000758E90C31306070D1C42C98F1CC29307D6
:10196000070C9843F98E94C3828094433717004044
:10197000C98E94C39306070D9C421345F5FF65BFBE
:1019800094431347F5FF758F98C3B71700409387AB
:10199000070C9843498F98C382809843498FEDB7CD
:1019A0001317050189474183638BF50463E2B7028E
:1019B0001346F7FF9DE9B717004083D64709F18E1C
:1019C000239AD7089387C70A9443C98E94C321A04A
:1019D0008D47638CF502B7170040239EE70883D636
:1019E0000709558F2398E7088280B717004083D6F0
:1019F0004709F18E239AD7089387870AF1B7B7175B
:101A0000004083D64709D98E65BFB717004083D6FB
:101A10004709D98EC5B79357E50093F70730C98FAB
:101A2000C2070947C183638BE5046362B70213C62B
:101A3000F7FF9DE93717004083566709F18E231B96
:101A4000D7081307C70C1443C98E14C321A00D4730
:101A5000638CE50237170040231FF70883562709D8
:101A6000D58F2319F70882803717004083566709FE
:101A7000F18E231BD7081307870CF1B737170040E7
:101A800083566709DD8E65BF3717004083566709A7
:101A9000DD8EC5B7375700408347270093F7070F00
:101AA00093E7C7002301F70048CB828037570040F7
:101AB00089EA834707001345F5FF7D8D2300A700C2
:101AC0008280834717001DC6C98FA300F700B75750
:101AD00000409107014719488D48B356E540858A73
:101AE0001306170091CE63EBE8002390B70032870E
:101AF0008907E5B79346F5FFF58FC1BF2392B7007D
:101B00003287E31706FF3757004083470700C98F26
:101B10002300F700828017F7FF1F1307A7D9AA87B2
:101B2000084393868188AA9763EAD70097560020D6
:101B3000938646AD63E4F6001CC382807D558280A7
:101B4000B7270040C8C709472380E7001147238013
:101B5000E700828035713ECBB7070080FD173ECE8F
:101B60003EC8C17732C536C72AC42ACC938787209E
:101B700034012E8617F5FF1F032505D42C0086DEC1
:101B80003ECA3AC942CD46CF36C20926A247238073
:101B90000700F6500D61828082808280C5C183A7D4
:101BA000C5FF011122CC06CE1384C5FF63D3070005
:101BB0003E942AC6EF009011138701881C433245DA
:101BC00089EB2322040000C36244F24005616F00E8
:101BD0007010637DF4001040B306C4006396D70014
:101BE0009443DC43B29614C05CC0F1BF3E87DC4333
:101BF00099C3E37DF4FE14433306D700631F8600C8
:101C00001040B29614C33306D700E39FC7FA90433F
:101C1000DC43B29614C35CC345BF6375C400B147CF
:101C20001CC15DB71040B306C4006396D70094434F
:101C3000DC43B29614C05CC040C379B782804111C6
:101C40004AC01389C1878327090022C426C206C659
:101C5000AA842E8491E78145EF0030032320A90058
:101C6000A2852685EF0070027D59631A25017D54F7
:101C7000B2402285224492440249410182801304E9
:101C800035007198E30685FEB305A4402685EF0074
:101C9000C07FE31F25FDE1BF011126CA93843500F3
:101CA000F1984AC806CE22CC4EC6A104B1472A8973
:101CB00063F5F406B14463E4B4064A85EF0010010D
:101CC0009389018883A709003E842DE4A6854A856F
:101CD000BD37FD572A846316F50C03A40900A287BB
:101CE000C5EB8329040081454A85A299EF00E0797C
:101CF0006393A90A1C408D049D8CF198A104B147FF
:101D000063F3F400B144A6854A85153FFD5763048B
:101D1000F5081C40A6971CC03DA8E3DE04F8B147B7
:101D20002320F9000145F2406244D2444249B249BD
:101D3000056182801440858E63C906042D47637E49
:101D4000D70204C0330794006397870223A0E900F9
:101D50005C4014C35CC34A85EF00C0771305B40030
:101D60009307440061993307F540E30EF5FA3A947E
:101D7000898F1CC04DBFD8C3E1BF58406395870011
:101D800023A0E900C9BFD8C3F9B7A287404035BF37
:101D90003E84DC43B1B7B1472320F9004A851D2FAB
:101DA00051B704C14DBF01114AC803A9850022CC17
:101DB0004EC656C25AC006CE26CA52C483AA0500D1
:101DC0002E84328BB68963E826078397C50013F704
:101DD000074825C358488D448C49B384E402094719
:101DE000B38ABA402A8AB3C4E4021387160056970E
:101DF00063F3E400BA8493F70740B5C7A68552851C
:101E0000613D2A892DC90C485686EFE01FAF8357E4
:101E1000C40093F7F7B793E707082316F4002328C5
:101E2000240144C85699B38454412320240104C496
:101E30004E8963F329014E8908404A86DA85EFE02E
:101E40003FAD1C440145B38727411CC41C40CA97C1
:101E50001CC0F2406244D2444249B249224A924AEA
:101E6000024B05618280268652858D2D2A8945F98F
:101E70000C4852852533B1472320FA008357C4000C
:101E80007D5593E707042316F400E1B783D7C50017
:101E9000357122CD26CB4AC952C506CF4EC756C38F
:101EA0005AC1DEDEE2DCE6DA93F707082A8A2E89D9
:101EB000B2843684A1C39C4995EF93050004E93BA5
:101EC0002320A9002328A90015E1B1472320FA0007
:101ED0007D55FA406A44DA444A49BA492A4A9A4A3C
:101EE0000A4BF65B665CD65C0D618280930700044A
:101EF000232AF90093070002A304F10293070003C9
:101F000002D22305F10222C6930B5002972A000049
:101F1000938A0A8E054C294B26848347040099C373
:101F2000639B7709B30C9440630D9400E686268684
:101F3000CA8552858D3DFD57630EF5189257E69779
:101F40003ED28347040063870718FD5793041400AB
:101F500002C802CE3ECA02CCA309010482D483C5C2
:101F6000040015465685B123C2471384140031E599
:101F700013F7070109C713070002A309E10413F7C8
:101F8000870009C71307B002A309E10483C6040050
:101F90001307A002638BE602F2472684814625469A
:101FA0000347040093051400130707FD6375E60655
:101FB0008DC63ECE1DA005048DB7330555413315A2
:101FC000AC00C98F3EC8A28459BF32479306470070
:101FD000184336C6634A07023ACE03470400930704
:101FE000E002631EF704034714009307A002631A7C
:101FF000F702B2470904138747009C433AC663D3EC
:102000000700FD573ECA25A83307E04093E72700A5
:102010003ACE3EC8D9B7B38767032E848546BA97B0
:1020200041B7050402CA814681472546034704009B
:1020300093051400130707FD6374E606E1F6834574
:1020400004000D46171500001305057B9D2111CDD9
:10205000971700009387477A1D8DC2471307000426
:102060003317A700D98F05043EC8834504001946DD
:102070001715000013058578930414002304B1029A
:102080000D292DC19307000095E74247B24713770A
:10209000071009CF91073EC69257CE973ED2ADBDED
:1020A000B38767032E848546BA9749B79D07E19B9E
:1020B000A107D5B7780097060000938606CF4A8619
:1020C0000C08528597000000E7000000FD57AA8920
:1020D000E314F5FC8357C90093F70704E39A07DE7E
:1020E0001255C5BB780097060000938606CC4A8639
:1020F0000C085285112AD9BF797156CA9C49BA8AEF
:10210000984522D44AD04ECE52CC06D626D25AC8B2
:102110005EC6AA892E843289368A63D3E700BA87DD
:102120002320F9000347340401C785072320F90061
:102130001C4093F7070291C78327090089072320D2
:10214000F9000440998891E8130B9401FD5B5C440D
:1021500003270900998F63CCF40483473404B33612
:10216000F0001C4093F70702A5EB13063404D28558
:102170004E85829AFD576303F5041C401147814444
:10218000998B6399E7004444832709009D8C63D3AE
:10219000040081441C4418486354F700998FBE948E
:1021A000014969047D5B63982405014509A88546BA
:1021B0005A86D2854E85829A631E75017D55B2502E
:1021C000225492540259F249624AD24A424BB24BCB
:1021D000456182808504A5BF3307D4001306000340
:1021E000A301C7040347540493871600A2978906E6
:1021F000A381E7049DBF85462286D2854E85829ABB
:10220000E30E65FB050945B7797122D44AD04ECE5D
:1022100052CC06D626D256CA5AC803C8850193079F
:1022200080072A892E84B289368A63E207039307DE
:1022300020069386350463E107036300081E9307B5
:102240008005171600001306E65B630AF814930472
:1022500024042301040515A89307D8F993F7F70F71
:102260005546E366F6FE171600001306265C8A073D
:10227000B2979C43B29782871C439384250493862C
:1022800047009C4314C32381F504854745AA904128
:102290001C43137506089385470039C19C430CC342
:1022A000584063D207149305D002A301B40418C4A4
:1022B00063500704B307F040171600001306865456
:1022C0002948B68433F70703FD1432970347070004
:1022D0002380E4003E87B3D70703E37507FF8DA093
:1022E0009C43137506040CC345DDC207C1874DBF6F
:1022F0006D9A10C0C1B790411C43137506089385B1
:10230000470001C50CC39C4339A0137606040CC3D7
:102310007DDA83D707001307F006171600001306AF
:10232000664E6310E80C2148A3010404584018C409
:10233000E34907F80C40ED990CC0C1F7B68451F39E
:10234000A147631EF8001C40858B91CB58401C4868
:1023500063C7E70093070003A38FF4FEFD14858E87
:1023600014C85287CE867000A2854A857133FD5A03
:10237000631A550D7D55B250225492540259F249B8
:10238000624AD24A424B456182809C4193E70702F0
:102390009CC113088007171600001306E647A30226
:1023A00004050C401C4313F805081385470063051A
:1023B000080008C39C4301A813F8050408C3E30BF5
:1023C00008FE83D7070013F7150001C793E5050240
:1023D0000CC099C3414889BF18401377F7FD18C056
:1023E000D5BF294891B7171600001306A641294802
:1023F00035BF90411C43CC4913780608138547002C
:102400006306080008C39C438CC301A808C3137665
:1024100006049C4375DA2390B70023280400B68491
:1024200089B71C43D04181459386470014C3844338
:102430002685412019C1058D48C05C401CC8A301F8
:10244000040405B714482686CE854A85029AE3031C
:1024500055F31C40898B8DE7B2474844E35DF5F0A6
:102460003E8511BF85465686CE854A85029AE3038E
:1024700065F185045C443247998FE3C5F4FEE9BFFA
:102480008144930A94017D5BF5B7411122C42A84EB
:102490002E8523A2018806C6EFF0EFE7FD576316ED
:1024A000F50083A7418891C31CC0B240224441017A
:1024B000828093F5F50F2A966314C500014582804A
:1024C00083470500E38DB7FE0505FDB713858187BA
:1024D0006FF08FEC138581876FF02FEC011122CC08
:1024E00006CE26CA4AC84EC652C4328499E962440E
:1024F000F240D2444249B249224AB28505616FF0A6
:10250000AFF909EEEFF08FE98144F24062444249AD
:10251000B249224A2685D244056182802A8AAE8445
:1025200025282A896366850093571500E3EF87FC09
:10253000A2855285EFF04FF6AA8979D5228663737A
:1025400089004A86A6854E85EFE02FBBA685528579
:10255000EFF0CFE4CE8455BF83A7C5FF1385C7FF37
:1025600063D50700AA959C413E958280370780007D
:1025700041117D179356750113D67501B377A700E6
:1025800026C26D8F4AC01376F60F13F9F60F06C6F2
:1025900022C49354F501FD818E070E07B306C9408E
:1025A0006381B404635FD00031EE630107121386C8
:1025B000F6FF630E062A9305F00F638BB616B286FC
:1025C00089A8F1C2B3062641631C091CF5CF138507
:1025D000F6FF6309052C1308F00F63890615AA8618
:1025E000F9A226886358D01469C61306F00F630158
:1025F000C91437060004518F6D466359D61E8507EE
:10260000CA8689A01306F00F6304C91237060004B6
:10261000518FED45054663CDD50013060002158E9A
:102620003316C700B356D7003337C00033E6E60091
:10263000918F37070004B3F6E700CDEA13F7770070
:10264000CA8649C713F7F70011466303C70091070D
:10265000370700047D8F3DCB138516001307F00F5D
:1026600026886301E508139767001375F50F258326
:10267000B24022445E05598D9317F80192440249F5
:102680005D8D41018280130619001376E60F6314F5
:102690000614631A09086383072075CB3385E74066
:1026A00037060004698E63030622B307F740AE8441
:1026B000BDA009CF1386F6FF6303061A9305F00F3A
:1026C0006388B606B2860DBFAE84BA871307F00FD3
:1026D0008D836390E60CC1CF01481305F00F3707D7
:1026E000400079B71305F00F014759B77D1733F450
:1026F000E7002285EF00B05D6D153314A40063413F
:102700002507B3062541850693070002958FB31769
:10271000F400B337F0003354D400C18F814613F76F
:1027200077000DF335B7639907145DD7AE84BA8788
:102730008D8355B7B1C2B30626416319090ED1D7AF
:102740009385F6FF638D05101305F00FE381A6FE58
:10275000AE86ED4563D6D51293071700B286DDB578
:10276000B70700FCFD17B306A940E18F4DBF2688CF
:102770001305F00F0147EDBD9306190013F6E60FA0
:1027800055EE6319090E63840712631407128D83D3
:102790008146A60713D7970013F5F60F2688C9BD03
:1027A0001305F00FE304A6F837050004C98F6D4840
:1027B0000545634DD80013050002158D3395A7001C
:1027C000B3D6D700B337A00033E5F600B307A74070
:1027D0003289AE84B9BD3384E740B7060004E18E88
:1027E000BDEA01F801480145014759B51306000249
:1027F000158E3316C7003357D700B336C000558F38
:10280000BA97370700047D8FE30A07E293061900A1
:102810001305F00F0147E38DA6E43706007E13D7BA
:1028200017007D16858B718FD98FD5BD9305F00F5D
:10283000E30FB6EEB7050004CD8F21BF1306F00FEE
:10284000E382C6EA3E979357170013F67700E31B1F
:1028500006DE8D833DBF3304F740AE8459BDBA9781
:10286000370700047D8F8946054945FBC1BB998F19
:102870000549C1B3E38D07EAE31007E68D83A1BDE7
:1028800093050002958DB395B700B3D6D700B33743
:10289000B000DD8EB387E6003289A5B721D7AE84BC
:1028A000BA87F5B5B307F740AE84054959B3BA877F
:1028B000F9BDBA97370600047D8E814659DA37078D
:1028C00000FC7D17F98F85468D83E1B5AA8719D95C
:1028D0008D83C1B57971935775014AD04ECE06D616
:1028E0009319950022D426D252CC56CA5AC893F7CF
:1028F000F70F93D999001359F501F1CF1307F00F92
:102900006381E70E8E0937070004B3E9E900938A73
:1029100017F80144014B93D77501139A950093F76B
:10292000F70F135A9A0093D4F501C1C71307F00F9C
:102930006380E70C0E0A37070004336AEA009387C6
:1029400017F80146BD4633479900B38AFA4063EB56
:10295000861A971600009386E6F20A0436941C4005
:10296000B69782879307F00F8146B2502254139591
:102970007701558D7E0792540259F249624AD24A34
:10298000424B598D456182808D47630EFB00854720
:102990006315FB0E2A8781478146C1BF8D47268577
:1029A000D289631CF60C01479307F00FB70640006D
:1029B0006DBF631D0A0813641400B54733479900BF
:1029C000E3E287FA971600009386C6EF0A0436946E
:1029D0001C40B6978287639B09041144814A054BCA
:1029E0001DBF639009042144930AF00F094B25B7DA
:1029F00063130A02136424007514AD46334799002B
:102A0000E3EB86F817160000130646EF0A0432942B
:102A10001440B2968286136434009307F00F0D467B
:102A200015B73144930AF00F0D4BF5B54E852EC600
:102A3000EF00F0299307B5FFB399F9009307A0F8C9
:102A4000B245B38AA7400144014BF1B55285EF006E
:102A500010289307B5FF331AFA009307A0F8898F5F
:102A60000146CDB5938A1AF089474A85E31EFBF0EB
:102A70002A879307F00F8146CDBD2A879387FA07EF
:102A80006351F00493F6790099C693F6F900114664
:102A90006383C6009109B7060008B3F6D90081CA5E
:102AA000B70700F8FD17B3F9F90093870A089306F2
:102AB000E00FE3C9F6EA93966900A58293F7F70F52
:102AC0006DB5054699C71D8EED4581478146E3CE1C
:102AD000C5E89386EA09B396D900B336D000B3D7D8
:102AE000C900D58F93F6770099C693F6F700114683
:102AF0006383C6009107B7060004FD8ED5CA8547DB
:102B00008146A5B5C16613185A00FD1693550801F4
:102B1000B376D80063F8490733D6B902CE87FD1AD9
:102B200081493305D602B3F7B702C207B3E73701CD
:102B300063F8A700C2979308F6FF63F60707468677
:102B4000898F33D5B702B3F7B702B306D502C207F0
:102B500063F2D702B3850701B3B8F5001303F5FF9D
:102B6000AE876398080063F6D5007915B387050131
:102B700011A01A854206958F498EB337F000B369CC
:102B8000F600EDBD93D7190033D6B702FE0993D9ED
:102B900009013305D60241BF26852A87EDBB0147CF
:102BA000B7064000D9B3E3FCA7F87916C29749BF2E
:102BB0009A0793D6970081474DBB268555BD13567E
:102BC0007501370780007D1793D675011376F60FD0
:102BD0001308F00FB378A7009357F5016D8F13F525
:102BE000F60FFD8163050603630A050105EA09E99D
:102BF00039C3639E0804A1C92E85828039E719E292
:102C0000E38B08FE6399B7009DCF3E858280639E6B
:102C100008026305C50205459DE782806DDDE39CE2
:102C2000B7FEE34AC5FEE341A6FEE36617FF014592
:102C3000E3ECE8FC8280E39008FE828019E7E39CE5
:102C4000B7FC014582807D55828079558280E38E74
:102C5000B7FCD1B713567501370780007D1793D69F
:102C600075011376F60F1308F00FB378A70093578A
:102C7000F5016D8F13F5F60FFD8163060603630AF8
:102C8000050105EE11E929CB639F0804B9C92E851A
:102C90008280094501EB19E2E38A08FE638BB702E3
:102CA0000545A1E38280639C0802E31BC5FE09453C
:102CB00075FBE397B7FE014582807DD1E392B7FEB5
:102CC000E340C5FE6347A600E36C17FD0145E3FB47
:102CD000E8FC81CB3E858280E39408FC8280094534
:102CE00082807D558280E381B7FE5DBF7971935705
:102CF000750152CC56CA1317950006D622D426D297
:102D00004AD04ECE5AC893F7F70F935A9700135AEA
:102D1000F501638B07101307F00F638DE71013970E
:102D20003A00B7060004B36AD700938417F8014944
:102D3000014B93D775011394950093F7F70F2580F6
:102D400093D9F501F9C71307F00F6382E70693875C
:102D500017F8338597000E0437070004A947598CEC
:102D600081469304150063CF270FB3453A01094705
:102D70002E88634C27057D190546636C26136382F4
:102D8000E60C8547C2856394F60681470147B25039
:102D9000225413957701598D9397F5019254025956
:102DA000F249624AD24A424B5D8D45618280138569
:102DB000F40F49CCB3453A011369390029472E88ED
:102DC000938404106347271F8D4605473317270157
:102DD0001376075319CE89476305FB068D476304B5
:102DE000FB02DA8685475684C285E380F6FA26859B
:102DF00035A29377072481EB137787085DCB4E8844
:102E0000A28A368BC9BF81459307F00F3707400070
:102E1000BDBF3DEC268513691900A947854693047B
:102E20001500E3D427F53DA863950A0411498144B0
:102E3000054B01B7639A0A0221499304F00F094B2D
:102E4000CDBDC2859307F00F014791B713692900E3
:102E5000A9479384041039478946E3D827F1AD4741
:102E6000E30FF7F8528885BF31499304F00F0D4BFB
:102E7000C9B556852EC6A12D9307B5FFB39AFA00A2
:102E80009307A0F8B245B384A7400149014B55B55B
:102E90002285352DB387A4401307B5FF1385A7F806
:102EA000A9473314E400814693041500E3DF27EBC0
:102EB00055BFC1689387F8FF13D60A011358040160
:102EC000B3FAFA00E18FB3865703B307F60213D7BC
:102ED0000601B30A5803BE9A569733060603637376
:102EE000F700469641687D18B3770701B3F60601EF
:102EF000C207B6979396670013540701E9833337E7
:102F0000D0003294D98F1A045D8CB7070008E18F86
:102F100091C79357140005885D8C26859307F507A4
:102F2000635FF0021377740019C71377F4009146BA
:102F30006303D700110437070008618F19C7B7076B
:102F400000F8FD177D8C930705081307E00F634910
:102F5000F70413176400258393F7F70F0DBD85461B
:102F600099C79D8E6D4681470147E342D6E213071C
:102F7000E5093317E4003337E000B357D400D98FA5
:102F800013F7770019C713F7F70091466303D700CB
:102F90009107370700047D8F01CB85470147C5BBEB
:102FA0009307F00F0147E5B39A0713D797008147BE
:102FB000F9BBBD46814537074000E30AD9DC2D4700
:102FC0008D4671BDB70780004111FD1713D67501FD
:102FD00033F7A70093567501ED8F26C24AC093546C
:102FE000F50106C622C41376F60F1305F00F13F988
:102FF000F60F26880E07FD81939637006303A6041B
:1030000093C51500B307C940638FB400635AF0300D
:1030100035E2638F06141386F7FF6302062A638F77
:10302000A702B287A9A86359F0307DCA6308A90234
:1030300037060004D18E6D466352F6140507CA8721
:103040008DA8930719F0D5E693C515006383B40ED8
:10305000638D071863090910AE8436870D8313F852
:1030600014001305F00F3DCB01481305F00F37078F
:103070004000ADA0E304A9FE37060004D18EED4563
:10308000054663CDF500130600021D8E3396C6007B
:10309000B3D6F600B337C00033E6F600118FB7079A
:1030A0000004B376F7006394061093767700CA871E
:1030B000E1C29376F70011466383C6001107B70695
:1030C0000004F98ED5C685079306F00F13F8140097
:1030D000638BD70C1A0713F5F70F2583B2402244F0
:1030E0005E05598D9317F801924402495D8D4101A7
:1030F0008280E39FB4F4B9C36311091C9307F00FF6
:103100003DC79385F7FF638905121305F00F6386AA
:10311000A71AED4763DBB71A13871600B28751BFB2
:10312000A1CA1386F7FF63090610E389A7F2B287E5
:1031300019B789C7E30409FC01470DB793071900C4
:1031400013F6E70F63150614631809166306071ACA
:103150006396061A0D8381472607258313F5F70F1B
:1031600013F81400A5BF9307F00F65EBAE84368704
:103170009306F00F0D83E384D7EEF9BF1306000228
:103180001D8E3396C6003336C000B3D6F600D18EFE
:103190003697B7070004F98F89DB93071900930668
:1031A000F00F6393D70A1305F00F014705BFFD1712
:1031B0003374F7002285212E9307B5FF3314F400F2
:1031C00063CA2705B38727418507130700021D8FB0
:1031D0003317E4003337E0003354F400418F814764
:1031E00093767700E39706ECD9BD9307190093F720
:1031F000E70F85EB631A090A65CFA9DEB307D7404D
:10320000370600047D8E630806103387E640814749
:10321000AE84F9B7370700FC7D17B307F940618F1B
:10322000C1B73304D740B7070004E18FD1E359F0A9
:103230000148014501475DB53697B7060004F98E90
:1032400089470549E38306E63706007E9356170053
:103250007D16058BF18E558F61B71385F7FF41C53C
:103260001308F00FAE84638A0705ED45854763CCEC
:10327000A50093070002898FB317F7003355A70005
:10328000B337F000C98F3387F640328909BD130682
:10329000F00FE38AC7F0BA9613D7160013767700BB
:1032A000E31906E00D834DBD11EFE38F06DA6DB330
:1032B0003384E640AE84FDBD11E7368745B3158FF4
:1032C0000549F1BBE38C06D845B3930700028D8F07
:1032D000B317F700B355B700B337F000DD8D338770
:1032E000D50032897DB53387E640AE84054945BBBC
:1032F000A1D2AE843687B9BD3687A9BD36973706C9
:103300000004798E814759DEB70700FCFD177D8FD9
:103310000D83854791B589DF3E870D8381472DBD9C
:10332000E38507EC33052641AA87E30009E4B707E4
:1033300000045D8FAE8415BFE38207E0B30526412C
:1033400063140900AE876DBBB70700045D8FD1B36E
:1033500037068000135775019307F6FF1377F70FB1
:103360009305E007B3F6A7009357F50163DBE5008B
:103370009305D00963D9E500370500807D153E959A
:1033800082800145828093055009D18E63CDE5008E
:10339000130660093307E640B3D6E6003305D04094
:1033A000F5F3368582801307A7F6B396E600FDB7DE
:1033B00013577501370680009307F6FF1377F70F51
:1033C0009305E007B3F6A7009357F501014563D3D2
:1033D000E50091C382809307E0097D55E3CCE7FEC9
:1033E00093055009B3E7C60063D7E5001307A7F6B6
:1033F0003395E700828013056009198D33D5A70046
:103400008280411106C622C426C215CD1357F5414C
:103410003344A700198CAA87228593D4F701452845
:103420001307E009B307A74013076009634AF702CF
:1034300021476308E50861153317A4002607258393
:1034400013F5F70F21A0814401450147B240224402
:103450005E059397F401598D92445D8D4101828000
:10346000130790096343F70415479306B5FF6304F8
:10347000E5003314D400B70600FCFD161376740083
:103480003377D40011CE3D881146630BC400110779
:1034900037060004798E09C69307F009758F898F66
:1034A0001A07258313F5F70F55B71307B50195468E
:1034B0003317E400898E3354D4003337E000598C3D
:1034C0005DBF2604135794001305600941B7C16717
:1034D0006376F5029337051093C717008E0713071D
:1034E00000021D8F3355F5009707000093870744AE
:1034F000AA9703C507003305A7408280B7070001DC
:103500006370F502C1473355F500970700009387B4
:10351000E741AA9703C5070041473305A7408280CA
:10352000E1473355F5009707000093872740AA9796
:1035300003C5070021473305A74082802D2D2D208C
:10354000312E2054494D45202D2D2D0054696D6597
:103550003A2025642E25647300000000426F6F74CA
:103560003A202B2F2D20302E35730000342F372B8F
:10357000426F6F743A204E65787400002D2D2D2017
:10358000322E2044495354414E4345202D2D2D00C9
:10359000446973743A2025642E253032646D00002E
:1035A000426F6F743A31205042373A2E3120343A0C
:1035B0002E303100342F372B426F6F743A20507207
:1035C000696D65002D2D2D20332E205052494D451B
:1035D00044202D2D2D0000002564730025642E2528
:1035E0003032646D00000000424F4F5420746F2051
:1035F00053544152540000004556454E54205354F4
:103600004152540046494E49534845442100000068
:1036100054696D653A20256C64206D7300000000CC
:10362000446973743A202564206D6D00342F372B64
:10363000426F6F743A205265736574000000000099
:103640000000005F00000007000700147F147F14D3
:10365000242A7F2A12231308646236495522500017
:1036600005030000001C2241000041221C00140838
:103670003E081408083E08080050300000080808FA
:103680000808006060000020100804023E5149450F
:103690003E00427F400042615149462141454B3145
:1036A0001814127F1027454545393C4A49493001D5
:1036B000710905033649494936064949291E00362C
:1036C000360000005636000008142241001414147D
:1036D00014140041221408020151090632497941AB
:1036E0003E7E1111117E7F494949363E41414122BA
:1036F0007F4141221C7F494949417F090909013E17
:103700004149497A7F0808087F00417F41002040F5
:10371000413F017F081422417F404040407F020C1E
:10372000027F7F0408107F3E4141413E7F09090925
:10373000063E4151215E7F091929464649494931D2
:1037400001017F01013F4040403F1F2040201F3FBB
:103750004038403F6314081463070870080761513C
:103760004945430020E1FFFF44E1FFFF68E1FFFF1F
:103770007EE1FFFF98E1FFFFAAE1FFFFCEE1FFFF3F
:10378000F2E1FFFF08E2FFFF22E2FFFF000000007E
:103790000000000000000000000000000000000029
:1037A0000000000000000000000000000000000019
:1037B0000000000000000000000000000000000009
:1037C00000000000000000000000000000000000F9
:1037D00000000000000000000000000000000000E9
:1037E000000000000000000000000000232D302B2E
:1037F00020000000686C4C00656667454647000085
:103800003031323334353637383941424344454616
:1038100000000000303132333435363738396162D8
:10382000636465660000000050EAFFFF66EAFFFF80
:1038300026EAFFFF26EAFFFF26EAFFFF26EAFFFF50
:1038400066EAFFFF26EAFFFF26EAFFFF26EAFFFF00
:1038500026EAFFFFCAEBFFFFCEEAFFFF62EBFFFFA6
:1038600026EAFFFF26EAFFFFFAEBFFFF26EAFFFF4B
:10387000CEEAFFFF26EAFFFF26EAFFFF6AEBFFFF23
:1038800084F2FFFFE4F0FFFF16F1FFFF1CF1FFFFE2
:1038900016F1FFFF26F1FFFF16F1FFFF1CF1FFFFFE
:1038A000E4F0FFFFE4F0FFFF26F1FFFF1CF1FFFF54
:1038B000E8F1FFFFE8F1FFFFE8F1FFFF26F1FFFF6E
:1038C000A4F0FFFFA4F0FFFFD6F0FFFFD8F2FFFF48
:1038D000D6F0FFFFE6F0FFFFD6F0FFFFD8F2FFFFC4
:1038E000A4F0FFFFA4F0FFFFE6F0FFFFD8F2FFFF18
:1038F000A8F1FFFFA8F1FFFFC2F2FFFF9EF0FFFF5C
:10390000A6F2FFFF9EF0FFFFC2F2FFFF6CF0FFFF89
:103910006CF0FFFFA6F2FFFFC2F2FFFF6CF1FFFFAA
:103920006CF1FFFF6CF1FFFF0001020203030303D0
:10393000040404040404040405050505050505053F
:10394000050505050505050506060606060606061F
:103950000606060606060606060606060606060607
:1039600006060606060606060707070707070707EF
:1039700007070707070707070707070707070707D7
:1039800007070707070707070707070707070707C7
:1039900007070707070707070707070707070707B7
:1039A000070707070707070708080808080808089F
:1039B0000808080808080808080808080808080887
:1039C0000808080808080808080808080808080877
:1039D0000808080808080808080808080808080867
:1039E0000808080808080808080808080808080857
:1039F0000808080808080808080808080808080847
:103A00000808080808080808080808080808080836
:103A10000808080808080808080808080808080826
:083A200008080808080808085E
:103A280000000000CC370000AC3700008C370000E5
:103A3800000000000000000000000000000000007E
:103A4800000000000000000000000000000000006E
:103A5800000000000000000000000000000000005E
:103A6800000000000000000000000000000000004E
:103A7800000000000000000000000000000000003E
:103A880000000000380900204C0800200000C8C2CF
:103A98000000C84200606A47000080400000C04043
:103AA8000000A041000000400000803F00007AC4F0
:103AB80000007A44000070C1000020410000003F6F
:103AC800CDCCCC3D0AD7233CED9261453333F3BFCF
:103AD8009A9939406666B6C09A99B9409A99DD4173
:103AE800CDCC4C3D9A99993E00002040DAFC6640C6
:00000001FF
