:100000006F00A05700000000240600002406000036
:10001000A9BDF9F324060000000000000000000064
:10002000240600002406000000000000000000007C
:10003000240600000000000024060000000000006C
:100040002406000024060000240600002406000008
:1000500024060000A00600002406000000000000A6
:1000600024060000240600002406000024060000E8
:1000700024060000240600002406000024060000D8
:1000800024060000240600002406000024060000C8
:10009000938701C203C71700BA9703854700828080
:1000A000938701C203C71700BA9703C55700118190
:1000B000134515000589828001114EC6B7C900405D
:1000C00022CC138409105C5806CE26CAF19B93E714
:1000D00017004AC852C456C22A8A5CD83685AE8AEE
:1000E000B2843A89E700204313058025E700603594
:1000F000B757550023264401938757555CC02320EA
:1001000044073CCC1444370600FF37078000F18ECB
:100110001307D732D98E14C47C4CB7D60040F18F68
:10012000D98F7CCC856723AC59279387A7BB37062B
:100130000001B856718F19E3FD17E5FF8947631178
:10014000F90AB7C7004083A7071093F7F7CF37C75F
:100150000040930607102320F710DC52370700FAFF
:100160007D170946F98F01476304C900370700026C
:10017000D98F37C70040DCD293070720904B817599
:10018000FD156D8E90CB3706020090C7A604E4D310
:100190008327071037060001D18F2320F710DC5A80
:1001A000F19BDCDA89472320F720130407207C50D9
:1001B000EDFF0145E70060351C408D8B89CB3C4845
:1001C00093F7F78F3CC81C4093E787001CC0F240B0
:1001D0006244D2444249B249224A924A056182802D
:1001E000B7C7004083A7071093F7F7CF93E707102F
:1001F000B9BF011126CAAA84014522CC4EC606CE3B
:100200004AC8AE893284E7006035B7C7004003A70B
:1002100007200D8B09CF93860720B84A1377F78FF5
:10022000B8CA03A707201367870023A0E72037C9B0
:1002300000409307092023A207064E85E7002043CC
:1002400013058015E70060358947631BF40C83278D
:10025000091093F7F7CF37C7004093060710232004
:10026000F710DC52370700FA7D170946F98F01476E
:100270006304C40037070002D98FDCD2B7D700402F
:10028000BC4B13F707FE89476313F40A83A7C1C168
:10029000FD8BD98F37D700403CCBB7C70040938741
:1002A0000710D84B0946B546137707FC6303C40013
:1002B000AD46558FD8CBD84FB70701FF938707C0FE
:1002C0007D8F89476308F406B70779009387C709CC
:1002D000B7C500405D8F93870510D8CF37575500BD
:1002E000C4C713075755D8C3A4D3B8CF944737050D
:1002F00000FF370680001306D632E98ED18E94C7F0
:10030000F84FF2406244698F518FF8CF854723A0A0
:10031000F52023A801C0D2444249B2490561828038
:100320008327091093F7F7CF93E707102DB783A71B
:1003300081C1B9BFB7077F009387070A51BF00008B
:10034000B7F700E09C4737F700E03E951C47898FE0
:10035000E3CE07FE8280B707FDFFB7C600401387D4
:10036000F7FF83A70610F98F1DC137070200D98F49
:1003700023A0F61037D700401C47B7063300D58FAF
:100380001CC7B7C7004093870720A8CB828041676E
:10039000D98F23A0F610B7D600409C463707CEFF72
:1003A0007D17F98F9CC6F1BF37D700405C43856647
:1003B000938686C7F99BAA965CC383C70600B1667D
:1003C000105F938606F0A207B69781769386F60FA4
:1003D000758ED18F1CDF5C4337060002B706000420
:1003E00093E717005CC3B7C700400967130707F41A
:1003F00093870720F8D3B7C5004037D7004083273D
:100400000709F18F89C783270709F58F89E7938744
:100410000520FC53EDF7B7D7004003A5070983A7D4
:1004200047091375F503A98393F7F707E2075D8D75
:10043000828037D700405C571375F507F59B5CD772
:1004400037C700408327071093F707F8C98F232089
:10045000F710828083C7D1C093F7F70F9DE3B717DA
:1004600000409387070813070004D8D71307000834
:10047000D8D713070040D8D7056713070780D8D708
:10048000828085476312F502B71700401307000406
:1004900023ACE70A85476380F502B71700401307CE
:1004A000000823A6E70A31A8B71700401307000485
:1004B00023A6E70AC5B7B71700401307000823AC07
:1004C000E70A85476309F600B717004013070040A5
:1004D00023A6E70A39A0B71700401307004023AC52
:1004E000E70A85670547938707806387E600371724
:1004F00000402326F70A828037170040232CF70A92
:100500008280938641C19C42138741C101ED8507DA
:100510000D46635CF60023A0060081460546814532
:1005200005452DA8FD1763CE07001CC31C430947D2
:100530006387E702634CF700EDD30547638CE70060
:1005400082808D479CC285460146D1BF0D47E38C12
:10055000E7FE82808146054685450145E5BD854625
:100560000146DDBFB717004093870708D85B498F66
:10057000D8DB9853598D88D38280970100209381CE
:100580002113173100201301E1A71385C1C0938502
:1005900001066377B500232005001105E36DB5FE64
:1005A00013050009970500209385C5A517060020AF
:1005B000130646D063FAC5008322050023A0550028
:1005C00011059105E3EAC5FE170500001305856DC9
:1005D000938541C01386C1C0638AC500832205008C
:1005E00023A0550011059105E3EAC5FE930700001D
:1005F000FD42739002BC89629382828873A00230AC
:1006000097020000938202A093E23200739052306E
:10061000B7F700E0054798C39307C073739017348A
:100620007300203001A02A96AA876393C7008280B6
:100630002380B7008507D5BFB71700409305700525
:100640002380B704130680FA2380C7040100010049
:1006500003C7A700B72600401377F70F13670701FA
:100660002385E7000547A383E68003C756801377F9
:10067000F70F13670701A382E680238007040100B8
:1006800001002380B7042380C70401000100130781
:10069000A0042384E7002380070401000100828076
:1006A0005D7126DCB7C4004022DE138404203AD2F8
:1006B0003ED04ACA0329840058441C442ADA86C61C
:1006C00096C49AC29EC02ED832D636D442CE46CCDC
:1006D00072C876C67AC47EC2F98F1CC41387041010
:1006E0005C5B014513791900F19B93E717005CDB14
:1006F0009D313C4893F7F78F3CC883A7042093E7CC
:10070000870023A0F42063050900054723A8E1C062
:100710007254B640A64216438643E2545255C2551F
:100720003256A256125782577248E2485249424EF8
:10073000B24E224F924F616173002030597186D6BC
:10074000A2D4A6D2CAD0CECED2CCD6CADAC8DEC601
:10075000E2C4E6C2EAC0CD35130500042135130515
:100760000008093513050040F53B856C13850C80A6
:10077000D53B8145814601460145E939B7C6004070
:10078000938706201307C008D8CB13066007D0CF85
:10079000D8D3D8DBF8C3F0C71307C006D8D7D8DF43
:1007A00013078007D8C33707160023AA07043D079D
:1007B000D8C7138A01C223AE47077D5737D40040FC
:1007C00098C7930700481CD41C583707FAFF7D17B9
:1007D000F98F1CD81C583707007037060002D98FD4
:1007E0001CD8585CB70700F9FD177D8F518F58DC76
:1007F0005C5C37070040370902008E078D83D98F74
:100800005CDC3C443707F9FF7D17F98F3CC438485E
:100810007D16514B1377F78F1367073038C87C4C20
:100820003707070013058055D98F7CCC7C4C3707E0
:100830007000938401C2D98F7CCC13870610930774
:10084000C9201CDF930700055CDF5C5BC11CF18FD6
:10085000370600A4D18F5CDB03A70610B7E700E0E2
:100860001377F7CF23A0E610A3896705ED3458402E
:10087000FD76FD161377F7EF58C018541305500294
:10088000758F18D458543D9B58D41C44B3E72701A6
:100890001CC45C4093E707015CC039362A84935A34
:1008A0008501130570020936AA8B135D8501494540
:1008B000E53C137CF50393598501130640022A8910
:1008C0001374F403814568083304844102CCA13BCE
:1008D0003307640393FBFB0393FAFA07137DFD07C9
:1008E00093F9F907B30B7C418147514634083385AE
:1008F000F600B355C7028507018F93964500B3F6FE
:100900009601CD8E2300D500E392C7FE0566814691
:10091000D148411613058002B3D5160338083308B1
:10092000F7008507DE9613974500718F4D8F2300E2
:10093000E800E393A7FE3C08814637D500402946EE
:100940008C43138786020A072A970CC385069107F2
:10095000E398C6FEB38A3A419546B386DA02056645
:10096000B389A94102C602C802CA85479945411602
:10097000780033D5B6023308F7008507B3865641B1
:1009800013174500718F498F2300E800E392B7FEEB
:10099000056601471943930806FF2D45B3556702C5
:1009A00074003388F60085074E9793964500B3F69A
:1009B0001601CD8E2300D800E392A7FEB246B7D72A
:1009C00000401387070834C7C2463705007F3379D4
:1009D000A90074C7D24634CBD843B7060081FD16B0
:1009E0003D9BD8C3D843799BD8C39857518F98D78C
:1009F000D85713670701D8D7985F137707FC336779
:100A0000870198DF985F758F3369270123AC27032F
:100A1000D843C176FD1613670710D8C3B84B758F3E
:100A2000B8CB9847B7062000558F98C7D847B7C6A8
:100A3000004013670701D8C7D843518FD8C3B7C741
:100A400000401307400693870720F8D337D70040AC
:100A500093870620FC5391C78327C70993F7071094
:100A6000E5FBB7D7004013870708544F138781C1B0
:100A7000FD8A14C3B44B4166D18EB4CBB44B104342
:100A8000819AD18EB4CB94473706E0FF7D16F18E64
:100A900094C714437946FD4789066364D6001C4316
:100AA000890723AEF1C0B7D70040B84FC176FD1615
:100AB000758FB8CF9847C1660145558F98C7D847FD
:100AC000B706EFFFFD1613670710D8C7D843B7590D
:100AD0000200758FB7061000558FD8C3AD3837E7C1
:100AE00000E083475741377572001305050E93E701
:100AF00007F893F7F70FA30AF740B7072000232062
:100B0000F7103D389387D1C005472380E70051494E
:100B10001384D1C09389099F0145E5324E857D1923
:100B2000EFF01F82E31A09FE814601468145014527
:100B300023000400053237C70040832707103755CC
:100B40003412054693E707042320F710930550025B
:100B50001305856797F0FF1FE780E060930B0002A5
:100B6000B759341293898967938701C1984329CF74
:100B700023A00700528781479305A00C1305E00FBF
:100B8000834607001306170093F6F60F6398B60026
:100B9000034717001377F70F630CA7068507328703
:100BA000E39077FF8347040093F7F70F91E78146BF
:100BB00001468145014579380546930550024E8529
:100BC00097F0FF1FE780205A8347040093F7F70F41
:100BD000C1DF9387C1C003C507001375F50F153238
:100BE000938741C0884389679387C7D43305F5024B
:100BF000EFF00FF5B5B7938741C0514798C393877E
:100C000041C094430547E34FD7F8094798C359BFFC
:100C1000138727002697834607001387E1C01386B2
:100C2000C1C093F6F60F2300D70093863700A6962F
:100C300083C606009107A69793F6F60F2300D60009
:100C400083C7070093F7F70F2300F40083470700DB
:100C500093F7F70FCDD383470700494793F7F70F73
:100C6000B387E702130710F0B3C7E702138741C049
:100C7000D1071CC369B70000010203040506070879
:100C8000090A0C0D0E0F101112131415161718194E
:100C90001A1B1C1D1E1F20212223242526000B2782
:080CA000140000000000000038
:00000001FF
