:100000006F00405300000000DE050000DE05000028
:10001000A9BDF9F3DE0500000000000000000000AB
:10002000DE050000DE05000000000000000000000A
:10003000DE05000000000000DE05000000000000FA
:10004000DE050000DE050000DE050000DE05000024
:10005000DE0500005A060000DE050000000000007A
:10006000DE050000DE050000DE050000DE05000004
:10007000DE050000DE050000DE050000DE050000F4
:10008000DE050000DE050000DE050000DE050000E4
:10009000938701C503C71700BA970385470082807D
:1000A000938701C503C71700BA9703C5570011818D
:1000B000134515000589828001114EC6B7C900405D
:1000C00022CC138409105C5806CE26CAF19B93E714
:1000D00017004AC852C456C22A8A5CD83685AE8AEE
:1000E000B2843A89E700C04113058025E700003457
:1000F000B757550023264401938757555CC02320EA
:1001000044073CCC1444370600FF37078000F18ECB
:100110001307D732D98E14C47C4CB7D60040F18F68
:10012000D98F7CCC856723AC59279387A7BB37062B
:100130000001B856718F19E3FD17E5FF8947631178
:10014000F90AB7C7004083A7071093F7F7CF37C75F
:100150000040930607102320F710DC52370700FAFF
:100160007D170946F98F01476304C900370700026C
:10017000D98F37C70040DCD293070720904B817599
:10018000FD156D8E90CB3706020090C7A604E4D310
:100190008327071037060001D18F2320F710DC5A80
:1001A000F19BDCDA89472320F720130407207C50D9
:1001B000EDFF0145E70000341C408D8B89CB3C48A6
:1001C00093F7F78F3CC81C4093E787001CC0F240B0
:1001D0006244D2444249B249224A924A056182802D
:1001E000B7C7004083A7071093F7F7CF93E707102F
:1001F000B9BF011126CAAA84014522CC4EC606CE3B
:100200004AC8AE893284E7000034B7C7004003A76C
:1002100007200D8B09CF93860720B84A1377F78FF5
:10022000B8CA03A707201367870023A0E72037C9B0
:1002300000409307092023A207064E85E700C0412E
:1002400013058015E70000348947631BF40C8327EE
:10025000091093F7F7CF37C7004093060710232004
:10026000F710DC52370700FA7D170946F98F01476E
:100270006304C40037070002D98FDCD2B7D700402F
:10028000BC4B13F707FE89476313F40A83A7C1C465
:10029000FD8BD98F37D700403CCBB7C70040938741
:1002A0000710D84B0946B546137707FC6303C40013
:1002B000AD46558FD8CBD84FB70701FF938707C0FE
:1002C0007D8F89476308F406B70779009387C709CC
:1002D000B7C500405D8F93870510D8CF37575500BD
:1002E000C4C713075755D8C3A4D3B8CF944737050D
:1002F00000FF370680001306D632E98ED18E94C7F0
:10030000F84FF2406244698F518FF8CF854723A0A0
:10031000F52023A201C4D2444249B249056182803A
:100320008327091093F7F7CF93E707102DB783A71B
:1003300081C4B9BFB7077F009387070A51BF000088
:10034000B707FDFFB7C600401387F7FF83A7061066
:10035000F98F1DC137070200D98F23A0F61037D7B8
:1003600000401C47B7063300D58F1CC7B7C70040F5
:1003700093870720A8CB82804167D98F23A0F610EE
:10038000B7D600409C463707CEFF7D17F98F9CC635
:10039000F1BF37D700405C438566938646C7F99B1B
:1003A000AA965CC383C70600B166105F938606F009
:1003B000A207B69781769386F60F758ED18F1CDFD4
:1003C0005C4337060002B706000493E717005CC3DE
:1003D000B7C700400967130707F493870720F8D3CE
:1003E000B7C5004037D7004083270709F18F89C779
:1003F00083270709F58F89E793870520FC53EDF7DD
:10040000B7D7004003A5070983A747091375F5036C
:10041000A98393F7F707E2075D8D828037D7004005
:100420005C571375F507F59B5CD737C700408327EA
:10043000071093F707F8C98F2320F71082808347AE
:10044000650191EF1841B717004093870708D8D787
:100450005841D8D71845D8D75845D8D78280834730
:1004600045019306800C99CB1307400BB387E70235
:10047000130710F0B3C7E7029386870C184D0507E2
:100480006374D70018CD828003475501232C0500E3
:100490001C4915E385070D476352F7022328050021
:1004A0001841B71700409387070898DF5841D8D7FD
:1004B000184598DF55B7FD1763CE07001CC91C49C6
:1004C00009476381E7046342F702F9DB054763826A
:1004D000E70282808D471CC91841B71700409387F7
:1004E000070898DF5841D8D735A00D47E386E7FEC7
:1004F00082801841B717004093870708D8D7584122
:1005000098DF7DB71841B717004093870708D8D701
:10051000584198DF1845D8D7584598DFD1BFB7174D
:10052000004093870708D85B498FD8DB9853598DD3
:1005300088D3828097010020938181171731002092
:10054000130141AC138541C4938501096377B5005C
:10055000232005001105E36DB5FE1305000997057D
:100560000020938525AA170600201306A6D463FA57
:10057000C5008322050023A0550011059105E3EA7B
:10058000C5FE170500001305A571938541C01386AC
:1005900041C4638AC5008322050023A055001105CC
:1005A0009105E3EAC5FE93070000FD42739002BC8B
:1005B00089629382828873A002309702000093823E
:1005C00062A493E2320073905230B7F700E005471F
:1005D00098C39307606F739017347300203001A0A5
:1005E0002A96AA876393C70082802380B700850775
:1005F000D5BFB7170040930570052380B7041306D5
:1006000080FA2380C7040100010003C7A700B726B2
:1006100000401377F70F136707012385E7000547AD
:10062000A383E68003C756801377F70F136707018C
:10063000A382E68023800704010001002380B70421
:100640002380C704010001001307A0042384E700EE
:10065000238007040100010082805D7126DCB7C49D
:10066000004022DE138404203AD23ED04ACA032935
:10067000840058441C442ADA86C696C49AC29EC096
:100680002ED832D636D442CE46CC72C876C67AC47C
:100690007EC2F98F1CC4138704105C5B014513797B
:1006A0001900F19B93E717005CDB59393C4893F73D
:1006B000F78F3CC883A7042093E7870023A0F4208A
:1006C00063050900054723A2E1C47254B640A6425F
:1006D00016438643E2545255C2553256A25612571B
:1006E00082577248E2485249424EB24E224F924FD0
:1006F000616173002030757106C722C526C34AC1E7
:10070000CEDED2DCD6DADAD8DED6E2D4E6D2EAD051
:10071000EECEC53513050004193513050008013563
:1007200013050040ED3B856B13850B80CD3B1145D8
:10073000FD332145ED334145DD3313050002C5335B
:10074000138741C01443B717004093870708D4D7D5
:10075000544313066007D4D71447138A01C5D4D76E
:10076000584737D40040B7090200D8D7138741C291
:100770001443D14A13058055D4D75443138D41C037
:10078000938C41C2D4D71447938D01C5C11BD4D7D4
:100790005847B7C60040D8D7938706201307C0082C
:1007A000D8CBD0CFD8D3D8DBF8C3F0C71307C00657
:1007B000D8D7D8DF13078007D8C33707160023AA76
:1007C00007043D07D8C723AE47077D5798C793074F
:1007D00000481CD41C583707FAFF7D17F98F1CD826
:1007E0001C583707007037060002D98F1CD8585C98
:1007F000B70700F9FD177D8F518F58DC5C5C370718
:1008000000407D168E078D83D98F5CDC3C44370712
:10081000F9FF7D17F98F3CC438481377F78F1367BA
:10082000073038C87C4C37070700D98F7CCC7C4C0C
:1008300037077000D98F7CCC138706109387C920A7
:100840001CDF930700055CDF5C5BF18F370600A4BB
:10085000D18F5CDB03A70610B7E700E01377F7CF73
:1008600023A0E610A3895705E13C5840FD76FD160C
:100870001377F7EF58C0185413055002758F18D42A
:1008800058543D9B58D41C44B3E737011CC45C400A
:1008900093E707015CC0F53C9358850193F8F8078E
:1008A000AA891305700246C6ED34135385011373EC
:1008B000F3072A8B49451AC4E93C9356850193F600
:1008C000F6071374F50381452A8C93F9F90313068F
:1008D0004002681036C2B389894002D4113333878D
:1008E0005903B24822439246137BFB03330B644106
:1008F0008147D1453010330EF6003355B7028507D6
:10090000330737411316450033767601498E2300AD
:10091000CE00E391B7FE85650146514FC115130E18
:1009200080023355E6033810B30EF70085075A9658
:10093000131745006D8F498F2380EE00E393C7FFA7
:100940003C10014637DE0040A94588431307860264
:100950000A07729708C305069107E318B6FEB38825
:10096000D84015473387E8028565B386664002CED6
:1009700002D002D285471945C1157008335EA7021F
:100980003303F60085073307174113164E006D8EAB
:100990003366C6012300C300E391A7FE05668145C7
:1009A000994E130E06FFAD4833D5D50378083303AF
:1009B000F7008507B695131745003377C701498FB0
:1009C0002300E300E39217FFF246B7D700401387F6
:1009D000070834C7825674C7925634CBD843C176C1
:1009E000FD163D9BD8C3D843799BD8C39857518FE8
:1009F00098D7D85713670701D8D7985F137707FCA4
:100A00003368870023AC0703885F370700817D17B1
:100A1000698F3705007F3375AC00598D88DFD84367
:100A200013670710D8C3B84B758FB8CB9847B70674
:100A30002000558F98C7D847B7C6004013670701F5
:100A4000D8C7D843518FD8C3B7C700401307400653
:100A500093870720F8D337D7004093870620FC53AD
:100A600091C78327C70993F70710E5FBB7D7004065
:100A700013870708544F138781C4FD8A14C3B44BEE
:100A80004166D18EB4CBB44B1043819AD18EB4CB96
:100A900094473706E0FF7D16F18E94C714437946DC
:100AA000FD4789066364D6001C43890723A6F1C469
:100AB000B7D70040B84FC176FD16758FB8CF9847AD
:100AC000C1660145558F98C7D847B706EFFFFD1699
:100AD00013670710D8C7D8439309401FB7FA00E03F
:100AE000758FB7061000558FD8C3993837E700E0E7
:100AF0008347574193E707F893F7F70FA30AF740A7
:100B0000B70720002320F710054793074006230B63
:100B1000ED00230AFD00238BEC00238AFC001385E3
:100B200041C0313A138541C2193A03A78A0013071D
:100B3000C72B83A78A00998FE3CD07FEFD19E390A9
:100B400009FE03270D00B7170040230B0D00238B70
:100B50000C0093870708D8D703274D00B7593412E4
:100B600013858967D8D703278D0005469305500262
:100B7000D8D70327CD00930BE00FD8D703A70C00DD
:100B8000130C000293898967D8D703A74C00B7FAE2
:100B900000E0D8D703A78C00D8D703A7CC00D8D7BC
:100BA00037C700408327071093E707042320F71077
:100BB00097F0FF1FE780205B938741C4984329C3C8
:100BC00023A00700528781479305A00C83460700A6
:100BD0001306170093F6F60F6398B6000347170045
:100BE0001377F70F630E770385073287E39087FF4C
:100BF0000546930550024E8597F0FF1FE780A056EB
:100C0000138541C02D38138541C2153803A78A00CA
:100C10001307C72B83A78A00998FE3CD07FE69BF0F
:100C2000138727006E9703470700230AED001387F9
:100C300037006E9703470700A30AED0013874700AC
:100C40006E9703470700230BED00138757006E973D
:100C500003470700238AEC00138767009D076E9700
:100C6000EE970347070083C70700A38AEC00238B96
:100C7000FC00BDBF0102030405060708090A0C0DAC
:100C80000E0F101112131415161718191A1B1C1D0C
:0C0C90001E1F20212223242526000B27F4
:100C9C00400000008000000000040000000800007C
:100CAC000000000000000000000000000000000038
:100CBC0004000000080000001000000020000000EC
:100CCC000000000000000000000000000000000018
:00000001FF
