:100000006F00A06B000000003E0700003E070000EC
:10001000A9BDF9F33E070000000000000000000049
:100020003E0700003E070000000000000000000046
:100030003E070000000000003E0700000000000036
:100040003E0700003E0700003E0700003E0700009C
:100050003E0700003A0B00003E07000000000000D1
:100060003E0700003E0700003E0700003E0700007C
:10007000C80B00003E0700003E0700003E070000DE
:100080003E0700003E0700003E0700003E0700005C
:10009000B716004083D786031397070183D7A603BB
:1000A0004183C207D98F3E95B707C0A863F5A70063
:1000B000B70740573E95B7170040130770052380D8
:1000C000E704130780FA2380E70401000100C8DB7E
:1000D00023800704010001008280B707FDFFB7C637
:1000E00000401387F7FF83A70610F98F1DC137075C
:1000F0000200D98F23A0F61037D700401C47B7065F
:100100003300D58F1CC7B7C7004093870720A8CB03
:1001100082804167D98F23A0F610B7D600409C4655
:100120003707CEFF7D17F98F9CC6F1BF37D7004048
:100130005C438566938646C0F99BAA965CC383C7D9
:100140000600B166105F938606F0A207B697817627
:100150009386F60F758ED18F1CDF5C433706000245
:10016000B706000493E717005CC3B7C700400967F0
:10017000130707F493870720F8D3B7C5004037D794
:10018000004083270709F18F89C783270709F58F67
:1001900089E793870520FC53EDF7B7D7004003A507
:1001A000070983A747091375F503A98393F7F70791
:1001B000E2075D8D82805971B7C6004086D6A2D411
:1001C000A6D2CAD0CECED2CCD6CADAC8DEC69387E3
:1001D00006201307C008D8CB13066007D0CFD8D3AA
:1001E000D8DBF8C3F0C71307C006D8D7D8DF13078A
:1001F0008007D8C33707160023AA07043D07D8C7CE
:100200001387C1C2F8DF7D5737D4004098C79307E2
:1002100000481CD41C583707FAFF7D17F98F1CD8EB
:100220001C583707007037060002D98F1CD8585C5D
:10023000B70700F9FD177D8F518F58DC5C5C3707DD
:100240000040B70402008E078D83D98F5CDC3C44EC
:100250003707F9FF7D17F98F3CC438487D16D1491F
:100260001377F78F1367073038C87C4C37070700C0
:1002700013058055D98F7CCC7C4C37077000D98F03
:100280007CCC138706109387C4201CDF93070005DE
:100290005CDF5C5BF18F370600A4D18F5CDB03A7CA
:1002A0000610B7E700E01377F7CF23A0E610A38985
:1002B000370525355840FD76FD161377F7EF58C002
:1002C000185413055002758F18D458543D9B58D4B8
:1002D0001C44C58F1CC45C4093E707015CC0B93562
:1002E000135785012A8413057002137BF7073D3DE0
:1002F000135985012A8A4945153D937AF50313065A
:1003000040028145937BF907AA8413598501137430
:10031000F40368083304544102CC2529330734031D
:10032000137AFA0305661379F907338A4A4181473C
:10033000D145411634083388F6003355B702850796
:10034000018F93164500F18EC98E2300D800E393E8
:10035000B7FE05668146D148411613058002B3D524
:10036000160338083308F7008507D296139745001F
:10037000718F4D8F2300E800E393A7FE3C08814670
:1003800037D5004029468C43138786020A072A97EF
:100390000CC385069107E398C6FE33072B419546AB
:1003A000B306D70285653309794102C602C802CA7D
:1003B00085471945C115700033D8A602B308F60069
:1003C0008507998E131648006D8E336606012380CB
:1003D000C800E392A7FE056601471943930806FF8C
:1003E0002D45B355670274003388F60085074A9798
:1003F00093964500B3F61601CD8E2300D800E39204
:10040000A7FEB246B7D700401387070834C7C246D5
:100410003705007FE98C74C7D24634CBD843B70682
:100420000081FD163D9BD8C3D843799BD8C398570C
:10043000518F98D7D85713670701D8D7985F13778C
:1004400007FC3367570198DF985F758FD98C84DF7D
:10045000D843C176FD1613670710D8C3B84B758F04
:10046000B8CB9847B7062000558F98C7D847B7C66E
:10047000004013670701D8C7D843518FD8C3B7C707
:1004800000401307400693870720F8D337D7004072
:1004900093870620FC5391C78327C70993F707105A
:1004A000E5FBB7D7004013870708544F138741C2B5
:1004B000FD8A14C3B44B4166D18EB4CBB44B104308
:1004C000819AD18EB4CB94473706E0FF7D16F18E2A
:1004D00094C714437946FD4789066364D6001C43DC
:1004E000890723A4F1C2B7D70040B84FC176FD16E3
:1004F000758FB8CF9847C1660145558F98C7D847C3
:10050000B706EFFFFD1613670710D8C7D843758FDE
:10051000B7061000558FD8C3C93637E700E08347C8
:10052000574193E707F893F7F70FA30AF740B65040
:100530002654B70720002320F71096540659F64991
:10054000664AD64A464BB64B656182804111130517
:10055000004206C6353EB7F700E0938707D0984BB8
:100560006D9B98CB984B5D9B98CB7300501001000E
:100570000100B24041018280411122C426C24AC01A
:1005800006C61304F5FFB71400407D5983A7C40ABB
:1005900093E7072023A6F40A553F83A7840A93E72D
:1005A000072023A4F40A11C055377D14E31024FF5B
:1005B000B24022449244024941018280B70700E0E0
:1005C00083A707348280370700E083270734397117
:1005D00006DE22DC26DA4AD84ED652D456D25AD07B
:1005E0005ECE62CC66CA93F7070C9306000C638A52
:1005F000D70A02C62E84C5E98327073489C793F733
:10060000070891E3653FF25022856254D254425963
:10061000B259225A925A025BF24B624CD24C21617F
:100620008280B30C9440668963D39A011D49930775
:100630001B0003270A3493060A341376070821EEB9
:1006400011C3AD3F014663D49B011306D9FF9385C7
:100650003400CE9568003922B247338799002322AF
:10066000FA3481470346070085077400BE9623804D
:10067000C6006305F9000507E39687FF9307490065
:1006800093E707F82306F100B247CA942320FA340F
:10069000E3C984F88DBFFD17C9FF9C4293E7070C9F
:1006A0009CC201448DB7AA8981449D4A370B100032
:1006B000370A00E0894B0D4CE1BF97010020938180
:1006C00021D4173100201301E193138501C29385D2
:1006D000C1066377B500232005001105E36DB5FE63
:1006E000170500001305C554938541C0138601C248
:1006F000638AC5008322050023A0550011059105DA
:10070000E3EAC5FE93070000FD42739002BC8962D4
:100710009382828873A00230970200009382828EB7
:1007200093E2320073905230B7F700E0054798C368
:10073000856793874782739017347300203001A038
:10074000AA8703C7070001E73385A7408280850792
:10075000CDBF2A96AA876393C70082802380B70003
:100760008507D5BF81476313F60082803387F50084
:10077000834607003307F50085072300D700E5B758
:10078000411106C622C426C2AA845D3F2A84AA85D6
:100790002685153D05658545130545BE2D35B240B9
:1007A000130514002244924441018280B71700408F
:1007B000930570052380B704130680FA2380C704CD
:1007C0000100010003C7A700B72600401377F70F09
:1007D000136707012385E7000547A383E68003C766
:1007E00056801377F70F13670701A382E6802380F3
:1007F0000704010001002380B7042380C70401001F
:1008000001001307A0042384E700238007040100EC
:100810000100B70700E023A207341307000823A054
:10082000E73482801D71A2CC86CEA6CACAC8CEC6C5
:10083000D2C4D6C2DAC05EDE62DC66DA6AD86ED6B0
:100840008010AD37B7170040130670052380C7042A
:10085000930680FA2380D7040100010003C7F70242
:100860001377F70F13671700A387E70223800704A6
:10087000010001002380C7042380D7040100010088
:1008800023AA0702985B1367070898DB985B136736
:10089000070498DB03C717031377F70F13670702E3
:1008A000A388E70223800704010001002380C70416
:1008B0002380D7040100010003C717031377F70F44
:1008C00013670702A388E70203C7E7001377F70F50
:1008D000136787002387E7002380070401000100D6
:1008E000B706001037E700E02320D71023A0070A3F
:1008F00023AA070A7D579387070898DBD85B37C977
:10090000898E1377F7DFD8DB9853B7595500370A2C
:1009100080001367072098D379381545B1390565EC
:10092000130585BE856BA93D938AC1C1130969ED85
:1009300093895955130ADA32138C2B3037DB004078
:10094000814D37C6004093040610D858B387BA01CA
:1009500083C60700719B13671700D8D88327CB0283
:1009600013F7F60713058025F59B2326FB02832743
:1009700006100A8D93F707F8D98F2320F610EFF0B1
:10098000CFF523A6240123A2340123A0240723ACFE
:1009900034059844B70600FF4D46758F336747010D
:1009A00098C4FC4C938541C01305A4FAF58FB3E7B6
:1009B0004701FCCC231484FB753337C600409307F2
:1009C0000620130784FAB8DFB70600019387ABBB94
:1009D00003278B06758F19E3FD17FDFBB7C5004094
:1009E00083A7051013870510B70600FA93F7F7CF12
:1009F00093E7071023A0F5105C53FD160176F58FE1
:100A0000B7060002D58F5CD393870520944B7D16E3
:100A1000F18E94CBB706020094C789669386066070
:100A2000F4D383A70510B7060001D58F23A0F510D6
:100A30005C5BF19B5CDB894723A0F520B7C70040D6
:100A400093840720FC50FDFB0145EFF00FE99C402B
:100A50008D8B89CBBC4893F7F78FBCC89C4093E73C
:100A600087009CC0850D8D476A81E39CFDEC09657C
:100A700013050558EFF0CFE1B71700409305700557
:100A80002380B704130680FA2380C7040100010005
:100A90001307A0042384E70023800704010001005A
:100AA00037F700E0130707D0144B93E6460014CB4A
:100AB0002380B7042380C7040100010083C6F70028
:100AC00093E606FC93F6F60FA387D700E176F906C6
:100AD0002390D70283C6B70493F6F60F93E6060277
:100AE000A385D70423800704010001001C4BDD9B74
:100AF0001CCB730050100100010093071019010076
:100B0000FD17C207C183E5FFB71700401307700543
:100B10002380E704130780FA2380E7040100010023
:100B20001307A0042384E7002380070401000100C9
:100B3000EFF06FE80545893421B55D7126DCB7C457
:100B4000004022DE138404203AD23ED058441C4494
:100B50002ADA86C696C49AC29EC02ED832D636D419
:100B600042CE46CC72CA76C87AC67EC4F98F1CC4FF
:100B7000138704105C5B0145F19B93E717005CDB76
:100B8000EFF0AFD53C480547B64093F7F78F3CC828
:100B900083A704207254A64293E7870023A0F42081
:100BA00023A0E1C216438643E2545255C255325641
:100BB000A256125782577248E248524EC24E324FE6
:100BC000A24F61617300203041113AC63EC4130741
:100BD0000002B71700402388E7023247A2474101CD
:100BE000730020300A0000002E7E206368333266D6
:100BF000756E20424C4520626561636F6E207E2ECB
:100C0000000000000102030405060708090A0C0D94
:100C10000E0F101112131415161718191A1B1C1D7C
:0C0C20001E1F20212223242526000B2764
:100C2C0066554433221103190000080963683332F6
:0C0C3C0066756E000000000025262700F1
:00000001FF
